{
  "address": "0xa8cD79ec35d7c1efBc5D0dea82B8802858d2Bed5",
  "abi": [
    {
      "anonymous": false,
      "inputs": [
        {
          "indexed": true,
          "internalType": "uint256",
          "name": "pid",
          "type": "uint256"
        },
        {
          "indexed": false,
          "internalType": "uint256",
          "name": "allocPoint",
          "type": "uint256"
        },
        {
          "indexed": false,
          "internalType": "uint256",
          "name": "veJoeShareBp",
          "type": "uint256"
        },
        {
          "indexed": true,
          "internalType": "contract IERC20",
          "name": "lpToken",
          "type": "address"
        },
        {
          "indexed": true,
          "internalType": "contract IRewarder",
          "name": "rewarder",
          "type": "address"
        }
      ],
      "name": "Add",
      "type": "event"
    },
    {
      "anonymous": false,
      "inputs": [
        {
          "indexed": true,
          "internalType": "address",
          "name": "user",
          "type": "address"
        },
        {
          "indexed": true,
          "internalType": "uint256",
          "name": "pid",
          "type": "uint256"
        },
        {
          "indexed": false,
          "internalType": "uint256",
          "name": "amount",
          "type": "uint256"
        }
      ],
      "name": "Deposit",
      "type": "event"
    },
    {
      "anonymous": false,
      "inputs": [
        {
          "indexed": true,
          "internalType": "address",
          "name": "user",
          "type": "address"
        },
        {
          "indexed": true,
          "internalType": "uint256",
          "name": "pid",
          "type": "uint256"
        },
        {
          "indexed": false,
          "internalType": "uint256",
          "name": "amount",
          "type": "uint256"
        }
      ],
      "name": "EmergencyWithdraw",
      "type": "event"
    },
    {
      "anonymous": false,
      "inputs": [
        {
          "indexed": true,
          "internalType": "address",
          "name": "user",
          "type": "address"
        },
        {
          "indexed": true,
          "internalType": "uint256",
          "name": "pid",
          "type": "uint256"
        },
        {
          "indexed": false,
          "internalType": "uint256",
          "name": "amount",
          "type": "uint256"
        }
      ],
      "name": "Harvest",
      "type": "event"
    },
    {
      "anonymous": false,
      "inputs": [
        {
          "indexed": false,
          "internalType": "uint256",
          "name": "amount",
          "type": "uint256"
        }
      ],
      "name": "Init",
      "type": "event"
    },
    {
      "anonymous": false,
      "inputs": [
        {
          "indexed": true,
          "internalType": "address",
          "name": "previousOwner",
          "type": "address"
        },
        {
          "indexed": true,
          "internalType": "address",
          "name": "newOwner",
          "type": "address"
        }
      ],
      "name": "OwnershipTransferred",
      "type": "event"
    },
    {
      "anonymous": false,
      "inputs": [
        {
          "indexed": true,
          "internalType": "uint256",
          "name": "pid",
          "type": "uint256"
        },
        {
          "indexed": false,
          "internalType": "uint256",
          "name": "allocPoint",
          "type": "uint256"
        },
        {
          "indexed": false,
          "internalType": "uint256",
          "name": "veJoeShareBp",
          "type": "uint256"
        },
        {
          "indexed": true,
          "internalType": "contract IRewarder",
          "name": "rewarder",
          "type": "address"
        },
        {
          "indexed": false,
          "internalType": "bool",
          "name": "overwrite",
          "type": "bool"
        }
      ],
      "name": "Set",
      "type": "event"
    },
    {
      "anonymous": false,
      "inputs": [
        {
          "indexed": true,
          "internalType": "uint256",
          "name": "pid",
          "type": "uint256"
        },
        {
          "indexed": false,
          "internalType": "uint256",
          "name": "lastRewardTimestamp",
          "type": "uint256"
        },
        {
          "indexed": false,
          "internalType": "uint256",
          "name": "lpSupply",
          "type": "uint256"
        },
        {
          "indexed": false,
          "internalType": "uint256",
          "name": "accJoePerShare",
          "type": "uint256"
        },
        {
          "indexed": false,
          "internalType": "uint256",
          "name": "accJoePerFactorPerShare",
          "type": "uint256"
        }
      ],
      "name": "UpdatePool",
      "type": "event"
    },
    {
      "anonymous": false,
      "inputs": [
        {
          "indexed": true,
          "internalType": "address",
          "name": "user",
          "type": "address"
        },
        {
          "indexed": true,
          "internalType": "uint256",
          "name": "pid",
          "type": "uint256"
        },
        {
          "indexed": false,
          "internalType": "uint256",
          "name": "amount",
          "type": "uint256"
        }
      ],
      "name": "Withdraw",
      "type": "event"
    },
    {
      "inputs": [],
      "name": "JOE",
      "outputs": [
        {
          "internalType": "contract IERC20",
          "name": "",
          "type": "address"
        }
      ],
      "stateMutability": "view",
      "type": "function"
    },
    {
      "inputs": [],
      "name": "MASTER_CHEF_V2",
      "outputs": [
        {
          "internalType": "contract IMasterChefJoe",
          "name": "",
          "type": "address"
        }
      ],
      "stateMutability": "view",
      "type": "function"
    },
    {
      "inputs": [],
      "name": "MASTER_PID",
      "outputs": [
        {
          "internalType": "uint256",
          "name": "",
          "type": "uint256"
        }
      ],
      "stateMutability": "view",
      "type": "function"
    },
    {
      "inputs": [],
      "name": "VEJOE",
      "outputs": [
        {
          "internalType": "contract IERC20",
          "name": "",
          "type": "address"
        }
      ],
      "stateMutability": "view",
      "type": "function"
    },
    {
      "inputs": [
        {
          "internalType": "uint96",
          "name": "_allocPoint",
          "type": "uint96"
        },
        {
          "internalType": "uint32",
          "name": "_veJoeShareBp",
          "type": "uint32"
        },
        {
          "internalType": "contract IERC20",
          "name": "_lpToken",
          "type": "address"
        },
        {
          "internalType": "contract IRewarder",
          "name": "_rewarder",
          "type": "address"
        }
      ],
      "name": "add",
      "outputs": [],
      "stateMutability": "nonpayable",
      "type": "function"
    },
    {
      "inputs": [
        {
          "internalType": "uint256",
          "name": "",
          "type": "uint256"
        },
        {
          "internalType": "address",
          "name": "",
          "type": "address"
        }
      ],
      "name": "claimableJoe",
      "outputs": [
        {
          "internalType": "uint256",
          "name": "",
          "type": "uint256"
        }
      ],
      "stateMutability": "view",
      "type": "function"
    },
    {
      "inputs": [
        {
          "internalType": "uint256",
          "name": "_pid",
          "type": "uint256"
        },
        {
          "internalType": "uint256",
          "name": "_amount",
          "type": "uint256"
        }
      ],
      "name": "deposit",
      "outputs": [],
      "stateMutability": "nonpayable",
      "type": "function"
    },
    {
      "inputs": [
        {
          "internalType": "uint256",
          "name": "_pid",
          "type": "uint256"
        }
      ],
      "name": "emergencyWithdraw",
      "outputs": [],
      "stateMutability": "nonpayable",
      "type": "function"
    },
    {
      "inputs": [],
      "name": "harvestFromMasterChef",
      "outputs": [],
      "stateMutability": "nonpayable",
      "type": "function"
    },
    {
      "inputs": [
        {
          "internalType": "contract IERC20",
          "name": "_dummyToken",
          "type": "address"
        }
      ],
      "name": "init",
      "outputs": [],
      "stateMutability": "nonpayable",
      "type": "function"
    },
    {
      "inputs": [
        {
          "internalType": "contract IMasterChefJoe",
          "name": "_MASTER_CHEF_V2",
          "type": "address"
        },
        {
          "internalType": "contract IERC20",
          "name": "_joe",
          "type": "address"
        },
        {
          "internalType": "contract IERC20",
          "name": "_veJoe",
          "type": "address"
        },
        {
          "internalType": "uint256",
          "name": "_MASTER_PID",
          "type": "uint256"
        }
      ],
      "name": "initialize",
      "outputs": [],
      "stateMutability": "nonpayable",
      "type": "function"
    },
    {
      "inputs": [],
      "name": "joePerSec",
      "outputs": [
        {
          "internalType": "uint256",
          "name": "amount",
          "type": "uint256"
        }
      ],
      "stateMutability": "view",
      "type": "function"
    },
    {
      "inputs": [],
      "name": "massUpdatePools",
      "outputs": [],
      "stateMutability": "nonpayable",
      "type": "function"
    },
    {
      "inputs": [],
      "name": "owner",
      "outputs": [
        {
          "internalType": "address",
          "name": "",
          "type": "address"
        }
      ],
      "stateMutability": "view",
      "type": "function"
    },
    {
      "inputs": [
        {
          "internalType": "uint256",
          "name": "_pid",
          "type": "uint256"
        },
        {
          "internalType": "address",
          "name": "_user",
          "type": "address"
        }
      ],
      "name": "pendingTokens",
      "outputs": [
        {
          "internalType": "uint256",
          "name": "pendingJoe",
          "type": "uint256"
        },
        {
          "internalType": "address",
          "name": "bonusTokenAddress",
          "type": "address"
        },
        {
          "internalType": "string",
          "name": "bonusTokenSymbol",
          "type": "string"
        },
        {
          "internalType": "uint256",
          "name": "pendingBonusToken",
          "type": "uint256"
        }
      ],
      "stateMutability": "view",
      "type": "function"
    },
    {
      "inputs": [
        {
          "internalType": "uint256",
          "name": "",
          "type": "uint256"
        }
      ],
      "name": "poolInfo",
      "outputs": [
        {
          "internalType": "contract IERC20",
          "name": "lpToken",
          "type": "address"
        },
        {
          "internalType": "uint96",
          "name": "allocPoint",
          "type": "uint96"
        },
        {
          "internalType": "uint256",
          "name": "accJoePerShare",
          "type": "uint256"
        },
        {
          "internalType": "uint256",
          "name": "accJoePerFactorPerShare",
          "type": "uint256"
        },
        {
          "internalType": "uint64",
          "name": "lastRewardTimestamp",
          "type": "uint64"
        },
        {
          "internalType": "contract IRewarder",
          "name": "rewarder",
          "type": "address"
        },
        {
          "internalType": "uint32",
          "name": "veJoeShareBp",
          "type": "uint32"
        },
        {
          "internalType": "uint256",
          "name": "totalFactor",
          "type": "uint256"
        },
        {
          "internalType": "uint256",
          "name": "totalLpSupply",
          "type": "uint256"
        }
      ],
      "stateMutability": "view",
      "type": "function"
    },
    {
      "inputs": [],
      "name": "poolLength",
      "outputs": [
        {
          "internalType": "uint256",
          "name": "pools",
          "type": "uint256"
        }
      ],
      "stateMutability": "view",
      "type": "function"
    },
    {
      "inputs": [],
      "name": "renounceOwnership",
      "outputs": [],
      "stateMutability": "nonpayable",
      "type": "function"
    },
    {
      "inputs": [
        {
          "internalType": "uint256",
          "name": "_pid",
          "type": "uint256"
        },
        {
          "internalType": "uint96",
          "name": "_allocPoint",
          "type": "uint96"
        },
        {
          "internalType": "uint32",
          "name": "_veJoeShareBp",
          "type": "uint32"
        },
        {
          "internalType": "contract IRewarder",
          "name": "_rewarder",
          "type": "address"
        },
        {
          "internalType": "bool",
          "name": "_overwrite",
          "type": "bool"
        }
      ],
      "name": "set",
      "outputs": [],
      "stateMutability": "nonpayable",
      "type": "function"
    },
    {
      "inputs": [],
      "name": "totalAllocPoint",
      "outputs": [
        {
          "internalType": "uint256",
          "name": "",
          "type": "uint256"
        }
      ],
      "stateMutability": "view",
      "type": "function"
    },
    {
      "inputs": [
        {
          "internalType": "address",
          "name": "newOwner",
          "type": "address"
        }
      ],
      "name": "transferOwnership",
      "outputs": [],
      "stateMutability": "nonpayable",
      "type": "function"
    },
    {
      "inputs": [
        {
          "internalType": "address",
          "name": "_user",
          "type": "address"
        },
        {
          "internalType": "uint256",
          "name": "_newVeJoeBalance",
          "type": "uint256"
        }
      ],
      "name": "updateFactor",
      "outputs": [],
      "stateMutability": "nonpayable",
      "type": "function"
    },
    {
      "inputs": [
        {
          "internalType": "uint256",
          "name": "_pid",
          "type": "uint256"
        }
      ],
      "name": "updatePool",
      "outputs": [],
      "stateMutability": "nonpayable",
      "type": "function"
    },
    {
      "inputs": [
        {
          "internalType": "uint256",
          "name": "",
          "type": "uint256"
        },
        {
          "internalType": "address",
          "name": "",
          "type": "address"
        }
      ],
      "name": "userInfo",
      "outputs": [
        {
          "internalType": "uint256",
          "name": "amount",
          "type": "uint256"
        },
        {
          "internalType": "uint256",
          "name": "rewardDebt",
          "type": "uint256"
        },
        {
          "internalType": "uint256",
          "name": "factor",
          "type": "uint256"
        }
      ],
      "stateMutability": "view",
      "type": "function"
    },
    {
      "inputs": [
        {
          "internalType": "uint256",
          "name": "_pid",
          "type": "uint256"
        },
        {
          "internalType": "uint256",
          "name": "_amount",
          "type": "uint256"
        }
      ],
      "name": "withdraw",
      "outputs": [],
      "stateMutability": "nonpayable",
      "type": "function"
    }
  ],
  "transactionHash": "0xd244848ccc79738713538ff7315338dcc59bd55f19ab85f8c1c9690baf33f6fa",
  "args": [],
  "numDeployments": 1,
  "solcInputHash": "b7a3f4918031d275820f67bab6047811",
  "bytecode": "0x608060405234801561001057600080fd5b5061348d806100206000396000f3fe608060405234801561001057600080fd5b50600436106101735760003560e01c8063630b5ba1116100de578063cf756fdf11610097578063e76fdb7e11610071578063e76fdb7e146102ed578063f2fde38b146102f5578063ffcd426314610308578063ffebad301461032b57610173565b8063cf756fdf146102b4578063d00ffa8e146102c7578063e2bbb158146102da57610173565b8063630b5ba11461025f578063715018a6146102675780638da5cb5b1461026f57806393f1a40b14610277578063980e5f9014610299578063ca418d23146102ac57610173565b80634f00a93e116101305780634f00a93e146102035780634f70b15a1461021657806351eb05a61461021e5780635312ea8e14610231578063561be05a1461024457806361621aaa1461025757610173565b8063081e3eda146101785780631526fe271461019657806317caf6f1146101be57806319ab453c146101c657806327bf88ad146101db578063441a3e70146101f0575b600080fd5b610180610333565b60405161018d91906132e5565b60405180910390f35b6101a96101a4366004612c8b565b610339565b60405161018d99989796959493929190612e66565b6101806103ba565b6101d96101d4366004612adf565b6103c0565b005b6101e3610677565b60405161018d9190612e15565b6101d96101fe366004612cea565b610686565b6101d9610211366004612afb565b610816565b6101d96109e4565b6101d961022c366004612c8b565b610a4c565b6101d961023f366004612c8b565b610bfb565b6101d9610252366004612d72565b610d6c565b61018061114a565b6101d9611150565b6101d9611173565b6101e36111f2565b61028a610285366004612cbb565b611201565b60405161018d93929190613337565b6101d96102a7366004612d0b565b61122d565b610180611519565b6101d96102c2366004612b5e565b611855565b6101806102d5366004612cbb565b611931565b6101d96102e8366004612cea565b61194e565b6101e3611bcb565b6101d9610303366004612adf565b611bda565b61031b610316366004612cbb565b611c91565b60405161018d94939291906132ee565b6101e3612076565b609b5490565b609b818154811061034657fe5b60009182526020909120600690910201805460018201546002830154600384015460048501546005909501546001600160a01b038086169750600160a01b9095046001600160601b031695939492936001600160401b03831693600160401b84041692600160e01b900463ffffffff169189565b609e5481565b6103c8612085565b6033546001600160a01b039081169116146103fe5760405162461bcd60e51b81526004016103f5906131f9565b60405180910390fd5b6097546040516370a0823160e01b81526001600160a01b03838116926370a08231926104309290911690600401612e15565b60206040518083038186803b15801561044857600080fd5b505afa15801561045c573d6000803e3d6000fd5b505050506040513d601f19601f820116820180604052508101906104809190612ca3565b1561049d5760405162461bcd60e51b81526004016103f590613069565b6040516370a0823160e01b81526000906001600160a01b038316906370a08231906104cc903390600401612e15565b60206040518083038186803b1580156104e457600080fd5b505afa1580156104f8573d6000803e3d6000fd5b505050506040513d601f19601f8201168201806040525081019061051c9190612ca3565b90508061053b5760405162461bcd60e51b81526004016103f59061322e565b6105506001600160a01b038316333084612089565b60975460405163095ea7b360e01b81526001600160a01b038481169263095ea7b39261058492909116908590600401612e29565b602060405180830381600087803b15801561059e57600080fd5b505af11580156105b2573d6000803e3d6000fd5b505050506040513d601f19601f820116820180604052508101906105d69190612b26565b50609754609a54604051631c57762b60e31b81526001600160a01b039092169163e2bbb1589161060a918590600401613329565b600060405180830381600087803b15801561062457600080fd5b505af1158015610638573d6000803e3d6000fd5b505050507f387d06ac3b54c0ade104e08db87887286d162da416d27a605fc64e4f26c013388160405161066b91906132e5565b60405180910390a15050565b6097546001600160a01b031681565b600260655414156106a95760405162461bcd60e51b81526004016103f5906132ae565b60026065556106b66109e4565b6106bf82610a4c565b6000609b83815481106106ce57fe5b60009182526020808320868452609d8252604080852033865290925292208054600690920290920192508311156107175760405162461bcd60e51b81526004016103f590613123565b80541561072957610729818386612182565b610736818385600061225f565b815461074c906001600160a01b031633856123b8565b6003820154600160401b90046001600160a01b031680156107c85781546040516301a7af8b60e41b81526001600160a01b03831691631a7af8b091610795913391600401612e29565b600060405180830381600087803b1580156107af57600080fd5b505af11580156107c3573d6000803e3d6000fd5b505050505b84336001600160a01b03167ff279e6a1f5e320cca91135676d9cb6e44ca8a08c0b88342bcdb1144f6511b5688660405161080291906132e5565b60405180910390a350506001606555505050565b6099546001600160a01b031633146108405760405162461bcd60e51b81526004016103f590612fa8565b609b54609f5460005b828110156109dd576000818152609d602090815260408083206001600160a01b038916845290915290208054806108815750506109d5565b6000609b848154811061089057fe5b906000526020600020906006020190506108a984610a4c565b60028084015460018084015492840154908601549192916000906108f4906108ee8b6108e86108d889886124a7565b6108e28c8a6124a7565b906124ea565b9061250f565b90612551565b905061093f8160a060008b815260200190815260200160002060008f6001600160a01b03166001600160a01b03168152602001908152602001600020546124ea90919063ffffffff16565b60a060008a815260200190815260200160002060008e6001600160a01b03166001600160a01b03168152602001908152602001600020819055506000610985878d612593565b6002890181905560048701549091506109a49086906108ee90846124ea565b60048701556109c48a6108e86109ba84876124a7565b6108e28b896124a7565b886001018190555050505050505050505b600101610849565b5050505050565b609754609a54604051631c57762b60e31b81526001600160a01b039092169163e2bbb15891610a1891600090600401613329565b600060405180830381600087803b158015610a3257600080fd5b505af1158015610a46573d6000803e3d6000fd5b50505050565b6000609b8281548110610a5b57fe5b6000918252602090912060069091020160038101549091506001600160401b031642811015610bf65760058201548254600160a01b90046001600160601b03168115801590610aa957508015155b15610b875760038401546004850154609e544286900392600160e01b900463ffffffff169190600090610af2906108e887610aec610ae5611519565b89906124a7565b906124a7565b9050610b2e610b23610b06886127106124a7565b6108e88661271003610aec609f54876124a790919063ffffffff16565b60018a0154906124ea565b60018901558215801590610b4157508115155b15610b8257610b7c610b71610b58846127106124a7565b6108e886610aec609f54876124a790919063ffffffff16565b60028a0154906124ea565b60028901555b505050505b60038401805467ffffffffffffffff1916426001600160401b0390811691909117918290556001860154600287015460405189947f3a15998b7576ed92447b3dd03767c4977c339833be8a90fc16caa7653db12e6e94610beb94911692889261334d565b60405180910390a250505b505050565b60026065541415610c1e5760405162461bcd60e51b81526004016103f5906132ae565b60026065819055506000609b8281548110610c3557fe5b60009182526020808320858452609d82526040808520338652909252922060028101546006929092029092016004810154909350610c7291612551565b600483015580546005830154610c8791612551565b6005830155805460008083556001830181905560028301556003830154600160401b90046001600160a01b03168015610d1c576040516301a7af8b60e41b81526001600160a01b03821690631a7af8b090610ce9903390600090600401612e29565b600060405180830381600087803b158015610d0357600080fd5b505af1158015610d17573d6000803e3d6000fd5b505050505b8354610d32906001600160a01b031633846123b8565b84336001600160a01b03167fbb757047c2b5f3974fe26b7c10f732e7bce710b0952a71082702781e62ae05958460405161080291906132e5565b610d74612085565b6033546001600160a01b03908116911614610da15760405162461bcd60e51b81526004016103f5906131f9565b6001600160a01b0382166000908152609c602052604090205460ff1615610dda5760405162461bcd60e51b81526004016103f590612ee5565b6127108363ffffffff161115610e025760405162461bcd60e51b81526004016103f5906130c6565b609b5460321015610e255760405162461bcd60e51b81526004016103f590613025565b6001600160a01b0382166000818152609c602052604090819020805460ff19166001179055516370a0823160e01b81526370a0823190610e69903090600401612e15565b60206040518083038186803b158015610e8157600080fd5b505afa158015610e95573d6000803e3d6000fd5b505050506040513d601f19601f82011682018060405250810190610eb99190612ca3565b506001600160a01b03811615610f2b576040516301a7af8b60e41b81526001600160a01b03821690631a7af8b090610ef8906000908190600401612e29565b600060405180830381600087803b158015610f1257600080fd5b505af1158015610f26573d6000803e3d6000fd5b505050505b610f33611150565b609e54610f49906001600160601b0386166124ea565b609e81905550609b604051806101200160405280846001600160a01b03168152602001866001600160601b031681526020016000815260200160008152602001426001600160401b03168152602001836001600160a01b031681526020018563ffffffff168152602001600081526020016000815250908060018154018082558091505060019003906000526020600020906006020160009091909190915060008201518160000160006101000a8154816001600160a01b0302191690836001600160a01b0316021790555060208201518160000160146101000a8154816001600160601b0302191690836001600160601b03160217905550604082015181600101556060820151816002015560808201518160030160006101000a8154816001600160401b0302191690836001600160401b0316021790555060a08201518160030160086101000a8154816001600160a01b0302191690836001600160a01b0316021790555060c082015181600301601c6101000a81548163ffffffff021916908363ffffffff16021790555060e0820151816004015561010082015181600501555050806001600160a01b0316826001600160a01b03166001609b80549050037ffa7db60584eedcec543415482c572116ee7545102bc1e1ca9e5219ff0ea3be32878760405161113c929190613373565b60405180910390a450505050565b609a5481565b609b5460005b8181101561116f5761116781610a4c565b600101611156565b5050565b61117b612085565b6033546001600160a01b039081169116146111a85760405162461bcd60e51b81526004016103f5906131f9565b6033546040516000916001600160a01b0316907f8be0079c531659141344cd1fd0a4f28419497f9722a3daafe3b4186f6b6457e0908390a3603380546001600160a01b0319169055565b6033546001600160a01b031690565b609d60209081526000928352604080842090915290825290208054600182015460029092015490919083565b611235612085565b6033546001600160a01b039081169116146112625760405162461bcd60e51b81526004016103f5906131f9565b6127108363ffffffff16111561128a5760405162461bcd60e51b81526004016103f5906130c6565b611292611150565b6000609b86815481106112a157fe5b600091825260209091206006909102018054609e549192506112dc916001600160601b03808916926108e29291600160a01b90910416612551565b609e5580546001600160a01b0316600160a01b6001600160601b038716021781556003810180546001600160e01b0316600160e01b63ffffffff87160217905581156113ba576001600160a01b03831615611393576040516301a7af8b60e41b81526001600160a01b03841690631a7af8b090611360906000908190600401612e29565b600060405180830381600087803b15801561137a57600080fd5b505af115801561138e573d6000803e3d6000fd5b505050505b600381018054600160401b600160e01b031916600160401b6001600160a01b038616021790555b80609b87815481106113c857fe5b60009182526020909120825460069092020180546001600160a01b0319166001600160a01b039283161780825583546001600160601b03600160a01b918290041602908316178155600180840154908201556002808401549082015560038084018054918301805467ffffffffffffffff19166001600160401b03909316929092178083558154600160401b90819004909516909402600160401b600160e01b031990941693909317808255925463ffffffff600160e01b9182900416026001600160e01b039093169290921790915560048083015490820155600591820154910155816114ca576003810154600160401b90046001600160a01b03166114cc565b825b6001600160a01b0316867f0db1d9531544c4edebc3104fe894a7e82c00bd1b9a676053351b0d86d4ebbd4d87878660405161150993929190613392565b60405180910390a3505050505050565b6097546040805162e6b64160e31b815290516000926103e89284926116a1926001600160a01b031691630735b208916004808301926020929190829003018186803b15801561156757600080fd5b505afa15801561157b573d6000803e3d6000fd5b505050506040513d601f19601f8201168201806040525081019061159f9190612ca3565b60975460408051629df3ab60e31b815290516108ee926001600160a01b0316916304ef9d58916004808301926020929190829003018186803b1580156115e457600080fd5b505afa1580156115f8573d6000803e3d6000fd5b505050506040513d601f19601f8201168201806040525081019061161c9190612ca3565b6097546040805163fc3c28af60e01b815290516108ee926001600160a01b03169163fc3c28af916004808301926020929190829003018186803b15801561166257600080fd5b505afa158015611676573d6000803e3d6000fd5b505050506040513d601f19601f8201168201806040525081019061169a9190612ca3565b8790612551565b90506000611733836108e884609760009054906101000a90046001600160a01b03166001600160a01b031663ca418d236040518163ffffffff1660e01b815260040160206040518083038186803b1580156116fb57600080fd5b505afa15801561170f573d6000803e3d6000fd5b505050506040513d601f19601f82011682018060405250810190610aec9190612ca3565b905061184d609760009054906101000a90046001600160a01b03166001600160a01b03166317caf6f16040518163ffffffff1660e01b815260040160206040518083038186803b15801561178657600080fd5b505afa15801561179a573d6000803e3d6000fd5b505050506040513d601f19601f820116820180604052508101906117be9190612ca3565b609754609a54604051631526fe2760e01b81526108e8926001600160a01b031691631526fe27916117f291906004016132e5565b60806040518083038186803b15801561180a57600080fd5b505afa15801561181e573d6000803e3d6000fd5b505050506040513d601f19601f820116820180604052508101906118429190612c39565b6020015184906124a7565b935050505090565b600054610100900460ff168061186e575061186e6125a0565b8061187c575060005460ff16155b6118985760405162461bcd60e51b81526004016103f59061316a565b600054610100900460ff161580156118c3576000805460ff1961ff0019909116610100171660011790555b6118cb6125a6565b609780546001600160a01b038088166001600160a01b031992831617909255609880548784169083161790556099805492861692909116919091179055609a829055670de0b6b3a7640000609f5580156109dd576000805461ff00191690555050505050565b60a060209081526000928352604080842090915290825290205481565b600260655414156119715760405162461bcd60e51b81526004016103f5906132ae565b600260655561197e6109e4565b61198782610a4c565b6000609b838154811061199657fe5b60009182526020808320868452609d825260408085203386529092529220805460069092029092019250156119d0576119d0818386612182565b81546040516370a0823160e01b81526000916001600160a01b0316906370a0823190611a00903090600401612e15565b60206040518083038186803b158015611a1857600080fd5b505afa158015611a2c573d6000803e3d6000fd5b505050506040513d601f19601f82011682018060405250810190611a509190612ca3565b8354909150611a6a906001600160a01b0316333087612089565b82546040516370a0823160e01b8152600091611af09184916001600160a01b0316906370a0823190611aa0903090600401612e15565b60206040518083038186803b158015611ab857600080fd5b505afa158015611acc573d6000803e3d6000fd5b505050506040513d601f19601f820116820180604052508101906108ee9190612ca3565b9050611aff838583600161225f565b6003840154600160401b90046001600160a01b03168015611b7b5783546040516301a7af8b60e41b81526001600160a01b03831691631a7af8b091611b48913391600401612e29565b600060405180830381600087803b158015611b6257600080fd5b505af1158015611b76573d6000803e3d6000fd5b505050505b86336001600160a01b03167f90890809c654f11d6e72a28fa60149770a0d11ec6c92319d6ceb2bb0a4ea1a1584604051611bb591906132e5565b60405180910390a3505060016065555050505050565b6099546001600160a01b031681565b611be2612085565b6033546001600160a01b03908116911614611c0f5760405162461bcd60e51b81526004016103f5906131f9565b6001600160a01b038116611c355760405162461bcd60e51b81526004016103f590612f62565b6033546040516001600160a01b038084169216907f8be0079c531659141344cd1fd0a4f28419497f9722a3daafe3b4186f6b6457e090600090a3603380546001600160a01b0319166001600160a01b0392909216919091179055565b60008060606000611ca0612a72565b609b8781548110611cad57fe5b6000918252602091829020604080516101208101825260069390930290910180546001600160a01b038082168552600160a01b9091046001600160601b0316948401949094526001810154918301919091526002810154606083015260038101546001600160401b0381166080840152600160401b810490931660a0830152600160e01b90920463ffffffff1660c0820152600482015460e08201526005909101546101008201529050611d5f612abe565b506000878152609d602090815260408083206001600160a01b038a1684528252918290208251606080820185528254825260018301549382019390935260029091015481840152918301519083015160808401516001600160401b031642118015611dce575061010084015115155b8015611de6575060208401516001600160601b031615155b15611eee57600084608001516001600160401b0316420390506000611e2a609e546108e888602001516001600160601b0316610aec611e23611519565b87906124a7565b9050611e7a611e73611e4c6127108961010001516124a790919063ffffffff16565b6108e88960c001516127100363ffffffff16610aec609f54876124a790919063ffffffff16565b85906124ea565b93508560c0015163ffffffff16600014158015611e9a575060e086015115155b15611eeb57611ee8611ee1611ebe6127108960e001516124a790919063ffffffff16565b6108e88960c0015163ffffffff16610aec609f54876124a790919063ffffffff16565b84906124ea565b92505b50505b60208084015160008c815260a0835260408082206001600160a01b038e16835290935282902054609f5492860151611f44936108ee92916108e291906108e890611f3890896124a7565b8a516108e2908b6124a7565b60a08501519098506001600160a01b031615612069578360a001516001600160a01b031663f7c618c16040518163ffffffff1660e01b815260040160206040518083038186803b158015611f9757600080fd5b505afa158015611fab573d6000803e3d6000fd5b505050506040513d601f19601f82011682018060405250810190611fcf9190612b42565b9650611fe3876001600160a01b0316612639565b60a085015160405163c031a66f60e01b81529197506001600160a01b03169063c031a66f90612016908c90600401612e15565b60206040518083038186803b15801561202e57600080fd5b505afa158015612042573d6000803e3d6000fd5b505050506040513d601f19601f820116820180604052508101906120669190612ca3565b94505b5050505092959194509250565b6098546001600160a01b031681565b3390565b60006060856001600160a01b03166323b872dd60e01b8686866040516024016120b493929190612e42565b60408051601f198184030181529181526020820180516001600160e01b03166001600160e01b03199094169390931790925290516120f29190612df9565b6000604051808303816000865af19150503d806000811461212f576040519150601f19603f3d011682016040523d82523d6000602084013e612134565b606091505b509150915081801561215e57508051158061215e57508080602001905181019061215e9190612b26565b61217a5760405162461bcd60e51b81526004016103f590613279565b505050505050565b6001830154600082815260a060209081526040808320338452909152812054609f546002808701549088015493946121de9490936108ee9390926108e2926108e8916121ce91906124a7565b60018b01548c546108e2916124a7565b600083815260a06020908152604080832033845290915281205590508015610a4657609854612217906001600160a01b031633836123b8565b81336001600160a01b03167f71bab65ced2e5750775a0613be067df48ef06cf92a496ebf7663ae06609249548360405161225191906132e5565b60405180910390a350505050565b8354600082612277576122728285612551565b612281565b61228182856124ea565b905083156122ba57808655826122a55760058501546122a09085612551565b6122b4565b60058501546122b490856124ea565b60058601555b60028601546099546040516370a0823160e01b815260009161234b9185916001600160a01b0316906370a08231906122f6903390600401612e15565b60206040518083038186803b15801561230e57600080fd5b505afa158015612322573d6000803e3d6000fd5b505050506040513d601f19601f820116820180604052508101906123469190612ca3565b612593565b9050808214612376576002880181905560048701546123709083906108ee90846124ea565b60048801555b6123a6609f546108e86123968a60020154856124a790919063ffffffff16565b60018b01546108e29088906124a7565b88600101819055505050505050505050565b60006060846001600160a01b031663a9059cbb60e01b85856040516024016123e1929190612e29565b60408051601f198184030181529181526020820180516001600160e01b03166001600160e01b031990941693909317909252905161241f9190612df9565b6000604051808303816000865af19150503d806000811461245c576040519150601f19603f3d011682016040523d82523d6000602084013e612461565b606091505b509150915081801561248b57508051158061248b57508080602001905181019061248b9190612b26565b6109dd5760405162461bcd60e51b81526004016103f590612f2b565b6000826124b6575060006124e4565b828202828482816124c357fe5b04146124e15760405162461bcd60e51b81526004016103f5906131b8565b90505b92915050565b6000828201838110156124e15760405162461bcd60e51b81526004016103f590612fee565b60006124e183836040518060400160405280601a81526020017f536166654d6174683a206469766973696f6e206279207a65726f0000000000008152506126fe565b60006124e183836040518060400160405280601e81526020017f536166654d6174683a207375627472616374696f6e206f766572666c6f770000815250612735565b60006124e1828402612761565b303b1590565b600054610100900460ff16806125bf57506125bf6125a0565b806125cd575060005460ff16155b6125e95760405162461bcd60e51b81526004016103f59061316a565b600054610100900460ff16158015612614576000805460ff1961ff0019909116610100171660011790555b61261c6127b2565b612624612833565b8015612636576000805461ff00191690555b50565b60408051600481526024810182526020810180516001600160e01b03166395d89b4160e01b179052905160609160009183916001600160a01b038616916126809190612df9565b600060405180830381855afa9150503d80600081146126bb576040519150601f19603f3d011682016040523d82523d6000602084013e6126c0565b606091505b5091509150816126eb57604051806040016040528060038152602001623f3f3f60e81b8152506126f4565b6126f48161290d565b925050505b919050565b6000818361271f5760405162461bcd60e51b81526004016103f59190612ed2565b50600083858161272b57fe5b0495945050505050565b600081848411156127595760405162461bcd60e51b81526004016103f59190612ed2565b505050900390565b600060038211156127a4575080600160028204015b8181101561279e5780915060028182858161278d57fe5b04018161279657fe5b049050612776565b506126f9565b81156126f957506001919050565b600054610100900460ff16806127cb57506127cb6125a0565b806127d9575060005460ff16155b6127f55760405162461bcd60e51b81526004016103f59061316a565b600054610100900460ff16158015612624576000805460ff1961ff0019909116610100171660011790558015612636576000805461ff001916905550565b600054610100900460ff168061284c575061284c6125a0565b8061285a575060005460ff16155b6128765760405162461bcd60e51b81526004016103f59061316a565b600054610100900460ff161580156128a1576000805460ff1961ff0019909116610100171660011790555b60006128ab612085565b603380546001600160a01b0319166001600160a01b038316908117909155604051919250906000907f8be0079c531659141344cd1fd0a4f28419497f9722a3daafe3b4186f6b6457e0908290a3508015612636576000805461ff001916905550565b60606040825110612933578180602001905181019061292c9190612bae565b90506126f9565b815160201415612a525760005b60208160ff1610801561296f5750828160ff168151811061295d57fe5b01602001516001600160f81b03191615155b1561297c57600101612940565b60608160ff166001600160401b038111801561299757600080fd5b506040519080825280601f01601f1916602001820160405280156129c2576020820181803683370190505b509050600091505b60208260ff161080156129f95750838260ff16815181106129e757fe5b01602001516001600160f81b03191615155b15612a4957838260ff1681518110612a0d57fe5b602001015160f81c60f81b818360ff1681518110612a2757fe5b60200101906001600160f81b031916908160001a9053506001909101906129ca565b91506126f99050565b506040805180820190915260038152623f3f3f60e81b60208201526126f9565b6040805161012081018252600080825260208201819052918101829052606081018290526080810182905260a0810182905260c0810182905260e0810182905261010081019190915290565b60405180606001604052806000815260200160008152602001600081525090565b600060208284031215612af0578081fd5b81356124e18161340d565b60008060408385031215612b0d578081fd5b8235612b188161340d565b946020939093013593505050565b600060208284031215612b37578081fd5b81516124e181613422565b600060208284031215612b53578081fd5b81516124e18161340d565b60008060008060808587031215612b73578182fd5b8435612b7e8161340d565b93506020850135612b8e8161340d565b92506040850135612b9e8161340d565b9396929550929360600135925050565b600060208284031215612bbf578081fd5b81516001600160401b0380821115612bd5578283fd5b818401915084601f830112612be8578283fd5b815181811115612bf6578384fd5b612c09601f8201601f19166020016133bb565b9150808252856020828501011115612c1f578384fd5b612c308160208401602086016133e1565b50949350505050565b600060808284031215612c4a578081fd5b612c5460806133bb565b8251612c5f8161340d565b808252506020830151602082015260408301516040820152606083015160608201528091505092915050565b600060208284031215612c9c578081fd5b5035919050565b600060208284031215612cb4578081fd5b5051919050565b60008060408385031215612ccd578182fd5b823591506020830135612cdf8161340d565b809150509250929050565b60008060408385031215612cfc578182fd5b50508035926020909101359150565b600080600080600060a08688031215612d22578081fd5b853594506020860135612d3481613442565b93506040860135612d4481613430565b92506060860135612d548161340d565b91506080860135612d6481613422565b809150509295509295909350565b60008060008060808587031215612d87578182fd5b8435612d9281613442565b93506020850135612da281613430565b92506040850135612db28161340d565b91506060850135612dc28161340d565b939692955090935050565b60008151808452612de58160208601602086016133e1565b601f01601f19169290920160200192915050565b60008251612e0b8184602087016133e1565b9190910192915050565b6001600160a01b0391909116815260200190565b6001600160a01b03929092168252602082015260400190565b6001600160a01b039384168152919092166020820152604081019190915260600190565b6001600160a01b03998a1681526001600160601b03989098166020890152604088019690965260608701949094526001600160401b0392909216608086015290941660a084015263ffffffff90931660c083015260e08201929092526101008101919091526101200190565b6000602082526124e16020830184612dcd565b60208082526026908201527f426f6f737465644d6173746572436865664a6f653a204c5020616c726561647960408201526508185919195960d21b606082015260800190565b6020808252601c908201527f426f72696e6745524332303a205472616e73666572206661696c656400000000604082015260600190565b60208082526026908201527f4f776e61626c653a206e6577206f776e657220697320746865207a65726f206160408201526564647265737360d01b606082015260800190565b60208082526026908201527f426f6f737465644d6173746572436865664a6f653a2043616c6c6572206e6f746040820152652076654a4f4560d01b606082015260800190565b6020808252601b908201527f536166654d6174683a206164646974696f6e206f766572666c6f770000000000604082015260600190565b60208082526024908201527f426f6f737465644d6173746572436865664a6f653a20546f6f206d616e7920706040820152636f6f6c7360e01b606082015260800190565b6020808252603a908201527f426f6f737465644d6173746572436865664a6f653a20416c726561647920686160408201527f7320612062616c616e6365206f662064756d6d7920746f6b656e000000000000606082015260800190565b6020808252603f908201527f426f6f737465644d6173746572436865664a6f653a2076654a6f65536861726560408201527f4270206e6565647320746f206265206c6f776572207468616e20313030303000606082015260800190565b60208082526027908201527f426f6f737465644d6173746572436865664a6f653a207769746864726177206e6040820152661bdd0819dbdbd960ca1b606082015260800190565b6020808252602e908201527f496e697469616c697a61626c653a20636f6e747261637420697320616c72656160408201526d191e481a5b9a5d1a585b1a5e995960921b606082015260800190565b60208082526021908201527f536166654d6174683a206d756c7469706c69636174696f6e206f766572666c6f6040820152607760f81b606082015260800190565b6020808252818101527f4f776e61626c653a2063616c6c6572206973206e6f7420746865206f776e6572604082015260600190565b6020808252602b908201527f426f6f737465644d6173746572436865664a6f653a2042616c616e6365206d7560408201526a073742065786365656420360ac1b606082015260800190565b6020808252818101527f426f72696e6745524332303a205472616e7366657246726f6d206661696c6564604082015260600190565b6020808252601f908201527f5265656e7472616e637947756172643a207265656e7472616e742063616c6c00604082015260600190565b90815260200190565b8481526001600160a01b038416602082015260806040820181905260009061331890830185612dcd565b905082606083015295945050505050565b918252602082015260400190565b9283526020830191909152604082015260600190565b6001600160401b0394909416845260208401929092526040830152606082015260800190565b6001600160601b0392909216825263ffffffff16602082015260400190565b6001600160601b0393909316835263ffffffff9190911660208301521515604082015260600190565b6040518181016001600160401b03811182821017156133d957600080fd5b604052919050565b60005b838110156133fc5781810151838201526020016133e4565b83811115610a465750506000910152565b6001600160a01b038116811461263657600080fd5b801515811461263657600080fd5b63ffffffff8116811461263657600080fd5b6001600160601b038116811461263657600080fdfea264697066735822122096d939ffcad86e2e77a94eec544892d6d4488f8a07ea79f2681667a10cac718164736f6c634300060c0033",
  "devdoc": {
    "kind": "dev",
    "methods": {
      "add(uint96,uint32,address,address)": {
        "params": {
          "_allocPoint": "AP of the new pool.",
          "_lpToken": "Address of the LP ERC-20 token.",
          "_rewarder": "Address of the rewarder delegate.",
          "_veJoeShareBp": "Share of rewards allocated in proportion to user's liquidity and veJoe balance"
        }
      },
      "deposit(uint256,uint256)": {
        "params": {
          "_amount": "LP token amount to deposit",
          "_pid": "The index of the pool. See `poolInfo`"
        }
      },
      "emergencyWithdraw(uint256)": {
        "params": {
          "_pid": "The index of the pool. See `poolInfo`"
        }
      },
      "init(address)": {
        "params": {
          "_dummyToken": "The address of the ERC-20 token to deposit into MCJV2."
        }
      },
      "initialize(address,address,address,uint256)": {
        "params": {
          "_MASTER_CHEF_V2": "The MCJV2 contract address",
          "_MASTER_PID": "The pool ID of the dummy token on the base MCJV2 contract",
          "_joe": "The JOE token contract address",
          "_veJoe": "The veJOE token contract address"
        }
      },
      "joePerSec()": {
        "returns": {
          "amount": "The amount of JOE emitted per second"
        }
      },
      "owner()": {
        "details": "Returns the address of the current owner."
      },
      "pendingTokens(uint256,address)": {
        "params": {
          "_pid": "The index of the pool. See `poolInfo`",
          "_user": "Address of user"
        },
        "returns": {
          "bonusTokenAddress": "The address of the bonus reward.",
          "bonusTokenSymbol": "The symbol of the bonus token.",
          "pendingBonusToken": "The amount of bonus rewards pending.",
          "pendingJoe": "JOE reward for a given user."
        }
      },
      "poolLength()": {
        "returns": {
          "pools": "The amount of pools in this farm"
        }
      },
      "renounceOwnership()": {
        "details": "Leaves the contract without owner. It will not be possible to call `onlyOwner` functions anymore. Can only be called by the current owner. NOTE: Renouncing ownership will leave the contract without an owner, thereby removing any functionality that is only available to the owner."
      },
      "set(uint256,uint96,uint32,address,bool)": {
        "params": {
          "_allocPoint": "New AP of the pool",
          "_overwrite": "True if _rewarder should be `set`. Otherwise `_rewarder` is ignored",
          "_pid": "The index of the pool. See `poolInfo`",
          "_rewarder": "Address of the rewarder delegate",
          "_veJoeShareBp": "Share of rewards allocated in proportion to user's liquidity and veJoe balance"
        }
      },
      "transferOwnership(address)": {
        "details": "Transfers ownership of the contract to a new account (`newOwner`). Can only be called by the current owner."
      },
      "updateFactor(address,uint256)": {
        "params": {
          "_newVeJoeBalance": "The new balance of the users veJoe",
          "_user": "The users address we are updating"
        }
      },
      "updatePool(uint256)": {
        "params": {
          "_pid": "The index of the pool. See `poolInfo`"
        }
      },
      "withdraw(uint256,uint256)": {
        "params": {
          "_amount": "LP token amount to withdraw",
          "_pid": "The index of the pool. See `poolInfo`"
        }
      }
    },
    "stateVariables": {
      "checkPoolDuplicate": {
        "details": "Maps an address to a bool to assert that a token isn't added twice"
      },
      "claimableJoe": {
        "details": "Amount of claimable Joe the user has, this is required as we need to update rewardDebt after a token operation but we don't want to send a reward at this point. This amount gets added onto the pending amount when a user claims"
      },
      "totalAllocPoint": {
        "details": "Total allocation points. Must be the sum of all allocation points in all pools"
      }
    },
    "version": 1
  },
  "userdoc": {
    "kind": "user",
    "methods": {
      "JOE()": {
        "notice": "Address of JOE contract"
      },
      "MASTER_CHEF_V2()": {
        "notice": "Address of MCJV2 contract"
      },
      "MASTER_PID()": {
        "notice": "The index of BMCJ master pool in MCJV2"
      },
      "VEJOE()": {
        "notice": "Address of veJOE contract"
      },
      "add(uint96,uint32,address,address)": {
        "notice": "Add a new LP to the pool. Can only be called by the owner."
      },
      "deposit(uint256,uint256)": {
        "notice": "Deposit LP tokens to BMCJ for JOE allocation"
      },
      "emergencyWithdraw(uint256)": {
        "notice": "Withdraw without caring about rewards (EMERGENCY ONLY)"
      },
      "harvestFromMasterChef()": {
        "notice": "Harvests JOE from `MASTER_CHEF_V2` MCJV2 and pool `MASTER_PID` to this BMCJ contract"
      },
      "init(address)": {
        "notice": "Deposits a dummy token to `MASTER_CHEF_V2` MCJV2. This is required because MCJV2 holds the minting rights for JOE.  Any balance of transaction sender in `_dummyToken` is transferred. The allocation point for the pool on MCJV2 is the total allocation point for all pools that receive double incentives."
      },
      "joePerSec()": {
        "notice": "Calculates and returns the `amount` of JOE per second"
      },
      "massUpdatePools()": {
        "notice": "Update reward variables for all pools. Be careful of gas spending!"
      },
      "pendingTokens(uint256,address)": {
        "notice": "View function to see pending JOE on frontend"
      },
      "poolInfo(uint256)": {
        "notice": "Info of each BMCJ pool"
      },
      "poolLength()": {
        "notice": "Returns the number of BMCJ pools."
      },
      "set(uint256,uint96,uint32,address,bool)": {
        "notice": "Update the given pool's JOE allocation point and `IRewarder` contract. Can only be called by the owner."
      },
      "updateFactor(address,uint256)": {
        "notice": "Updates factor after after a veJoe token operation. This function needs to be called by the veJoe contract after every mint / burn."
      },
      "updatePool(uint256)": {
        "notice": "Update reward variables of the given pool"
      },
      "userInfo(uint256,address)": {
        "notice": "Info of each user that stakes LP tokens"
      },
      "withdraw(uint256,uint256)": {
        "notice": "Withdraw LP tokens from BMCJ"
      }
    },
    "notice": "The (older) MasterChefJoeV2 contract gives out a constant number of JOE tokens per block.  It is the only address with minting rights for JOE.  The idea for this BoostedMasterChefJoe (BMCJ) contract is therefore to be the owner of a dummy token that is deposited into the MasterChefJoeV2 (MCJV2) contract.  The allocation point for this pool on MCJV2 is the total allocation point for all pools on BMCJ. This MasterChef also skews how many rewards users receive, it does this by modifying the algorithm that calculates how many tokens are rewarded to depositors. Whereas MasterChef calculates rewards based on emission rate and total liquidity, this version uses adjusted parameters to this calculation. A users `boostedAmount` (liquidity multiplier) is calculated by the actual supplied liquidity multiplied by a boost factor. The boost factor is calculated by the amount of veJOE held by the user over the total veJOE amount held by all pool participants. Total liquidity is the sum of all boosted liquidity.",
    "version": 1
  },
  "storageLayout": {
    "storage": [
      {
        "astId": 376,
        "contract": "contracts/BoostedMasterChefJoe.sol:BoostedMasterChefJoe",
        "label": "_initialized",
        "offset": 0,
        "slot": "0",
        "type": "t_bool"
      },
      {
        "astId": 379,
        "contract": "contracts/BoostedMasterChefJoe.sol:BoostedMasterChefJoe",
        "label": "_initializing",
        "offset": 1,
        "slot": "0",
        "type": "t_bool"
      },
      {
        "astId": 43,
        "contract": "contracts/BoostedMasterChefJoe.sol:BoostedMasterChefJoe",
        "label": "__gap",
        "offset": 0,
        "slot": "1",
        "type": "t_array(t_uint256)50_storage"
      },
      {
        "astId": 55,
        "contract": "contracts/BoostedMasterChefJoe.sol:BoostedMasterChefJoe",
        "label": "_owner",
        "offset": 0,
        "slot": "51",
        "type": "t_address"
      },
      {
        "astId": 173,
        "contract": "contracts/BoostedMasterChefJoe.sol:BoostedMasterChefJoe",
        "label": "__gap",
        "offset": 0,
        "slot": "52",
        "type": "t_array(t_uint256)49_storage"
      },
      {
        "astId": 455,
        "contract": "contracts/BoostedMasterChefJoe.sol:BoostedMasterChefJoe",
        "label": "_status",
        "offset": 0,
        "slot": "101",
        "type": "t_uint256"
      },
      {
        "astId": 498,
        "contract": "contracts/BoostedMasterChefJoe.sol:BoostedMasterChefJoe",
        "label": "__gap",
        "offset": 0,
        "slot": "102",
        "type": "t_array(t_uint256)49_storage"
      },
      {
        "astId": 2795,
        "contract": "contracts/BoostedMasterChefJoe.sol:BoostedMasterChefJoe",
        "label": "MASTER_CHEF_V2",
        "offset": 0,
        "slot": "151",
        "type": "t_contract(IMasterChefJoe)18700"
      },
      {
        "astId": 2798,
        "contract": "contracts/BoostedMasterChefJoe.sol:BoostedMasterChefJoe",
        "label": "JOE",
        "offset": 0,
        "slot": "152",
        "type": "t_contract(IERC20)18539"
      },
      {
        "astId": 2801,
        "contract": "contracts/BoostedMasterChefJoe.sol:BoostedMasterChefJoe",
        "label": "VEJOE",
        "offset": 0,
        "slot": "153",
        "type": "t_contract(IERC20)18539"
      },
      {
        "astId": 2804,
        "contract": "contracts/BoostedMasterChefJoe.sol:BoostedMasterChefJoe",
        "label": "MASTER_PID",
        "offset": 0,
        "slot": "154",
        "type": "t_uint256"
      },
      {
        "astId": 2808,
        "contract": "contracts/BoostedMasterChefJoe.sol:BoostedMasterChefJoe",
        "label": "poolInfo",
        "offset": 0,
        "slot": "155",
        "type": "t_array(t_struct(PoolInfo)2792_storage)dyn_storage"
      },
      {
        "astId": 2813,
        "contract": "contracts/BoostedMasterChefJoe.sol:BoostedMasterChefJoe",
        "label": "checkPoolDuplicate",
        "offset": 0,
        "slot": "156",
        "type": "t_mapping(t_contract(IERC20)18539,t_bool)"
      },
      {
        "astId": 2820,
        "contract": "contracts/BoostedMasterChefJoe.sol:BoostedMasterChefJoe",
        "label": "userInfo",
        "offset": 0,
        "slot": "157",
        "type": "t_mapping(t_uint256,t_mapping(t_address,t_struct(UserInfo)2773_storage))"
      },
      {
        "astId": 2823,
        "contract": "contracts/BoostedMasterChefJoe.sol:BoostedMasterChefJoe",
        "label": "totalAllocPoint",
        "offset": 0,
        "slot": "158",
        "type": "t_uint256"
      },
      {
        "astId": 2825,
        "contract": "contracts/BoostedMasterChefJoe.sol:BoostedMasterChefJoe",
        "label": "ACC_TOKEN_PRECISION",
        "offset": 0,
        "slot": "159",
        "type": "t_uint256"
      },
      {
        "astId": 2832,
        "contract": "contracts/BoostedMasterChefJoe.sol:BoostedMasterChefJoe",
        "label": "claimableJoe",
        "offset": 0,
        "slot": "160",
        "type": "t_mapping(t_uint256,t_mapping(t_address,t_uint256))"
      }
    ],
    "types": {
      "t_address": {
        "encoding": "inplace",
        "label": "address",
        "numberOfBytes": "20"
      },
      "t_array(t_struct(PoolInfo)2792_storage)dyn_storage": {
        "base": "t_struct(PoolInfo)2792_storage",
        "encoding": "dynamic_array",
        "label": "struct BoostedMasterChefJoe.PoolInfo[]",
        "numberOfBytes": "32"
      },
      "t_array(t_uint256)49_storage": {
        "base": "t_uint256",
        "encoding": "inplace",
        "label": "uint256[49]",
        "numberOfBytes": "1568"
      },
      "t_array(t_uint256)50_storage": {
        "base": "t_uint256",
        "encoding": "inplace",
        "label": "uint256[50]",
        "numberOfBytes": "1600"
      },
      "t_bool": {
        "encoding": "inplace",
        "label": "bool",
        "numberOfBytes": "1"
      },
      "t_contract(IERC20)18539": {
        "encoding": "inplace",
        "label": "contract IERC20",
        "numberOfBytes": "20"
      },
      "t_contract(IMasterChefJoe)18700": {
        "encoding": "inplace",
        "label": "contract IMasterChefJoe",
        "numberOfBytes": "20"
      },
      "t_contract(IRewarder)18749": {
        "encoding": "inplace",
        "label": "contract IRewarder",
        "numberOfBytes": "20"
      },
      "t_mapping(t_address,t_struct(UserInfo)2773_storage)": {
        "encoding": "mapping",
        "key": "t_address",
        "label": "mapping(address => struct BoostedMasterChefJoe.UserInfo)",
        "numberOfBytes": "32",
        "value": "t_struct(UserInfo)2773_storage"
      },
      "t_mapping(t_address,t_uint256)": {
        "encoding": "mapping",
        "key": "t_address",
        "label": "mapping(address => uint256)",
        "numberOfBytes": "32",
        "value": "t_uint256"
      },
      "t_mapping(t_contract(IERC20)18539,t_bool)": {
        "encoding": "mapping",
        "key": "t_contract(IERC20)18539",
        "label": "mapping(contract IERC20 => bool)",
        "numberOfBytes": "32",
        "value": "t_bool"
      },
      "t_mapping(t_uint256,t_mapping(t_address,t_struct(UserInfo)2773_storage))": {
        "encoding": "mapping",
        "key": "t_uint256",
        "label": "mapping(uint256 => mapping(address => struct BoostedMasterChefJoe.UserInfo))",
        "numberOfBytes": "32",
        "value": "t_mapping(t_address,t_struct(UserInfo)2773_storage)"
      },
      "t_mapping(t_uint256,t_mapping(t_address,t_uint256))": {
        "encoding": "mapping",
        "key": "t_uint256",
        "label": "mapping(uint256 => mapping(address => uint256))",
        "numberOfBytes": "32",
        "value": "t_mapping(t_address,t_uint256)"
      },
      "t_struct(PoolInfo)2792_storage": {
        "encoding": "inplace",
        "label": "struct BoostedMasterChefJoe.PoolInfo",
        "members": [
          {
            "astId": 2775,
            "contract": "contracts/BoostedMasterChefJoe.sol:BoostedMasterChefJoe",
            "label": "lpToken",
            "offset": 0,
            "slot": "0",
            "type": "t_contract(IERC20)18539"
          },
          {
            "astId": 2777,
            "contract": "contracts/BoostedMasterChefJoe.sol:BoostedMasterChefJoe",
            "label": "allocPoint",
            "offset": 20,
            "slot": "0",
            "type": "t_uint96"
          },
          {
            "astId": 2779,
            "contract": "contracts/BoostedMasterChefJoe.sol:BoostedMasterChefJoe",
            "label": "accJoePerShare",
            "offset": 0,
            "slot": "1",
            "type": "t_uint256"
          },
          {
            "astId": 2781,
            "contract": "contracts/BoostedMasterChefJoe.sol:BoostedMasterChefJoe",
            "label": "accJoePerFactorPerShare",
            "offset": 0,
            "slot": "2",
            "type": "t_uint256"
          },
          {
            "astId": 2783,
            "contract": "contracts/BoostedMasterChefJoe.sol:BoostedMasterChefJoe",
            "label": "lastRewardTimestamp",
            "offset": 0,
            "slot": "3",
            "type": "t_uint64"
          },
          {
            "astId": 2785,
            "contract": "contracts/BoostedMasterChefJoe.sol:BoostedMasterChefJoe",
            "label": "rewarder",
            "offset": 8,
            "slot": "3",
            "type": "t_contract(IRewarder)18749"
          },
          {
            "astId": 2787,
            "contract": "contracts/BoostedMasterChefJoe.sol:BoostedMasterChefJoe",
            "label": "veJoeShareBp",
            "offset": 28,
            "slot": "3",
            "type": "t_uint32"
          },
          {
            "astId": 2789,
            "contract": "contracts/BoostedMasterChefJoe.sol:BoostedMasterChefJoe",
            "label": "totalFactor",
            "offset": 0,
            "slot": "4",
            "type": "t_uint256"
          },
          {
            "astId": 2791,
            "contract": "contracts/BoostedMasterChefJoe.sol:BoostedMasterChefJoe",
            "label": "totalLpSupply",
            "offset": 0,
            "slot": "5",
            "type": "t_uint256"
          }
        ],
        "numberOfBytes": "192"
      },
      "t_struct(UserInfo)2773_storage": {
        "encoding": "inplace",
        "label": "struct BoostedMasterChefJoe.UserInfo",
        "members": [
          {
            "astId": 2768,
            "contract": "contracts/BoostedMasterChefJoe.sol:BoostedMasterChefJoe",
            "label": "amount",
            "offset": 0,
            "slot": "0",
            "type": "t_uint256"
          },
          {
            "astId": 2770,
            "contract": "contracts/BoostedMasterChefJoe.sol:BoostedMasterChefJoe",
            "label": "rewardDebt",
            "offset": 0,
            "slot": "1",
            "type": "t_uint256"
          },
          {
            "astId": 2772,
            "contract": "contracts/BoostedMasterChefJoe.sol:BoostedMasterChefJoe",
            "label": "factor",
            "offset": 0,
            "slot": "2",
            "type": "t_uint256"
          }
        ],
        "numberOfBytes": "96"
      },
      "t_uint256": {
        "encoding": "inplace",
        "label": "uint256",
        "numberOfBytes": "32"
      },
      "t_uint32": {
        "encoding": "inplace",
        "label": "uint32",
        "numberOfBytes": "4"
      },
      "t_uint64": {
        "encoding": "inplace",
        "label": "uint64",
        "numberOfBytes": "8"
      },
      "t_uint96": {
        "encoding": "inplace",
        "label": "uint96",
        "numberOfBytes": "12"
      }
    }
  }
}