{
  "address": "0xa89A42FbbE0c87ebBa3bA91924130Ad543D21c94",
  "abi": [
    {
      "inputs": [
        {
          "internalType": "address",
          "name": "_joe",
          "type": "address"
        },
        {
          "internalType": "address",
          "name": "_wavax",
          "type": "address"
        },
        {
          "internalType": "contract IJoePair",
          "name": "_wavaxUsdte",
          "type": "address"
        },
        {
          "internalType": "contract IJoePair",
          "name": "_wavaxUsdce",
          "type": "address"
        },
        {
          "internalType": "contract IJoePair",
          "name": "_wavaxUsdc",
          "type": "address"
        },
        {
          "internalType": "contract IJoeFactory",
          "name": "_joeFactory",
          "type": "address"
        },
        {
          "internalType": "contract IMasterChef",
          "name": "_chefv2",
          "type": "address"
        },
        {
          "internalType": "contract IMasterChef",
          "name": "_chefv3",
          "type": "address"
        },
        {
          "internalType": "contract IBoostedMasterchef",
          "name": "_bmcj",
          "type": "address"
        }
      ],
      "stateMutability": "nonpayable",
      "type": "constructor"
    },
    {
      "inputs": [],
      "name": "bmcj",
      "outputs": [
        {
          "internalType": "contract IBoostedMasterchef",
          "name": "",
          "type": "address"
        }
      ],
      "stateMutability": "view",
      "type": "function"
    },
    {
      "inputs": [],
      "name": "chefv2",
      "outputs": [
        {
          "internalType": "contract IMasterChef",
          "name": "",
          "type": "address"
        }
      ],
      "stateMutability": "view",
      "type": "function"
    },
    {
      "inputs": [],
      "name": "chefv3",
      "outputs": [
        {
          "internalType": "contract IMasterChef",
          "name": "",
          "type": "address"
        }
      ],
      "stateMutability": "view",
      "type": "function"
    },
    {
      "inputs": [
        {
          "internalType": "uint256[]",
          "name": "whitelistedPidsV2",
          "type": "uint256[]"
        },
        {
          "internalType": "uint256[]",
          "name": "whitelistedPidsV3",
          "type": "uint256[]"
        },
        {
          "internalType": "uint256[]",
          "name": "whitelistedPidsBMCJ",
          "type": "uint256[]"
        },
        {
          "internalType": "address",
          "name": "user",
          "type": "address"
        }
      ],
      "name": "getAllFarmData",
      "outputs": [
        {
          "components": [
            {
              "internalType": "uint256",
              "name": "avaxPriceUsd",
              "type": "uint256"
            },
            {
              "internalType": "uint256",
              "name": "joePriceUsd",
              "type": "uint256"
            },
            {
              "internalType": "uint256",
              "name": "totalAllocChefV2",
              "type": "uint256"
            },
            {
              "internalType": "uint256",
              "name": "totalAllocChefV3",
              "type": "uint256"
            },
            {
              "internalType": "uint256",
              "name": "totalAllocBMCJ",
              "type": "uint256"
            },
            {
              "internalType": "uint256",
              "name": "joePerSecChefV2",
              "type": "uint256"
            },
            {
              "internalType": "uint256",
              "name": "joePerSecChefV3",
              "type": "uint256"
            },
            {
              "internalType": "uint256",
              "name": "joePerSecBMCJ",
              "type": "uint256"
            },
            {
              "components": [
                {
                  "internalType": "uint256",
                  "name": "id",
                  "type": "uint256"
                },
                {
                  "internalType": "uint256",
                  "name": "allocPoint",
                  "type": "uint256"
                },
                {
                  "internalType": "address",
                  "name": "lpAddress",
                  "type": "address"
                },
                {
                  "internalType": "address",
                  "name": "token0Address",
                  "type": "address"
                },
                {
                  "internalType": "address",
                  "name": "token1Address",
                  "type": "address"
                },
                {
                  "internalType": "string",
                  "name": "token0Symbol",
                  "type": "string"
                },
                {
                  "internalType": "string",
                  "name": "token1Symbol",
                  "type": "string"
                },
                {
                  "internalType": "uint256",
                  "name": "reserveUsd",
                  "type": "uint256"
                },
                {
                  "internalType": "uint256",
                  "name": "totalSupplyScaled",
                  "type": "uint256"
                },
                {
                  "internalType": "address",
                  "name": "chefAddress",
                  "type": "address"
                },
                {
                  "internalType": "uint256",
                  "name": "chefBalanceScaled",
                  "type": "uint256"
                },
                {
                  "internalType": "uint256",
                  "name": "chefTotalAlloc",
                  "type": "uint256"
                },
                {
                  "internalType": "uint256",
                  "name": "chefJoePerSec",
                  "type": "uint256"
                }
              ],
              "internalType": "struct FarmLensV2.FarmInfo[]",
              "name": "farmInfosV2",
              "type": "tuple[]"
            },
            {
              "components": [
                {
                  "internalType": "uint256",
                  "name": "id",
                  "type": "uint256"
                },
                {
                  "internalType": "uint256",
                  "name": "allocPoint",
                  "type": "uint256"
                },
                {
                  "internalType": "address",
                  "name": "lpAddress",
                  "type": "address"
                },
                {
                  "internalType": "address",
                  "name": "token0Address",
                  "type": "address"
                },
                {
                  "internalType": "address",
                  "name": "token1Address",
                  "type": "address"
                },
                {
                  "internalType": "string",
                  "name": "token0Symbol",
                  "type": "string"
                },
                {
                  "internalType": "string",
                  "name": "token1Symbol",
                  "type": "string"
                },
                {
                  "internalType": "uint256",
                  "name": "reserveUsd",
                  "type": "uint256"
                },
                {
                  "internalType": "uint256",
                  "name": "totalSupplyScaled",
                  "type": "uint256"
                },
                {
                  "internalType": "address",
                  "name": "chefAddress",
                  "type": "address"
                },
                {
                  "internalType": "uint256",
                  "name": "chefBalanceScaled",
                  "type": "uint256"
                },
                {
                  "internalType": "uint256",
                  "name": "chefTotalAlloc",
                  "type": "uint256"
                },
                {
                  "internalType": "uint256",
                  "name": "chefJoePerSec",
                  "type": "uint256"
                }
              ],
              "internalType": "struct FarmLensV2.FarmInfo[]",
              "name": "farmInfosV3",
              "type": "tuple[]"
            },
            {
              "components": [
                {
                  "internalType": "uint256",
                  "name": "id",
                  "type": "uint256"
                },
                {
                  "internalType": "uint256",
                  "name": "allocPoint",
                  "type": "uint256"
                },
                {
                  "internalType": "address",
                  "name": "lpAddress",
                  "type": "address"
                },
                {
                  "internalType": "address",
                  "name": "token0Address",
                  "type": "address"
                },
                {
                  "internalType": "address",
                  "name": "token1Address",
                  "type": "address"
                },
                {
                  "internalType": "string",
                  "name": "token0Symbol",
                  "type": "string"
                },
                {
                  "internalType": "string",
                  "name": "token1Symbol",
                  "type": "string"
                },
                {
                  "internalType": "uint256",
                  "name": "reserveUsd",
                  "type": "uint256"
                },
                {
                  "internalType": "uint256",
                  "name": "totalSupplyScaled",
                  "type": "uint256"
                },
                {
                  "internalType": "address",
                  "name": "chefAddress",
                  "type": "address"
                },
                {
                  "internalType": "uint256",
                  "name": "chefBalanceScaled",
                  "type": "uint256"
                },
                {
                  "internalType": "uint256",
                  "name": "chefTotalAlloc",
                  "type": "uint256"
                },
                {
                  "internalType": "uint256",
                  "name": "chefJoePerSec",
                  "type": "uint256"
                },
                {
                  "internalType": "uint256",
                  "name": "baseAPR",
                  "type": "uint256"
                },
                {
                  "internalType": "uint256",
                  "name": "boostedAPR",
                  "type": "uint256"
                },
                {
                  "internalType": "uint256",
                  "name": "boostFactor",
                  "type": "uint256"
                }
              ],
              "internalType": "struct FarmLensV2.FarmInfoBMCJ[]",
              "name": "farmInfosBMCJ",
              "type": "tuple[]"
            }
          ],
          "internalType": "struct FarmLensV2.AllFarmData",
          "name": "",
          "type": "tuple"
        }
      ],
      "stateMutability": "view",
      "type": "function"
    },
    {
      "inputs": [],
      "name": "getAvaxPrice",
      "outputs": [
        {
          "internalType": "uint256",
          "name": "",
          "type": "uint256"
        }
      ],
      "stateMutability": "view",
      "type": "function"
    },
    {
      "inputs": [
        {
          "internalType": "contract IBoostedMasterchef",
          "name": "chef",
          "type": "address"
        },
        {
          "internalType": "address",
          "name": "user",
          "type": "address"
        },
        {
          "internalType": "uint256[]",
          "name": "whitelistedPids",
          "type": "uint256[]"
        }
      ],
      "name": "getBMCJFarmInfos",
      "outputs": [
        {
          "components": [
            {
              "internalType": "uint256",
              "name": "id",
              "type": "uint256"
            },
            {
              "internalType": "uint256",
              "name": "allocPoint",
              "type": "uint256"
            },
            {
              "internalType": "address",
              "name": "lpAddress",
              "type": "address"
            },
            {
              "internalType": "address",
              "name": "token0Address",
              "type": "address"
            },
            {
              "internalType": "address",
              "name": "token1Address",
              "type": "address"
            },
            {
              "internalType": "string",
              "name": "token0Symbol",
              "type": "string"
            },
            {
              "internalType": "string",
              "name": "token1Symbol",
              "type": "string"
            },
            {
              "internalType": "uint256",
              "name": "reserveUsd",
              "type": "uint256"
            },
            {
              "internalType": "uint256",
              "name": "totalSupplyScaled",
              "type": "uint256"
            },
            {
              "internalType": "address",
              "name": "chefAddress",
              "type": "address"
            },
            {
              "internalType": "uint256",
              "name": "chefBalanceScaled",
              "type": "uint256"
            },
            {
              "internalType": "uint256",
              "name": "chefTotalAlloc",
              "type": "uint256"
            },
            {
              "internalType": "uint256",
              "name": "chefJoePerSec",
              "type": "uint256"
            },
            {
              "internalType": "uint256",
              "name": "baseAPR",
              "type": "uint256"
            },
            {
              "internalType": "uint256",
              "name": "boostedAPR",
              "type": "uint256"
            },
            {
              "internalType": "uint256",
              "name": "boostFactor",
              "type": "uint256"
            }
          ],
          "internalType": "struct FarmLensV2.FarmInfoBMCJ[]",
          "name": "",
          "type": "tuple[]"
        }
      ],
      "stateMutability": "view",
      "type": "function"
    },
    {
      "inputs": [
        {
          "internalType": "address",
          "name": "token",
          "type": "address"
        }
      ],
      "name": "getDerivedAvaxPriceOfToken",
      "outputs": [
        {
          "internalType": "uint256",
          "name": "",
          "type": "uint256"
        }
      ],
      "stateMutability": "view",
      "type": "function"
    },
    {
      "inputs": [
        {
          "internalType": "contract IMasterChef",
          "name": "chef",
          "type": "address"
        },
        {
          "internalType": "uint256[]",
          "name": "whitelistedPids",
          "type": "uint256[]"
        }
      ],
      "name": "getMCFarmInfos",
      "outputs": [
        {
          "components": [
            {
              "internalType": "uint256",
              "name": "id",
              "type": "uint256"
            },
            {
              "internalType": "uint256",
              "name": "allocPoint",
              "type": "uint256"
            },
            {
              "internalType": "address",
              "name": "lpAddress",
              "type": "address"
            },
            {
              "internalType": "address",
              "name": "token0Address",
              "type": "address"
            },
            {
              "internalType": "address",
              "name": "token1Address",
              "type": "address"
            },
            {
              "internalType": "string",
              "name": "token0Symbol",
              "type": "string"
            },
            {
              "internalType": "string",
              "name": "token1Symbol",
              "type": "string"
            },
            {
              "internalType": "uint256",
              "name": "reserveUsd",
              "type": "uint256"
            },
            {
              "internalType": "uint256",
              "name": "totalSupplyScaled",
              "type": "uint256"
            },
            {
              "internalType": "address",
              "name": "chefAddress",
              "type": "address"
            },
            {
              "internalType": "uint256",
              "name": "chefBalanceScaled",
              "type": "uint256"
            },
            {
              "internalType": "uint256",
              "name": "chefTotalAlloc",
              "type": "uint256"
            },
            {
              "internalType": "uint256",
              "name": "chefJoePerSec",
              "type": "uint256"
            }
          ],
          "internalType": "struct FarmLensV2.FarmInfo[]",
          "name": "",
          "type": "tuple[]"
        }
      ],
      "stateMutability": "view",
      "type": "function"
    },
    {
      "inputs": [
        {
          "internalType": "address",
          "name": "token",
          "type": "address"
        }
      ],
      "name": "getTokenPrice",
      "outputs": [
        {
          "internalType": "uint256",
          "name": "",
          "type": "uint256"
        }
      ],
      "stateMutability": "view",
      "type": "function"
    },
    {
      "inputs": [],
      "name": "joe",
      "outputs": [
        {
          "internalType": "address",
          "name": "",
          "type": "address"
        }
      ],
      "stateMutability": "view",
      "type": "function"
    },
    {
      "inputs": [],
      "name": "joeFactory",
      "outputs": [
        {
          "internalType": "contract IJoeFactory",
          "name": "",
          "type": "address"
        }
      ],
      "stateMutability": "view",
      "type": "function"
    },
    {
      "inputs": [],
      "name": "wavax",
      "outputs": [
        {
          "internalType": "address",
          "name": "",
          "type": "address"
        }
      ],
      "stateMutability": "view",
      "type": "function"
    },
    {
      "inputs": [],
      "name": "wavaxUsdc",
      "outputs": [
        {
          "internalType": "contract IJoePair",
          "name": "",
          "type": "address"
        }
      ],
      "stateMutability": "view",
      "type": "function"
    },
    {
      "inputs": [],
      "name": "wavaxUsdce",
      "outputs": [
        {
          "internalType": "contract IJoePair",
          "name": "",
          "type": "address"
        }
      ],
      "stateMutability": "view",
      "type": "function"
    },
    {
      "inputs": [],
      "name": "wavaxUsdte",
      "outputs": [
        {
          "internalType": "contract IJoePair",
          "name": "",
          "type": "address"
        }
      ],
      "stateMutability": "view",
      "type": "function"
    }
  ],
  "transactionHash": "0x225cbe06caa449b2e63197420ca848b6535584e4a3be6c9ccc8df22488c00bed",
  "args": [
    "0x6e84a6216eA6dACC71eE8E6b0a5B7322EEbC0fDd",
    "0xB31f66AA3C1e785363F0875A1B74E27b85FD66c7",
    "0xeD8CBD9F0cE3C6986b22002F03c6475CEb7a6256",
    "0xa389f9430876455c36478deea9769b7ca4e3ddb1",
    "0xf4003F4efBE8691B60249E6afbD307aBE7758adb",
    "0x9Ad6C38BE94206cA50bb0d90783181662f0Cfa10",
    "0xd6a4F121CA35509aF06A0Be99093d08462f53052",
    "0x188bED1968b795d5c9022F6a0bb5931Ac4c18F00",
    "0x4483f0b6e2F5486D06958C20f8C39A7aBe87bf8F"
  ],
  "numDeployments": 2,
  "solcInputHash": "d7494b22c5c58c075701b1a950ade0ea",
  "bytecode": "0x6101a06040523480156200001257600080fd5b5060405162002f2538038062002f2583398101604081905262000035916200008f565b6001600160601b03196060998a1b811660805297891b881660a05295881b871660c05293871b861660e05291861b851661010052851b841661012052841b831661014052831b82166101605290911b16610180526200017e565b60008060008060008060008060006101208a8c031215620000ae578485fd5b8951620000bb8162000165565b60208b0151909950620000ce8162000165565b60408b0151909850620000e18162000165565b60608b0151909750620000f48162000165565b60808b0151909650620001078162000165565b60a08b01519095506200011a8162000165565b60c08b01519094506200012d8162000165565b60e08b0151909350620001408162000165565b6101008b0151909250620001548162000165565b809150509295985092959850929598565b6001600160a01b03811681146200017b57600080fd5b50565b60805160601c60a05160601c60c05160601c60e05160601c6101005160601c6101205160601c6101405160601c6101605160601c6101805160601c612cb162000274600039806101f5528061052352806105bd52806108485280610e045280610e335280610ec952508061023d52806103ef5280610489528061068852806107a65250806102ce5280610355528061065652806106d9528061076b5250806107455280610a675250806107215280610970525080610906528061099e5250806106fd52806109c95250806102195280610a065280610a965280611c0c525080610282528061082252806108ba5250612cb16000f3fe608060405234801561001057600080fd5b50600436106100f55760003560e01c80638a38466e11610097578063cff5dd3311610066578063cff5dd33146101b0578063d02641a0146101b8578063eee5c276146101d8578063f97a496c146101eb576100f5565b80638a38466e146101605780639bbf1deb14610168578063b985a3a014610188578063ce7a198914610190576100f5565b806335541641116100d357806335541641146101285780634e57afe014610148578063685f02e71461015057806387dabe4614610158576100f5565b80630d1dcd9a146100fa578063117be4c2146101185780632c9e2b0514610120575b600080fd5b6101026101f3565b60405161010f9190612944565b60405180910390f35b610102610217565b61010261023b565b61013b6101363660046122f7565b61025f565b60405161010f9190612b1a565b6101026106d7565b6101026106fb565b61010261071f565b610102610743565b61017b610176366004612404565b610767565b60405161010f91906129d2565b610102610820565b6101a361019e3660046123a1565b610844565b60405161010f9190612972565b610102610904565b6101cb6101c63660046122bf565b610928565b60405161010f9190612bd7565b6101cb6101e63660046122bf565b610944565b6101cb610955565b7f000000000000000000000000000000000000000000000000000000000000000081565b7f000000000000000000000000000000000000000000000000000000000000000081565b7f000000000000000000000000000000000000000000000000000000000000000081565b610267611fd9565b61026f611fd9565b6000610279610964565b905060006102a67f0000000000000000000000000000000000000000000000000000000000000000610a02565b8284526020808501829052604080516317caf6f160e01b815290519293506001600160a01b037f000000000000000000000000000000000000000000000000000000000000000016926317caf6f192600480840193919291829003018186803b15801561031257600080fd5b505afa158015610326573d6000803e3d6000fd5b505050506040513d601f19601f8201168201806040525081019061034a919061266a565b8360400181815250507f00000000000000000000000000000000000000000000000000000000000000006001600160a01b031663ca418d236040518163ffffffff1660e01b815260040160206040518083038186803b1580156103ac57600080fd5b505afa1580156103c0573d6000803e3d6000fd5b505050506040513d601f19601f820116820180604052508101906103e4919061266a565b8360a00181815250507f00000000000000000000000000000000000000000000000000000000000000006001600160a01b03166317caf6f16040518163ffffffff1660e01b815260040160206040518083038186803b15801561044657600080fd5b505afa15801561045a573d6000803e3d6000fd5b505050506040513d601f19601f8201168201806040525081019061047e919061266a565b8360600181815250507f00000000000000000000000000000000000000000000000000000000000000006001600160a01b031663ca418d236040518163ffffffff1660e01b815260040160206040518083038186803b1580156104e057600080fd5b505afa1580156104f4573d6000803e3d6000fd5b505050506040513d601f19601f82011682018060405250810190610518919061266a565b8360c00181815250507f00000000000000000000000000000000000000000000000000000000000000006001600160a01b03166317caf6f16040518163ffffffff1660e01b815260040160206040518083038186803b15801561057a57600080fd5b505afa15801561058e573d6000803e3d6000fd5b505050506040513d601f19601f820116820180604052508101906105b2919061266a565b8360800181815250507f00000000000000000000000000000000000000000000000000000000000000006001600160a01b031663ca418d236040518163ffffffff1660e01b815260040160206040518083038186803b15801561061457600080fd5b505afa158015610628573d6000803e3d6000fd5b505050506040513d601f19601f8201168201806040525081019061064c919061266a565b60e084015261067d7f0000000000000000000000000000000000000000000000000000000000000000838d8d610bbd565b6101008401526106af7f0000000000000000000000000000000000000000000000000000000000000000838b8b610bbd565b6101208401526106c28183878a8a610ded565b61014084015250909998505050505050505050565b7f000000000000000000000000000000000000000000000000000000000000000081565b7f000000000000000000000000000000000000000000000000000000000000000081565b7f000000000000000000000000000000000000000000000000000000000000000081565b7f000000000000000000000000000000000000000000000000000000000000000081565b60607f00000000000000000000000000000000000000000000000000000000000000006001600160a01b0316846001600160a01b031614806107da57507f00000000000000000000000000000000000000000000000000000000000000006001600160a01b0316846001600160a01b0316145b6107ff5760405162461bcd60e51b81526004016107f690612a79565b60405180910390fd5b6000610809610964565b905061081785828686610bbd565b95945050505050565b7f000000000000000000000000000000000000000000000000000000000000000081565b60607f00000000000000000000000000000000000000000000000000000000000000006001600160a01b0316856001600160a01b0316146108975760405162461bcd60e51b81526004016107f690612a15565b60006108a1610964565b905060006108ea670de0b6b3a76400006108e4846108de7f0000000000000000000000000000000000000000000000000000000000000000610a02565b9061121e565b90611255565b90506108f98282888888610ded565b979650505050505050565b7f000000000000000000000000000000000000000000000000000000000000000081565b6000610932610964565b61093b83610a02565b0290505b919050565b600061094f82610a02565b92915050565b600061095f610964565b905090565b600060036109f56109967f00000000000000000000000000000000000000000000000000000000000000006000611287565b6109ef6109c47f00000000000000000000000000000000000000000000000000000000000000006001611287565b6109ef7f00000000000000000000000000000000000000000000000000000000000000006000611287565b90611426565b816109fc57fe5b04905090565b60007f00000000000000000000000000000000000000000000000000000000000000006001600160a01b0316826001600160a01b03161415610a4d5750670de0b6b3a764000061093f565b60405163e6a4390560e01b81526000906001600160a01b037f0000000000000000000000000000000000000000000000000000000000000000169063e6a4390590610abe9086907f000000000000000000000000000000000000000000000000000000000000000090600401612958565b60206040518083038186803b158015610ad657600080fd5b505afa158015610aea573d6000803e3d6000fd5b505050506040513d601f19601f82011682018060405250810190610b0e91906122db565b90506001600160a01b038116610b2857600091505061093f565b610bb681826001600160a01b031663d21220a76040518163ffffffff1660e01b815260040160206040518083038186803b158015610b6557600080fd5b505afa158015610b79573d6000803e3d6000fd5b505050506040513d601f19601f82011682018060405250810190610b9d91906122db565b6001600160a01b0316856001600160a01b031614611287565b9392505050565b606081818167ffffffffffffffff81118015610bd857600080fd5b50604051908082528060200260200182016040528015610c1257816020015b610bff612033565b815260200190600190039081610bf75790505b5090506000876001600160a01b03166317caf6f16040518163ffffffff1660e01b815260040160206040518083038186803b158015610c5057600080fd5b505afa158015610c64573d6000803e3d6000fd5b505050506040513d601f19601f82011682018060405250810190610c88919061266a565b90506000886001600160a01b031663ca418d236040518163ffffffff1660e01b815260040160206040518083038186803b158015610cc557600080fd5b505afa158015610cd9573d6000803e3d6000fd5b505050506040513d601f19601f82011682018060405250810190610cfd919061266a565b905060005b84811015610ddf576000888883818110610d1857fe5b905060200201359050610d296120bf565b604051631526fe2760e01b81526001600160a01b038d1690631526fe2790610d55908590600401612bd7565b60806040518083038186803b158015610d6d57600080fd5b505afa158015610d81573d6000803e3d6000fd5b505050506040513d601f19601f82011682018060405250810190610da591906124e3565b9050610dbe8c8c84846000015185602001518a8a611449565b868481518110610dca57fe5b60209081029190910101525050600101610d02565b509198975050505050505050565b6060610df76120f0565b60405180606001604052807f00000000000000000000000000000000000000000000000000000000000000006001600160a01b031681526020017f00000000000000000000000000000000000000000000000000000000000000006001600160a01b03166317caf6f16040518163ffffffff1660e01b815260040160206040518083038186803b158015610e8a57600080fd5b505afa158015610e9e573d6000803e3d6000fd5b505050506040513d601f19601f82011682018060405250810190610ec2919061266a565b81526020017f00000000000000000000000000000000000000000000000000000000000000006001600160a01b031663ca418d236040518163ffffffff1660e01b815260040160206040518083038186803b158015610f2057600080fd5b505afa158015610f34573d6000803e3d6000fd5b505050506040513d601f19601f82011682018060405250810190610f58919061266a565b905290508260608167ffffffffffffffff81118015610f7657600080fd5b50604051908082528060200260200182016040528015610fb057816020015b610f9d61211a565b815260200190600190039081610f955790505b50905060005b82811015611211576000878783818110610fcc57fe5b905060200201359050610fdd6121bb565b8551604051631526fe2760e01b81526001600160a01b0390911690631526fe279061100c908590600401612bd7565b6101206040518083038186803b15801561102557600080fd5b505afa158015611039573d6000803e3d6000fd5b505050506040513d601f19601f8201168201806040525081019061105d9190612535565b9050611067612207565b6001600160a01b038b16156110fe5786516040516393f1a40b60e01b81526001600160a01b03909116906393f1a40b906110a79086908f90600401612be0565b60606040518083038186803b1580156110bf57600080fd5b505afa1580156110d3573d6000803e3d6000fd5b505050506040513d601f19601f820116820180604052508101906110f791906125d9565b9050611126565b60405180606001604052808361010001518152602001600081526020018360e0015181525090505b61115e8d670de0b6b3a764000061114a8f8b6040015161121e90919063ffffffff16565b8161115157fe5b0489602001518585611793565b85858151811061116a57fe5b60200260200101819052508285858151811061118257fe5b6020908102919091010151528651855186908690811061119e57fe5b602002602001015161012001906001600160a01b031690816001600160a01b03168152505086602001518585815181106111d457fe5b602002602001015161016001818152505086604001518585815181106111f657fe5b60209081029190910101516101800152505050600101610fb6565b5098975050505050505050565b60008115806112395750508082028282828161123657fe5b04145b61094f5760405162461bcd60e51b81526004016107f690612aea565b60008082116112765760405162461bcd60e51b81526004016107f690612abb565b81838161127f57fe5b049392505050565b6000806000846001600160a01b0316630902f1ac6040518163ffffffff1660e01b815260040160606040518083038186803b1580156112c557600080fd5b505afa1580156112d9573d6000803e3d6000fd5b505050506040513d601f19601f820116820180604052508101906112fd9190612616565b506001600160701b031691506001600160701b031691506000611398866001600160a01b0316630dfe16816040518163ffffffff1660e01b815260040160206040518083038186803b15801561135257600080fd5b505afa158015611366573d6000803e3d6000fd5b505050506040513d601f19601f8201168201806040525081019061138a91906122db565b6001600160a01b0316611b07565b60ff16905060006113db876001600160a01b031663d21220a76040518163ffffffff1660e01b815260040160206040518083038186803b15801561135257600080fd5b60ff169050851561141357611408836108e486611403866113fd876012611426565b90611bc8565b611beb565b94505050505061094f565b611408846108e485611403856113fd8860125b8181018181101561094f5760405162461bcd60e51b81526004016107f6906129e5565b611451612033565b6000856001600160a01b031663313ce5676040518163ffffffff1660e01b815260040160206040518083038186803b15801561148c57600080fd5b505afa1580156114a0573d6000803e3d6000fd5b505050506040513d601f19601f820116820180604052508101906114c49190612682565b60ff1690506000611548876001600160a01b03166318160ddd6040518163ffffffff1660e01b815260040160206040518083038186803b15801561150757600080fd5b505afa15801561151b573d6000803e3d6000fd5b505050506040513d601f19601f8201168201806040525081019061153f919061266a565b83601203611beb565b905060006115d4886001600160a01b03166370a082318d6040518263ffffffff1660e01b815260040161157b9190612944565b60206040518083038186803b15801561159357600080fd5b505afa1580156115a7573d6000803e3d6000fd5b505050506040513d601f19601f820116820180604052508101906115cb919061266a565b84601203611beb565b90506000670de0b6b3a76400006115ee8c6108de8c611c07565b816115f557fe5b0490506000896001600160a01b0316630dfe16816040518163ffffffff1660e01b815260040160206040518083038186803b15801561163357600080fd5b505afa158015611647573d6000803e3d6000fd5b505050506040513d601f19601f8201168201806040525081019061166b91906122db565b905060008a6001600160a01b031663d21220a76040518163ffffffff1660e01b815260040160206040518083038186803b1580156116a857600080fd5b505afa1580156116bc573d6000803e3d6000fd5b505050506040513d601f19601f820116820180604052508101906116e091906122db565b9050604051806101a001604052808d81526020018b81526020018c6001600160a01b03168152602001836001600160a01b03168152602001826001600160a01b03168152602001611739846001600160a01b0316611f06565b8152602001611750836001600160a01b0316611f06565b81526020018481526020018681526020018f6001600160a01b031681526020018581526020018a8152602001898152509650505050505050979650505050505050565b61179b61211a565b8251600090670de0b6b3a76400006117b6896108de84611c07565b816117bd57fe5b0491506000816001600160a01b0316630dfe16816040518163ffffffff1660e01b815260040160206040518083038186803b1580156117fb57600080fd5b505afa15801561180f573d6000803e3d6000fd5b505050506040513d601f19601f8201168201806040525081019061183391906122db565b90506000826001600160a01b031663d21220a76040518163ffffffff1660e01b815260040160206040518083038186803b15801561187057600080fd5b505afa158015611884573d6000803e3d6000fd5b505050506040513d601f19601f820116820180604052508101906118a891906122db565b6020808901516001600160601b0316908701526001600160a01b0380851660408801528381166060880181905290821660808801529091506118e990611f06565b60a08601526119006001600160a01b038216611f06565b8560c00181905250838560e0018181525050826001600160a01b03166318160ddd6040518163ffffffff1660e01b815260040160206040518083038186803b15801561194b57600080fd5b505afa15801561195f573d6000803e3d6000fd5b505050506040513d601f19601f82011682018060405250810190611983919061266a565b6101008681019190915287015161014086015260c087015163ffffffff1661271014156119b8576000196101e08601526119ea565b60c087015163ffffffff6127108281038216920216816119d457fe5b046127100163ffffffff16856101e00181815250505b50505061010084015115801590611a0057508415155b15611afd576101008401518351600091611a1e916108e4908561121e565b905080611a2c575050610817565b611a78611a39878361121e565b6108e487602001516001600160601b03166108de8960c001516127100363ffffffff166108de68aaf4fddb82d7e000008e61121e90919063ffffffff16565b6101a084015260e085015115611afb576000611abc68aaf4fddb82d7e000006108de87604001516108de8a60c0015163ffffffff168d61121e90919063ffffffff16565b9050611af3611acb888461121e565b6108e488602001516001600160601b03166108de8a60e001518661125590919063ffffffff16565b6101c0850152505b505b5095945050505050565b60408051600481526024810182526020810180516001600160e01b031663313ce56760e01b179052905160009182916060916001600160a01b03861691611b4e9190612928565b600060405180830381855afa9150503d8060008114611b89576040519150601f19603f3d011682016040523d82523d6000602084013e611b8e565b606091505b5091509150818015611ba1575080516020145b611bac576012611bc0565b80806020019051810190611bc09190612682565b949350505050565b8082038281111561094f5760405162461bcd60e51b81526004016107f690612a4c565b600081611bf957508161094f565b610bb683600a84900a61121e565b6000807f00000000000000000000000000000000000000000000000000000000000000009050600080846001600160a01b0316630902f1ac6040518163ffffffff1660e01b815260040160606040518083038186803b158015611c6957600080fd5b505afa158015611c7d573d6000803e3d6000fd5b505050506040513d601f19601f82011682018060405250810190611ca19190612616565b506001600160701b031691506001600160701b031691506000856001600160a01b0316630dfe16816040518163ffffffff1660e01b815260040160206040518083038186803b158015611cf357600080fd5b505afa158015611d07573d6000803e3d6000fd5b505050506040513d601f19601f82011682018060405250810190611d2b91906122db565b90506000866001600160a01b031663d21220a76040518163ffffffff1660e01b815260040160206040518083038186803b158015611d6857600080fd5b505afa158015611d7c573d6000803e3d6000fd5b505050506040513d601f19601f82011682018060405250810190611da091906122db565b90506000611db6836001600160a01b0316611b07565b60ff1690506000611dcf836001600160a01b0316611b07565b60ff169050611de386611403601285611bc8565b9550611df485611403601284611bc8565b9450600080886001600160a01b0316866001600160a01b03161415611e3057670de0b6b3a76400009150611e298b6001611287565b9050611ecf565b886001600160a01b0316856001600160a01b03161415611e6757611e558b6000611287565b9150670de0b6b3a76400009050611ecf565b611e7086610a02565b9150611e7b85610a02565b905081611eb257670de0b6b3a7640000611e9a60026108de8a8561121e565b81611ea157fe5b04995050505050505050505061093f565b80611ecf57670de0b6b3a7640000611e9a60026108de8b8661121e565b670de0b6b3a7640000611eef611ee5898461121e565b6109ef8b8661121e565b81611ef657fe5b049b9a5050505050505050505050565b60408051600481526024810182526020810180516001600160e01b03166395d89b4160e01b179052905160609160009183916001600160a01b03861691611f4d9190612928565b600060405180830381855afa9150503d8060008114611f88576040519150601f19603f3d011682016040523d82523d6000602084013e611f8d565b606091505b5091509150818015611fa0575060008151115b611fc557604051806040016040528060038152602001623f3f3f60e81b815250611bc0565b80806020019051810190611bc09190612457565b60405180610160016040528060008152602001600081526020016000815260200160008152602001600081526020016000815260200160008152602001600081526020016060815260200160608152602001606081525090565b604051806101a00160405280600081526020016000815260200160006001600160a01b0316815260200160006001600160a01b0316815260200160006001600160a01b031681526020016060815260200160608152602001600081526020016000815260200160006001600160a01b031681526020016000815260200160008152602001600081525090565b604051806080016040528060006001600160a01b031681526020016000815260200160008152602001600081525090565b604051806060016040528060006001600160a01b0316815260200160008152602001600081525090565b604051806102000160405280600081526020016000815260200160006001600160a01b0316815260200160006001600160a01b0316815260200160006001600160a01b031681526020016060815260200160608152602001600081526020016000815260200160006001600160a01b031681526020016000815260200160008152602001600081526020016000815260200160008152602001600081525090565b6040805161012081018252600080825260208201819052918101829052606081018290526080810182905260a0810182905260c0810182905260e0810182905261010081019190915290565b60405180606001604052806000815260200160008152602001600081525090565b805161094f81612c4e565b60008083601f840112612244578182fd5b50813567ffffffffffffffff81111561225b578182fd5b602083019150836020808302850101111561227557600080fd5b9250929050565b805163ffffffff8116811461094f57600080fd5b805167ffffffffffffffff8116811461094f57600080fd5b80516001600160601b038116811461094f57600080fd5b6000602082840312156122d0578081fd5b8135610bb681612c4e565b6000602082840312156122ec578081fd5b8151610bb681612c4e565b60008060008060008060006080888a031215612311578283fd5b873567ffffffffffffffff80821115612328578485fd5b6123348b838c01612233565b909950975060208a013591508082111561234c578485fd5b6123588b838c01612233565b909750955060408a0135915080821115612370578485fd5b5061237d8a828b01612233565b909450925050606088013561239181612c4e565b8091505092959891949750929550565b600080600080606085870312156123b6578384fd5b84356123c181612c4e565b935060208501356123d181612c4e565b9250604085013567ffffffffffffffff8111156123ec578283fd5b6123f887828801612233565b95989497509550505050565b600080600060408486031215612418578283fd5b833561242381612c4e565b9250602084013567ffffffffffffffff81111561243e578283fd5b61244a86828701612233565b9497909650939450505050565b600060208284031215612468578081fd5b815167ffffffffffffffff8082111561247f578283fd5b818401915084601f830112612492578283fd5b8151818111156124a0578384fd5b6124b3601f8201601f1916602001612bf7565b91508082528560208285010111156124c9578384fd5b6124da816020840160208601612c1e565b50949350505050565b6000608082840312156124f4578081fd5b6124fe6080612bf7565b825161250981612c4e565b808252506020830151602082015260408301516040820152606083015160608201528091505092915050565b6000610120808385031215612548578182fd5b61255181612bf7565b905061255d8484612228565b815261256c84602085016122a8565b602082015260408301516040820152606083015160608201526125928460808501612290565b60808201526125a48460a08501612228565b60a08201526125b68460c0850161227c565b60c082015260e08381015190820152610100928301519281019290925250919050565b6000606082840312156125ea578081fd5b6125f46060612bf7565b8251815260208301516020820152604083015160408201528091505092915050565b60008060006060848603121561262a578081fd5b835161263581612c66565b602085015190935061264681612c66565b604085015190925063ffffffff8116811461265f578182fd5b809150509250925092565b60006020828403121561267b578081fd5b5051919050565b600060208284031215612693578081fd5b815160ff81168114610bb6578182fd5b6000610200825184526020830151602085015260408301516126c86040860182612798565b5060608301516126db6060860182612798565b5060808301516126ee6080860182612798565b5060a08301518160a0860152612706828601826128fc565b91505060c083015184820360c086015261272082826128fc565b91505060e083015160e08501526101008084015181860152506101208084015161274c82870182612798565b50506101408381015190850152610160808401519085015261018080840151908501526101a080840151908501526101c080840151908501526101e09283015192909301919091525090565b6001600160a01b03169052565b6000815180845260208085019450848183028601828601855b858110156127e85783830389526127d68383516126a3565b988501989250908401906001016127be565b5090979650505050505050565b6000815180845260208085019450848183028601828601855b858110156127e857838303895281516101a081518552868201518786015260408083015161283e82880182612798565b505060608083015161285282880182612798565b505060808083015161286682880182612798565b505060a080830151828288015261287f838801826128fc565b9250505060c0808301518683038288015261289a83826128fc565b9250505060e0808301518187015250610100808301518187015250610120808301516128c882880182612798565b505061014082810151908601526101608083015190860152610180918201519190940152978401979084019060010161280e565b60008151808452612914816020860160208601612c1e565b601f01601f19169290920160200192915050565b6000825161293a818460208701612c1e565b9190910192915050565b6001600160a01b0391909116815260200190565b6001600160a01b0392831681529116602082015260400190565b6000602080830181845280855180835260408601915060408482028701019250838701855b828110156129c557603f198886030184526129b38583516126a3565b94509285019290850190600101612997565b5092979650505050505050565b600060208252610bb660208301846127f5565b602080825260169082015275536166654d6174683a20416464204f766572666c6f7760501b604082015260600190565b60208082526019908201527f4661726d4c656e7356323a204f6e6c7920666f7220424d434a00000000000000604082015260600190565b602080825260139082015272536166654d6174683a20556e646572666c6f7760681b604082015260600190565b60208082526022908201527f4661726d4c656e7356323a206f6e6c7920666f72204d43563220616e64204d43604082015261563360f01b606082015260800190565b602080825260159082015274536166654d6174683a20446976206279205a65726f60581b604082015260600190565b602080825260169082015275536166654d6174683a204d756c204f766572666c6f7760501b604082015260600190565b60006020825282516020830152602083015160408301526040830151606083015260608301516080830152608083015160a083015260a083015160c083015260c083015160e083015260e08301516101008181850152808501519150506101606101208181860152612b906101808601846127f5565b9250808601519050601f19610140818786030181880152612bb185846127f5565b908801518782039092018488015293509050612bcd83826127a5565b9695505050505050565b90815260200190565b9182526001600160a01b0316602082015260400190565b60405181810167ffffffffffffffff81118282101715612c1657600080fd5b604052919050565b60005b83811015612c39578181015183820152602001612c21565b83811115612c48576000848401525b50505050565b6001600160a01b0381168114612c6357600080fd5b50565b6001600160701b0381168114612c6357600080fdfea26469706673582212200ba841f1ad2a257b60d1b94598c8dfa62f7d9d354d51752f935156af5bf8a69464736f6c634300060c0033",
  "devdoc": {
    "kind": "dev",
    "methods": {
      "getAllFarmData(uint256[],uint256[],uint256[],address)": {
        "params": {
          "user": "The address of the user, if address(0), returns global info",
          "whitelistedPidsBMCJ": "Array of all ids of pools that are whitelisted in BMCJ",
          "whitelistedPidsV2": "Array of all ids of pools that are whitelisted in chefV2",
          "whitelistedPidsV3": "Array of all ids of pools that are whitelisted in chefV3"
        },
        "returns": {
          "_0": "AllFarmData The information of all the whitelisted farms of MCV2, MCV3 and BMCJ"
        }
      },
      "getAvaxPrice()": {
        "returns": {
          "_0": "uint256 the avax price, scaled to 18 decimals"
        }
      },
      "getBMCJFarmInfos(address,address,uint256[])": {
        "params": {
          "chef": "The address of the MasterChef",
          "user": "The address of the user, if address(0), returns global info",
          "whitelistedPids": "Array of all ids of pools that are whitelisted and valid to have their farm data returned"
        },
        "returns": {
          "_0": "FarmInfoBMCJ The information of all the whitelisted farms of BMCJ"
        }
      },
      "getDerivedAvaxPriceOfToken(address)": {
        "params": {
          "token": "The address of the token"
        },
        "returns": {
          "_0": "uint256 the token derived price, scaled to 18 decimals"
        }
      },
      "getMCFarmInfos(address,uint256[])": {
        "params": {
          "chef": "The address of the MasterChef",
          "whitelistedPids": "Array of all ids of pools that are whitelisted and valid to have their farm data returned"
        },
        "returns": {
          "_0": "FarmInfo The information of all the whitelisted farms of MCV2 or MCV3"
        }
      },
      "getTokenPrice(address)": {
        "params": {
          "token": "The address of the token"
        },
        "returns": {
          "_0": "uint256 the USD price of token, scaled to 18 decimals"
        }
      }
    },
    "version": 1
  },
  "userdoc": {
    "kind": "user",
    "methods": {
      "getAllFarmData(uint256[],uint256[],uint256[],address)": {
        "notice": "Get all data needed for useFarms hook."
      },
      "getAvaxPrice()": {
        "notice": "Returns the price of avax in usd"
      },
      "getBMCJFarmInfos(address,address,uint256[])": {
        "notice": "Returns the farm pairs data for BoostedMasterChefJoe"
      },
      "getDerivedAvaxPriceOfToken(address)": {
        "notice": "Returns the derived price of token, it needs to be paired with wavax"
      },
      "getMCFarmInfos(address,uint256[])": {
        "notice": "Returns the farm pairs data for MCV2 and MCV3"
      },
      "getTokenPrice(address)": {
        "notice": "Returns the USD price of token, it needs to be paired with wavax"
      }
    },
    "version": 1
  },
  "storageLayout": {
    "storage": [],
    "types": null
  }
}