{
  "address": "0xd6a4F121CA35509aF06A0Be99093d08462f53052",
  "abi": [
    {
      "inputs": [
        {
          "internalType": "contract JoeToken",
          "name": "_joe",
          "type": "address"
        },
        {
          "internalType": "address",
          "name": "_devAddr",
          "type": "address"
        },
        {
          "internalType": "address",
          "name": "_treasuryAddr",
          "type": "address"
        },
        {
          "internalType": "address",
          "name": "_investorAddr",
          "type": "address"
        },
        {
          "internalType": "uint256",
          "name": "_joePerSec",
          "type": "uint256"
        },
        {
          "internalType": "uint256",
          "name": "_startTimestamp",
          "type": "uint256"
        },
        {
          "internalType": "uint256",
          "name": "_devPercent",
          "type": "uint256"
        },
        {
          "internalType": "uint256",
          "name": "_treasuryPercent",
          "type": "uint256"
        },
        {
          "internalType": "uint256",
          "name": "_investorPercent",
          "type": "uint256"
        }
      ],
      "stateMutability": "nonpayable",
      "type": "constructor"
    },
    {
      "anonymous": false,
      "inputs": [
        {
          "indexed": true,
          "internalType": "uint256",
          "name": "pid",
          "type": "uint256"
        },
        {
          "indexed": false,
          "internalType": "uint256",
          "name": "allocPoint",
          "type": "uint256"
        },
        {
          "indexed": true,
          "internalType": "contract IERC20",
          "name": "lpToken",
          "type": "address"
        },
        {
          "indexed": true,
          "internalType": "contract IRewarder",
          "name": "rewarder",
          "type": "address"
        }
      ],
      "name": "Add",
      "type": "event"
    },
    {
      "anonymous": false,
      "inputs": [
        {
          "indexed": true,
          "internalType": "address",
          "name": "user",
          "type": "address"
        },
        {
          "indexed": true,
          "internalType": "uint256",
          "name": "pid",
          "type": "uint256"
        },
        {
          "indexed": false,
          "internalType": "uint256",
          "name": "amount",
          "type": "uint256"
        }
      ],
      "name": "Deposit",
      "type": "event"
    },
    {
      "anonymous": false,
      "inputs": [
        {
          "indexed": true,
          "internalType": "address",
          "name": "user",
          "type": "address"
        },
        {
          "indexed": true,
          "internalType": "uint256",
          "name": "pid",
          "type": "uint256"
        },
        {
          "indexed": false,
          "internalType": "uint256",
          "name": "amount",
          "type": "uint256"
        }
      ],
      "name": "EmergencyWithdraw",
      "type": "event"
    },
    {
      "anonymous": false,
      "inputs": [
        {
          "indexed": true,
          "internalType": "address",
          "name": "user",
          "type": "address"
        },
        {
          "indexed": true,
          "internalType": "uint256",
          "name": "pid",
          "type": "uint256"
        },
        {
          "indexed": false,
          "internalType": "uint256",
          "name": "amount",
          "type": "uint256"
        }
      ],
      "name": "Harvest",
      "type": "event"
    },
    {
      "anonymous": false,
      "inputs": [
        {
          "indexed": true,
          "internalType": "address",
          "name": "previousOwner",
          "type": "address"
        },
        {
          "indexed": true,
          "internalType": "address",
          "name": "newOwner",
          "type": "address"
        }
      ],
      "name": "OwnershipTransferred",
      "type": "event"
    },
    {
      "anonymous": false,
      "inputs": [
        {
          "indexed": true,
          "internalType": "uint256",
          "name": "pid",
          "type": "uint256"
        },
        {
          "indexed": false,
          "internalType": "uint256",
          "name": "allocPoint",
          "type": "uint256"
        },
        {
          "indexed": true,
          "internalType": "contract IRewarder",
          "name": "rewarder",
          "type": "address"
        },
        {
          "indexed": false,
          "internalType": "bool",
          "name": "overwrite",
          "type": "bool"
        }
      ],
      "name": "Set",
      "type": "event"
    },
    {
      "anonymous": false,
      "inputs": [
        {
          "indexed": true,
          "internalType": "address",
          "name": "oldAddress",
          "type": "address"
        },
        {
          "indexed": true,
          "internalType": "address",
          "name": "newAddress",
          "type": "address"
        }
      ],
      "name": "SetDevAddress",
      "type": "event"
    },
    {
      "anonymous": false,
      "inputs": [
        {
          "indexed": true,
          "internalType": "address",
          "name": "user",
          "type": "address"
        },
        {
          "indexed": false,
          "internalType": "uint256",
          "name": "_joePerSec",
          "type": "uint256"
        }
      ],
      "name": "UpdateEmissionRate",
      "type": "event"
    },
    {
      "anonymous": false,
      "inputs": [
        {
          "indexed": true,
          "internalType": "uint256",
          "name": "pid",
          "type": "uint256"
        },
        {
          "indexed": false,
          "internalType": "uint256",
          "name": "lastRewardTimestamp",
          "type": "uint256"
        },
        {
          "indexed": false,
          "internalType": "uint256",
          "name": "lpSupply",
          "type": "uint256"
        },
        {
          "indexed": false,
          "internalType": "uint256",
          "name": "accJoePerShare",
          "type": "uint256"
        }
      ],
      "name": "UpdatePool",
      "type": "event"
    },
    {
      "anonymous": false,
      "inputs": [
        {
          "indexed": true,
          "internalType": "address",
          "name": "user",
          "type": "address"
        },
        {
          "indexed": true,
          "internalType": "uint256",
          "name": "pid",
          "type": "uint256"
        },
        {
          "indexed": false,
          "internalType": "uint256",
          "name": "amount",
          "type": "uint256"
        }
      ],
      "name": "Withdraw",
      "type": "event"
    },
    {
      "inputs": [
        {
          "internalType": "uint256",
          "name": "_allocPoint",
          "type": "uint256"
        },
        {
          "internalType": "contract IERC20",
          "name": "_lpToken",
          "type": "address"
        },
        {
          "internalType": "contract IRewarder",
          "name": "_rewarder",
          "type": "address"
        }
      ],
      "name": "add",
      "outputs": [],
      "stateMutability": "nonpayable",
      "type": "function"
    },
    {
      "inputs": [
        {
          "internalType": "uint256",
          "name": "_pid",
          "type": "uint256"
        },
        {
          "internalType": "uint256",
          "name": "_amount",
          "type": "uint256"
        }
      ],
      "name": "deposit",
      "outputs": [],
      "stateMutability": "nonpayable",
      "type": "function"
    },
    {
      "inputs": [
        {
          "internalType": "address",
          "name": "_devAddr",
          "type": "address"
        }
      ],
      "name": "dev",
      "outputs": [],
      "stateMutability": "nonpayable",
      "type": "function"
    },
    {
      "inputs": [],
      "name": "devAddr",
      "outputs": [
        {
          "internalType": "address",
          "name": "",
          "type": "address"
        }
      ],
      "stateMutability": "view",
      "type": "function"
    },
    {
      "inputs": [],
      "name": "devPercent",
      "outputs": [
        {
          "internalType": "uint256",
          "name": "",
          "type": "uint256"
        }
      ],
      "stateMutability": "view",
      "type": "function"
    },
    {
      "inputs": [
        {
          "internalType": "uint256",
          "name": "_pid",
          "type": "uint256"
        }
      ],
      "name": "emergencyWithdraw",
      "outputs": [],
      "stateMutability": "nonpayable",
      "type": "function"
    },
    {
      "inputs": [],
      "name": "investorAddr",
      "outputs": [
        {
          "internalType": "address",
          "name": "",
          "type": "address"
        }
      ],
      "stateMutability": "view",
      "type": "function"
    },
    {
      "inputs": [],
      "name": "investorPercent",
      "outputs": [
        {
          "internalType": "uint256",
          "name": "",
          "type": "uint256"
        }
      ],
      "stateMutability": "view",
      "type": "function"
    },
    {
      "inputs": [],
      "name": "joe",
      "outputs": [
        {
          "internalType": "contract JoeToken",
          "name": "",
          "type": "address"
        }
      ],
      "stateMutability": "view",
      "type": "function"
    },
    {
      "inputs": [],
      "name": "joePerSec",
      "outputs": [
        {
          "internalType": "uint256",
          "name": "",
          "type": "uint256"
        }
      ],
      "stateMutability": "view",
      "type": "function"
    },
    {
      "inputs": [],
      "name": "massUpdatePools",
      "outputs": [],
      "stateMutability": "nonpayable",
      "type": "function"
    },
    {
      "inputs": [],
      "name": "owner",
      "outputs": [
        {
          "internalType": "address",
          "name": "",
          "type": "address"
        }
      ],
      "stateMutability": "view",
      "type": "function"
    },
    {
      "inputs": [
        {
          "internalType": "uint256",
          "name": "_pid",
          "type": "uint256"
        },
        {
          "internalType": "address",
          "name": "_user",
          "type": "address"
        }
      ],
      "name": "pendingTokens",
      "outputs": [
        {
          "internalType": "uint256",
          "name": "pendingJoe",
          "type": "uint256"
        },
        {
          "internalType": "address",
          "name": "bonusTokenAddress",
          "type": "address"
        },
        {
          "internalType": "string",
          "name": "bonusTokenSymbol",
          "type": "string"
        },
        {
          "internalType": "uint256",
          "name": "pendingBonusToken",
          "type": "uint256"
        }
      ],
      "stateMutability": "view",
      "type": "function"
    },
    {
      "inputs": [
        {
          "internalType": "uint256",
          "name": "",
          "type": "uint256"
        }
      ],
      "name": "poolInfo",
      "outputs": [
        {
          "internalType": "contract IERC20",
          "name": "lpToken",
          "type": "address"
        },
        {
          "internalType": "uint256",
          "name": "allocPoint",
          "type": "uint256"
        },
        {
          "internalType": "uint256",
          "name": "lastRewardTimestamp",
          "type": "uint256"
        },
        {
          "internalType": "uint256",
          "name": "accJoePerShare",
          "type": "uint256"
        },
        {
          "internalType": "contract IRewarder",
          "name": "rewarder",
          "type": "address"
        }
      ],
      "stateMutability": "view",
      "type": "function"
    },
    {
      "inputs": [],
      "name": "poolLength",
      "outputs": [
        {
          "internalType": "uint256",
          "name": "",
          "type": "uint256"
        }
      ],
      "stateMutability": "view",
      "type": "function"
    },
    {
      "inputs": [],
      "name": "renounceOwnership",
      "outputs": [],
      "stateMutability": "nonpayable",
      "type": "function"
    },
    {
      "inputs": [
        {
          "internalType": "uint256",
          "name": "_pid",
          "type": "uint256"
        }
      ],
      "name": "rewarderBonusTokenInfo",
      "outputs": [
        {
          "internalType": "address",
          "name": "bonusTokenAddress",
          "type": "address"
        },
        {
          "internalType": "string",
          "name": "bonusTokenSymbol",
          "type": "string"
        }
      ],
      "stateMutability": "view",
      "type": "function"
    },
    {
      "inputs": [
        {
          "internalType": "uint256",
          "name": "_pid",
          "type": "uint256"
        },
        {
          "internalType": "uint256",
          "name": "_allocPoint",
          "type": "uint256"
        },
        {
          "internalType": "contract IRewarder",
          "name": "_rewarder",
          "type": "address"
        },
        {
          "internalType": "bool",
          "name": "overwrite",
          "type": "bool"
        }
      ],
      "name": "set",
      "outputs": [],
      "stateMutability": "nonpayable",
      "type": "function"
    },
    {
      "inputs": [
        {
          "internalType": "uint256",
          "name": "_newDevPercent",
          "type": "uint256"
        }
      ],
      "name": "setDevPercent",
      "outputs": [],
      "stateMutability": "nonpayable",
      "type": "function"
    },
    {
      "inputs": [
        {
          "internalType": "address",
          "name": "_investorAddr",
          "type": "address"
        }
      ],
      "name": "setInvestorAddr",
      "outputs": [],
      "stateMutability": "nonpayable",
      "type": "function"
    },
    {
      "inputs": [
        {
          "internalType": "uint256",
          "name": "_newInvestorPercent",
          "type": "uint256"
        }
      ],
      "name": "setInvestorPercent",
      "outputs": [],
      "stateMutability": "nonpayable",
      "type": "function"
    },
    {
      "inputs": [
        {
          "internalType": "address",
          "name": "_treasuryAddr",
          "type": "address"
        }
      ],
      "name": "setTreasuryAddr",
      "outputs": [],
      "stateMutability": "nonpayable",
      "type": "function"
    },
    {
      "inputs": [
        {
          "internalType": "uint256",
          "name": "_newTreasuryPercent",
          "type": "uint256"
        }
      ],
      "name": "setTreasuryPercent",
      "outputs": [],
      "stateMutability": "nonpayable",
      "type": "function"
    },
    {
      "inputs": [],
      "name": "startTimestamp",
      "outputs": [
        {
          "internalType": "uint256",
          "name": "",
          "type": "uint256"
        }
      ],
      "stateMutability": "view",
      "type": "function"
    },
    {
      "inputs": [],
      "name": "totalAllocPoint",
      "outputs": [
        {
          "internalType": "uint256",
          "name": "",
          "type": "uint256"
        }
      ],
      "stateMutability": "view",
      "type": "function"
    },
    {
      "inputs": [
        {
          "internalType": "address",
          "name": "newOwner",
          "type": "address"
        }
      ],
      "name": "transferOwnership",
      "outputs": [],
      "stateMutability": "nonpayable",
      "type": "function"
    },
    {
      "inputs": [],
      "name": "treasuryAddr",
      "outputs": [
        {
          "internalType": "address",
          "name": "",
          "type": "address"
        }
      ],
      "stateMutability": "view",
      "type": "function"
    },
    {
      "inputs": [],
      "name": "treasuryPercent",
      "outputs": [
        {
          "internalType": "uint256",
          "name": "",
          "type": "uint256"
        }
      ],
      "stateMutability": "view",
      "type": "function"
    },
    {
      "inputs": [
        {
          "internalType": "uint256",
          "name": "_joePerSec",
          "type": "uint256"
        }
      ],
      "name": "updateEmissionRate",
      "outputs": [],
      "stateMutability": "nonpayable",
      "type": "function"
    },
    {
      "inputs": [
        {
          "internalType": "uint256",
          "name": "_pid",
          "type": "uint256"
        }
      ],
      "name": "updatePool",
      "outputs": [],
      "stateMutability": "nonpayable",
      "type": "function"
    },
    {
      "inputs": [
        {
          "internalType": "uint256",
          "name": "",
          "type": "uint256"
        },
        {
          "internalType": "address",
          "name": "",
          "type": "address"
        }
      ],
      "name": "userInfo",
      "outputs": [
        {
          "internalType": "uint256",
          "name": "amount",
          "type": "uint256"
        },
        {
          "internalType": "uint256",
          "name": "rewardDebt",
          "type": "uint256"
        }
      ],
      "stateMutability": "view",
      "type": "function"
    },
    {
      "inputs": [
        {
          "internalType": "uint256",
          "name": "_pid",
          "type": "uint256"
        },
        {
          "internalType": "uint256",
          "name": "_amount",
          "type": "uint256"
        }
      ],
      "name": "withdraw",
      "outputs": [],
      "stateMutability": "nonpayable",
      "type": "function"
    }
  ],
  "transactionHash": "0x4e1e2f687ced9d9ee7e67474cdb49501935b79925b9edd64b2ef903872f5430e",
  "args": [
    "0x6e84a6216eA6dACC71eE8E6b0a5B7322EEbC0fDd",
    "0x5D3e4C0FE11e0aE4c32F0FF74B4544C49538AC61",
    "0x125c2EE2d4765891EAeAdDA8e4F06473282E3060",
    "0xD2A71475eca084C14a3f08Fa12C98362972e889C",
    "30000000000000000000",
    "1625320800",
    "200",
    "200",
    "100"
  ],
  "solcInputHash": "c0d0dff5e3273ce2981e9b361d6e656e",
  "bytecode": "0x60806040523480156200001157600080fd5b5060405162002d5e38038062002d5e8339810160408190526200003491620001a3565b6000620000406200019f565b600080546001600160a01b0319166001600160a01b0383169081178255604051929350917f8be0079c531659141344cd1fd0a4f28419497f9722a3daafe3b4186f6b6457e0908290a3506103e8831115620000b85760405162461bcd60e51b8152600401620000af9062000288565b60405180910390fd5b6103e8821115620000dd5760405162461bcd60e51b8152600401620000af906200023d565b6103e8811115620001025760405162461bcd60e51b8152600401620000af9062000311565b6103e8818385010111156200012b5760405162461bcd60e51b8152600401620000af90620002ce565b600180546001600160a01b039a8b166001600160a01b03199182161790915560028054998b169982169990991790985560038054978a169789169790971790965560048054959098169490961693909317909555600555600e939093556006929092556007556008556000600d5562000375565b3390565b60008060008060008060008060006101208a8c031215620001c2578485fd5b8951620001cf816200035c565b60208b0151909950620001e2816200035c565b60408b0151909850620001f5816200035c565b60608b015190975062000208816200035c565b8096505060808a0151945060a08a0151935060c08a0151925060e08a015191506101008a015190509295985092959850929598565b6020808252602b908201527f636f6e7374727563746f723a20696e76616c696420747265617375727920706560408201526a7263656e742076616c756560a81b606082015260800190565b60208082526026908201527f636f6e7374727563746f723a20696e76616c6964206465762070657263656e746040820152652076616c756560d01b606082015260800190565b60208082526023908201527f636f6e7374727563746f723a20746f74616c2070657263656e74206f766572206040820152620dac2f60eb1b606082015260800190565b6020808252602b908201527f636f6e7374727563746f723a20696e76616c696420696e766573746f7220706560408201526a7263656e742076616c756560a81b606082015260800190565b6001600160a01b03811681146200037257600080fd5b50565b6129d980620003856000396000f3fe608060405234801561001057600080fd5b50600436106101f05760003560e01c806389a2bc251161010f578063bc70fdbc116100a2578063e6fd48bc11610071578063e6fd48bc146103d7578063f2fde38b146103df578063fc3c28af146103f2578063ffcd4263146103fa576101f0565b8063bc70fdbc14610393578063ca418d23146103b4578063da09c72c146103bc578063e2bbb158146103c4576101f0565b8063a7e05b9c116100de578063a7e05b9c1461035d578063ab7de09814610370578063acc4cc5014610383578063b985a3a01461038b576101f0565b806389a2bc251461030e5780638d88a90e146103215780638da5cb5b1461033457806393f1a40b1461033c576101f0565b8063441a3e70116101875780636eaddad2116101565780636eaddad2146102cd578063715018a6146102e0578063876d3c9c146102e857806388bba42f146102fb576101f0565b8063441a3e701461028c57806351eb05a61461029f5780635312ea8e146102b2578063630b5ba1146102c5576101f0565b80630f51f8ff116101c35780630f51f8ff146102385780631526fe271461024b57806317caf6f11461026f57806330d9a62a14610277576101f0565b806304ef9d58146101f55780630735b20814610213578063081e3eda1461021b5780630ba84cd214610223575b600080fd5b6101fd61041d565b60405161020a91906128dc565b60405180910390f35b6101fd610423565b6101fd610429565b6102366102313660046121bb565b61042f565b005b6102366102463660046120cc565b6104c1565b61025e6102593660046121bb565b61050d565b60405161020a959493929190612382565b6101fd610558565b61027f61055e565b60405161020a919061230d565b61023661029a36600461225b565b61056d565b6102366102ad3660046121bb565b61077c565b6102366102c03660046121bb565b610b16565b610236610bb5565b6102366102db3660046121bb565b610bd8565b610236610c68565b6102366102f63660046121bb565b610cf1565b61023661030936600461227c565b610d81565b61023661031c3660046121bb565b610f2e565b61023661032f3660046120cc565b610fbe565b61027f611034565b61034f61034a3660046121eb565b611043565b60405161020a929190612930565b61023661036b3660046120cc565b611067565b61023661037e36600461221a565b6110b3565b61027f611334565b61027f611343565b6103a66103a13660046121bb565b611352565b60405161020a92919061235e565b6101fd6114ab565b61027f6114b1565b6102366103d236600461225b565b6114c0565b6101fd6116ab565b6102366103ed3660046120cc565b6116b1565b6101fd611771565b61040d6104083660046121eb565b611777565b60405161020a94939291906128e5565b60075481565b60085481565b60095490565b6104376119b8565b6001600160a01b0316610448611034565b6001600160a01b0316146104775760405162461bcd60e51b815260040161046e90612644565b60405180910390fd5b61047f610bb5565b600581905560405133907fe2492e003bbe8afa53088b406f0c1cb5d9e280370fc72a74cf116ffd343c4053906104b69084906128dc565b60405180910390a250565b6004546001600160a01b031633146104eb5760405162461bcd60e51b815260040161046e9061277c565b600480546001600160a01b0319166001600160a01b0392909216919091179055565b6009818154811061051a57fe5b6000918252602090912060059091020180546001820154600283015460038401546004909401546001600160a01b0393841695509193909290911685565b600d5481565b6003546001600160a01b031681565b60006009838154811061057c57fe5b60009182526020808320868452600c8252604080852033865290925292208054600590920290920192508311156105c55760405162461bcd60e51b815260040161046e906127ab565b6105ce8461077c565b6000610608826001015461060264e8d4a510006105fc876003015487600001546119bc90919063ffffffff16565b906119ff565b90611a31565b90506106143382611a59565b84336001600160a01b03167f71bab65ced2e5750775a0613be067df48ef06cf92a496ebf7663ae06609249548360405161064e91906128dc565b60405180910390a381546106629085611a31565b808355600384015461067f9164e8d4a51000916105fc91906119bc565b826001018190555060006009868154811061069657fe5b60009182526020909120600460059092020101546001600160a01b03169050801561071c5782546040516301a7af8b60e41b81526001600160a01b03831691631a7af8b0916106e9913391600401612321565b600060405180830381600087803b15801561070357600080fd5b505af1158015610717573d6000803e3d6000fd5b505050505b8354610732906001600160a01b03163387611bf9565b85336001600160a01b03167ff279e6a1f5e320cca91135676d9cb6e44ca8a08c0b88342bcdb1144f6511b5688760405161076c91906128dc565b60405180910390a3505050505050565b60006009828154811061078b57fe5b90600052602060002090600502019050806002015442116107ac5750610b13565b80546040516370a0823160e01b81526000916001600160a01b0316906370a08231906107dc90309060040161230d565b60206040518083038186803b1580156107f457600080fd5b505afa158015610808573d6000803e3d6000fd5b505050506040513d601f19601f8201168201806040525081019061082c91906121d3565b905080610840575042600290910155610b13565b6000610859836002015442611a3190919063ffffffff16565b90506000610886600d546105fc8660010154610880600554876119bc90919063ffffffff16565b906119bc565b6008546007546006546001546002549495506103e88281039390930393909303936001600160a01b03938416936340c10f19939116916108cc91906105fc9088906119bc565b6040518363ffffffff1660e01b81526004016108e9929190612321565b600060405180830381600087803b15801561090357600080fd5b505af1158015610917573d6000803e3d6000fd5b50506001546003546007546001600160a01b0392831694506340c10f19935091169061094c906103e8906105fc9088906119bc565b6040518363ffffffff1660e01b8152600401610969929190612321565b600060405180830381600087803b15801561098357600080fd5b505af1158015610997573d6000803e3d6000fd5b50506001546004546008546001600160a01b0392831694506340c10f1993509116906109cc906103e8906105fc9088906119bc565b6040518363ffffffff1660e01b81526004016109e9929190612321565b600060405180830381600087803b158015610a0357600080fd5b505af1158015610a17573d6000803e3d6000fd5b50506001546001600160a01b031691506340c10f19905030610a3f6103e86105fc87876119bc565b6040518363ffffffff1660e01b8152600401610a5c929190612321565b600060405180830381600087803b158015610a7657600080fd5b505af1158015610a8a573d6000803e3d6000fd5b50505050610ac2610ab76103e86105fc84610880896105fc64e8d4a510008a6119bc90919063ffffffff16565b600387015490611cef565b60038601819055426002870181905560405188927f3be3541fc42237d611b30329040bfa4569541d156560acdbbae57640d20b8f4692610b05929091899161293e565b60405180910390a250505050505b50565b600060098281548110610b2557fe5b60009182526020808320858452600c82526040808520338087529352909320805460059093029093018054909450610b6a926001600160a01b03919091169190611bf9565b8054604051849133917fbb757047c2b5f3974fe26b7c10f732e7bce710b0952a71082702781e62ae059591610b9e916128dc565b60405180910390a360008082556001909101555050565b60095460005b81811015610bd457610bcc8161077c565b600101610bbb565b5050565b610be06119b8565b6001600160a01b0316610bf1611034565b6001600160a01b031614610c175760405162461bcd60e51b815260040161046e90612644565b6103e8811115610c395760405162461bcd60e51b815260040161046e90612898565b6103e86008548260075401011115610c635760405162461bcd60e51b815260040161046e906126a8565b600655565b610c706119b8565b6001600160a01b0316610c81611034565b6001600160a01b031614610ca75760405162461bcd60e51b815260040161046e90612644565b600080546040516001600160a01b03909116907f8be0079c531659141344cd1fd0a4f28419497f9722a3daafe3b4186f6b6457e0908390a3600080546001600160a01b0319169055565b610cf96119b8565b6001600160a01b0316610d0a611034565b6001600160a01b031614610d305760405162461bcd60e51b815260040161046e90612644565b6103e8811115610d525760405162461bcd60e51b815260040161046e906126ed565b6103e86007548260065401011115610d7c5760405162461bcd60e51b815260040161046e90612433565b600855565b610d896119b8565b6001600160a01b0316610d9a611034565b6001600160a01b031614610dc05760405162461bcd60e51b815260040161046e90612644565b610dc982611d14565b80610ddb57506001600160a01b038216155b610df75760405162461bcd60e51b815260040161046e906127d7565b610dff610bb5565b610e3c83610e3660098781548110610e1357fe5b906000526020600020906005020160010154600d54611a3190919063ffffffff16565b90611cef565b600d819055508260098581548110610e5057fe5b9060005260206000209060050201600101819055508015610eaf578160098581548110610e7957fe5b906000526020600020906005020160040160006101000a8154816001600160a01b0302191690836001600160a01b031602179055505b80610ee35760098481548110610ec157fe5b60009182526020909120600460059092020101546001600160a01b0316610ee5565b815b6001600160a01b0316847fa54644aae5c48c5971516f334e4fe8ecbc7930e23f34877d4203c6551e67ffaa8584604051610f20929190612920565b60405180910390a350505050565b610f366119b8565b6001600160a01b0316610f47611034565b6001600160a01b031614610f6d5760405162461bcd60e51b815260040161046e90612644565b6103e8811115610f8f5760405162461bcd60e51b815260040161046e906124fa565b6103e86008548260065401011115610fb95760405162461bcd60e51b815260040161046e906123b2565b600755565b6002546001600160a01b03163314610fe85760405162461bcd60e51b815260040161046e906125b1565b600280546001600160a01b0319166001600160a01b03831690811790915560405133907f618c54559e94f1499a808aad71ee8729f8e74e8c48e979616328ce493a1a52e790600090a350565b6000546001600160a01b031690565b600c6020908152600092835260408084209091529082529020805460019091015482565b6003546001600160a01b031633146110915760405162461bcd60e51b815260040161046e90612679565b600380546001600160a01b0319166001600160a01b0392909216919091179055565b6110bb6119b8565b6001600160a01b03166110cc611034565b6001600160a01b0316146110f25760405162461bcd60e51b815260040161046e90612644565b6110fb82611d14565b6111175760405162461bcd60e51b815260040161046e90612736565b61112081611d14565b8061113257506001600160a01b038116155b61114e5760405162461bcd60e51b815260040161046e9061281d565b611159600a83611d1e565b156111765760405162461bcd60e51b815260040161046e90612615565b61117e610bb5565b6000600e54421161119157600e54611193565b425b600d549091506111a39085611cef565b600d556040805160a0810182526001600160a01b038581168252602082018781529282018481526000606084018181528784166080860190815260098054600181018255935294517f6e1540171b6c0c960b71a7020d9f60077f6af931a8bbf590da0223dacf75c7af600590930292830180546001600160a01b031990811692871692909217905595517f6e1540171b6c0c960b71a7020d9f60077f6af931a8bbf590da0223dacf75c7b083015591517f6e1540171b6c0c960b71a7020d9f60077f6af931a8bbf590da0223dacf75c7b182015590517f6e1540171b6c0c960b71a7020d9f60077f6af931a8bbf590da0223dacf75c7b282015591517f6e1540171b6c0c960b71a7020d9f60077f6af931a8bbf590da0223dacf75c7b3909201805490931691161790556112d8600a84611d33565b506009546001600160a01b0380841691908516906112f7906001611a31565b7f4b16bd2431ad24dc020ab0e1de7fcb6563dead6a24fb10089d6c23e97a70381f8760405161132691906128dc565b60405180910390a450505050565b6004546001600160a01b031681565b6001546001600160a01b031681565b6000606060006009848154811061136557fe5b6000918252602090912060059091020160048101549091506001600160a01b0316156114a5576004808201546040805163f7c618c160e01b815290516001600160a01b039092169263f7c618c1928282019260209290829003018186803b1580156113cf57600080fd5b505afa1580156113e3573d6000803e3d6000fd5b505050506040513d601f19601f8201168201806040525081019061140791906120e8565b92506114a28160040160009054906101000a90046001600160a01b03166001600160a01b031663f7c618c16040518163ffffffff1660e01b815260040160206040518083038186803b15801561145c57600080fd5b505afa158015611470573d6000803e3d6000fd5b505050506040513d601f19601f8201168201806040525081019061149491906120e8565b6001600160a01b0316611d48565b91505b50915091565b60055481565b6002546001600160a01b031681565b6000600983815481106114cf57fe5b60009182526020808320868452600c825260408085203386529092529220600590910290910191506115008461077c565b805415611585576000611535826001015461060264e8d4a510006105fc876003015487600001546119bc90919063ffffffff16565b90506115413382611a59565b84336001600160a01b03167f71bab65ced2e5750775a0613be067df48ef06cf92a496ebf7663ae06609249548360405161157b91906128dc565b60405180910390a3505b80546115919084611cef565b80825560038301546115ae9164e8d4a51000916105fc91906119bc565b81600101819055506000600985815481106115c557fe5b60009182526020909120600460059092020101546001600160a01b03169050801561164b5781546040516301a7af8b60e41b81526001600160a01b03831691631a7af8b091611618913391600401612321565b600060405180830381600087803b15801561163257600080fd5b505af1158015611646573d6000803e3d6000fd5b505050505b8254611662906001600160a01b0316333087611e0b565b84336001600160a01b03167f90890809c654f11d6e72a28fa60149770a0d11ec6c92319d6ceb2bb0a4ea1a158660405161169c91906128dc565b60405180910390a35050505050565b600e5481565b6116b96119b8565b6001600160a01b03166116ca611034565b6001600160a01b0316146116f05760405162461bcd60e51b815260040161046e90612644565b6001600160a01b0381166117165760405162461bcd60e51b815260040161046e9061247d565b600080546040516001600160a01b03808516939216917f8be0079c531659141344cd1fd0a4f28419497f9722a3daafe3b4186f6b6457e091a3600080546001600160a01b0319166001600160a01b0392909216919091179055565b60065481565b60008060606000806009878154811061178c57fe5b600091825260208083208a8452600c825260408085206001600160a01b03808d16875293528085206003600590950290920193840154845491516370a0823160e01b815294965091949193919216906370a08231906117ef90309060040161230d565b60206040518083038186803b15801561180757600080fd5b505afa15801561181b573d6000803e3d6000fd5b505050506040513d601f19601f8201168201806040525081019061183f91906121d3565b905083600201544211801561185357508015155b156118da576000611871856002015442611a3190919063ffffffff16565b905060006008546007546006546103e8030303905060006118b56103e86105fc84610880600d546105fc8d600101546108806005548c6119bc90919063ffffffff16565b90506118d46118cd856105fc8464e8d4a510006119bc565b8690611cef565b94505050505b611902836001015461060264e8d4a510006105fc8688600001546119bc90919063ffffffff16565b60048501549098506001600160a01b0316156119ab576119218a611352565b60048087015460405163c031a66f60e01b8152939a509198506001600160a01b039091169163c031a66f91611958918d910161230d565b60206040518083038186803b15801561197057600080fd5b505afa158015611984573d6000803e3d6000fd5b505050506040513d601f19601f820116820180604052508101906119a891906121d3565b94505b5050505092959194509250565b3390565b6000826119cb575060006119f9565b828202828482816119d857fe5b04146119f65760405162461bcd60e51b815260040161046e906125d4565b90505b92915050565b6000808211611a205760405162461bcd60e51b815260040161046e9061257a565b818381611a2957fe5b049392505050565b600082821115611a535760405162461bcd60e51b815260040161046e90612543565b50900390565b6001546040516370a0823160e01b81526000916001600160a01b0316906370a0823190611a8a90309060040161230d565b60206040518083038186803b158015611aa257600080fd5b505afa158015611ab6573d6000803e3d6000fd5b505050506040513d601f19601f82011682018060405250810190611ada91906121d3565b905080821115611b6e5760015460405163a9059cbb60e01b81526001600160a01b039091169063a9059cbb90611b169086908590600401612321565b602060405180830381600087803b158015611b3057600080fd5b505af1158015611b44573d6000803e3d6000fd5b505050506040513d601f19601f82011682018060405250810190611b689190612104565b50611bf4565b60015460405163a9059cbb60e01b81526001600160a01b039091169063a9059cbb90611ba09086908690600401612321565b602060405180830381600087803b158015611bba57600080fd5b505af1158015611bce573d6000803e3d6000fd5b505050506040513d601f19601f82011682018060405250810190611bf29190612104565b505b505050565b60006060846001600160a01b031663a9059cbb60e01b8585604051602401611c22929190612321565b60408051601f198184030181529181526020820180516001600160e01b03166001600160e01b0319909416939093179092529051611c6091906122f1565b6000604051808303816000865af19150503d8060008114611c9d576040519150601f19603f3d011682016040523d82523d6000602084013e611ca2565b606091505b5091509150818015611ccc575080511580611ccc575080806020019051810190611ccc9190612104565b611ce85760405162461bcd60e51b815260040161046e906123fc565b5050505050565b6000828201838110156119f65760405162461bcd60e51b815260040161046e906124c3565b803b15155b919050565b60006119f6836001600160a01b038416611f04565b60006119f6836001600160a01b038416611f1c565b60408051600481526024810182526020810180516001600160e01b03166395d89b4160e01b179052905160609160009183916001600160a01b03861691611d8f91906122f1565b600060405180830381855afa9150503d8060008114611dca576040519150601f19603f3d011682016040523d82523d6000602084013e611dcf565b606091505b509150915081611dfa57604051806040016040528060038152602001623f3f3f60e81b815250611e03565b611e0381611f66565b949350505050565b60006060856001600160a01b03166323b872dd60e01b868686604051602401611e369392919061233a565b60408051601f198184030181529181526020820180516001600160e01b03166001600160e01b0319909416939093179092529051611e7491906122f1565b6000604051808303816000865af19150503d8060008114611eb1576040519150601f19603f3d011682016040523d82523d6000602084013e611eb6565b606091505b5091509150818015611ee0575080511580611ee0575080806020019051810190611ee09190612104565b611efc5760405162461bcd60e51b815260040161046e90612863565b505050505050565b60009081526001919091016020526040902054151590565b6000611f288383611f04565b611f5e575081546001818101845560008481526020808220909301849055845484825282860190935260409020919091556119f9565b5060006119f9565b60606040825110611f8c5781806020019051810190611f859190612120565b9050611d19565b8151602014156120ac5760005b60208160ff16108015611fc85750828160ff1681518110611fb657fe5b01602001516001600160f81b03191615155b15611fd557600101611f99565b60608160ff1667ffffffffffffffff81118015611ff157600080fd5b506040519080825280601f01601f19166020018201604052801561201c576020820181803683370190505b509050600091505b60208260ff161080156120535750838260ff168151811061204157fe5b01602001516001600160f81b03191615155b156120a357838260ff168151811061206757fe5b602001015160f81c60f81b818360ff168151811061208157fe5b60200101906001600160f81b031916908160001a905350600190910190612024565b9150611d199050565b506040805180820190915260038152623f3f3f60e81b6020820152611d19565b6000602082840312156120dd578081fd5b81356119f681612980565b6000602082840312156120f9578081fd5b81516119f681612980565b600060208284031215612115578081fd5b81516119f681612995565b600060208284031215612131578081fd5b815167ffffffffffffffff80821115612148578283fd5b818401915084601f83011261215b578283fd5b815181811115612169578384fd5b604051601f8201601f191681016020018381118282101715612189578586fd5b6040528181528382016020018710156121a0578485fd5b6121b1826020830160208701612954565b9695505050505050565b6000602082840312156121cc578081fd5b5035919050565b6000602082840312156121e4578081fd5b5051919050565b600080604083850312156121fd578081fd5b82359150602083013561220f81612980565b809150509250929050565b60008060006060848603121561222e578081fd5b83359250602084013561224081612980565b9150604084013561225081612980565b809150509250925092565b6000806040838503121561226d578182fd5b50508035926020909101359150565b60008060008060808587031215612291578081fd5b843593506020850135925060408501356122aa81612980565b915060608501356122ba81612995565b939692955090935050565b600081518084526122dd816020860160208601612954565b601f01601f19169290920160200192915050565b60008251612303818460208701612954565b9190910192915050565b6001600160a01b0391909116815260200190565b6001600160a01b03929092168252602082015260400190565b6001600160a01b039384168152919092166020820152604081019190915260600190565b6001600160a01b0383168152604060208201819052600090611e03908301846122c5565b6001600160a01b039586168152602081019490945260408401929092526060830152909116608082015260a00190565b6020808252602a908201527f736574547265617375727950657263656e743a20746f74616c2070657263656e6040820152690e840deeccae440dac2f60b31b606082015260800190565b6020808252601c908201527f426f72696e6745524332303a205472616e73666572206661696c656400000000604082015260600190565b6020808252602a908201527f736574496e766573746f7250657263656e743a20746f74616c2070657263656e6040820152690e840deeccae440dac2f60b31b606082015260800190565b60208082526026908201527f4f776e61626c653a206e6577206f776e657220697320746865207a65726f206160408201526564647265737360d01b606082015260800190565b6020808252601b908201527f536166654d6174683a206164646974696f6e206f766572666c6f770000000000604082015260600190565b60208082526029908201527f736574547265617375727950657263656e743a20696e76616c69642070657263604082015268656e742076616c756560b81b606082015260800190565b6020808252601e908201527f536166654d6174683a207375627472616374696f6e206f766572666c6f770000604082015260600190565b6020808252601a908201527f536166654d6174683a206469766973696f6e206279207a65726f000000000000604082015260600190565b6020808252600990820152686465763a207775743f60b81b604082015260600190565b60208082526021908201527f536166654d6174683a206d756c7469706c69636174696f6e206f766572666c6f6040820152607760f81b606082015260800190565b6020808252601590820152741859190e88131408185b1c9958591e481859191959605a1b604082015260600190565b6020808252818101527f4f776e61626c653a2063616c6c6572206973206e6f7420746865206f776e6572604082015260600190565b6020808252601590820152747365745472656173757279416464723a207775743f60581b604082015260600190565b60208082526025908201527f73657444657650657263656e743a20746f74616c2070657263656e74206f76656040820152640e440dac2f60db1b606082015260800190565b60208082526029908201527f736574496e766573746f7250657263656e743a20696e76616c69642070657263604082015268656e742076616c756560b81b606082015260800190565b60208082526026908201527f6164643a204c5020746f6b656e206d75737420626520612076616c696420636f6040820152651b9d1c9858dd60d21b606082015260800190565b602080825260159082015274736574496e766573746f72416464723a207775743f60581b604082015260600190565b6020808252601290820152711dda5d1a191c985dce881b9bdd0819dbdbd960721b604082015260600190565b60208082526026908201527f7365743a207265776172646572206d75737420626520636f6e7472616374206f60408201526572207a65726f60d01b606082015260800190565b60208082526026908201527f6164643a207265776172646572206d75737420626520636f6e7472616374206f60408201526572207a65726f60d01b606082015260800190565b6020808252818101527f426f72696e6745524332303a205472616e7366657246726f6d206661696c6564604082015260600190565b60208082526024908201527f73657444657650657263656e743a20696e76616c69642070657263656e742076604082015263616c756560e01b606082015260800190565b90815260200190565b8481526001600160a01b038416602082015260806040820181905260009061290f908301856122c5565b905082606083015295945050505050565b9182521515602082015260400190565b918252602082015260400190565b9283526020830191909152604082015260600190565b60005b8381101561296f578181015183820152602001612957565b83811115611bf25750506000910152565b6001600160a01b0381168114610b1357600080fd5b8015158114610b1357600080fdfea2646970667358221220cf62cc73bc314ba8dbae48f1cc860129f15a7196f5321cdecd0688817b22385a64736f6c634300060c0033",
  "devdoc": {
    "kind": "dev",
    "methods": {
      "owner()": {
        "details": "Returns the address of the current owner."
      },
      "renounceOwnership()": {
        "details": "Leaves the contract without owner. It will not be possible to call `onlyOwner` functions anymore. Can only be called by the current owner. NOTE: Renouncing ownership will leave the contract without an owner, thereby removing any functionality that is only available to the owner."
      },
      "transferOwnership(address)": {
        "details": "Transfers ownership of the contract to a new account (`newOwner`). Can only be called by the current owner."
      }
    },
    "version": 1
  },
  "userdoc": {
    "kind": "user",
    "methods": {},
    "version": 1
  },
  "storageLayout": {
    "storage": [
      {
        "astId": 253,
        "contract": "contracts/MasterChefJoeV2.sol:MasterChefJoeV2",
        "label": "_owner",
        "offset": 0,
        "slot": "0",
        "type": "t_address"
      },
      {
        "astId": 6648,
        "contract": "contracts/MasterChefJoeV2.sol:MasterChefJoeV2",
        "label": "joe",
        "offset": 0,
        "slot": "1",
        "type": "t_contract(JoeToken)5318"
      },
      {
        "astId": 6650,
        "contract": "contracts/MasterChefJoeV2.sol:MasterChefJoeV2",
        "label": "devAddr",
        "offset": 0,
        "slot": "2",
        "type": "t_address"
      },
      {
        "astId": 6652,
        "contract": "contracts/MasterChefJoeV2.sol:MasterChefJoeV2",
        "label": "treasuryAddr",
        "offset": 0,
        "slot": "3",
        "type": "t_address"
      },
      {
        "astId": 6654,
        "contract": "contracts/MasterChefJoeV2.sol:MasterChefJoeV2",
        "label": "investorAddr",
        "offset": 0,
        "slot": "4",
        "type": "t_address"
      },
      {
        "astId": 6656,
        "contract": "contracts/MasterChefJoeV2.sol:MasterChefJoeV2",
        "label": "joePerSec",
        "offset": 0,
        "slot": "5",
        "type": "t_uint256"
      },
      {
        "astId": 6658,
        "contract": "contracts/MasterChefJoeV2.sol:MasterChefJoeV2",
        "label": "devPercent",
        "offset": 0,
        "slot": "6",
        "type": "t_uint256"
      },
      {
        "astId": 6660,
        "contract": "contracts/MasterChefJoeV2.sol:MasterChefJoeV2",
        "label": "treasuryPercent",
        "offset": 0,
        "slot": "7",
        "type": "t_uint256"
      },
      {
        "astId": 6662,
        "contract": "contracts/MasterChefJoeV2.sol:MasterChefJoeV2",
        "label": "investorPercent",
        "offset": 0,
        "slot": "8",
        "type": "t_uint256"
      },
      {
        "astId": 6665,
        "contract": "contracts/MasterChefJoeV2.sol:MasterChefJoeV2",
        "label": "poolInfo",
        "offset": 0,
        "slot": "9",
        "type": "t_array(t_struct(PoolInfo)6646_storage)dyn_storage"
      },
      {
        "astId": 6667,
        "contract": "contracts/MasterChefJoeV2.sol:MasterChefJoeV2",
        "label": "lpTokens",
        "offset": 0,
        "slot": "10",
        "type": "t_struct(AddressSet)2231_storage"
      },
      {
        "astId": 6673,
        "contract": "contracts/MasterChefJoeV2.sol:MasterChefJoeV2",
        "label": "userInfo",
        "offset": 0,
        "slot": "12",
        "type": "t_mapping(t_uint256,t_mapping(t_address,t_struct(UserInfo)6635_storage))"
      },
      {
        "astId": 6675,
        "contract": "contracts/MasterChefJoeV2.sol:MasterChefJoeV2",
        "label": "totalAllocPoint",
        "offset": 0,
        "slot": "13",
        "type": "t_uint256"
      },
      {
        "astId": 6677,
        "contract": "contracts/MasterChefJoeV2.sol:MasterChefJoeV2",
        "label": "startTimestamp",
        "offset": 0,
        "slot": "14",
        "type": "t_uint256"
      }
    ],
    "types": {
      "t_address": {
        "encoding": "inplace",
        "label": "address",
        "numberOfBytes": "20"
      },
      "t_array(t_bytes32)dyn_storage": {
        "base": "t_bytes32",
        "encoding": "dynamic_array",
        "label": "bytes32[]",
        "numberOfBytes": "32"
      },
      "t_array(t_struct(PoolInfo)6646_storage)dyn_storage": {
        "base": "t_struct(PoolInfo)6646_storage",
        "encoding": "dynamic_array",
        "label": "struct MasterChefJoeV2.PoolInfo[]",
        "numberOfBytes": "32"
      },
      "t_bytes32": {
        "encoding": "inplace",
        "label": "bytes32",
        "numberOfBytes": "32"
      },
      "t_contract(IERC20)1423": {
        "encoding": "inplace",
        "label": "contract IERC20",
        "numberOfBytes": "20"
      },
      "t_contract(IRewarder)6619": {
        "encoding": "inplace",
        "label": "contract IRewarder",
        "numberOfBytes": "20"
      },
      "t_contract(JoeToken)5318": {
        "encoding": "inplace",
        "label": "contract JoeToken",
        "numberOfBytes": "20"
      },
      "t_mapping(t_address,t_struct(UserInfo)6635_storage)": {
        "encoding": "mapping",
        "key": "t_address",
        "label": "mapping(address => struct MasterChefJoeV2.UserInfo)",
        "numberOfBytes": "32",
        "value": "t_struct(UserInfo)6635_storage"
      },
      "t_mapping(t_bytes32,t_uint256)": {
        "encoding": "mapping",
        "key": "t_bytes32",
        "label": "mapping(bytes32 => uint256)",
        "numberOfBytes": "32",
        "value": "t_uint256"
      },
      "t_mapping(t_uint256,t_mapping(t_address,t_struct(UserInfo)6635_storage))": {
        "encoding": "mapping",
        "key": "t_uint256",
        "label": "mapping(uint256 => mapping(address => struct MasterChefJoeV2.UserInfo))",
        "numberOfBytes": "32",
        "value": "t_mapping(t_address,t_struct(UserInfo)6635_storage)"
      },
      "t_struct(AddressSet)2231_storage": {
        "encoding": "inplace",
        "label": "struct EnumerableSet.AddressSet",
        "members": [
          {
            "astId": 2230,
            "contract": "contracts/MasterChefJoeV2.sol:MasterChefJoeV2",
            "label": "_inner",
            "offset": 0,
            "slot": "0",
            "type": "t_struct(Set)1966_storage"
          }
        ],
        "numberOfBytes": "64"
      },
      "t_struct(PoolInfo)6646_storage": {
        "encoding": "inplace",
        "label": "struct MasterChefJoeV2.PoolInfo",
        "members": [
          {
            "astId": 6637,
            "contract": "contracts/MasterChefJoeV2.sol:MasterChefJoeV2",
            "label": "lpToken",
            "offset": 0,
            "slot": "0",
            "type": "t_contract(IERC20)1423"
          },
          {
            "astId": 6639,
            "contract": "contracts/MasterChefJoeV2.sol:MasterChefJoeV2",
            "label": "allocPoint",
            "offset": 0,
            "slot": "1",
            "type": "t_uint256"
          },
          {
            "astId": 6641,
            "contract": "contracts/MasterChefJoeV2.sol:MasterChefJoeV2",
            "label": "lastRewardTimestamp",
            "offset": 0,
            "slot": "2",
            "type": "t_uint256"
          },
          {
            "astId": 6643,
            "contract": "contracts/MasterChefJoeV2.sol:MasterChefJoeV2",
            "label": "accJoePerShare",
            "offset": 0,
            "slot": "3",
            "type": "t_uint256"
          },
          {
            "astId": 6645,
            "contract": "contracts/MasterChefJoeV2.sol:MasterChefJoeV2",
            "label": "rewarder",
            "offset": 0,
            "slot": "4",
            "type": "t_contract(IRewarder)6619"
          }
        ],
        "numberOfBytes": "160"
      },
      "t_struct(Set)1966_storage": {
        "encoding": "inplace",
        "label": "struct EnumerableSet.Set",
        "members": [
          {
            "astId": 1961,
            "contract": "contracts/MasterChefJoeV2.sol:MasterChefJoeV2",
            "label": "_values",
            "offset": 0,
            "slot": "0",
            "type": "t_array(t_bytes32)dyn_storage"
          },
          {
            "astId": 1965,
            "contract": "contracts/MasterChefJoeV2.sol:MasterChefJoeV2",
            "label": "_indexes",
            "offset": 0,
            "slot": "1",
            "type": "t_mapping(t_bytes32,t_uint256)"
          }
        ],
        "numberOfBytes": "64"
      },
      "t_struct(UserInfo)6635_storage": {
        "encoding": "inplace",
        "label": "struct MasterChefJoeV2.UserInfo",
        "members": [
          {
            "astId": 6632,
            "contract": "contracts/MasterChefJoeV2.sol:MasterChefJoeV2",
            "label": "amount",
            "offset": 0,
            "slot": "0",
            "type": "t_uint256"
          },
          {
            "astId": 6634,
            "contract": "contracts/MasterChefJoeV2.sol:MasterChefJoeV2",
            "label": "rewardDebt",
            "offset": 0,
            "slot": "1",
            "type": "t_uint256"
          }
        ],
        "numberOfBytes": "64"
      },
      "t_uint256": {
        "encoding": "inplace",
        "label": "uint256",
        "numberOfBytes": "32"
      }
    }
  }
}