{
  "address": "0x63C0CF90aE12190B388F9914531369aC1e4e4e47",
  "abi": [
    {
      "inputs": [
        {
          "internalType": "address",
          "name": "_factory",
          "type": "address"
        },
        {
          "internalType": "address",
          "name": "_bar",
          "type": "address"
        },
        {
          "internalType": "address",
          "name": "_tokenTo",
          "type": "address"
        },
        {
          "internalType": "address",
          "name": "_wavax",
          "type": "address"
        }
      ],
      "stateMutability": "nonpayable",
      "type": "constructor"
    },
    {
      "anonymous": false,
      "inputs": [
        {
          "indexed": true,
          "internalType": "address",
          "name": "_addr",
          "type": "address"
        }
      ],
      "name": "AddAuthorizedAddress",
      "type": "event"
    },
    {
      "anonymous": false,
      "inputs": [
        {
          "indexed": true,
          "internalType": "address",
          "name": "token",
          "type": "address"
        },
        {
          "indexed": true,
          "internalType": "address",
          "name": "oldBridge",
          "type": "address"
        },
        {
          "indexed": true,
          "internalType": "address",
          "name": "bridge",
          "type": "address"
        }
      ],
      "name": "LogBridgeSet",
      "type": "event"
    },
    {
      "anonymous": false,
      "inputs": [
        {
          "indexed": true,
          "internalType": "address",
          "name": "server",
          "type": "address"
        },
        {
          "indexed": true,
          "internalType": "address",
          "name": "token0",
          "type": "address"
        },
        {
          "indexed": true,
          "internalType": "address",
          "name": "token1",
          "type": "address"
        },
        {
          "indexed": false,
          "internalType": "uint256",
          "name": "amount0",
          "type": "uint256"
        },
        {
          "indexed": false,
          "internalType": "uint256",
          "name": "amount1",
          "type": "uint256"
        },
        {
          "indexed": false,
          "internalType": "uint256",
          "name": "amountTOKEN",
          "type": "uint256"
        }
      ],
      "name": "LogConvert",
      "type": "event"
    },
    {
      "anonymous": false,
      "inputs": [
        {
          "indexed": true,
          "internalType": "address",
          "name": "previousOwner",
          "type": "address"
        },
        {
          "indexed": true,
          "internalType": "address",
          "name": "newOwner",
          "type": "address"
        }
      ],
      "name": "OwnershipTransferred",
      "type": "event"
    },
    {
      "anonymous": false,
      "inputs": [
        {
          "indexed": true,
          "internalType": "address",
          "name": "_addr",
          "type": "address"
        }
      ],
      "name": "RemoveAuthorizedAddress",
      "type": "event"
    },
    {
      "anonymous": false,
      "inputs": [
        {
          "indexed": false,
          "internalType": "address",
          "name": "_addr",
          "type": "address"
        }
      ],
      "name": "SetDevAddr",
      "type": "event"
    },
    {
      "anonymous": false,
      "inputs": [
        {
          "indexed": false,
          "internalType": "uint256",
          "name": "_amount",
          "type": "uint256"
        }
      ],
      "name": "SetDevCut",
      "type": "event"
    },
    {
      "anonymous": false,
      "inputs": [
        {
          "indexed": false,
          "internalType": "address",
          "name": "_tokenTo",
          "type": "address"
        }
      ],
      "name": "SetTokenTo",
      "type": "event"
    },
    {
      "inputs": [
        {
          "internalType": "address",
          "name": "_auth",
          "type": "address"
        }
      ],
      "name": "addAuth",
      "outputs": [],
      "stateMutability": "nonpayable",
      "type": "function"
    },
    {
      "inputs": [],
      "name": "bar",
      "outputs": [
        {
          "internalType": "address",
          "name": "",
          "type": "address"
        }
      ],
      "stateMutability": "view",
      "type": "function"
    },
    {
      "inputs": [
        {
          "internalType": "address",
          "name": "token",
          "type": "address"
        }
      ],
      "name": "bridgeFor",
      "outputs": [
        {
          "internalType": "address",
          "name": "bridge",
          "type": "address"
        }
      ],
      "stateMutability": "view",
      "type": "function"
    },
    {
      "inputs": [
        {
          "internalType": "address",
          "name": "token0",
          "type": "address"
        },
        {
          "internalType": "address",
          "name": "token1",
          "type": "address"
        },
        {
          "internalType": "uint256",
          "name": "slippage",
          "type": "uint256"
        }
      ],
      "name": "convert",
      "outputs": [],
      "stateMutability": "nonpayable",
      "type": "function"
    },
    {
      "inputs": [
        {
          "internalType": "address[]",
          "name": "token0",
          "type": "address[]"
        },
        {
          "internalType": "address[]",
          "name": "token1",
          "type": "address[]"
        },
        {
          "internalType": "uint256",
          "name": "slippage",
          "type": "uint256"
        }
      ],
      "name": "convertMultiple",
      "outputs": [],
      "stateMutability": "nonpayable",
      "type": "function"
    },
    {
      "inputs": [],
      "name": "devAddr",
      "outputs": [
        {
          "internalType": "address",
          "name": "",
          "type": "address"
        }
      ],
      "stateMutability": "view",
      "type": "function"
    },
    {
      "inputs": [],
      "name": "devCut",
      "outputs": [
        {
          "internalType": "uint256",
          "name": "",
          "type": "uint256"
        }
      ],
      "stateMutability": "view",
      "type": "function"
    },
    {
      "inputs": [],
      "name": "factory",
      "outputs": [
        {
          "internalType": "contract IJoeFactory",
          "name": "",
          "type": "address"
        }
      ],
      "stateMutability": "view",
      "type": "function"
    },
    {
      "inputs": [
        {
          "internalType": "uint256",
          "name": "index",
          "type": "uint256"
        }
      ],
      "name": "getAuth",
      "outputs": [
        {
          "internalType": "address",
          "name": "",
          "type": "address"
        }
      ],
      "stateMutability": "view",
      "type": "function"
    },
    {
      "inputs": [],
      "name": "lenAuth",
      "outputs": [
        {
          "internalType": "uint256",
          "name": "",
          "type": "uint256"
        }
      ],
      "stateMutability": "view",
      "type": "function"
    },
    {
      "inputs": [],
      "name": "owner",
      "outputs": [
        {
          "internalType": "address",
          "name": "",
          "type": "address"
        }
      ],
      "stateMutability": "view",
      "type": "function"
    },
    {
      "inputs": [
        {
          "internalType": "address",
          "name": "_auth",
          "type": "address"
        }
      ],
      "name": "removeAuth",
      "outputs": [],
      "stateMutability": "nonpayable",
      "type": "function"
    },
    {
      "inputs": [],
      "name": "renounceOwnership",
      "outputs": [],
      "stateMutability": "nonpayable",
      "type": "function"
    },
    {
      "inputs": [
        {
          "internalType": "address",
          "name": "token",
          "type": "address"
        },
        {
          "internalType": "address",
          "name": "bridge",
          "type": "address"
        }
      ],
      "name": "setBridge",
      "outputs": [],
      "stateMutability": "nonpayable",
      "type": "function"
    },
    {
      "inputs": [
        {
          "internalType": "address",
          "name": "_addr",
          "type": "address"
        }
      ],
      "name": "setDevAddr",
      "outputs": [],
      "stateMutability": "nonpayable",
      "type": "function"
    },
    {
      "inputs": [
        {
          "internalType": "uint256",
          "name": "_amount",
          "type": "uint256"
        }
      ],
      "name": "setDevCut",
      "outputs": [],
      "stateMutability": "nonpayable",
      "type": "function"
    },
    {
      "inputs": [
        {
          "internalType": "address",
          "name": "_tokenTo",
          "type": "address"
        }
      ],
      "name": "setTokenToAddress",
      "outputs": [],
      "stateMutability": "nonpayable",
      "type": "function"
    },
    {
      "inputs": [],
      "name": "tokenTo",
      "outputs": [
        {
          "internalType": "address",
          "name": "",
          "type": "address"
        }
      ],
      "stateMutability": "view",
      "type": "function"
    },
    {
      "inputs": [
        {
          "internalType": "address",
          "name": "newOwner",
          "type": "address"
        }
      ],
      "name": "transferOwnership",
      "outputs": [],
      "stateMutability": "nonpayable",
      "type": "function"
    }
  ],
  "transactionHash": "0xf69e3a3ae096a8839226f5b3a48753b2868a66eca57991bbcb4e6edfc2e1a2e0",
  "args": [
    "0x9Ad6C38BE94206cA50bb0d90783181662f0Cfa10",
    "0x1a731B2299E22FbAC282E7094EdA41046343Cb51",
    "0xB97EF9Ef8734C71904D8002F8b6Bc66Dd9c48a6E",
    "0xB31f66AA3C1e785363F0875A1B74E27b85FD66c7"
  ],
  "numDeployments": 1,
  "solcInputHash": "91087fe40f06a2d5d29d5c07f304564a",
  "bytecode": "0x60e060405260006002553480156200001657600080fd5b506040516200295338038062002953833981810160405260808110156200003c57600080fd5b508051602082015160408301516060909301519192909160006200005f6200025d565b600080546001600160a01b0319166001600160a01b0383169081178255604051929350917f8be0079c531659141344cd1fd0a4f28419497f9722a3daafe3b4186f6b6457e0908290a3506001600160a01b038416620000f05760405162461bcd60e51b8152600401808060200182810382526027815260200180620028e46027913960400191505060405180910390fd5b6001600160a01b038316620001375760405162461bcd60e51b81526004018080602001828103825260238152602001806200290b6023913960400191505060405180910390fd5b6001600160a01b0382166200017e5760405162461bcd60e51b81526004018080602001828103825260258152602001806200292e6025913960400191505060405180910390fd5b6001600160a01b038116620001c55760405162461bcd60e51b8152600401808060200182810382526025815260200180620028bf6025913960400191505060405180910390fd5b6001600160601b0319606085811b821660805284811b821660a052600180546001600160a01b0386166001600160a01b031990911617905582901b1660c0526200020e6200025d565b600380546001600160a01b0319166001600160a01b0392909216919091179055620002526200023c6200025d565b60046200026160201b62000f291790919060201c565b5050505050620002e8565b3390565b600062000278836001600160a01b03841662000281565b90505b92915050565b60006200028f8383620002d0565b620002c7575081546001818101845560008481526020808220909301849055845484825282860190935260409020919091556200027b565b5060006200027b565b60009081526001919091016020526040902054151590565b60805160601c60a05160601c60c05160601c6125566200036960003980610b7e5280610ca952806117155280611752528061187a52806118b752806118e0528061190f528061194c5280611975525080610f0752806116e652806117db52806118445280611c39525080610cde52806110095280611c5f52506125566000f3fe608060405234801561001057600080fd5b50600436106101215760003560e01c80638da5cb5b116100ad578063c45a015511610071578063c45a01551461037f578063da09c72c14610387578063dbcc106d1461038f578063f2fde38b146103ac578063febb0f7e146103d257610121565b80638da5cb5b146103135780639c2868371461031b5780639d22ae8c14610323578063a761a93914610351578063c17b73261461037757610121565b80635422224e116100f45780635422224e146102605780636ebb64a214610286578063715018a6146102ac5780637ccaacbb146102b45780637f3fd918146102ed57610121565b8063159e6f07146101265780631d380d3f14610140578063248391ff146101685780633feb270e1461019e575b600080fd5b61012e6103da565b60408051918252519081900360200190f35b6101666004803603602081101561015657600080fd5b50356001600160a01b03166103eb565b005b6101666004803603606081101561017e57600080fd5b506001600160a01b038135811691602081013590911690604001356104e6565b610166600480360360608110156101b457600080fd5b8101906020810181356401000000008111156101cf57600080fd5b8201836020820111156101e157600080fd5b8035906020019184602083028401116401000000008311171561020357600080fd5b91939092909160208101903564010000000081111561022157600080fd5b82018360208201111561023357600080fd5b8035906020019184602083028401116401000000008311171561025557600080fd5b9193509150356105f1565b6101666004803603602081101561027657600080fd5b50356001600160a01b0316610780565b6101666004803603602081101561029c57600080fd5b50356001600160a01b031661085f565b61016661095a565b6102d1600480360360208110156102ca57600080fd5b5035610a06565b604080516001600160a01b039092168252519081900360200190f35b6101666004803603602081101561030357600080fd5b50356001600160a01b0316610a1b565b6102d1610afa565b61012e610b09565b6101666004803603604081101561033957600080fd5b506001600160a01b0381358116916020013516610b0f565b6102d16004803603602081101561036757600080fd5b50356001600160a01b0316610c86565b6102d1610ccd565b6102d1610cdc565b6102d1610d00565b610166600480360360208110156103a557600080fd5b5035610d0f565b610166600480360360208110156103c257600080fd5b50356001600160a01b0316610e03565b6102d1610f05565b60006103e66004610f47565b905090565b6103f3610f52565b6001600160a01b0316610404610afa565b6001600160a01b03161461044d576040805162461bcd60e51b815260206004820181905260248201526000805160206124b2833981519152604482015290519081900360640190fd5b6001600160a01b0381166104925760405162461bcd60e51b81526004018080602001828103825260318152602001806124586031913960400191505060405180910390fd5b600180546001600160a01b0383166001600160a01b0319909116811790915560408051918252517fbf32c8b1124ae0b6584a5354b035cdfbcfbbba82075e3c7bffc9bf655dc5376e9181900360200190a150565b326104ef610f52565b6001600160a01b031614610545576040805162461bcd60e51b81526020600482015260186024820152774d6f6e65794d616b65723a206d7573742075736520454f4160401b604482015290519081900360640190fd5b610558610550610f52565b600490610f56565b6105a1576040805162461bcd60e51b815260206004820152601560248201527426b7b732bca6b0b5b2b91d102327a92124a22222a760591b604482015290519081900360640190fd5b61138881106105e15760405162461bcd60e51b815260040180806020018281038252602f815260200180612397602f913960400191505060405180910390fd5b6105ec838383610f6b565b505050565b326105fa610f52565b6001600160a01b031614610650576040805162461bcd60e51b81526020600482015260186024820152774d6f6e65794d616b65723a206d7573742075736520454f4160401b604482015290519081900360640190fd5b61065b610550610f52565b6106a4576040805162461bcd60e51b815260206004820152601560248201527426b7b732bca6b0b5b2b91d102327a92124a22222a760591b604482015290519081900360640190fd5b61138881106106e45760405162461bcd60e51b815260040180806020018281038252602f815260200180612397602f913960400191505060405180910390fd5b8382146107225760405162461bcd60e51b815260040180806020018281038252602581526020018061240e6025913960400191505060405180910390fd5b8360005b818110156107775761076f87878381811061073d57fe5b905060200201356001600160a01b031686868481811061075957fe5b905060200201356001600160a01b031685610f6b565b600101610726565b50505050505050565b610788610f52565b6001600160a01b0316610799610afa565b6001600160a01b0316146107e2576040805162461bcd60e51b815260206004820181905260248201526000805160206124b2833981519152604482015290519081900360640190fd5b6107ed600482610f29565b6108285760405162461bcd60e51b81526004018080602001828103825260298152602001806124896029913960400191505060405180910390fd5b6040516001600160a01b038216907f030e24b250019d43c83e1350821892b74b895598b35969ae338242047c815b4990600090a250565b610867610f52565b6001600160a01b0316610878610afa565b6001600160a01b0316146108c1576040805162461bcd60e51b815260206004820181905260248201526000805160206124b2833981519152604482015290519081900360640190fd5b6001600160a01b0381166109065760405162461bcd60e51b815260040180806020018281038252602a8152602001806124f7602a913960400191505060405180910390fd5b600380546001600160a01b0383166001600160a01b0319909116811790915560408051918252517f45c73fc162405abe4471c4228f0797176ac32cb9f7be4a25a67cbd1dda6d007e9181900360200190a150565b610962610f52565b6001600160a01b0316610973610afa565b6001600160a01b0316146109bc576040805162461bcd60e51b815260206004820181905260248201526000805160206124b2833981519152604482015290519081900360640190fd5b600080546040516001600160a01b03909116907f8be0079c531659141344cd1fd0a4f28419497f9722a3daafe3b4186f6b6457e0908390a3600080546001600160a01b0319169055565b6000610a13600483611454565b90505b919050565b610a23610f52565b6001600160a01b0316610a34610afa565b6001600160a01b031614610a7d576040805162461bcd60e51b815260206004820181905260248201526000805160206124b2833981519152604482015290519081900360640190fd5b610a88600482611460565b610ac35760405162461bcd60e51b81526004018080602001828103825260258152602001806124336025913960400191505060405180910390fd5b6040516001600160a01b038216907ff39efc52b4beccf22e624f7c591cc2dbfdb4359a0fe0801b1319d162833c0ec590600090a250565b6000546001600160a01b031690565b60025481565b610b1a610550610f52565b610b63576040805162461bcd60e51b815260206004820152601560248201527426b7b732bca6b0b5b2b91d102327a92124a22222a760591b604482015290519081900360640190fd5b6001546001600160a01b03838116911614801590610bb357507f00000000000000000000000000000000000000000000000000000000000000006001600160a01b0316826001600160a01b031614155b8015610bd15750806001600160a01b0316826001600160a01b031614155b610c22576040805162461bcd60e51b815260206004820152601a60248201527f4d6f6e65794d616b65723a20496e76616c696420627269646765000000000000604482015290519081900360640190fd5b6001600160a01b0380831660008181526006602052604080822080548686166001600160a01b0319821681179092559151919094169392849290917f15e77ca45c8933ccd9fb9c909fd297b4ff5f8b931ba6e5d9df3edbc88f172c149190a4505050565b6001600160a01b038082166000908152600660205260409020541680610a1657507f0000000000000000000000000000000000000000000000000000000000000000919050565b6001546001600160a01b031681565b7f000000000000000000000000000000000000000000000000000000000000000081565b6003546001600160a01b031681565b610d17610f52565b6001600160a01b0316610d28610afa565b6001600160a01b031614610d71576040805162461bcd60e51b815260206004820181905260248201526000805160206124b2833981519152604482015290519081900360640190fd5b611388811115610dc8576040805162461bcd60e51b815260206004820152601760248201527f7365744465764375743a2063757420746f6f2068696768000000000000000000604482015290519081900360640190fd5b60028190556040805182815290517f914990c75916d406c148e7fca9308486d7806a77c0ef66119c9329add5885d2e9181900360200190a150565b610e0b610f52565b6001600160a01b0316610e1c610afa565b6001600160a01b031614610e65576040805162461bcd60e51b815260206004820181905260248201526000805160206124b2833981519152604482015290519081900360640190fd5b6001600160a01b038116610eaa5760405162461bcd60e51b81526004018080602001828103825260268152602001806123c66026913960400191505060405180910390fd5b600080546040516001600160a01b03808516939216917f8be0079c531659141344cd1fd0a4f28419497f9722a3daafe3b4186f6b6457e091a3600080546001600160a01b0319166001600160a01b0392909216919091179055565b7f000000000000000000000000000000000000000000000000000000000000000081565b6000610f3e836001600160a01b038416611475565b90505b92915050565b6000610a13826114bf565b3390565b6000610f3e836001600160a01b0384166114c3565b600080836001600160a01b0316856001600160a01b0316141561100557604080516370a0823160e01b815230600482015290516001600160a01b038716916370a08231916024808301926020929190829003018186803b158015610fce57600080fd5b505afa158015610fe2573d6000803e3d6000fd5b505050506040513d6020811015610ff857600080fd5b50519150600090506113db565b60007f00000000000000000000000000000000000000000000000000000000000000006001600160a01b031663e6a4390587876040518363ffffffff1660e01b815260040180836001600160a01b03168152602001826001600160a01b031681526020019250505060206040518083038186803b15801561108557600080fd5b505afa158015611099573d6000803e3d6000fd5b505050506040513d60208110156110af57600080fd5b505190506001600160a01b03811661110e576040805162461bcd60e51b815260206004820152601860248201527f4d6f6e65794d616b65723a20496e76616c696420706169720000000000000000604482015290519081900360640190fd5b61119c81826001600160a01b03166370a08231306040518263ffffffff1660e01b815260040180826001600160a01b0316815260200191505060206040518083038186803b15801561115f57600080fd5b505afa158015611173573d6000803e3d6000fd5b505050506040513d602081101561118957600080fd5b50516001600160a01b03841691906114db565b6000866001600160a01b03166370a08231306040518263ffffffff1660e01b815260040180826001600160a01b0316815260200191505060206040518083038186803b1580156111eb57600080fd5b505afa1580156111ff573d6000803e3d6000fd5b505050506040513d602081101561121557600080fd5b5051604080516370a0823160e01b815230600482015290519192506000916001600160a01b038916916370a08231916024808301926020929190829003018186803b15801561126357600080fd5b505afa158015611277573d6000803e3d6000fd5b505050506040513d602081101561128d57600080fd5b50516040805163226bf2d160e21b815230600482015281519293506001600160a01b038616926389afcb44926024808401939192918290030181600087803b1580156112d857600080fd5b505af11580156112ec573d6000803e3d6000fd5b505050506040513d604081101561130257600080fd5b5050604080516370a0823160e01b815230600482015290516113829184916001600160a01b038c16916370a08231916024808301926020929190829003018186803b15801561135057600080fd5b505afa158015611364573d6000803e3d6000fd5b505050506040513d602081101561137a57600080fd5b505190611645565b94506113d581886001600160a01b03166370a08231306040518263ffffffff1660e01b815260040180826001600160a01b0316815260200191505060206040518083038186803b15801561135057600080fd5b93505050505b836001600160a01b0316856001600160a01b03166113f7610f52565b6001600160a01b03167fd06b1d7ed79b664d17472c6f6997b929f1abe463ccccb4e5b6a0038f2f730c1585856114308b8b8a8a8d611693565b60408051938452602084019290925282820152519081900360600190a45050505050565b6000610f3e8383611a51565b6000610f3e836001600160a01b038416611ab5565b600061148183836114c3565b6114b757508154600181810184556000848152602080822090930184905584548482528286019093526040902091909155610f41565b506000610f41565b5490565b60009081526001919091016020526040902054151590565b604080516001600160a01b038481166024830152604480830185905283518084039091018152606490920183526020820180516001600160e01b031663a9059cbb60e01b178152925182516000946060949389169392918291908083835b602083106115585780518252601f199092019160209182019101611539565b6001836020036101000a0380198251168184511680821785525050505050509050019150506000604051808303816000865af19150503d80600081146115ba576040519150601f19603f3d011682016040523d82523d6000602084013e6115bf565b606091505b50915091508180156115ed5750805115806115ed57508080602001905160208110156115ea57600080fd5b50515b61163e576040805162461bcd60e51b815260206004820152601a60248201527f5361666545524332303a205472616e73666572206661696c6564000000000000604482015290519081900360640190fd5b5050505050565b80820382811115610f41576040805162461bcd60e51b8152602060048201526013602482015272536166654d6174683a20556e646572666c6f7760681b604482015290519081900360640190fd5b6000846001600160a01b0316866001600160a01b031614156117b35760006116bb8585611b7b565b6001549091506001600160a01b03888116911614156117135760015461170b906001600160a01b03167f0000000000000000000000000000000000000000000000000000000000000000836114db565b8091506117ad565b7f00000000000000000000000000000000000000000000000000000000000000006001600160a01b0316876001600160a01b0316141561177f576117787f00000000000000000000000000000000000000000000000000000000000000008285611bcc565b91506117ad565b600061178a88610c86565b90506117998882843088611c5a565b91506117a9818284600088611693565b9250505b50611a48565b6001546001600160a01b038781169116141561181c57600154611800906001600160a01b03167f0000000000000000000000000000000000000000000000000000000000000000866114db565b6118158461180f878686611bcc565b90611b7b565b9050611a48565b6001546001600160a01b038681169116141561187857600154611869906001600160a01b03167f0000000000000000000000000000000000000000000000000000000000000000856114db565b6118158361180f888786611bcc565b7f00000000000000000000000000000000000000000000000000000000000000006001600160a01b0316866001600160a01b0316141561190d576118157f00000000000000000000000000000000000000000000000000000000000000006119078661180f897f000000000000000000000000000000000000000000000000000000000000000089308a611c5a565b84611bcc565b7f00000000000000000000000000000000000000000000000000000000000000006001600160a01b0316856001600160a01b0316141561199c576118157f00000000000000000000000000000000000000000000000000000000000000006119078561180f8a7f00000000000000000000000000000000000000000000000000000000000000008a308a611c5a565b60006119a787610c86565b905060006119b487610c86565b9050866001600160a01b0316826001600160a01b031614156119f0576119e982886119e28b868b308b611c5a565b8888611693565b9250611a45565b876001600160a01b0316816001600160a01b03161415611a23576119e9888288611a1d8b868b308c611c5a565b88611693565b611a428282611a358b868b308b611c5a565b611a1d8b868b308c611c5a565b92505b50505b95945050505050565b81546000908210611a935760405162461bcd60e51b81526004018080602001828103825260228152602001806123756022913960400191505060405180910390fd5b826000018281548110611aa257fe5b9060005260206000200154905092915050565b60008181526001830160205260408120548015611b715783546000198083019190810190600090879083908110611ae857fe5b9060005260206000200154905080876000018481548110611b0557fe5b600091825260208083209091019290925582815260018981019092526040902090840190558654879080611b3557fe5b60019003818190600052602060002001600090559055866001016000878152602001908152602001600020600090556001945050505050610f41565b6000915050610f41565b81810181811015610f41576040805162461bcd60e51b8152602060048201526016602482015275536166654d6174683a20416464204f766572666c6f7760501b604482015290519081900360640190fd5b600254600090839015611c2457611bfa612710611bf46002548461212690919063ffffffff16565b9061218b565b600354909150611c17906001600160a01b038781169116836114db565b611c218482611645565b90505b600154611a489086906001600160a01b0316837f0000000000000000000000000000000000000000000000000000000000000000875b6000807f00000000000000000000000000000000000000000000000000000000000000006001600160a01b031663e6a4390588886040518363ffffffff1660e01b815260040180836001600160a01b03168152602001826001600160a01b031681526020019250505060206040518083038186803b158015611cdb57600080fd5b505afa158015611cef573d6000803e3d6000fd5b505050506040513d6020811015611d0557600080fd5b505190506001600160a01b038116611d64576040805162461bcd60e51b815260206004820152601a60248201527f4d6f6e65794d616b65723a2043616e6e6f7420636f6e76657274000000000000604482015290519081900360640190fd5b600080826001600160a01b0316630902f1ac6040518163ffffffff1660e01b815260040160606040518083038186803b158015611da057600080fd5b505afa158015611db4573d6000803e3d6000fd5b505050506040513d6060811015611dca57600080fd5b50805160209182015160408051630dfe168160e01b815290516dffffffffffffffffffffffffffff938416965092909116935060009283926001600160a01b03881692630dfe1681926004808301939192829003018186803b158015611e2f57600080fd5b505afa158015611e43573d6000803e3d6000fd5b505050506040513d6020811015611e5957600080fd5b50516001600160a01b038c8116911614611e74578284611e77565b83835b9092509050611e906001600160a01b038c16868b6114db565b6000611ee3838d6001600160a01b03166370a08231896040518263ffffffff1660e01b815260040180826001600160a01b0316815260200191505060206040518083038186803b15801561135057600080fd5b9050611ef08184846121ea565b96506000611f006127108a611645565b9050611f1e6305f5e100611bf483611f188682612126565b90612126565b611f298985876121ea565b1015611f7c576040805162461bcd60e51b815260206004820152601b60248201527f4d6f6e65794d616b65723a20536c697070616765206361756768740000000000604482015290519081900360640190fd5b50600080876001600160a01b0316630dfe16816040518163ffffffff1660e01b815260040160206040518083038186803b158015611fb957600080fd5b505afa158015611fcd573d6000803e3d6000fd5b505050506040513d6020811015611fe357600080fd5b50516001600160a01b038f8116911614611fff57886000612003565b6000895b90925090506001600160a01b03881663022c0d9f83838e60006040519080825280601f01601f191660200182016040528015612046576020820181803683370190505b506040518563ffffffff1660e01b815260040180858152602001848152602001836001600160a01b0316815260200180602001828103825283818151815260200191508051906020019080838360005b838110156120ae578181015183820152602001612096565b50505050905090810190601f1680156120db5780820380516001836020036101000a031916815260200191505b5095505050505050600060405180830381600087803b1580156120fd57600080fd5b505af1158015612111573d6000803e3d6000fd5b50505050505050505050505095945050505050565b60008115806121415750508082028282828161213e57fe5b04145b610f41576040805162461bcd60e51b8152602060048201526016602482015275536166654d6174683a204d756c204f766572666c6f7760501b604482015290519081900360640190fd5b60008082116121d9576040805162461bcd60e51b8152602060048201526015602482015274536166654d6174683a20446976206279205a65726f60581b604482015290519081900360640190fd5b8183816121e257fe5b049392505050565b600080841161222a5760405162461bcd60e51b81526004018080602001828103825260258152602001806124d26025913960400191505060405180910390fd5b60008311801561223a5750600082115b6122755760405162461bcd60e51b81526004018080602001828103825260228152602001806123ec6022913960400191505060405180910390fd5b6000612283856103e56122c2565b9050600061229182856122c2565b905060006122ab836122a5886103e86122c2565b90612325565b90508082816122b657fe5b04979650505050505050565b60008115806122dd575050808202828282816122da57fe5b04145b610f41576040805162461bcd60e51b815260206004820152601460248201527364732d6d6174682d6d756c2d6f766572666c6f7760601b604482015290519081900360640190fd5b80820182811015610f41576040805162461bcd60e51b815260206004820152601460248201527364732d6d6174682d6164642d6f766572666c6f7760601b604482015290519081900360640190fdfe456e756d657261626c655365743a20696e646578206f7574206f6620626f756e64734d6f6e65794d616b65723a20736c697070616765206e6565647320746f206265206c6f776572207468616e203530254f776e61626c653a206e6577206f776e657220697320746865207a65726f20616464726573734a6f654c6962726172793a20494e53554646494349454e545f4c49515549444954594d6f6e65794d616b65723a20617272617973206c656e67746820646f6e2774206d617463684d6f6e65794d616b65723a2041646472657373206973206e6f7420617574686f72697a6564736574546f6b656e546f416464726573732c20616464726573732063616e6e6f74206265207a65726f20616464726573734d6f6e65794d616b65723a204164647265737320697320616c726561647920617574686f72697a65644f776e61626c653a2063616c6c6572206973206e6f7420746865206f776e65724a6f654c6962726172793a20494e53554646494349454e545f494e5055545f414d4f554e54736574446576416464722c20616464726573732063616e6e6f74206265207a65726f2061646472657373a2646970667358221220333001c4cc8146f43839dd42c1bf0e4ee6a8ef49c7fa9074cb7147459661b8d164736f6c634300060c00334d6f6e65794d616b65723a2077617661782063616e277420626520616464726573732830294d6f6e65794d616b65723a20666163746f72792063616e277420626520616464726573732830294d6f6e65794d616b65723a206261722063616e277420626520616464726573732830294d6f6e65794d616b65723a20746f6b656e2063616e27742062652061646472657373283029",
  "devdoc": {
    "author": "Trader Joe",
    "kind": "dev",
    "methods": {
      "addAuth(address)": {
        "params": {
          "_auth": "The address to add"
        }
      },
      "bridgeFor(address)": {
        "params": {
          "token": "The tokenFrom address"
        },
        "returns": {
          "bridge": "The tokenTo address"
        }
      },
      "constructor": {
        "params": {
          "_bar": "The address of JoeBar",
          "_factory": "The address of JoeFactory",
          "_tokenTo": "The address of the token we want to convert to",
          "_wavax": "The address of wavax"
        }
      },
      "convert(address,address,uint256)": {
        "details": "_convert is separate to save gas by only checking the 'onlyEOA' modifier once in case of convertMultiple",
        "params": {
          "slippage": "The accepted slippage, in basis points aka parts per 10,000 so 5000 is 50%",
          "token0": "The address of the first token of the pair that will be converted",
          "token1": "The address of the second token of the pair that will be converted"
        }
      },
      "convertMultiple(address[],address[],uint256)": {
        "details": "_convert is separate to save gas by only checking the 'onlyEOA' modifier once in case of convertMultiple",
        "params": {
          "slippage": "The accepted slippage, in basis points aka parts per 10,000 so 5000 is 50%",
          "token0": "The list of addresses of the first token of the pairs that will be converted",
          "token1": "The list of addresses of the second token of the pairs that will be converted"
        }
      },
      "getAuth(uint256)": {
        "params": {
          "index": "Index of the returned address"
        },
        "returns": {
          "_0": "The authorized address at `index`"
        }
      },
      "lenAuth()": {
        "returns": {
          "_0": "The number of authorized addresses"
        }
      },
      "owner()": {
        "details": "Returns the address of the current owner."
      },
      "removeAuth(address)": {
        "params": {
          "_auth": "The address to remove"
        }
      },
      "renounceOwnership()": {
        "details": "Leaves the contract without owner. It will not be possible to call `onlyOwner` functions anymore. Can only be called by the current owner. NOTE: Renouncing ownership will leave the contract without an owner, thereby removing any functionality that is only available to the owner."
      },
      "setBridge(address,address)": {
        "params": {
          "bridge": "The address of the tokenTo",
          "token": "The address of the tokenFrom"
        }
      },
      "setDevAddr(address)": {
        "params": {
          "_addr": "The new dev address"
        }
      },
      "setDevCut(uint256)": {
        "params": {
          "_amount": "The new devCut value"
        }
      },
      "setTokenToAddress(address)": {
        "params": {
          "_tokenTo": "The new token address"
        }
      },
      "transferOwnership(address)": {
        "details": "Transfers ownership of the contract to a new account (`newOwner`). Can only be called by the current owner."
      }
    },
    "stateVariables": {
      "_bridges": {
        "details": "Maps a token `token` to another token `bridge` so that it uses `token/bridge` pair to convert token"
      }
    },
    "title": "Money Maker",
    "version": 1
  },
  "userdoc": {
    "kind": "user",
    "methods": {
      "addAuth(address)": {
        "notice": "Adds a user to the authorized addresses"
      },
      "bridgeFor(address)": {
        "notice": "Returns the `bridge` of a `token`"
      },
      "constructor": "Constructor",
      "convert(address,address,uint256)": {
        "notice": "Converts a pair of tokens to tokenTo"
      },
      "convertMultiple(address[],address[],uint256)": {
        "notice": "Converts a list of pairs of tokens to tokenTo"
      },
      "devCut()": {
        "notice": "In basis points aka parts per 10,000 so 5000 is 50%, cap of 50%, default is 0"
      },
      "getAuth(uint256)": {
        "notice": "Return the list of authorized addresses"
      },
      "lenAuth()": {
        "notice": "Return the length of authorized addresses"
      },
      "removeAuth(address)": {
        "notice": "Remove a user of authorized addresses"
      },
      "setBridge(address,address)": {
        "notice": "Force using `pair/bridge` pair to convert `token`"
      },
      "setDevAddr(address)": {
        "notice": "Sets `devAddr`, the address that will receive the `devCut`"
      },
      "setDevCut(uint256)": {
        "notice": "Sets dev cut, which will be sent to `devAddr`, can't be greater than 50%"
      },
      "setTokenToAddress(address)": {
        "notice": "Sets token that we're buying back"
      },
      "tokenTo()": {
        "notice": "Any ERC20"
      }
    },
    "notice": "MoneyMaker receives 0.05% of the swaps done on Trader Joe in the form of an LP. It swaps those LPs to a token of choice and sends it to the JoeBar",
    "version": 1
  },
  "storageLayout": {
    "storage": [
      {
        "astId": 987,
        "contract": "contracts/MoneyMaker.sol:MoneyMaker",
        "label": "_owner",
        "offset": 0,
        "slot": "0",
        "type": "t_address"
      },
      {
        "astId": 13079,
        "contract": "contracts/MoneyMaker.sol:MoneyMaker",
        "label": "tokenTo",
        "offset": 0,
        "slot": "1",
        "type": "t_address"
      },
      {
        "astId": 13083,
        "contract": "contracts/MoneyMaker.sol:MoneyMaker",
        "label": "devCut",
        "offset": 0,
        "slot": "2",
        "type": "t_uint256"
      },
      {
        "astId": 13085,
        "contract": "contracts/MoneyMaker.sol:MoneyMaker",
        "label": "devAddr",
        "offset": 0,
        "slot": "3",
        "type": "t_address"
      },
      {
        "astId": 13087,
        "contract": "contracts/MoneyMaker.sol:MoneyMaker",
        "label": "_isAuth",
        "offset": 0,
        "slot": "4",
        "type": "t_struct(AddressSet)2965_storage"
      },
      {
        "astId": 13105,
        "contract": "contracts/MoneyMaker.sol:MoneyMaker",
        "label": "_bridges",
        "offset": 0,
        "slot": "6",
        "type": "t_mapping(t_address,t_address)"
      }
    ],
    "types": {
      "t_address": {
        "encoding": "inplace",
        "label": "address",
        "numberOfBytes": "20"
      },
      "t_array(t_bytes32)dyn_storage": {
        "base": "t_bytes32",
        "encoding": "dynamic_array",
        "label": "bytes32[]",
        "numberOfBytes": "32"
      },
      "t_bytes32": {
        "encoding": "inplace",
        "label": "bytes32",
        "numberOfBytes": "32"
      },
      "t_mapping(t_address,t_address)": {
        "encoding": "mapping",
        "key": "t_address",
        "label": "mapping(address => address)",
        "numberOfBytes": "32",
        "value": "t_address"
      },
      "t_mapping(t_bytes32,t_uint256)": {
        "encoding": "mapping",
        "key": "t_bytes32",
        "label": "mapping(bytes32 => uint256)",
        "numberOfBytes": "32",
        "value": "t_uint256"
      },
      "t_struct(AddressSet)2965_storage": {
        "encoding": "inplace",
        "label": "struct EnumerableSet.AddressSet",
        "members": [
          {
            "astId": 2964,
            "contract": "contracts/MoneyMaker.sol:MoneyMaker",
            "label": "_inner",
            "offset": 0,
            "slot": "0",
            "type": "t_struct(Set)2700_storage"
          }
        ],
        "numberOfBytes": "64"
      },
      "t_struct(Set)2700_storage": {
        "encoding": "inplace",
        "label": "struct EnumerableSet.Set",
        "members": [
          {
            "astId": 2695,
            "contract": "contracts/MoneyMaker.sol:MoneyMaker",
            "label": "_values",
            "offset": 0,
            "slot": "0",
            "type": "t_array(t_bytes32)dyn_storage"
          },
          {
            "astId": 2699,
            "contract": "contracts/MoneyMaker.sol:MoneyMaker",
            "label": "_indexes",
            "offset": 0,
            "slot": "1",
            "type": "t_mapping(t_bytes32,t_uint256)"
          }
        ],
        "numberOfBytes": "64"
      },
      "t_uint256": {
        "encoding": "inplace",
        "label": "uint256",
        "numberOfBytes": "32"
      }
    }
  }
}