{
  "address": "0x2C7B8e971c704371772eDaf16e0dB381A8D02027",
  "abi": [
    {
      "anonymous": false,
      "inputs": [
        {
          "indexed": true,
          "internalType": "address",
          "name": "previousOwner",
          "type": "address"
        },
        {
          "indexed": true,
          "internalType": "address",
          "name": "newOwner",
          "type": "address"
        }
      ],
      "name": "OwnershipTransferred",
      "type": "event"
    },
    {
      "inputs": [],
      "name": "DAI",
      "outputs": [
        {
          "internalType": "address",
          "name": "",
          "type": "address"
        }
      ],
      "stateMutability": "view",
      "type": "function"
    },
    {
      "inputs": [],
      "name": "JOE",
      "outputs": [
        {
          "internalType": "address",
          "name": "",
          "type": "address"
        }
      ],
      "stateMutability": "view",
      "type": "function"
    },
    {
      "inputs": [],
      "name": "USDT",
      "outputs": [
        {
          "internalType": "address",
          "name": "",
          "type": "address"
        }
      ],
      "stateMutability": "view",
      "type": "function"
    },
    {
      "inputs": [],
      "name": "WAVAX",
      "outputs": [
        {
          "internalType": "address",
          "name": "",
          "type": "address"
        }
      ],
      "stateMutability": "view",
      "type": "function"
    },
    {
      "inputs": [
        {
          "internalType": "address",
          "name": "_joe",
          "type": "address"
        },
        {
          "internalType": "address",
          "name": "_router",
          "type": "address"
        }
      ],
      "name": "initialize",
      "outputs": [],
      "stateMutability": "nonpayable",
      "type": "function"
    },
    {
      "inputs": [
        {
          "internalType": "address",
          "name": "_address",
          "type": "address"
        }
      ],
      "name": "isLP",
      "outputs": [
        {
          "internalType": "bool",
          "name": "",
          "type": "bool"
        }
      ],
      "stateMutability": "view",
      "type": "function"
    },
    {
      "inputs": [],
      "name": "owner",
      "outputs": [
        {
          "internalType": "address",
          "name": "",
          "type": "address"
        }
      ],
      "stateMutability": "view",
      "type": "function"
    },
    {
      "inputs": [
        {
          "internalType": "uint256",
          "name": "i",
          "type": "uint256"
        }
      ],
      "name": "removeToken",
      "outputs": [],
      "stateMutability": "nonpayable",
      "type": "function"
    },
    {
      "inputs": [],
      "name": "renounceOwnership",
      "outputs": [],
      "stateMutability": "nonpayable",
      "type": "function"
    },
    {
      "inputs": [
        {
          "internalType": "address",
          "name": "_address",
          "type": "address"
        }
      ],
      "name": "routePair",
      "outputs": [
        {
          "internalType": "address",
          "name": "",
          "type": "address"
        }
      ],
      "stateMutability": "view",
      "type": "function"
    },
    {
      "inputs": [
        {
          "internalType": "address",
          "name": "token",
          "type": "address"
        }
      ],
      "name": "setNotLP",
      "outputs": [],
      "stateMutability": "nonpayable",
      "type": "function"
    },
    {
      "inputs": [
        {
          "internalType": "address",
          "name": "asset",
          "type": "address"
        },
        {
          "internalType": "address",
          "name": "route",
          "type": "address"
        }
      ],
      "name": "setRoutePairAddress",
      "outputs": [],
      "stateMutability": "nonpayable",
      "type": "function"
    },
    {
      "inputs": [],
      "name": "sweep",
      "outputs": [],
      "stateMutability": "nonpayable",
      "type": "function"
    },
    {
      "inputs": [
        {
          "internalType": "uint256",
          "name": "",
          "type": "uint256"
        }
      ],
      "name": "tokens",
      "outputs": [
        {
          "internalType": "address",
          "name": "",
          "type": "address"
        }
      ],
      "stateMutability": "view",
      "type": "function"
    },
    {
      "inputs": [
        {
          "internalType": "address",
          "name": "newOwner",
          "type": "address"
        }
      ],
      "name": "transferOwnership",
      "outputs": [],
      "stateMutability": "nonpayable",
      "type": "function"
    },
    {
      "inputs": [
        {
          "internalType": "address",
          "name": "token",
          "type": "address"
        }
      ],
      "name": "withdraw",
      "outputs": [],
      "stateMutability": "nonpayable",
      "type": "function"
    },
    {
      "inputs": [
        {
          "internalType": "address",
          "name": "_to",
          "type": "address"
        }
      ],
      "name": "zapIn",
      "outputs": [],
      "stateMutability": "payable",
      "type": "function"
    },
    {
      "inputs": [
        {
          "internalType": "address",
          "name": "_from",
          "type": "address"
        },
        {
          "internalType": "uint256",
          "name": "amount",
          "type": "uint256"
        },
        {
          "internalType": "address",
          "name": "_to",
          "type": "address"
        }
      ],
      "name": "zapInToken",
      "outputs": [],
      "stateMutability": "nonpayable",
      "type": "function"
    },
    {
      "inputs": [
        {
          "internalType": "address",
          "name": "_from",
          "type": "address"
        },
        {
          "internalType": "uint256",
          "name": "amount",
          "type": "uint256"
        }
      ],
      "name": "zapOut",
      "outputs": [],
      "stateMutability": "nonpayable",
      "type": "function"
    },
    {
      "stateMutability": "payable",
      "type": "receive"
    }
  ],
  "transactionHash": "0xe915451230093225c48e26907335329879c787acbea4414ef842453e9d563b9a",
  "args": [],
  "solcInputHash": "4d1dd50cb145a5817b82067d3276f180",
  "bytecode": "0x608060405234801561001057600080fd5b50612ea8806100206000396000f3fe6080604052600436106101185760003560e01c806373b295c2116100a0578063d9139f6311610064578063d9139f6314610398578063e0bab4c4146103d1578063f2fde38b146103e6578063fe47068d14610419578063ffebad301461043f5761011f565b806373b295c2146102df5780637df0f767146102f45780638da5cb5b1461033b578063985c9d5614610350578063c54e44eb146103835761011f565b806336c5d724116100e757806336c5d724146101ec578063485cc955146102165780634f64b2be1461025157806351cff8d914610297578063715018a6146102ca5761011f565b80631c286c8a146101245780631c4009f9146101615780631eff9adb146101a457806335faa416146101d75761011f565b3661011f57005b600080fd5b34801561013057600080fd5b5061015f6004803603604081101561014757600080fd5b506001600160a01b0381358116916020013516610454565b005b34801561016d57600080fd5b5061015f6004803603606081101561018457600080fd5b506001600160a01b038135811691602081013591604090910135166104da565b3480156101b057600080fd5b5061015f600480360360208110156101c757600080fd5b50356001600160a01b0316610767565b3480156101e357600080fd5b5061015f61083e565b3480156101f857600080fd5b5061015f6004803603602081101561020f57600080fd5b5035610a43565b34801561022257600080fd5b5061015f6004803603604081101561023957600080fd5b506001600160a01b0381358116916020013516610b71565b34801561025d57600080fd5b5061027b6004803603602081101561027457600080fd5b5035610d18565b604080516001600160a01b039092168252519081900360200190f35b3480156102a357600080fd5b5061015f600480360360208110156102ba57600080fd5b50356001600160a01b0316610d3f565b3480156102d657600080fd5b5061015f610eed565b3480156102eb57600080fd5b5061027b610f8f565b34801561030057600080fd5b506103276004803603602081101561031757600080fd5b50356001600160a01b0316610fa1565b604080519115158252519081900360200190f35b34801561034757600080fd5b5061027b610fc0565b34801561035c57600080fd5b5061027b6004803603602081101561037357600080fd5b50356001600160a01b0316610fcf565b34801561038f57600080fd5b5061027b610fed565b3480156103a457600080fd5b5061015f600480360360408110156103bb57600080fd5b506001600160a01b038135169060200135611005565b3480156103dd57600080fd5b5061027b6112dd565b3480156103f257600080fd5b5061015f6004803603602081101561040957600080fd5b50356001600160a01b03166112f5565b61015f6004803603602081101561042f57600080fd5b50356001600160a01b03166113ee565b34801561044b57600080fd5b5061027b6113f9565b61045c611408565b6033546001600160a01b039081169116146104ac576040805162461bcd60e51b81526020600482018190526024820152600080516020612dd3833981519152604482015290519081900360640190fd5b6001600160a01b03918216600090815260686020526040902080546001600160a01b03191691909216179055565b6104ef6001600160a01b03841633308561140c565b6104f883611466565b61050181610fa1565b156107545760008190506000816001600160a01b0316630dfe16816040518163ffffffff1660e01b815260040160206040518083038186803b15801561054657600080fd5b505afa15801561055a573d6000803e3d6000fd5b505050506040513d602081101561057057600080fd5b50516040805163d21220a760e01b815290519192506000916001600160a01b0385169163d21220a7916004808301926020929190829003018186803b1580156105b857600080fd5b505afa1580156105cc573d6000803e3d6000fd5b505050506040513d60208110156105e257600080fd5b505190506001600160a01b0386811690831614806106115750806001600160a01b0316866001600160a01b0316145b15610730576000826001600160a01b0316876001600160a01b0316146106375782610639565b815b905061064481611466565b6000610651876002611505565b905060006106618983853061156c565b6066549091506001600160a01b031663e8e337008a856106818c87611dd3565b604080516001600160e01b031960e087901b1681526001600160a01b03948516600482015292909316602483015260448201526064810185905260006084820181905260a482018190523360c48301524260e483015291516101048083019360609383900390910190829087803b1580156106fb57600080fd5b505af115801561070f573d6000803e3d6000fd5b505050506040513d606081101561072557600080fd5b5061074c9350505050565b600061073d878730611e30565b905061074a858233612162565b505b505050610762565b6107608383833361156c565b505b505050565b61076f611408565b6033546001600160a01b039081169116146107bf576040805162461bcd60e51b81526020600482018190526024820152600080516020612dd3833981519152604482015290519081900360640190fd5b6001600160a01b0381166000908152606760205260409020805460ff19811660011790915560ff1615801561083a57606980546001810182556000919091527f7fb4302e8e91f9110a6554c2c0a24601252c2a42c2220ca988efcfe3999143080180546001600160a01b0319166001600160a01b0384161790555b5050565b610846611408565b6033546001600160a01b03908116911614610896576040805162461bcd60e51b81526020600482018190526024820152600080516020612dd3833981519152604482015290519081900360640190fd5b60005b6069548110156109f8576000606982815481106108b257fe5b6000918252602090912001546001600160a01b03169050806108d457506109f0565b6000816001600160a01b03166370a08231306040518263ffffffff1660e01b815260040180826001600160a01b0316815260200191505060206040518083038186803b15801561092357600080fd5b505afa158015610937573d6000803e3d6000fd5b505050506040513d602081101561094d57600080fd5b5051905080156109ed576001600160a01b038216600080516020612df383398151915214156109d957816001600160a01b0316632e1a7d4d826040518263ffffffff1660e01b815260040180828152602001915050600060405180830381600087803b1580156109bc57600080fd5b505af11580156109d0573d6000803e3d6000fd5b505050506109ed565b6109eb82826109e6610fc0565b611e30565b505b50505b600101610899565b50478015610a4057610a08610fc0565b6001600160a01b03166108fc829081150290604051600060405180830381858888f1935050505015801561083a573d6000803e3d6000fd5b50565b610a4b611408565b6033546001600160a01b03908116911614610a9b576040805162461bcd60e51b81526020600482018190526024820152600080516020612dd3833981519152604482015290519081900360640190fd5b600060698281548110610aaa57fe5b60009182526020808320909101546001600160a01b031680835260679091526040909120805460ff1916905560698054919250906000198101908110610aec57fe5b600091825260209091200154606980546001600160a01b039092169184908110610b1257fe5b9060005260206000200160006101000a8154816001600160a01b0302191690836001600160a01b031602179055506069805480610b4b57fe5b600082815260209020810160001990810180546001600160a01b03191690550190555050565b600054610100900460ff1680610b8a5750610b8a6124ae565b80610b98575060005460ff16155b610bd35760405162461bcd60e51b815260040180806020018281038252602e815260200180612da5602e913960400191505060405180910390fd5b600054610100900460ff16158015610bfe576000805460ff1961ff0019909116610100171660011790555b610c066124b4565b6000610c10610fc0565b6001600160a01b03161415610c6c576040805162461bcd60e51b815260206004820152601960248201527f5a61704554483a206f776e6572206d7573742062652073657400000000000000604482015290519081900360640190fd5b606580546001600160a01b038086166001600160a01b0319928316179092556066805492851692909116919091179055610cb3600080516020612df3833981519152610767565b610cd073de3a24028580884448a5397872046a019649b084610767565b606554610ce5906001600160a01b0316610767565b610d0273ba7deebbfc5fa1100fb055a87773e1e99cd3507a610767565b8015610762576000805461ff0019169055505050565b60698181548110610d2557fe5b6000918252602090912001546001600160a01b0316905081565b610d47611408565b6033546001600160a01b03908116911614610d97576040805162461bcd60e51b81526020600482018190526024820152600080516020612dd3833981519152604482015290519081900360640190fd5b6001600160a01b038116610deb57610dad610fc0565b6001600160a01b03166108fc479081150290604051600060405180830381858888f19350505050158015610de5573d6000803e3d6000fd5b50610a40565b806001600160a01b031663a9059cbb610e02610fc0565b604080516370a0823160e01b815230600482015290516001600160a01b038616916370a08231916024808301926020929190829003018186803b158015610e4857600080fd5b505afa158015610e5c573d6000803e3d6000fd5b505050506040513d6020811015610e7257600080fd5b5051604080516001600160e01b031960e086901b1681526001600160a01b03909316600484015260248301919091525160448083019260209291908290030181600087803b158015610ec357600080fd5b505af1158015610ed7573d6000803e3d6000fd5b505050506040513d602081101561076257600080fd5b610ef5611408565b6033546001600160a01b03908116911614610f45576040805162461bcd60e51b81526020600482018190526024820152600080516020612dd3833981519152604482015290519081900360640190fd5b6033546040516000916001600160a01b0316907f8be0079c531659141344cd1fd0a4f28419497f9722a3daafe3b4186f6b6457e0908390a3603380546001600160a01b0319169055565b600080516020612df383398151915281565b6001600160a01b031660009081526067602052604090205460ff161590565b6033546001600160a01b031690565b6001600160a01b039081166000908152606860205260409020541690565b73de3a24028580884448a5397872046a019649b08481565b61101a6001600160a01b03831633308461140c565b61102382611466565b61102c82610fa1565b6110415761103b828233611e30565b5061083a565b60008290506000816001600160a01b0316630dfe16816040518163ffffffff1660e01b815260040160206040518083038186803b15801561108157600080fd5b505afa158015611095573d6000803e3d6000fd5b505050506040513d60208110156110ab57600080fd5b50516040805163d21220a760e01b815290519192506000916001600160a01b0385169163d21220a7916004808301926020929190829003018186803b1580156110f357600080fd5b505afa158015611107573d6000803e3d6000fd5b505050506040513d602081101561111d57600080fd5b505190506001600160a01b038216600080516020612df3833981519152148061115c57506001600160a01b038116600080516020612df3833981519152145b15611230576066546001600160a01b03908116906333c6b725908416600080516020612df383398151915214156111935782611195565b835b604080516001600160e01b031960e085901b1681526001600160a01b03909216600483015260248201889052600060448301819052606483018190523360848401524260a4840152815160c4808501949192918390030190829087803b1580156111fe57600080fd5b505af1158015611212573d6000803e3d6000fd5b505050506040513d604081101561122857600080fd5b506112d69050565b60665460408051635d5155ef60e11b81526001600160a01b038581166004830152848116602483015260448201889052600060648301819052608483018190523360a48401524260c48401528351919094169363baa2abde9360e480850194919392918390030190829087803b1580156112a957600080fd5b505af11580156112bd573d6000803e3d6000fd5b505050506040513d60408110156112d357600080fd5b50505b5050505050565b73ba7deebbfc5fa1100fb055a87773e1e99cd3507a81565b6112fd611408565b6033546001600160a01b0390811691161461134d576040805162461bcd60e51b81526020600482018190526024820152600080516020612dd3833981519152604482015290519081900360640190fd5b6001600160a01b0381166113925760405162461bcd60e51b8152600401808060200182810382526026815260200180612d596026913960400191505060405180910390fd5b6033546040516001600160a01b038084169216907f8be0079c531659141344cd1fd0a4f28419497f9722a3daafe3b4186f6b6457e090600090a3603380546001600160a01b0319166001600160a01b0392909216919091179055565b610a40813433612162565b6065546001600160a01b031681565b3390565b604080516001600160a01b0380861660248301528416604482015260648082018490528251808303909101815260849091019091526020810180516001600160e01b03166323b872dd60e01b179052610760908590612565565b60665460408051636eb1769f60e11b81523060048201526001600160a01b03928316602482015290519183169163dd62ed3e91604480820192602092909190829003018186803b1580156114b957600080fd5b505afa1580156114cd573d6000803e3d6000fd5b505050506040513d60208110156114e357600080fd5b5051610a4057606654610a40906001600160a01b038381169116600019612616565b600080821161155b576040805162461bcd60e51b815260206004820152601a60248201527f536166654d6174683a206469766973696f6e206279207a65726f000000000000604482015290519081900360640190fd5b81838161156457fe5b049392505050565b6001600160a01b03808516600090815260686020526040812054909116806115ab57506001600160a01b03808416600090815260686020526040902054165b60606001600160a01b038216158015906115fb57506001600160a01b038716600080516020612df383398151915214806115fb57506001600160a01b038516600080516020612df3833981519152145b156116c157600360005b5060405190808252806020026020018201604052801561162f578160200160208202803683370190505b509050868160008151811061164057fe5b60200260200101906001600160a01b031690816001600160a01b031681525050818160018151811061166e57fe5b60200260200101906001600160a01b031690816001600160a01b031681525050848160028151811061169c57fe5b60200260200101906001600160a01b031690816001600160a01b031681525050611c1e565b6001600160a01b038216158015906117055750816001600160a01b0316876001600160a01b031614806117055750816001600160a01b0316856001600160a01b0316145b1561177857600260005b50604051908082528060200260200182016040528015611739578160200160208202803683370190505b509050868160008151811061174a57fe5b60200260200101906001600160a01b031690816001600160a01b031681525050848160018151811061169c57fe5b6001600160a01b038216158015906117b457506001600160a01b03808616600090815260686020526040808220548a8416835291205482169116145b156117c25760036000611605565b6001600160a01b03878116600090815260686020526040902054161580159061180457506001600160a01b038581166000908152606860205260409020541615155b801561183557506001600160a01b03808616600090815260686020526040808220548a841683529120548216911614155b1561194f5760408051600580825260c08201909252906020820160a080368337019050509050868160008151811061186957fe5b6001600160a01b039283166020918202929092018101919091528882166000908152606890915260409020548251911690829060019081106118a757fe5b60200260200101906001600160a01b031690816001600160a01b031681525050600080516020612df3833981519152816002815181106118e357fe5b6001600160a01b0392831660209182029290920181019190915286821660009081526068909152604090205482519116908290600390811061192157fe5b60200260200101906001600160a01b031690816001600160a01b031681525050848160048151811061169c57fe5b6001600160a01b0382161580159061198057506001600160a01b038781166000908152606860205260409020541615155b15611a4c5760408051600480825260a08201909252906020820160808036833701905050905086816000815181106119b457fe5b60200260200101906001600160a01b031690816001600160a01b03168152505081816001815181106119e257fe5b60200260200101906001600160a01b031690816001600160a01b031681525050600080516020612df383398151915281600281518110611a1e57fe5b60200260200101906001600160a01b031690816001600160a01b031681525050848160038151811061169c57fe5b6001600160a01b03821615801590611a7d57506001600160a01b038581166000908152606860205260409020541615155b15611b1b5760408051600480825260a0820190925290602082016080803683370190505090508681600081518110611ab157fe5b60200260200101906001600160a01b031690816001600160a01b031681525050600080516020612df383398151915281600181518110611aed57fe5b60200260200101906001600160a01b031690816001600160a01b0316815250508181600281518110611a1e57fe5b6001600160a01b038716600080516020612df38339815191521480611b5657506001600160a01b038516600080516020612df3833981519152145b15611b64576002600061170f565b6040805160038082526080820190925290602082016060803683370190505090508681600081518110611b9357fe5b60200260200101906001600160a01b031690816001600160a01b031681525050600080516020612df383398151915281600181518110611bcf57fe5b60200260200101906001600160a01b031690816001600160a01b0316815250508481600281518110611bfd57fe5b60200260200101906001600160a01b031690816001600160a01b0316815250505b6060606660009054906101000a90046001600160a01b03166001600160a01b03166338ed17398860008589426040518663ffffffff1660e01b81526004018086815260200185815260200180602001846001600160a01b03168152602001838152602001828103825285818151815260200191508051906020019060200280838360005b83811015611cba578181015183820152602001611ca2565b505050509050019650505050505050600060405180830381600087803b158015611ce357600080fd5b505af1158015611cf7573d6000803e3d6000fd5b505050506040513d6000823e601f3d908101601f191682016040526020811015611d2057600080fd5b8101908080516040519392919084640100000000821115611d4057600080fd5b908301906020820185811115611d5557600080fd5b8251866020820283011164010000000082111715611d7257600080fd5b82525081516020918201928201910280838360005b83811015611d9f578181015183820152602001611d87565b50505050905001604052505050905080600182510381518110611dbe57fe5b60200260200101519350505050949350505050565b600082821115611e2a576040805162461bcd60e51b815260206004820152601e60248201527f536166654d6174683a207375627472616374696f6e206f766572666c6f770000604482015290519081900360640190fd5b50900390565b6001600160a01b0383811660009081526068602052604081205490916060911615611f23576040805160038082526080820190925290602082016060803683370190505090508481600081518110611e8457fe5b6001600160a01b03928316602091820292909201810191909152868216600090815260689091526040902054825191169082906001908110611ec257fe5b60200260200101906001600160a01b031690816001600160a01b031681525050600080516020612df383398151915281600281518110611efe57fe5b60200260200101906001600160a01b031690816001600160a01b031681525050611fae565b60408051600280825260608201835290916020830190803683370190505090508481600081518110611f5157fe5b60200260200101906001600160a01b031690816001600160a01b031681525050600080516020612df383398151915281600181518110611f8d57fe5b60200260200101906001600160a01b031690816001600160a01b0316815250505b6060606660009054906101000a90046001600160a01b03166001600160a01b031663676528d18660008588426040518663ffffffff1660e01b81526004018086815260200185815260200180602001846001600160a01b03168152602001838152602001828103825285818151815260200191508051906020019060200280838360005b8381101561204a578181015183820152602001612032565b505050509050019650505050505050600060405180830381600087803b15801561207357600080fd5b505af1158015612087573d6000803e3d6000fd5b505050506040513d6000823e601f3d908101601f1916820160405260208110156120b057600080fd5b81019080805160405193929190846401000000008211156120d057600080fd5b9083019060208201858111156120e557600080fd5b825186602082028301116401000000008211171561210257600080fd5b82525081516020918201928201910280838360005b8381101561212f578181015183820152602001612117565b5050505090500160405250505090508060018251038151811061214e57fe5b6020026020010151925050505b9392505050565b61216b83610fa1565b6121805761217a838383612729565b50610762565b60008390506000816001600160a01b0316630dfe16816040518163ffffffff1660e01b815260040160206040518083038186803b1580156121c057600080fd5b505afa1580156121d4573d6000803e3d6000fd5b505050506040513d60208110156121ea57600080fd5b50516040805163d21220a760e01b815290519192506000916001600160a01b0385169163d21220a7916004808301926020929190829003018186803b15801561223257600080fd5b505afa158015612246573d6000803e3d6000fd5b505050506040513d602081101561225c57600080fd5b505190506001600160a01b038216600080516020612df3833981519152148061229b57506001600160a01b038116600080516020612df3833981519152145b156123ab5760006001600160a01b038316600080516020612df3833981519152146122c657826122c8565b815b905060006122d7876002611505565b905060006122e6838330612729565b90506122f183611466565b6066546001600160a01b031663f91b3f7261230c8a85611dd3565b604080516001600160e01b031960e085901b1681526001600160a01b0380891660048301526024820187905260006044830181905260648301528c1660848201524260a4820152905160c480830192606092919082900301818588803b15801561237557600080fd5b505af1158015612389573d6000803e3d6000fd5b50505050506040513d60608110156123a057600080fd5b506124a69350505050565b60006123b8866002611505565b905060006123c7848330612729565b905060006123df846123d98a86611dd3565b30612729565b90506123ea85611466565b6123f384611466565b6066546040805162e8e33760e81b81526001600160a01b0388811660048301528781166024830152604482018690526064820185905260006084830181905260a483018190528b821660c48401524260e4840152925193169263e8e337009261010480840193606093929083900390910190829087803b15801561247657600080fd5b505af115801561248a573d6000803e3d6000fd5b505050506040513d60608110156124a057600080fd5b50505050505b505050505050565b303b1590565b600054610100900460ff16806124cd57506124cd6124ae565b806124db575060005460ff16155b6125165760405162461bcd60e51b815260040180806020018281038252602e815260200180612da5602e913960400191505060405180910390fd5b600054610100900460ff16158015612541576000805460ff1961ff0019909116610100171660011790555b6125496129a2565b612551612a42565b8015610a40576000805461ff001916905550565b60606125ba826040518060400160405280602081526020017f5361666545524332303a206c6f772d6c6576656c2063616c6c206661696c6564815250856001600160a01b0316612b3b9092919063ffffffff16565b805190915015610762578080602001905160208110156125d957600080fd5b50516107625760405162461bcd60e51b815260040180806020018281038252602a815260200180612e13602a913960400191505060405180910390fd5b80158061269c575060408051636eb1769f60e11b81523060048201526001600160a01b03848116602483015291519185169163dd62ed3e91604480820192602092909190829003018186803b15801561266e57600080fd5b505afa158015612682573d6000803e3d6000fd5b505050506040513d602081101561269857600080fd5b5051155b6126d75760405162461bcd60e51b8152600401808060200182810382526036815260200180612e3d6036913960400191505060405180910390fd5b604080516001600160a01b038416602482015260448082018490528251808303909101815260649091019091526020810180516001600160e01b031663095ea7b360e01b179052610762908490612565565b6001600160a01b038381166000908152606860205260408120549091606091161561281c57604080516003808252608082019092529060208201606080368337019050509050600080516020612df38339815191528160008151811061278b57fe5b6001600160a01b039283166020918202929092018101919091528682166000908152606890915260409020548251911690829060019081106127c957fe5b60200260200101906001600160a01b031690816001600160a01b03168152505084816002815181106127f757fe5b60200260200101906001600160a01b031690816001600160a01b0316815250506128a7565b6040805160028082526060820183529091602083019080368337019050509050600080516020612df38339815191528160008151811061285857fe5b60200260200101906001600160a01b031690816001600160a01b031681525050848160018151811061288657fe5b60200260200101906001600160a01b031690816001600160a01b0316815250505b6060606660009054906101000a90046001600160a01b03166001600160a01b031663a2a1623d8660008588426040518663ffffffff1660e01b81526004018085815260200180602001846001600160a01b03168152602001838152602001828103825285818151815260200191508051906020019060200280838360005b8381101561293d578181015183820152602001612925565b50505050905001955050505050506000604051808303818588803b15801561296457600080fd5b505af1158015612978573d6000803e3d6000fd5b50505050506040513d6000823e601f3d908101601f1916820160405260208110156120b057600080fd5b600054610100900460ff16806129bb57506129bb6124ae565b806129c9575060005460ff16155b612a045760405162461bcd60e51b815260040180806020018281038252602e815260200180612da5602e913960400191505060405180910390fd5b600054610100900460ff16158015612551576000805460ff1961ff0019909116610100171660011790558015610a40576000805461ff001916905550565b600054610100900460ff1680612a5b5750612a5b6124ae565b80612a69575060005460ff16155b612aa45760405162461bcd60e51b815260040180806020018281038252602e815260200180612da5602e913960400191505060405180910390fd5b600054610100900460ff16158015612acf576000805460ff1961ff0019909116610100171660011790555b6000612ad9611408565b603380546001600160a01b0319166001600160a01b038316908117909155604051919250906000907f8be0079c531659141344cd1fd0a4f28419497f9722a3daafe3b4186f6b6457e0908290a3508015610a40576000805461ff001916905550565b6060612b4a8484600085612b52565b949350505050565b606082471015612b935760405162461bcd60e51b8152600401808060200182810382526026815260200180612d7f6026913960400191505060405180910390fd5b612b9c85612cae565b612bed576040805162461bcd60e51b815260206004820152601d60248201527f416464726573733a2063616c6c20746f206e6f6e2d636f6e7472616374000000604482015290519081900360640190fd5b60006060866001600160a01b031685876040518082805190602001908083835b60208310612c2c5780518252601f199092019160209182019101612c0d565b6001836020036101000a03801982511681845116808217855250505050505090500191505060006040518083038185875af1925050503d8060008114612c8e576040519150601f19603f3d011682016040523d82523d6000602084013e612c93565b606091505b5091509150612ca3828286612cb4565b979650505050505050565b3b151590565b60608315612cc357508161215b565b825115612cd35782518084602001fd5b8160405162461bcd60e51b81526004018080602001828103825283818151815260200191508051906020019080838360005b83811015612d1d578181015183820152602001612d05565b50505050905090810190601f168015612d4a5780820380516001836020036101000a031916815260200191505b509250505060405180910390fdfe4f776e61626c653a206e6577206f776e657220697320746865207a65726f2061646472657373416464726573733a20696e73756666696369656e742062616c616e636520666f722063616c6c496e697469616c697a61626c653a20636f6e747261637420697320616c726561647920696e697469616c697a65644f776e61626c653a2063616c6c6572206973206e6f7420746865206f776e6572000000000000000000000000b31f66aa3c1e785363f0875a1b74e27b85fd66c75361666545524332303a204552433230206f7065726174696f6e20646964206e6f7420737563636565645361666545524332303a20617070726f76652066726f6d206e6f6e2d7a65726f20746f206e6f6e2d7a65726f20616c6c6f77616e6365a264697066735822122064134e92553c322c245f3afb0dbedc34bf0d9d13a1961144ac4801a79a4e2fcd64736f6c634300060c0033",
  "devdoc": {
    "kind": "dev",
    "methods": {
      "owner()": {
        "details": "Returns the address of the current owner."
      },
      "renounceOwnership()": {
        "details": "Leaves the contract without owner. It will not be possible to call `onlyOwner` functions anymore. Can only be called by the current owner. NOTE: Renouncing ownership will leave the contract without an owner, thereby removing any functionality that is only available to the owner."
      },
      "transferOwnership(address)": {
        "details": "Transfers ownership of the contract to a new account (`newOwner`). Can only be called by the current owner."
      }
    },
    "version": 1
  },
  "userdoc": {
    "kind": "user",
    "methods": {},
    "version": 1
  },
  "storageLayout": {
    "storage": [
      {
        "astId": 180,
        "contract": "contracts/Zap.sol:Zap",
        "label": "_initialized",
        "offset": 0,
        "slot": "0",
        "type": "t_bool"
      },
      {
        "astId": 183,
        "contract": "contracts/Zap.sol:Zap",
        "label": "_initializing",
        "offset": 1,
        "slot": "0",
        "type": "t_bool"
      },
      {
        "astId": 43,
        "contract": "contracts/Zap.sol:Zap",
        "label": "__gap",
        "offset": 0,
        "slot": "1",
        "type": "t_array(t_uint256)50_storage"
      },
      {
        "astId": 55,
        "contract": "contracts/Zap.sol:Zap",
        "label": "_owner",
        "offset": 0,
        "slot": "51",
        "type": "t_address"
      },
      {
        "astId": 173,
        "contract": "contracts/Zap.sol:Zap",
        "label": "__gap",
        "offset": 0,
        "slot": "52",
        "type": "t_array(t_uint256)49_storage"
      },
      {
        "astId": 8665,
        "contract": "contracts/Zap.sol:Zap",
        "label": "JOE",
        "offset": 0,
        "slot": "101",
        "type": "t_address"
      },
      {
        "astId": 8676,
        "contract": "contracts/Zap.sol:Zap",
        "label": "ROUTER",
        "offset": 0,
        "slot": "102",
        "type": "t_contract(IJoeRouter02)24430"
      },
      {
        "astId": 8680,
        "contract": "contracts/Zap.sol:Zap",
        "label": "notLP",
        "offset": 0,
        "slot": "103",
        "type": "t_mapping(t_address,t_bool)"
      },
      {
        "astId": 8684,
        "contract": "contracts/Zap.sol:Zap",
        "label": "routePairAddresses",
        "offset": 0,
        "slot": "104",
        "type": "t_mapping(t_address,t_address)"
      },
      {
        "astId": 8687,
        "contract": "contracts/Zap.sol:Zap",
        "label": "tokens",
        "offset": 0,
        "slot": "105",
        "type": "t_array(t_address)dyn_storage"
      }
    ],
    "types": {
      "t_address": {
        "encoding": "inplace",
        "label": "address",
        "numberOfBytes": "20"
      },
      "t_array(t_address)dyn_storage": {
        "base": "t_address",
        "encoding": "dynamic_array",
        "label": "address[]",
        "numberOfBytes": "32"
      },
      "t_array(t_uint256)49_storage": {
        "base": "t_uint256",
        "encoding": "inplace",
        "label": "uint256[49]",
        "numberOfBytes": "1568"
      },
      "t_array(t_uint256)50_storage": {
        "base": "t_uint256",
        "encoding": "inplace",
        "label": "uint256[50]",
        "numberOfBytes": "1600"
      },
      "t_bool": {
        "encoding": "inplace",
        "label": "bool",
        "numberOfBytes": "1"
      },
      "t_contract(IJoeRouter02)24430": {
        "encoding": "inplace",
        "label": "contract IJoeRouter02",
        "numberOfBytes": "20"
      },
      "t_mapping(t_address,t_address)": {
        "encoding": "mapping",
        "key": "t_address",
        "label": "mapping(address => address)",
        "numberOfBytes": "32",
        "value": "t_address"
      },
      "t_mapping(t_address,t_bool)": {
        "encoding": "mapping",
        "key": "t_address",
        "label": "mapping(address => bool)",
        "numberOfBytes": "32",
        "value": "t_bool"
      },
      "t_uint256": {
        "encoding": "inplace",
        "label": "uint256",
        "numberOfBytes": "32"
      }
    }
  }
}