{
  "address": "0x24af00337470FA37DAe466A461e3c25D329CCAbe",
  "abi": [
    {
      "inputs": [
        {
          "internalType": "contract IMasterChef",
          "name": "chef_",
          "type": "address"
        },
        {
          "internalType": "address",
          "name": "maker_",
          "type": "address"
        },
        {
          "internalType": "contract IERC20",
          "name": "joe_",
          "type": "address"
        },
        {
          "internalType": "contract IERC20",
          "name": "WAVAX_",
          "type": "address"
        },
        {
          "internalType": "contract IFactory",
          "name": "joeFactory_",
          "type": "address"
        },
        {
          "internalType": "contract IFactory",
          "name": "pangolinFactory_",
          "type": "address"
        },
        {
          "internalType": "contract IERC20",
          "name": "bar_",
          "type": "address"
        }
      ],
      "stateMutability": "nonpayable",
      "type": "constructor"
    },
    {
      "inputs": [],
      "name": "WAVAX",
      "outputs": [
        {
          "internalType": "contract IERC20",
          "name": "",
          "type": "address"
        }
      ],
      "stateMutability": "view",
      "type": "function"
    },
    {
      "inputs": [],
      "name": "bar",
      "outputs": [
        {
          "internalType": "contract IERC20",
          "name": "",
          "type": "address"
        }
      ],
      "stateMutability": "view",
      "type": "function"
    },
    {
      "inputs": [],
      "name": "chef",
      "outputs": [
        {
          "internalType": "contract IMasterChef",
          "name": "",
          "type": "address"
        }
      ],
      "stateMutability": "view",
      "type": "function"
    },
    {
      "inputs": [
        {
          "internalType": "address",
          "name": "who",
          "type": "address"
        },
        {
          "internalType": "address[]",
          "name": "addresses",
          "type": "address[]"
        }
      ],
      "name": "findBalances",
      "outputs": [
        {
          "components": [
            {
              "internalType": "contract IERC20",
              "name": "token",
              "type": "address"
            },
            {
              "internalType": "uint256",
              "name": "balance",
              "type": "uint256"
            }
          ],
          "internalType": "struct BoringHelperV1.Balance[]",
          "name": "",
          "type": "tuple[]"
        }
      ],
      "stateMutability": "view",
      "type": "function"
    },
    {
      "inputs": [
        {
          "internalType": "address",
          "name": "who",
          "type": "address"
        },
        {
          "internalType": "uint256[]",
          "name": "pids",
          "type": "uint256[]"
        }
      ],
      "name": "findPools",
      "outputs": [
        {
          "components": [
            {
              "internalType": "uint256",
              "name": "pid",
              "type": "uint256"
            },
            {
              "internalType": "uint256",
              "name": "balance",
              "type": "uint256"
            }
          ],
          "internalType": "struct BoringHelperV1.PoolFound[]",
          "name": "",
          "type": "tuple[]"
        }
      ],
      "stateMutability": "view",
      "type": "function"
    },
    {
      "inputs": [
        {
          "internalType": "contract IERC20",
          "name": "token",
          "type": "address"
        }
      ],
      "name": "getAVAXRate",
      "outputs": [
        {
          "internalType": "uint256",
          "name": "",
          "type": "uint256"
        }
      ],
      "stateMutability": "view",
      "type": "function"
    },
    {
      "inputs": [
        {
          "internalType": "address",
          "name": "who",
          "type": "address"
        },
        {
          "internalType": "contract IERC20[]",
          "name": "addresses",
          "type": "address[]"
        }
      ],
      "name": "getBalances",
      "outputs": [
        {
          "components": [
            {
              "internalType": "contract IERC20",
              "name": "token",
              "type": "address"
            },
            {
              "internalType": "uint256",
              "name": "totalSupply",
              "type": "uint256"
            },
            {
              "internalType": "uint256",
              "name": "balance",
              "type": "uint256"
            },
            {
              "internalType": "uint256",
              "name": "nonce",
              "type": "uint256"
            },
            {
              "internalType": "uint256",
              "name": "rate",
              "type": "uint256"
            }
          ],
          "internalType": "struct BoringHelperV1.BalanceFull[]",
          "name": "",
          "type": "tuple[]"
        }
      ],
      "stateMutability": "view",
      "type": "function"
    },
    {
      "inputs": [
        {
          "internalType": "contract IFactory",
          "name": "factory",
          "type": "address"
        },
        {
          "internalType": "uint256",
          "name": "fromID",
          "type": "uint256"
        },
        {
          "internalType": "uint256",
          "name": "toID",
          "type": "uint256"
        }
      ],
      "name": "getPairs",
      "outputs": [
        {
          "components": [
            {
              "internalType": "contract IPair",
              "name": "token",
              "type": "address"
            },
            {
              "internalType": "contract IERC20",
              "name": "token0",
              "type": "address"
            },
            {
              "internalType": "contract IERC20",
              "name": "token1",
              "type": "address"
            },
            {
              "internalType": "uint256",
              "name": "totalSupply",
              "type": "uint256"
            }
          ],
          "internalType": "struct BoringHelperV1.PairBase[]",
          "name": "",
          "type": "tuple[]"
        }
      ],
      "stateMutability": "view",
      "type": "function"
    },
    {
      "inputs": [
        {
          "internalType": "uint256[]",
          "name": "pids",
          "type": "uint256[]"
        }
      ],
      "name": "getPools",
      "outputs": [
        {
          "components": [
            {
              "internalType": "uint256",
              "name": "totalAllocPoint",
              "type": "uint256"
            },
            {
              "internalType": "uint256",
              "name": "poolLength",
              "type": "uint256"
            }
          ],
          "internalType": "struct BoringHelperV1.PoolsInfo",
          "name": "",
          "type": "tuple"
        },
        {
          "components": [
            {
              "internalType": "uint256",
              "name": "pid",
              "type": "uint256"
            },
            {
              "internalType": "contract IPair",
              "name": "lpToken",
              "type": "address"
            },
            {
              "internalType": "uint256",
              "name": "allocPoint",
              "type": "uint256"
            },
            {
              "internalType": "bool",
              "name": "isPair",
              "type": "bool"
            },
            {
              "internalType": "contract IFactory",
              "name": "factory",
              "type": "address"
            },
            {
              "internalType": "contract IERC20",
              "name": "token0",
              "type": "address"
            },
            {
              "internalType": "contract IERC20",
              "name": "token1",
              "type": "address"
            },
            {
              "internalType": "string",
              "name": "name",
              "type": "string"
            },
            {
              "internalType": "string",
              "name": "symbol",
              "type": "string"
            },
            {
              "internalType": "uint8",
              "name": "decimals",
              "type": "uint8"
            }
          ],
          "internalType": "struct BoringHelperV1.PoolInfo[]",
          "name": "",
          "type": "tuple[]"
        }
      ],
      "stateMutability": "view",
      "type": "function"
    },
    {
      "inputs": [
        {
          "internalType": "address[]",
          "name": "addresses",
          "type": "address[]"
        }
      ],
      "name": "getTokenInfo",
      "outputs": [
        {
          "components": [
            {
              "internalType": "contract IERC20",
              "name": "token",
              "type": "address"
            },
            {
              "internalType": "uint256",
              "name": "decimals",
              "type": "uint256"
            },
            {
              "internalType": "string",
              "name": "name",
              "type": "string"
            },
            {
              "internalType": "string",
              "name": "symbol",
              "type": "string"
            },
            {
              "internalType": "bytes32",
              "name": "DOMAIN_SEPARATOR",
              "type": "bytes32"
            }
          ],
          "internalType": "struct BoringHelperV1.TokenInfo[]",
          "name": "",
          "type": "tuple[]"
        }
      ],
      "stateMutability": "view",
      "type": "function"
    },
    {
      "inputs": [
        {
          "internalType": "address",
          "name": "who",
          "type": "address"
        },
        {
          "internalType": "contract IFactory[]",
          "name": "factoryAddresses",
          "type": "address[]"
        },
        {
          "internalType": "contract IERC20",
          "name": "currency",
          "type": "address"
        },
        {
          "internalType": "address[]",
          "name": "masterContracts",
          "type": "address[]"
        }
      ],
      "name": "getUIInfo",
      "outputs": [
        {
          "components": [
            {
              "internalType": "uint256",
              "name": "avaxBalance",
              "type": "uint256"
            },
            {
              "internalType": "uint256",
              "name": "joeBalance",
              "type": "uint256"
            },
            {
              "internalType": "uint256",
              "name": "joeBarBalance",
              "type": "uint256"
            },
            {
              "internalType": "uint256",
              "name": "xjoeBalance",
              "type": "uint256"
            },
            {
              "internalType": "uint256",
              "name": "xjoeSupply",
              "type": "uint256"
            },
            {
              "internalType": "uint256",
              "name": "joeBarAllowance",
              "type": "uint256"
            },
            {
              "components": [
                {
                  "internalType": "contract IFactory",
                  "name": "factory",
                  "type": "address"
                },
                {
                  "internalType": "uint256",
                  "name": "allPairsLength",
                  "type": "uint256"
                }
              ],
              "internalType": "struct BoringHelperV1.Factory[]",
              "name": "factories",
              "type": "tuple[]"
            },
            {
              "internalType": "uint256",
              "name": "avaxRate",
              "type": "uint256"
            },
            {
              "internalType": "uint256",
              "name": "joeRate",
              "type": "uint256"
            },
            {
              "internalType": "uint256",
              "name": "btcRate",
              "type": "uint256"
            },
            {
              "internalType": "uint256",
              "name": "pendingJoe",
              "type": "uint256"
            },
            {
              "internalType": "uint256",
              "name": "blockTimeStamp",
              "type": "uint256"
            }
          ],
          "internalType": "struct BoringHelperV1.UIInfo",
          "name": "",
          "type": "tuple"
        }
      ],
      "stateMutability": "view",
      "type": "function"
    },
    {
      "inputs": [],
      "name": "joe",
      "outputs": [
        {
          "internalType": "contract IERC20",
          "name": "",
          "type": "address"
        }
      ],
      "stateMutability": "view",
      "type": "function"
    },
    {
      "inputs": [],
      "name": "joeFactory",
      "outputs": [
        {
          "internalType": "contract IFactory",
          "name": "",
          "type": "address"
        }
      ],
      "stateMutability": "view",
      "type": "function"
    },
    {
      "inputs": [],
      "name": "maker",
      "outputs": [
        {
          "internalType": "address",
          "name": "",
          "type": "address"
        }
      ],
      "stateMutability": "view",
      "type": "function"
    },
    {
      "inputs": [],
      "name": "owner",
      "outputs": [
        {
          "internalType": "address",
          "name": "",
          "type": "address"
        }
      ],
      "stateMutability": "view",
      "type": "function"
    },
    {
      "inputs": [],
      "name": "pangolinFactory",
      "outputs": [
        {
          "internalType": "contract IFactory",
          "name": "",
          "type": "address"
        }
      ],
      "stateMutability": "view",
      "type": "function"
    },
    {
      "inputs": [
        {
          "internalType": "address",
          "name": "who",
          "type": "address"
        },
        {
          "internalType": "contract IPair[]",
          "name": "addresses",
          "type": "address[]"
        }
      ],
      "name": "pollPairs",
      "outputs": [
        {
          "components": [
            {
              "internalType": "contract IPair",
              "name": "token",
              "type": "address"
            },
            {
              "internalType": "uint256",
              "name": "reserve0",
              "type": "uint256"
            },
            {
              "internalType": "uint256",
              "name": "reserve1",
              "type": "uint256"
            },
            {
              "internalType": "uint256",
              "name": "totalSupply",
              "type": "uint256"
            },
            {
              "internalType": "uint256",
              "name": "balance",
              "type": "uint256"
            }
          ],
          "internalType": "struct BoringHelperV1.PairPoll[]",
          "name": "",
          "type": "tuple[]"
        }
      ],
      "stateMutability": "view",
      "type": "function"
    },
    {
      "inputs": [
        {
          "internalType": "address",
          "name": "who",
          "type": "address"
        },
        {
          "internalType": "uint256[]",
          "name": "pids",
          "type": "uint256[]"
        }
      ],
      "name": "pollPools",
      "outputs": [
        {
          "components": [
            {
              "internalType": "uint256",
              "name": "pid",
              "type": "uint256"
            },
            {
              "internalType": "uint256",
              "name": "balance",
              "type": "uint256"
            },
            {
              "internalType": "uint256",
              "name": "totalSupply",
              "type": "uint256"
            },
            {
              "internalType": "uint256",
              "name": "lpBalance",
              "type": "uint256"
            },
            {
              "internalType": "uint256",
              "name": "lpTotalSupply",
              "type": "uint256"
            },
            {
              "internalType": "uint256",
              "name": "lpAllowance",
              "type": "uint256"
            },
            {
              "internalType": "uint256",
              "name": "reserve0",
              "type": "uint256"
            },
            {
              "internalType": "uint256",
              "name": "reserve1",
              "type": "uint256"
            },
            {
              "internalType": "uint256",
              "name": "rewardDebt",
              "type": "uint256"
            },
            {
              "internalType": "uint256",
              "name": "pending",
              "type": "uint256"
            }
          ],
          "internalType": "struct BoringHelperV1.UserPoolInfo[]",
          "name": "",
          "type": "tuple[]"
        }
      ],
      "stateMutability": "view",
      "type": "function"
    },
    {
      "inputs": [
        {
          "internalType": "contract IMasterChef",
          "name": "chef_",
          "type": "address"
        },
        {
          "internalType": "address",
          "name": "maker_",
          "type": "address"
        },
        {
          "internalType": "contract IERC20",
          "name": "joe_",
          "type": "address"
        },
        {
          "internalType": "contract IERC20",
          "name": "WAVAX_",
          "type": "address"
        },
        {
          "internalType": "contract IFactory",
          "name": "joeFactory_",
          "type": "address"
        },
        {
          "internalType": "contract IFactory",
          "name": "pangolinFactory_",
          "type": "address"
        },
        {
          "internalType": "contract IERC20",
          "name": "bar_",
          "type": "address"
        }
      ],
      "name": "setContracts",
      "outputs": [],
      "stateMutability": "nonpayable",
      "type": "function"
    }
  ],
  "transactionHash": "0x87272bc796239d919ebf3cac062b5df132831bb7ca90b2adb5d5e5abc301d48d",
  "args": [
    "0xDa78543E5202216684734fBC003E578fd32c3869",
    "0xA1688d70F98a5802b50aAc71D8c03ac385cc9fA5",
    "0x32A83BF2BD519e505f4e39182F214176162F7429",
    "0xc778417E063141139Fce010982780140Aa0cD5Ab",
    "0xDdCe22917110b2E0Fe72d80626bA3FBF286E9065",
    "0xE2eCc226Fd2D5CEad96F3f9f00eFaE9fAfe75eB8",
    "0x9B8536B0710196865b7bbc2BF2b448eC014C637b"
  ],
  "solcInputHash": "4370831775586213ee2f8d35090f5ab5",
  "bytecode": "0x60a06040523480156200001157600080fd5b5060405162003808380380620038088339810160408190526200003491620000bc565b3360601b608052600080546001600160a01b03199081166001600160a01b03998a161790915560018054821697891697909717909655600280548716958816959095179094556003805480881690871617905560048054861692871692909217909155600580548516918616919091179055506006805490921692169190911790556200017f565b600080600080600080600060e0888a031215620000d7578283fd5b8751620000e48162000166565b6020890151909750620000f78162000166565b60408901519096506200010a8162000166565b60608901519095506200011d8162000166565b6080890151909450620001308162000166565b60a0890151909350620001438162000166565b60c0890151909250620001568162000166565b8091505092959891949750929550565b6001600160a01b03811681146200017c57600080fd5b50565b60805160601c613666620001a260003980611a4f5280611fcb52506136666000f3fe608060405234801561001057600080fd5b50600436106101215760003560e01c80638a38466e116100ad578063b985a3a011610071578063b985a3a014610260578063ca0f937c14610268578063d3ff95c714610288578063d9116dc31461029d578063febb0f7e146102bd57610121565b80638a38466e146102155780638da5cb5b1461021d578063a959dd8014610225578063ac6091f814610238578063b295d2a11461025857610121565b80634a69ac50116100f45780634a69ac50146101a557806350655d8c146101c55780636a385ae9146101cd57806373b295c2146101ed5780637e3e2596146101f557610121565b806315243475146101265780631fc8bc5d1461014f5780632952dde8146101645780633009f41414610185575b600080fd5b610139610134366004612ce2565b6102c5565b6040516101469190613511565b60405180910390f35b610157610886565b60405161014691906130e0565b610177610172366004612db3565b610895565b6040516101469291906133ef565b610198610193366004612cce565b610db2565b6040516101469190613324565b6101b86101b3366004612db3565b61139c565b6040516101469190613275565b610157611509565b6101e06101db366004612cce565b611518565b604051610146919061310e565b61015761173c565b610208610203366004612e26565b61174b565b60405161014691906131d0565b610157611a3e565b610157611a4d565b6101e0610233366004612cce565b611a71565b61024b610246366004612cce565b611d1c565b6040516101469190613235565b610157611e5c565b610157611e6b565b61027b610276366004612c7c565b611e7a565b6040516101469190613185565b61029b610296366004612e5a565b611fc9565b005b6102b06102ab366004612c59565b612098565b60405161014691906135b3565b6101576124bb565b6102cd612a46565b6102d5612a46565b6001600160a01b038816318152856001600160401b03811180156102f857600080fd5b5060405190808252806020026020018201604052801561033257816020015b61031f612aa7565b8152602001906001900390816103175790505b5060c082015260005b8681101561043557600088888381811061035157fe5b90506020020160208101906103669190612c59565b9050808360c00151838151811061037957fe5b6020026020010151600001906001600160a01b031690816001600160a01b031681525050806001600160a01b031663574f2ba36040518163ffffffff1660e01b815260040160206040518083038186803b1580156103d657600080fd5b505afa1580156103ea573d6000803e3d6000fd5b505050506040513d601f19601f8201168201806040525081019061040e9190612df2565b8360c00151838151811061041e57fe5b60209081029190910181015101525060010161033b565b506001600160a01b038516156104545761044e85612098565b60e08201525b6002546001600160a01b03161561061e5760025461047a906001600160a01b0316612098565b6101008201526002546040516370a0823160e01b81526001600160a01b03909116906370a08231906104b0908b906004016130e0565b60206040518083038186803b1580156104c857600080fd5b505afa1580156104dc573d6000803e3d6000fd5b505050506040513d601f19601f820116820180604052508101906105009190612df2565b60208201526002546006546040516370a0823160e01b81526001600160a01b03928316926370a0823192610539929116906004016130e0565b60206040518083038186803b15801561055157600080fd5b505afa158015610565573d6000803e3d6000fd5b505050506040513d601f19601f820116820180604052508101906105899190612df2565b6040808301919091526002546006549151636eb1769f60e11b81526001600160a01b039182169263dd62ed3e926105c8928d92909116906004016130f4565b60206040518083038186803b1580156105e057600080fd5b505afa1580156105f4573d6000803e3d6000fd5b505050506040513d601f19601f820116820180604052508101906106189190612df2565b60a08201525b6006546001600160a01b031615610737576006546040516370a0823160e01b81526001600160a01b03909116906370a082319061065f908b906004016130e0565b60206040518083038186803b15801561067757600080fd5b505afa15801561068b573d6000803e3d6000fd5b505050506040513d601f19601f820116820180604052508101906106af9190612df2565b6060820152600654604080516318160ddd60e01b815290516001600160a01b03909216916318160ddd91600480820192602092909190829003018186803b1580156106f957600080fd5b505afa15801561070d573d6000803e3d6000fd5b505050506040513d601f19601f820116820180604052508101906107319190612df2565b60808201525b6000546001600160a01b0316156108745760008060009054906101000a90046001600160a01b03166001600160a01b031663081e3eda6040518163ffffffff1660e01b815260040160206040518083038186803b15801561079757600080fd5b505afa1580156107ab573d6000803e3d6000fd5b505050506040513d601f19601f820116820180604052508101906107cf9190612df2565b90506000805b8281101561086b57600054604051633ccb214960e01b81526001600160a01b0390911690633ccb21499061080f9084908f906004016135bc565b60206040518083038186803b15801561082757600080fd5b505afa15801561083b573d6000803e3d6000fd5b505050506040513d601f19601f8201168201806040525081019061085f9190612df2565b909101906001016107d5565b50610140830152505b42610160820152979650505050505050565b6000546001600160a01b031681565b61089d612abe565b60606108a7612abe565b60008054906101000a90046001600160a01b03166001600160a01b03166317caf6f16040518163ffffffff1660e01b815260040160206040518083038186803b1580156108f357600080fd5b505afa158015610907573d6000803e3d6000fd5b505050506040513d601f19601f8201168201806040525081019061092b9190612df2565b8152600080546040805163040f1f6d60e11b815290516001600160a01b039092169163081e3eda91600480820192602092909190829003018186803b15801561097357600080fd5b505afa158015610987573d6000803e3d6000fd5b505050506040513d601f19601f820116820180604052508101906109ab9190612df2565b6020830181905290506060856001600160401b03811180156109cc57600080fd5b50604051908082528060200260200182016040528015610a0657816020015b6109f3612ad8565b8152602001906001900390816109eb5790505b50905060005b86811015610da257878782818110610a2057fe5b90506020020135828281518110610a3357fe5b6020908102919091010151526000805481906001600160a01b0316631526fe278b8b86818110610a5f57fe5b905060200201356040518263ffffffff1660e01b8152600401610a8291906135b3565b60806040518083038186803b158015610a9a57600080fd5b505afa158015610aae573d6000803e3d6000fd5b505050506040513d601f19601f82011682018060405250810190610ad29190612d75565b505091509150600082905080858581518110610aea57fe5b6020026020010151602001906001600160a01b031690816001600160a01b03168152505081858581518110610b1b57fe5b60200260200101516040018181525050610b3d816001600160a01b03166124ca565b858581518110610b4957fe5b602002602001015160e00181905250610b6a816001600160a01b031661258d565b858581518110610b7657fe5b60200260200101516101000181905250610b98816001600160a01b03166125d4565b858581518110610ba457fe5b6020026020010151610120019060ff16908160ff1681525050610bcf816001600160a01b031661268d565b858581518110610bdb57fe5b6020026020010151608001906001600160a01b031690816001600160a01b03168152505060006001600160a01b0316858581518110610c1657fe5b6020026020010151608001516001600160a01b031614610d97576001858581518110610c3e57fe5b60200260200101516060019015159081151581525050806001600160a01b0316630dfe16816040518163ffffffff1660e01b815260040160206040518083038186803b158015610c8d57600080fd5b505afa158015610ca1573d6000803e3d6000fd5b505050506040513d601f19601f82011682018060405250810190610cc59190612e0a565b858581518110610cd157fe5b602002602001015160a001906001600160a01b031690816001600160a01b031681525050806001600160a01b031663d21220a76040518163ffffffff1660e01b815260040160206040518083038186803b158015610d2e57600080fd5b505afa158015610d42573d6000803e3d6000fd5b505050506040513d601f19601f82011682018060405250810190610d669190612e0a565b858581518110610d7257fe5b602002602001015160c001906001600160a01b031690816001600160a01b0316815250505b505050600101610a0c565b50919350909150505b9250929050565b606080826001600160401b0381118015610dcb57600080fd5b50604051908082528060200260200182016040528015610e0557816020015b610df2612b2b565b815260200190600190039081610dea5790505b50905060005b8381101561139357600080546001600160a01b03166393f1a40b878785818110610e3157fe5b90506020020135896040518363ffffffff1660e01b8152600401610e569291906135bc565b604080518083038186803b158015610e6d57600080fd5b505afa158015610e81573d6000803e3d6000fd5b505050506040513d601f19601f82011682018060405250810190610ea59190612fdd565b50905080838381518110610eb557fe5b60209081029190910181015101526000546001600160a01b0316633ccb2149878785818110610ee057fe5b90506020020135896040518363ffffffff1660e01b8152600401610f059291906135bc565b60206040518083038186803b158015610f1d57600080fd5b505afa158015610f31573d6000803e3d6000fd5b505050506040513d601f19601f82011682018060405250810190610f559190612df2565b838381518110610f6157fe5b60209081029190910101516101200152600080546001600160a01b0316631526fe27888886818110610f8f57fe5b905060200201356040518263ffffffff1660e01b8152600401610fb291906135b3565b60806040518083038186803b158015610fca57600080fd5b505afa158015610fde573d6000803e3d6000fd5b505050506040513d601f19601f820116820180604052508101906110029190612d75565b505050905086868481811061101357fe5b9050602002013584848151811061102657fe5b6020908102919091010151528060006110476001600160a01b03831661268d565b90506001600160a01b03811615611383576000546040516370a0823160e01b81526001600160a01b03848116926370a082319261108a92909116906004016130e0565b60206040518083038186803b1580156110a257600080fd5b505afa1580156110b6573d6000803e3d6000fd5b505050506040513d601f19601f820116820180604052508101906110da9190612df2565b8686815181106110e657fe5b60209081029190910101516040908101919091526000549051636eb1769f60e11b81526001600160a01b038085169263dd62ed3e9261112b928f9216906004016130f4565b60206040518083038186803b15801561114357600080fd5b505afa158015611157573d6000803e3d6000fd5b505050506040513d601f19601f8201168201806040525081019061117b9190612df2565b86868151811061118757fe5b602090810291909101015160a001526040516370a0823160e01b81526001600160a01b038316906370a08231906111c2908d906004016130e0565b60206040518083038186803b1580156111da57600080fd5b505afa1580156111ee573d6000803e3d6000fd5b505050506040513d601f19601f820116820180604052508101906112129190612df2565b86868151811061121e57fe5b60200260200101516060018181525050816001600160a01b03166318160ddd6040518163ffffffff1660e01b815260040160206040518083038186803b15801561126757600080fd5b505afa15801561127b573d6000803e3d6000fd5b505050506040513d601f19601f8201168201806040525081019061129f9190612df2565b8686815181106112ab57fe5b60200260200101516080018181525050600080836001600160a01b0316630902f1ac6040518163ffffffff1660e01b815260040160606040518083038186803b1580156112f757600080fd5b505afa15801561130b573d6000803e3d6000fd5b505050506040513d601f19601f8201168201806040525081019061132f9190612f89565b5091509150816001600160701b031688888151811061134a57fe5b602002602001015160c0018181525050806001600160701b031688888151811061137057fe5b602002602001015160e001818152505050505b505060019092019150610e0b9050565b50949350505050565b606080826001600160401b03811180156113b557600080fd5b506040519080825280602002602001820160405280156113ef57816020015b6113dc612b7e565b8152602001906001900390816113d45790505b50905060005b8381101561150157600085858381811061140b57fe5b90506020020160208101906114209190612c59565b90508083838151811061142f57fe5b60209081029190910101516001600160a01b0391821690526114529082166124ca565b83838151811061145e57fe5b60200260200101516040018190525061147f816001600160a01b031661258d565b83838151811061148b57fe5b6020026020010151606001819052506114ac816001600160a01b03166125d4565b60ff168383815181106114bb57fe5b602002602001015160200181815250506114dd816001600160a01b0316612746565b8383815181106114e957fe5b602090810291909101015160800152506001016113f5565b509392505050565b6001546001600160a01b031681565b606080826001600160401b038111801561153157600080fd5b5060405190808252806020026020018201604052801561156b57816020015b611558612bb9565b8152602001906001900390816115505790505b50905060005b8381101561139357600085858381811061158757fe5b905060200201602081019061159c9190612c59565b9050806001600160a01b03166318160ddd6040518163ffffffff1660e01b815260040160206040518083038186803b1580156115d757600080fd5b505afa1580156115eb573d6000803e3d6000fd5b505050506040513d601f19601f8201168201806040525081019061160f9190612df2565b83838151811061161b57fe5b602002602001015160200181815250508083838151811061163857fe5b60209081029190910101516001600160a01b0391821690526040516370a0823160e01b8152908216906370a0823190611675908a906004016130e0565b60206040518083038186803b15801561168d57600080fd5b505afa1580156116a1573d6000803e3d6000fd5b505050506040513d601f19601f820116820180604052508101906116c59190612df2565b8383815181106116d157fe5b6020908102919091010151604001526116f36001600160a01b03821688612803565b8383815181106116ff57fe5b6020026020010151606001818152505061171881612098565b83838151811061172457fe5b60209081029190910101516080015250600101611571565b6003546001600160a01b031681565b6060808383036001600160401b038111801561176657600080fd5b506040519080825280602002602001820160405280156117a057816020015b61178d612bf1565b8152602001906001900390816117855790505b509050835b8381101561139357604051631e3dd18b60e01b81526000906001600160a01b03881690631e3dd18b906117dc9085906004016135b3565b60206040518083038186803b1580156117f457600080fd5b505afa158015611808573d6000803e3d6000fd5b505050506040513d601f19601f8201168201806040525081019061182c9190612e0a565b9050600086830390508184828151811061184257fe5b6020026020010151600001906001600160a01b031690816001600160a01b031681525050816001600160a01b0316630dfe16816040518163ffffffff1660e01b815260040160206040518083038186803b15801561189f57600080fd5b505afa1580156118b3573d6000803e3d6000fd5b505050506040513d601f19601f820116820180604052508101906118d79190612e0a565b8482815181106118e357fe5b6020026020010151602001906001600160a01b031690816001600160a01b031681525050816001600160a01b031663d21220a76040518163ffffffff1660e01b815260040160206040518083038186803b15801561194057600080fd5b505afa158015611954573d6000803e3d6000fd5b505050506040513d601f19601f820116820180604052508101906119789190612e0a565b84828151811061198457fe5b6020026020010151604001906001600160a01b031690816001600160a01b031681525050816001600160a01b03166318160ddd6040518163ffffffff1660e01b815260040160206040518083038186803b1580156119e157600080fd5b505afa1580156119f5573d6000803e3d6000fd5b505050506040513d601f19601f82011682018060405250810190611a199190612df2565b848281518110611a2557fe5b60209081029190910101516060015250506001016117a5565b6004546001600160a01b031681565b7f000000000000000000000000000000000000000000000000000000000000000081565b606080826001600160401b0381118015611a8a57600080fd5b50604051908082528060200260200182016040528015611ac457816020015b611ab1612bb9565b815260200190600190039081611aa95790505b50905060005b83811015611393576000858583818110611ae057fe5b9050602002016020810190611af59190612c59565b905080838381518110611b0457fe5b6020026020010151600001906001600160a01b031690816001600160a01b031681525050600080826001600160a01b0316630902f1ac6040518163ffffffff1660e01b815260040160606040518083038186803b158015611b6457600080fd5b505afa158015611b78573d6000803e3d6000fd5b505050506040513d601f19601f82011682018060405250810190611b9c9190612f89565b506001600160701b031691506001600160701b0316915081858581518110611bc057fe5b6020026020010151602001818152505080858581518110611bdd57fe5b60200260200101516040018181525050826001600160a01b03166370a082318a6040518263ffffffff1660e01b8152600401611c1991906130e0565b60206040518083038186803b158015611c3157600080fd5b505afa158015611c45573d6000803e3d6000fd5b505050506040513d601f19601f82011682018060405250810190611c699190612df2565b858581518110611c7557fe5b60200260200101516080018181525050826001600160a01b03166318160ddd6040518163ffffffff1660e01b815260040160206040518083038186803b158015611cbe57600080fd5b505afa158015611cd2573d6000803e3d6000fd5b505050506040513d601f19601f82011682018060405250810190611cf69190612df2565b858581518110611d0257fe5b602090810291909101015160600152505050600101611aca565b606080826001600160401b0381118015611d3557600080fd5b50604051908082528060200260200182016040528015611d6f57816020015b611d5c612abe565b815260200190600190039081611d545790505b50905060005b8381101561139357848482818110611d8957fe5b90506020020135828281518110611d9c57fe5b6020908102919091010151526000546001600160a01b03166393f1a40b868684818110611dc557fe5b90506020020135886040518363ffffffff1660e01b8152600401611dea9291906135bc565b604080518083038186803b158015611e0157600080fd5b505afa158015611e15573d6000803e3d6000fd5b505050506040513d601f19601f82011682018060405250810190611e399190612fdd565b50828281518110611e4657fe5b6020908102919091018101510152600101611d75565b6005546001600160a01b031681565b6002546001600160a01b031681565b606080826001600160401b0381118015611e9357600080fd5b50604051908082528060200260200182016040528015611ecd57816020015b611eba612aa7565b815260200190600190039081611eb25790505b5090508260005b81811015611fbe576000868683818110611eea57fe5b9050602002016020810190611eff9190612c59565b905080848381518110611f0e57fe5b60209081029190910101516001600160a01b0391821690526040516370a0823160e01b8152908216906370a0823190611f4b908b906004016130e0565b60206040518083038186803b158015611f6357600080fd5b505afa158015611f77573d6000803e3d6000fd5b505050506040513d601f19601f82011682018060405250810190611f9b9190612df2565b848381518110611fa757fe5b602090810291909101810151015250600101611ed4565b509095945050505050565b7f00000000000000000000000000000000000000000000000000000000000000006001600160a01b0316331461201a5760405162461bcd60e51b8152600401612011906133ba565b60405180910390fd5b600080546001600160a01b03199081166001600160a01b03998a1617909155600180548216978916979097179096556002805487169588169590951790945560038054861693871693909317909255600480548516918616919091179055600580548416918516919091179055600680549092169216919091179055565b6003546000906001600160a01b03838116911614156120c05750670de0b6b3a76400006124b6565b60055460009081906001600160a01b0316156121605760055460035460405163e6a4390560e01b81526001600160a01b039283169263e6a439059261210d928992909116906004016130f4565b60206040518083038186803b15801561212557600080fd5b505afa158015612139573d6000803e3d6000fd5b505050506040513d601f19601f8201168201806040525081019061215d9190612e0a565b91505b6004546001600160a01b0316156121f9576004805460035460405163e6a4390560e01b81526001600160a01b039283169363e6a43905936121a6938a93911691016130f4565b60206040518083038186803b1580156121be57600080fd5b505afa1580156121d2573d6000803e3d6000fd5b505050506040513d601f19601f820116820180604052508101906121f69190612e0a565b90505b6001600160a01b03821615801561221757506001600160a01b038116155b15612227576000925050506124b6565b600080806001600160a01b0385161561233357600080866001600160a01b0316630902f1ac6040518163ffffffff1660e01b815260040160606040518083038186803b15801561227657600080fd5b505afa15801561228a573d6000803e3d6000fd5b505050506040513d601f19601f820116820180604052508101906122ae9190612f89565b509150915081850194508084019350866001600160a01b0316630dfe16816040518163ffffffff1660e01b815260040160206040518083038186803b1580156122f657600080fd5b505afa15801561230a573d6000803e3d6000fd5b505050506040513d601f19601f8201168201806040525081019061232e9190612e0a565b925050505b6001600160a01b0384161561244957600080856001600160a01b0316630902f1ac6040518163ffffffff1660e01b815260040160606040518083038186803b15801561237e57600080fd5b505afa158015612392573d6000803e3d6000fd5b505050506040513d601f19601f820116820180604052508101906123b69190612f89565b50958101959485019490925090506001600160a01b03831661244657856001600160a01b0316630dfe16816040518163ffffffff1660e01b815260040160206040518083038186803b15801561240b57600080fd5b505afa15801561241f573d6000803e3d6000fd5b505050506040513d601f19601f820116820180604052508101906124439190612e0a565b92505b50505b6003546001600160a01b038281169116141561249157826001600160701b0316826001600160701b0316670de0b6b3a7640000028161248457fe5b04955050505050506124b6565b816001600160701b0316836001600160701b0316670de0b6b3a7640000028161248457fe5b919050565b6006546001600160a01b031681565b60408051600481526024810182526020810180516001600160e01b03166306fdde0360e01b179052905160609160009183916001600160a01b0386169161251191906130c4565b600060405180830381855afa9150503d806000811461254c576040519150601f19603f3d011682016040523d82523d6000602084013e612551565b606091505b50915091508161257c57604051806040016040528060038152602001623f3f3f60e81b815250612585565b612585816128e1565b949350505050565b60408051600481526024810182526020810180516001600160e01b03166395d89b4160e01b179052905160609160009183916001600160a01b0386169161251191906130c4565b60408051600481526024810182526020810180516001600160e01b031663313ce56760e01b179052905160009182916060916001600160a01b0386169161261b91906130c4565b600060405180830381855afa9150503d8060008114612656576040519150601f19603f3d011682016040523d82523d6000602084013e61265b565b606091505b509150915081801561266e575080516020145b612679576012612585565b808060200190518101906125859190613000565b60408051600481526024810182526020810180516001600160e01b031663c45a015560e01b179052905160009182916060916001600160a01b038616916126d491906130c4565b600060405180830381855afa9150503d806000811461270f576040519150601f19603f3d011682016040523d82523d6000602084013e612714565b606091505b5091509150818015612727575080516020145b612732576000612585565b808060200190518101906125859190612e0a565b60408051600481526024810182526020810180516001600160e01b0316633644e51560e01b179052905160009182916060916001600160a01b0386169161271091612790916130c4565b6000604051808303818686fa925050503d80600081146127cc576040519150601f19603f3d011682016040523d82523d6000602084013e6127d1565b606091505b50915091508180156127e4575080516020145b6127ef576000612585565b808060200190518101906125859190612df2565b6000806060846001600160a01b0316611388637ecebe008660405160240161282b91906130e0565b6040516020818303038152906040529060e01b6020820180516001600160e01b03838183161783525050505060405161286491906130c4565b6000604051808303818686fa925050503d80600081146128a0576040519150601f19603f3d011682016040523d82523d6000602084013e6128a5565b606091505b50915091508180156128b8575080516020145b6128c4576000196128d8565b808060200190518101906128d89190612df2565b95945050505050565b6060604082511061290757818060200190518101906129009190612eef565b90506124b6565b815160201415612a265760005b60208160ff161080156129435750828160ff168151811061293157fe5b01602001516001600160f81b03191615155b1561295057600101612914565b60608160ff166001600160401b038111801561296b57600080fd5b506040519080825280601f01601f191660200182016040528015612996576020820181803683370190505b509050600091505b60208260ff161080156129cd5750838260ff16815181106129bb57fe5b01602001516001600160f81b03191615155b15612a1d57838260ff16815181106129e157fe5b602001015160f81c60f81b818360ff16815181106129fb57fe5b60200101906001600160f81b031916908160001a90535060019091019061299e565b91506124b69050565b506040805180820190915260038152623f3f3f60e81b60208201526124b6565b6040518061018001604052806000815260200160008152602001600081526020016000815260200160008152602001600081526020016060815260200160008152602001600081526020016000815260200160008152602001600081525090565b604080518082019091526000808252602082015290565b604051806040016040528060008152602001600081525090565b604080516101408101825260008082526020820181905291810182905260608082018390526080820183905260a0820183905260c0820183905260e0820181905261010082015261012081019190915290565b604051806101400160405280600081526020016000815260200160008152602001600081526020016000815260200160008152602001600081526020016000815260200160008152602001600081525090565b6040518060a0016040528060006001600160a01b03168152602001600081526020016060815260200160608152602001600080191681525090565b6040518060a0016040528060006001600160a01b03168152602001600081526020016000815260200160008152602001600081525090565b60408051608081018252600080825260208201819052918101829052606081019190915290565b60008083601f840112612c29578182fd5b5081356001600160401b03811115612c3f578182fd5b6020830191508360208083028501011115610dab57600080fd5b600060208284031215612c6a578081fd5b8135612c7581613603565b9392505050565b600080600060408486031215612c90578182fd5b8335612c9b81613603565b925060208401356001600160401b03811115612cb5578283fd5b612cc186828701612c18565b9497909650939450505050565b600080600060408486031215612c90578283fd5b60008060008060008060808789031215612cfa578182fd5b8635612d0581613603565b955060208701356001600160401b0380821115612d20578384fd5b612d2c8a838b01612c18565b909750955060408901359150612d4182613603565b90935060608801359080821115612d56578384fd5b50612d6389828a01612c18565b979a9699509497509295939492505050565b60008060008060808587031215612d8a578182fd5b8451612d9581613603565b60208601516040870151606090970151919890975090945092505050565b60008060208385031215612dc5578182fd5b82356001600160401b03811115612dda578283fd5b612de685828601612c18565b90969095509350505050565b600060208284031215612e03578081fd5b5051919050565b600060208284031215612e1b578081fd5b8151612c7581613603565b600080600060608486031215612e3a578081fd5b8335612e4581613603565b95602085013595506040909401359392505050565b600080600080600080600060e0888a031215612e74578485fd5b8735612e7f81613603565b96506020880135612e8f81613603565b95506040880135612e9f81613603565b94506060880135612eaf81613603565b93506080880135612ebf81613603565b925060a0880135612ecf81613603565b915060c0880135612edf81613603565b8091505092959891949750929550565b600060208284031215612f00578081fd5b81516001600160401b0380821115612f16578283fd5b818401915084601f830112612f29578283fd5b815181811115612f37578384fd5b604051601f8201601f191681016020018381118282101715612f57578586fd5b604052818152838201602001871015612f6e578485fd5b612f7f8260208301602087016135d3565b9695505050505050565b600080600060608486031215612f9d578081fd5b8351612fa88161361b565b6020850151909350612fb98161361b565b604085015190925063ffffffff81168114612fd2578182fd5b809150509250925092565b60008060408385031215612fef578182fd5b505080516020909101519092909150565b600060208284031215613011578081fd5b815160ff81168114612c75578182fd5b6000815180845260208085019450808401835b8381101561306457815180516001600160a01b031688528301518388015260409096019590820190600101613034565b509495945050505050565b15159052565b6001600160a01b03169052565b6000815180845261309a8160208601602086016135d3565b601f01601f19169290920160200192915050565b80518252602090810151910152565b60ff169052565b600082516130d68184602087016135d3565b9190910192915050565b6001600160a01b0391909116815260200190565b6001600160a01b0392831681529116602082015260400190565b602080825282518282018190526000919060409081850190868401855b8281101561317857815180516001600160a01b0316855286810151878601528581015186860152606080820151908601526080908101519085015260a0909301929085019060010161312b565b5091979650505050505050565b602080825282518282018190526000919060409081850190868401855b8281101561317857815180516001600160a01b031685528601518685015292840192908501906001016131a2565b602080825282518282018190526000919060409081850190868401855b8281101561317857815180516001600160a01b0390811686528782015181168887015286820151168686015260609081015190850152608090930192908501906001016131ed565b602080825282518282018190526000919060409081850190868401855b82811015613178576132658483516130ae565b9284019290850190600101613252565b60208082528251828201819052600091906040908185019080840286018301878501865b8381101561331657888303603f19018552815180516001600160a01b0316845287810151888501528681015160a0888601819052906132da82870182613082565b915050606080830151868303828801526132f48382613082565b6080948501519790940196909652505094870194925090860190600101613299565b509098975050505050505050565b602080825282518282018190526000919060409081850190868401855b828110156131785781518051855286810151878601528581015186860152606080820151908601526080808201519086015260a0808201519086015260c0808201519086015260e08082015190860152610100808201519086015261012090810151908501526101409093019290850190600101613341565b6020808252818101527f4f776e61626c653a2063616c6c6572206973206e6f7420746865206f776e6572604082015260600190565b6000606080830161340084876130ae565b604084810183905285519182905260809182860190602080820288018501818a01885b8481101561350057607f198b84030186528151610140815185528582015161344d87870182613075565b5088820151898601528a8201516134668c87018261306f565b50898201516134778b870182613075565b5060a08083015161348a82880182613075565b505060c08083015161349e82880182613075565b505060e08083015182828801526134b783880182613082565b9250505061010080830151868303828801526134d38382613082565b925050506101208083015192506134ec818701846130bd565b509685019693505090830190600101613423565b50909b9a5050505050505050505050565b60006020825282516020830152602083015160408301526040830151606083015260608301516080830152608083015160a083015260a083015160c083015260c08301516101808060e085015261356c6101a0850183613021565b60e086015161010086810191909152860151610120808701919091528601516101408087019190915286015161016080870191909152909501519301929092525090919050565b90815260200190565b9182526001600160a01b0316602082015260400190565b60005b838110156135ee5781810151838201526020016135d6565b838111156135fd576000848401525b50505050565b6001600160a01b038116811461361857600080fd5b50565b6001600160701b038116811461361857600080fdfea26469706673582212200ba8ab0324f38256b7764a95d52f1956e72a624dcfc9eba6c624a899701e796c64736f6c634300060c0033",
  "devdoc": {
    "kind": "dev",
    "methods": {},
    "version": 1
  },
  "userdoc": {
    "kind": "user",
    "methods": {},
    "version": 1
  },
  "storageLayout": {
    "storage": [
      {
        "astId": 1426,
        "contract": "contracts/boringcrypto/BoringHelperV1.sol:BoringHelperV1",
        "label": "chef",
        "offset": 0,
        "slot": "0",
        "type": "t_contract(IMasterChef)133"
      },
      {
        "astId": 1428,
        "contract": "contracts/boringcrypto/BoringHelperV1.sol:BoringHelperV1",
        "label": "maker",
        "offset": 0,
        "slot": "1",
        "type": "t_address"
      },
      {
        "astId": 1430,
        "contract": "contracts/boringcrypto/BoringHelperV1.sol:BoringHelperV1",
        "label": "joe",
        "offset": 0,
        "slot": "2",
        "type": "t_contract(IERC20)54"
      },
      {
        "astId": 1432,
        "contract": "contracts/boringcrypto/BoringHelperV1.sol:BoringHelperV1",
        "label": "WAVAX",
        "offset": 0,
        "slot": "3",
        "type": "t_contract(IERC20)54"
      },
      {
        "astId": 1434,
        "contract": "contracts/boringcrypto/BoringHelperV1.sol:BoringHelperV1",
        "label": "joeFactory",
        "offset": 0,
        "slot": "4",
        "type": "t_contract(IFactory)187"
      },
      {
        "astId": 1436,
        "contract": "contracts/boringcrypto/BoringHelperV1.sol:BoringHelperV1",
        "label": "pangolinFactory",
        "offset": 0,
        "slot": "5",
        "type": "t_contract(IFactory)187"
      },
      {
        "astId": 1438,
        "contract": "contracts/boringcrypto/BoringHelperV1.sol:BoringHelperV1",
        "label": "bar",
        "offset": 0,
        "slot": "6",
        "type": "t_contract(IERC20)54"
      }
    ],
    "types": {
      "t_address": {
        "encoding": "inplace",
        "label": "address",
        "numberOfBytes": "20"
      },
      "t_contract(IERC20)54": {
        "encoding": "inplace",
        "label": "contract IERC20",
        "numberOfBytes": "20"
      },
      "t_contract(IFactory)187": {
        "encoding": "inplace",
        "label": "contract IFactory",
        "numberOfBytes": "20"
      },
      "t_contract(IMasterChef)133": {
        "encoding": "inplace",
        "label": "contract IMasterChef",
        "numberOfBytes": "20"
      }
    }
  }
}