{
  "address": "0x7b296549E4407485F1E8b20aEb0213D88513B187",
  "abi": [
    {
      "inputs": [
        {
          "internalType": "address",
          "name": "_joe",
          "type": "address"
        },
        {
          "internalType": "address",
          "name": "_wavax",
          "type": "address"
        },
        {
          "internalType": "contract IJoePair",
          "name": "_wavaxUsdte",
          "type": "address"
        },
        {
          "internalType": "contract IJoePair",
          "name": "_wavaxUsdce",
          "type": "address"
        },
        {
          "internalType": "contract IJoePair",
          "name": "_wavaxUsdc",
          "type": "address"
        },
        {
          "internalType": "contract IJoeFactory",
          "name": "_joeFactory",
          "type": "address"
        },
        {
          "internalType": "contract IMasterChef",
          "name": "_chefv2",
          "type": "address"
        },
        {
          "internalType": "contract IMasterChef",
          "name": "_chefv3",
          "type": "address"
        },
        {
          "internalType": "contract IBoostedMasterchef",
          "name": "_bmcj",
          "type": "address"
        }
      ],
      "stateMutability": "nonpayable",
      "type": "constructor"
    },
    {
      "inputs": [],
      "name": "bmcj",
      "outputs": [
        {
          "internalType": "contract IBoostedMasterchef",
          "name": "",
          "type": "address"
        }
      ],
      "stateMutability": "view",
      "type": "function"
    },
    {
      "inputs": [],
      "name": "chefv2",
      "outputs": [
        {
          "internalType": "contract IMasterChef",
          "name": "",
          "type": "address"
        }
      ],
      "stateMutability": "view",
      "type": "function"
    },
    {
      "inputs": [],
      "name": "chefv3",
      "outputs": [
        {
          "internalType": "contract IMasterChef",
          "name": "",
          "type": "address"
        }
      ],
      "stateMutability": "view",
      "type": "function"
    },
    {
      "inputs": [
        {
          "internalType": "uint256[]",
          "name": "whitelistedPidsV2",
          "type": "uint256[]"
        },
        {
          "internalType": "uint256[]",
          "name": "whitelistedPidsV3",
          "type": "uint256[]"
        },
        {
          "internalType": "uint256[]",
          "name": "whitelistedPidsBMCJ",
          "type": "uint256[]"
        },
        {
          "internalType": "address",
          "name": "user",
          "type": "address"
        }
      ],
      "name": "getAllFarmData",
      "outputs": [
        {
          "components": [
            {
              "internalType": "uint256",
              "name": "avaxPriceUsd",
              "type": "uint256"
            },
            {
              "internalType": "uint256",
              "name": "joePriceUsd",
              "type": "uint256"
            },
            {
              "internalType": "uint256",
              "name": "totalAllocChefV2",
              "type": "uint256"
            },
            {
              "internalType": "uint256",
              "name": "totalAllocChefV3",
              "type": "uint256"
            },
            {
              "internalType": "uint256",
              "name": "totalAllocBMCJ",
              "type": "uint256"
            },
            {
              "internalType": "uint256",
              "name": "joePerSecChefV2",
              "type": "uint256"
            },
            {
              "internalType": "uint256",
              "name": "joePerSecChefV3",
              "type": "uint256"
            },
            {
              "internalType": "uint256",
              "name": "joePerSecBMCJ",
              "type": "uint256"
            },
            {
              "components": [
                {
                  "internalType": "uint256",
                  "name": "id",
                  "type": "uint256"
                },
                {
                  "internalType": "uint256",
                  "name": "allocPoint",
                  "type": "uint256"
                },
                {
                  "internalType": "address",
                  "name": "lpAddress",
                  "type": "address"
                },
                {
                  "internalType": "address",
                  "name": "token0Address",
                  "type": "address"
                },
                {
                  "internalType": "address",
                  "name": "token1Address",
                  "type": "address"
                },
                {
                  "internalType": "string",
                  "name": "token0Symbol",
                  "type": "string"
                },
                {
                  "internalType": "string",
                  "name": "token1Symbol",
                  "type": "string"
                },
                {
                  "internalType": "uint256",
                  "name": "reserveUsd",
                  "type": "uint256"
                },
                {
                  "internalType": "uint256",
                  "name": "totalSupplyScaled",
                  "type": "uint256"
                },
                {
                  "internalType": "address",
                  "name": "chefAddress",
                  "type": "address"
                },
                {
                  "internalType": "uint256",
                  "name": "chefBalanceScaled",
                  "type": "uint256"
                },
                {
                  "internalType": "uint256",
                  "name": "chefTotalAlloc",
                  "type": "uint256"
                },
                {
                  "internalType": "uint256",
                  "name": "chefJoePerSec",
                  "type": "uint256"
                }
              ],
              "internalType": "struct FarmLensV2.FarmInfo[]",
              "name": "farmInfosV2",
              "type": "tuple[]"
            },
            {
              "components": [
                {
                  "internalType": "uint256",
                  "name": "id",
                  "type": "uint256"
                },
                {
                  "internalType": "uint256",
                  "name": "allocPoint",
                  "type": "uint256"
                },
                {
                  "internalType": "address",
                  "name": "lpAddress",
                  "type": "address"
                },
                {
                  "internalType": "address",
                  "name": "token0Address",
                  "type": "address"
                },
                {
                  "internalType": "address",
                  "name": "token1Address",
                  "type": "address"
                },
                {
                  "internalType": "string",
                  "name": "token0Symbol",
                  "type": "string"
                },
                {
                  "internalType": "string",
                  "name": "token1Symbol",
                  "type": "string"
                },
                {
                  "internalType": "uint256",
                  "name": "reserveUsd",
                  "type": "uint256"
                },
                {
                  "internalType": "uint256",
                  "name": "totalSupplyScaled",
                  "type": "uint256"
                },
                {
                  "internalType": "address",
                  "name": "chefAddress",
                  "type": "address"
                },
                {
                  "internalType": "uint256",
                  "name": "chefBalanceScaled",
                  "type": "uint256"
                },
                {
                  "internalType": "uint256",
                  "name": "chefTotalAlloc",
                  "type": "uint256"
                },
                {
                  "internalType": "uint256",
                  "name": "chefJoePerSec",
                  "type": "uint256"
                }
              ],
              "internalType": "struct FarmLensV2.FarmInfo[]",
              "name": "farmInfosV3",
              "type": "tuple[]"
            },
            {
              "components": [
                {
                  "internalType": "uint256",
                  "name": "id",
                  "type": "uint256"
                },
                {
                  "internalType": "uint256",
                  "name": "allocPoint",
                  "type": "uint256"
                },
                {
                  "internalType": "address",
                  "name": "lpAddress",
                  "type": "address"
                },
                {
                  "internalType": "address",
                  "name": "token0Address",
                  "type": "address"
                },
                {
                  "internalType": "address",
                  "name": "token1Address",
                  "type": "address"
                },
                {
                  "internalType": "string",
                  "name": "token0Symbol",
                  "type": "string"
                },
                {
                  "internalType": "string",
                  "name": "token1Symbol",
                  "type": "string"
                },
                {
                  "internalType": "uint256",
                  "name": "reserveUsd",
                  "type": "uint256"
                },
                {
                  "internalType": "uint256",
                  "name": "totalSupplyScaled",
                  "type": "uint256"
                },
                {
                  "internalType": "address",
                  "name": "chefAddress",
                  "type": "address"
                },
                {
                  "internalType": "uint256",
                  "name": "chefBalanceScaled",
                  "type": "uint256"
                },
                {
                  "internalType": "uint256",
                  "name": "chefTotalAlloc",
                  "type": "uint256"
                },
                {
                  "internalType": "uint256",
                  "name": "chefJoePerSec",
                  "type": "uint256"
                },
                {
                  "internalType": "uint256",
                  "name": "baseAPR",
                  "type": "uint256"
                },
                {
                  "internalType": "uint256",
                  "name": "boostedAPR",
                  "type": "uint256"
                },
                {
                  "internalType": "uint256",
                  "name": "boostFactor",
                  "type": "uint256"
                }
              ],
              "internalType": "struct FarmLensV2.FarmInfoBMCJ[]",
              "name": "farmInfosBMCJ",
              "type": "tuple[]"
            }
          ],
          "internalType": "struct FarmLensV2.AllFarmData",
          "name": "",
          "type": "tuple"
        }
      ],
      "stateMutability": "view",
      "type": "function"
    },
    {
      "inputs": [],
      "name": "getAvaxPrice",
      "outputs": [
        {
          "internalType": "uint256",
          "name": "",
          "type": "uint256"
        }
      ],
      "stateMutability": "view",
      "type": "function"
    },
    {
      "inputs": [
        {
          "internalType": "contract IBoostedMasterchef",
          "name": "chef",
          "type": "address"
        },
        {
          "internalType": "address",
          "name": "user",
          "type": "address"
        },
        {
          "internalType": "uint256[]",
          "name": "whitelistedPids",
          "type": "uint256[]"
        }
      ],
      "name": "getBMCJFarmInfos",
      "outputs": [
        {
          "components": [
            {
              "internalType": "uint256",
              "name": "id",
              "type": "uint256"
            },
            {
              "internalType": "uint256",
              "name": "allocPoint",
              "type": "uint256"
            },
            {
              "internalType": "address",
              "name": "lpAddress",
              "type": "address"
            },
            {
              "internalType": "address",
              "name": "token0Address",
              "type": "address"
            },
            {
              "internalType": "address",
              "name": "token1Address",
              "type": "address"
            },
            {
              "internalType": "string",
              "name": "token0Symbol",
              "type": "string"
            },
            {
              "internalType": "string",
              "name": "token1Symbol",
              "type": "string"
            },
            {
              "internalType": "uint256",
              "name": "reserveUsd",
              "type": "uint256"
            },
            {
              "internalType": "uint256",
              "name": "totalSupplyScaled",
              "type": "uint256"
            },
            {
              "internalType": "address",
              "name": "chefAddress",
              "type": "address"
            },
            {
              "internalType": "uint256",
              "name": "chefBalanceScaled",
              "type": "uint256"
            },
            {
              "internalType": "uint256",
              "name": "chefTotalAlloc",
              "type": "uint256"
            },
            {
              "internalType": "uint256",
              "name": "chefJoePerSec",
              "type": "uint256"
            },
            {
              "internalType": "uint256",
              "name": "baseAPR",
              "type": "uint256"
            },
            {
              "internalType": "uint256",
              "name": "boostedAPR",
              "type": "uint256"
            },
            {
              "internalType": "uint256",
              "name": "boostFactor",
              "type": "uint256"
            }
          ],
          "internalType": "struct FarmLensV2.FarmInfoBMCJ[]",
          "name": "",
          "type": "tuple[]"
        }
      ],
      "stateMutability": "view",
      "type": "function"
    },
    {
      "inputs": [
        {
          "internalType": "address",
          "name": "token",
          "type": "address"
        }
      ],
      "name": "getDerivedAvaxPriceOfToken",
      "outputs": [
        {
          "internalType": "uint256",
          "name": "",
          "type": "uint256"
        }
      ],
      "stateMutability": "view",
      "type": "function"
    },
    {
      "inputs": [
        {
          "internalType": "contract IMasterChef",
          "name": "chef",
          "type": "address"
        },
        {
          "internalType": "uint256[]",
          "name": "whitelistedPids",
          "type": "uint256[]"
        }
      ],
      "name": "getMCFarmInfos",
      "outputs": [
        {
          "components": [
            {
              "internalType": "uint256",
              "name": "id",
              "type": "uint256"
            },
            {
              "internalType": "uint256",
              "name": "allocPoint",
              "type": "uint256"
            },
            {
              "internalType": "address",
              "name": "lpAddress",
              "type": "address"
            },
            {
              "internalType": "address",
              "name": "token0Address",
              "type": "address"
            },
            {
              "internalType": "address",
              "name": "token1Address",
              "type": "address"
            },
            {
              "internalType": "string",
              "name": "token0Symbol",
              "type": "string"
            },
            {
              "internalType": "string",
              "name": "token1Symbol",
              "type": "string"
            },
            {
              "internalType": "uint256",
              "name": "reserveUsd",
              "type": "uint256"
            },
            {
              "internalType": "uint256",
              "name": "totalSupplyScaled",
              "type": "uint256"
            },
            {
              "internalType": "address",
              "name": "chefAddress",
              "type": "address"
            },
            {
              "internalType": "uint256",
              "name": "chefBalanceScaled",
              "type": "uint256"
            },
            {
              "internalType": "uint256",
              "name": "chefTotalAlloc",
              "type": "uint256"
            },
            {
              "internalType": "uint256",
              "name": "chefJoePerSec",
              "type": "uint256"
            }
          ],
          "internalType": "struct FarmLensV2.FarmInfo[]",
          "name": "",
          "type": "tuple[]"
        }
      ],
      "stateMutability": "view",
      "type": "function"
    },
    {
      "inputs": [
        {
          "internalType": "address",
          "name": "token",
          "type": "address"
        }
      ],
      "name": "getTokenPrice",
      "outputs": [
        {
          "internalType": "uint256",
          "name": "",
          "type": "uint256"
        }
      ],
      "stateMutability": "view",
      "type": "function"
    },
    {
      "inputs": [],
      "name": "joe",
      "outputs": [
        {
          "internalType": "address",
          "name": "",
          "type": "address"
        }
      ],
      "stateMutability": "view",
      "type": "function"
    },
    {
      "inputs": [],
      "name": "joeFactory",
      "outputs": [
        {
          "internalType": "contract IJoeFactory",
          "name": "",
          "type": "address"
        }
      ],
      "stateMutability": "view",
      "type": "function"
    },
    {
      "inputs": [],
      "name": "wavax",
      "outputs": [
        {
          "internalType": "address",
          "name": "",
          "type": "address"
        }
      ],
      "stateMutability": "view",
      "type": "function"
    },
    {
      "inputs": [],
      "name": "wavaxUsdc",
      "outputs": [
        {
          "internalType": "contract IJoePair",
          "name": "",
          "type": "address"
        }
      ],
      "stateMutability": "view",
      "type": "function"
    },
    {
      "inputs": [],
      "name": "wavaxUsdce",
      "outputs": [
        {
          "internalType": "contract IJoePair",
          "name": "",
          "type": "address"
        }
      ],
      "stateMutability": "view",
      "type": "function"
    },
    {
      "inputs": [],
      "name": "wavaxUsdte",
      "outputs": [
        {
          "internalType": "contract IJoePair",
          "name": "",
          "type": "address"
        }
      ],
      "stateMutability": "view",
      "type": "function"
    }
  ],
  "transactionHash": "0x62e77ead8b68cdb0906a308e01ab39fac9492385bce95da66605fe8cbe848540",
  "args": [
    "0xce347E069B68C53A9ED5e7DA5952529cAF8ACCd4",
    "0xc778417E063141139Fce010982780140Aa0cD5Ab",
    "0x63Fce17ba68c82A322fDd5a4D03AedBEdBD730fD",
    "0x63Fce17ba68c82A322fDd5a4D03AedBEdBD730fD",
    "0x63Fce17ba68c82A322fDd5a4D03AedBEdBD730fD",
    "0x86f83be9770894d8e46301b12E88e14AdC6cdb5F",
    "0x1F51b7697A1919cF301845c93D4843FD620ad7Cc",
    "0xEedf119022F1Bb5F63676BbE855c82151B7198AF",
    "0x460d978831afd5Af99738E060C3ad8a76e592beA"
  ],
  "numDeployments": 2,
  "solcInputHash": "289307b57bc4eef2fabf3ac3ae703dc1",
  "bytecode": "0x6102006040523480156200001257600080fd5b506040516200323938038062003239833981016040819052620000359162000285565b6001600160601b031960608a811b821660805289811b821660a05288811b821660c05287811b821660e05286811b82166101005285811b82166101205284811b82166101405283811b82166101605282901b16610180526040805163d21220a760e01b815290516001600160a01b038a811692908a169163d21220a791600480820192602092909190829003018186803b158015620000d357600080fd5b505afa158015620000e8573d6000803e3d6000fd5b505050506040513d601f19601f820116820180604052508101906200010e91906200025f565b6001600160a01b03161415156101a081151560f81b81525050876001600160a01b0316866001600160a01b031663d21220a76040518163ffffffff1660e01b815260040160206040518083038186803b1580156200016b57600080fd5b505afa15801562000180573d6000803e3d6000fd5b505050506040513d601f19601f82011682018060405250810190620001a691906200025f565b6001600160a01b03161415156101c081151560f81b81525050876001600160a01b0316856001600160a01b031663d21220a76040518163ffffffff1660e01b815260040160206040518083038186803b1580156200020357600080fd5b505afa15801562000218573d6000803e3d6000fd5b505050506040513d601f19601f820116820180604052508101906200023e91906200025f565b6001600160a01b03161460f81b6101e0525062000374975050505050505050565b60006020828403121562000271578081fd5b81516200027e816200035b565b9392505050565b60008060008060008060008060006101208a8c031215620002a4578485fd5b8951620002b1816200035b565b60208b0151909950620002c4816200035b565b60408b0151909850620002d7816200035b565b60608b0151909750620002ea816200035b565b60808b0151909650620002fd816200035b565b60a08b015190955062000310816200035b565b60c08b015190945062000323816200035b565b60e08b015190935062000336816200035b565b6101008b01519092506200034a816200035b565b809150509295985092959850929598565b6001600160a01b03811681146200037157600080fd5b50565b60805160601c60a05160601c60c05160601c60e05160601c6101005160601c6101205160601c6101405160601c6101605160601c6101805160601c6101a05160f81c6101c05160f81c6101e05160f81c612da862000491600039806109b8525080610a05525080610a4f5250806101f5528061053e52806105d852806108635280610ebf5280610eee5280610f8452508061023d528061040a52806104a452806106a352806107c15250806102e95280610370528061067152806106f452806107865250806107605280610aeb52508061073c528061099752508061091a52806109e45250806107185280610a2e5250806102195280610a8a5280610b1a5280611d0352508061028f528061083d52806108d25250612da86000f3fe608060405234801561001057600080fd5b50600436106100f55760003560e01c80638a38466e11610097578063cff5dd3311610066578063cff5dd33146101b0578063d02641a0146101b8578063eee5c276146101d8578063f97a496c146101eb576100f5565b80638a38466e146101605780639bbf1deb14610168578063b985a3a014610188578063ce7a198914610190576100f5565b806335541641116100d357806335541641146101285780634e57afe014610148578063685f02e71461015057806387dabe4614610158576100f5565b80630d1dcd9a146100fa578063117be4c2146101185780632c9e2b0514610120575b600080fd5b6101026101f3565b60405161010f9190612a3b565b60405180910390f35b610102610217565b61010261023b565b61013b6101363660046123ee565b61025f565b60405161010f9190612c11565b6101026106f2565b610102610716565b61010261073a565b61010261075e565b61017b6101763660046124fb565b610782565b60405161010f9190612ac9565b61010261083b565b6101a361019e366004612498565b61085f565b60405161010f9190612a69565b610102610918565b6101cb6101c63660046123b6565b61093c565b60405161010f9190612cce565b6101cb6101e63660046123b6565b61096b565b6101cb61097c565b7f000000000000000000000000000000000000000000000000000000000000000081565b7f000000000000000000000000000000000000000000000000000000000000000081565b7f000000000000000000000000000000000000000000000000000000000000000081565b6102676120d0565b61026f6120d0565b600061027961098b565b90506000670de0b6b3a76400006102b9836102b37f0000000000000000000000000000000000000000000000000000000000000000610a86565b90610c41565b816102c057fe5b838552046020808501829052604080516317caf6f160e01b815290519293506001600160a01b037f000000000000000000000000000000000000000000000000000000000000000016926317caf6f192600480840193919291829003018186803b15801561032d57600080fd5b505afa158015610341573d6000803e3d6000fd5b505050506040513d601f19601f820116820180604052508101906103659190612761565b8360400181815250507f00000000000000000000000000000000000000000000000000000000000000006001600160a01b031663ca418d236040518163ffffffff1660e01b815260040160206040518083038186803b1580156103c757600080fd5b505afa1580156103db573d6000803e3d6000fd5b505050506040513d601f19601f820116820180604052508101906103ff9190612761565b8360a00181815250507f00000000000000000000000000000000000000000000000000000000000000006001600160a01b03166317caf6f16040518163ffffffff1660e01b815260040160206040518083038186803b15801561046157600080fd5b505afa158015610475573d6000803e3d6000fd5b505050506040513d601f19601f820116820180604052508101906104999190612761565b8360600181815250507f00000000000000000000000000000000000000000000000000000000000000006001600160a01b031663ca418d236040518163ffffffff1660e01b815260040160206040518083038186803b1580156104fb57600080fd5b505afa15801561050f573d6000803e3d6000fd5b505050506040513d601f19601f820116820180604052508101906105339190612761565b8360c00181815250507f00000000000000000000000000000000000000000000000000000000000000006001600160a01b03166317caf6f16040518163ffffffff1660e01b815260040160206040518083038186803b15801561059557600080fd5b505afa1580156105a9573d6000803e3d6000fd5b505050506040513d601f19601f820116820180604052508101906105cd9190612761565b8360800181815250507f00000000000000000000000000000000000000000000000000000000000000006001600160a01b031663ca418d236040518163ffffffff1660e01b815260040160206040518083038186803b15801561062f57600080fd5b505afa158015610643573d6000803e3d6000fd5b505050506040513d601f19601f820116820180604052508101906106679190612761565b60e08401526106987f0000000000000000000000000000000000000000000000000000000000000000838d8d610c78565b6101008401526106ca7f0000000000000000000000000000000000000000000000000000000000000000838b8b610c78565b6101208401526106dd8282878a8a610ea8565b61014084015250909998505050505050505050565b7f000000000000000000000000000000000000000000000000000000000000000081565b7f000000000000000000000000000000000000000000000000000000000000000081565b7f000000000000000000000000000000000000000000000000000000000000000081565b7f000000000000000000000000000000000000000000000000000000000000000081565b60607f00000000000000000000000000000000000000000000000000000000000000006001600160a01b0316846001600160a01b031614806107f557507f00000000000000000000000000000000000000000000000000000000000000006001600160a01b0316846001600160a01b0316145b61081a5760405162461bcd60e51b815260040161081190612b70565b60405180910390fd5b600061082461098b565b905061083285828686610c78565b95945050505050565b7f000000000000000000000000000000000000000000000000000000000000000081565b60607f00000000000000000000000000000000000000000000000000000000000000006001600160a01b0316856001600160a01b0316146108b25760405162461bcd60e51b815260040161081190612b0c565b60006108bc61098b565b90506000670de0b6b3a76400006108f6836102b37f0000000000000000000000000000000000000000000000000000000000000000610a86565b816108fd57fe5b04905061090d8282888888610ea8565b979650505050505050565b7f000000000000000000000000000000000000000000000000000000000000000081565b6000670de0b6b3a764000061095b61095261098b565b6102b385610a86565b8161096257fe5b0490505b919050565b600061097682610a86565b92915050565b600061098661098b565b905090565b60006003610a796109dc7f00000000000000000000000000000000000000000000000000000000000000007f00000000000000000000000000000000000000000000000000000000000000006112d9565b610a73610a297f00000000000000000000000000000000000000000000000000000000000000007f00000000000000000000000000000000000000000000000000000000000000006112d9565b610a737f00000000000000000000000000000000000000000000000000000000000000007f00000000000000000000000000000000000000000000000000000000000000006112d9565b9061147e565b81610a8057fe5b04905090565b60007f00000000000000000000000000000000000000000000000000000000000000006001600160a01b0316826001600160a01b03161415610ad15750670de0b6b3a7640000610966565b60405163e6a4390560e01b81526000906001600160a01b037f0000000000000000000000000000000000000000000000000000000000000000169063e6a4390590610b429086907f000000000000000000000000000000000000000000000000000000000000000090600401612a4f565b60206040518083038186803b158015610b5a57600080fd5b505afa158015610b6e573d6000803e3d6000fd5b505050506040513d601f19601f82011682018060405250810190610b9291906123d2565b90506001600160a01b038116610bac576000915050610966565b610c3a81826001600160a01b031663d21220a76040518163ffffffff1660e01b815260040160206040518083038186803b158015610be957600080fd5b505afa158015610bfd573d6000803e3d6000fd5b505050506040513d601f19601f82011682018060405250810190610c2191906123d2565b6001600160a01b0316856001600160a01b0316146112d9565b9392505050565b6000811580610c5c57505080820282828281610c5957fe5b04145b6109765760405162461bcd60e51b815260040161081190612be1565b606081818167ffffffffffffffff81118015610c9357600080fd5b50604051908082528060200260200182016040528015610ccd57816020015b610cba61212a565b815260200190600190039081610cb25790505b5090506000876001600160a01b03166317caf6f16040518163ffffffff1660e01b815260040160206040518083038186803b158015610d0b57600080fd5b505afa158015610d1f573d6000803e3d6000fd5b505050506040513d601f19601f82011682018060405250810190610d439190612761565b90506000886001600160a01b031663ca418d236040518163ffffffff1660e01b815260040160206040518083038186803b158015610d8057600080fd5b505afa158015610d94573d6000803e3d6000fd5b505050506040513d601f19601f82011682018060405250810190610db89190612761565b905060005b84811015610e9a576000888883818110610dd357fe5b905060200201359050610de46121b6565b604051631526fe2760e01b81526001600160a01b038d1690631526fe2790610e10908590600401612cce565b60806040518083038186803b158015610e2857600080fd5b505afa158015610e3c573d6000803e3d6000fd5b505050506040513d601f19601f82011682018060405250810190610e6091906125da565b9050610e798c8c84846000015185602001518a8a6114a1565b868481518110610e8557fe5b60209081029190910101525050600101610dbd565b509198975050505050505050565b6060610eb26121e7565b60405180606001604052807f00000000000000000000000000000000000000000000000000000000000000006001600160a01b031681526020017f00000000000000000000000000000000000000000000000000000000000000006001600160a01b03166317caf6f16040518163ffffffff1660e01b815260040160206040518083038186803b158015610f4557600080fd5b505afa158015610f59573d6000803e3d6000fd5b505050506040513d601f19601f82011682018060405250810190610f7d9190612761565b81526020017f00000000000000000000000000000000000000000000000000000000000000006001600160a01b031663ca418d236040518163ffffffff1660e01b815260040160206040518083038186803b158015610fdb57600080fd5b505afa158015610fef573d6000803e3d6000fd5b505050506040513d601f19601f820116820180604052508101906110139190612761565b905290508260608167ffffffffffffffff8111801561103157600080fd5b5060405190808252806020026020018201604052801561106b57816020015b611058612211565b8152602001906001900390816110505790505b50905060005b828110156112cc57600087878381811061108757fe5b9050602002013590506110986122b2565b8551604051631526fe2760e01b81526001600160a01b0390911690631526fe27906110c7908590600401612cce565b6101206040518083038186803b1580156110e057600080fd5b505afa1580156110f4573d6000803e3d6000fd5b505050506040513d601f19601f82011682018060405250810190611118919061262c565b90506111226122fe565b6001600160a01b038b16156111b95786516040516393f1a40b60e01b81526001600160a01b03909116906393f1a40b906111629086908f90600401612cd7565b60606040518083038186803b15801561117a57600080fd5b505afa15801561118e573d6000803e3d6000fd5b505050506040513d601f19601f820116820180604052508101906111b291906126d0565b90506111e1565b60405180606001604052808361010001518152602001600081526020018360e0015181525090505b6112198d670de0b6b3a76400006112058f8b60400151610c4190919063ffffffff16565b8161120c57fe5b04896020015185856117eb565b85858151811061122557fe5b60200260200101819052508285858151811061123d57fe5b6020908102919091010151528651855186908690811061125957fe5b602002602001015161012001906001600160a01b031690816001600160a01b031681525050866020015185858151811061128f57fe5b602002602001015161016001818152505086604001518585815181106112b157fe5b60209081029190910101516101800152505050600101611071565b5098975050505050505050565b6000806000846001600160a01b0316630902f1ac6040518163ffffffff1660e01b815260040160606040518083038186803b15801561131757600080fd5b505afa15801561132b573d6000803e3d6000fd5b505050506040513d601f19601f8201168201806040525081019061134f919061270d565b506001600160701b031691506001600160701b0316915060006113ea866001600160a01b0316630dfe16816040518163ffffffff1660e01b815260040160206040518083038186803b1580156113a457600080fd5b505afa1580156113b8573d6000803e3d6000fd5b505050506040513d601f19601f820116820180604052508101906113dc91906123d2565b6001600160a01b0316611bcc565b60ff169050600061142d876001600160a01b031663d21220a76040518163ffffffff1660e01b815260040160206040518083038186803b1580156113a457600080fd5b60ff169050851561146b576114608361145a866114558661144f87601261147e565b90611c8d565b611cb0565b90611ccc565b945050505050610976565b6114608461145a856114558561144f8860125b818101818110156109765760405162461bcd60e51b815260040161081190612adc565b6114a961212a565b6000856001600160a01b031663313ce5676040518163ffffffff1660e01b815260040160206040518083038186803b1580156114e457600080fd5b505afa1580156114f8573d6000803e3d6000fd5b505050506040513d601f19601f8201168201806040525081019061151c9190612779565b60ff16905060006115a0876001600160a01b03166318160ddd6040518163ffffffff1660e01b815260040160206040518083038186803b15801561155f57600080fd5b505afa158015611573573d6000803e3d6000fd5b505050506040513d601f19601f820116820180604052508101906115979190612761565b83601203611cb0565b9050600061162c886001600160a01b03166370a082318d6040518263ffffffff1660e01b81526004016115d39190612a3b565b60206040518083038186803b1580156115eb57600080fd5b505afa1580156115ff573d6000803e3d6000fd5b505050506040513d601f19601f820116820180604052508101906116239190612761565b84601203611cb0565b90506000670de0b6b3a76400006116468c6102b38c611cfe565b8161164d57fe5b0490506000896001600160a01b0316630dfe16816040518163ffffffff1660e01b815260040160206040518083038186803b15801561168b57600080fd5b505afa15801561169f573d6000803e3d6000fd5b505050506040513d601f19601f820116820180604052508101906116c391906123d2565b905060008a6001600160a01b031663d21220a76040518163ffffffff1660e01b815260040160206040518083038186803b15801561170057600080fd5b505afa158015611714573d6000803e3d6000fd5b505050506040513d601f19601f8201168201806040525081019061173891906123d2565b9050604051806101a001604052808d81526020018b81526020018c6001600160a01b03168152602001836001600160a01b03168152602001826001600160a01b03168152602001611791846001600160a01b0316611ffd565b81526020016117a8836001600160a01b0316611ffd565b81526020018481526020018681526020018f6001600160a01b031681526020018581526020018a8152602001898152509650505050505050979650505050505050565b6117f3612211565b8251600090670de0b6b3a764000061180e896102b384611cfe565b8161181557fe5b0491506000816001600160a01b0316630dfe16816040518163ffffffff1660e01b815260040160206040518083038186803b15801561185357600080fd5b505afa158015611867573d6000803e3d6000fd5b505050506040513d601f19601f8201168201806040525081019061188b91906123d2565b90506000826001600160a01b031663d21220a76040518163ffffffff1660e01b815260040160206040518083038186803b1580156118c857600080fd5b505afa1580156118dc573d6000803e3d6000fd5b505050506040513d601f19601f8201168201806040525081019061190091906123d2565b6020808901516001600160601b0316908701526001600160a01b03808516604088015283811660608801819052908216608088015290915061194190611ffd565b60a08601526119586001600160a01b038216611ffd565b8560c00181905250838560e0018181525050826001600160a01b03166318160ddd6040518163ffffffff1660e01b815260040160206040518083038186803b1580156119a357600080fd5b505afa1580156119b7573d6000803e3d6000fd5b505050506040513d601f19601f820116820180604052508101906119db9190612761565b6101008087019190915287015161014086015260c087015163ffffffff166127101415611a10576000196101e0860152611a35565b60c08701516127109063ffffffff1680820390820281611a2c57fe5b04016101e08601525b50505061010084015115801590611a50575061010082015115155b8015611a5b57508415155b8015611a6a575060e082015115155b8015611a765750825115155b15611bc257600085611aa66301e133806102b388602001516001600160601b03168b610c4190919063ffffffff16565b81611aad57fe5b0490506000836101000151611ad48561014001518660e00151610c4190919063ffffffff16565b81611adb57fe5b0490506000866101000151611b018660e001518860000151610c4190919063ffffffff16565b81611b0857fe5b04905081611b195750505050610832565b61271082611b4a670de0b6b3a76400006102b38b60c0015163ffffffff166127100388610c4190919063ffffffff16565b81611b5157fe5b0481611b5957fe5b046101a086015260e087015115611bbe5761271081611ba7670de0b6b3a76400006102b38b60e0015161145a8c604001516102b38f60c0015163ffffffff168c610c4190919063ffffffff16565b81611bae57fe5b0481611bb657fe5b046101c08601525b5050505b5095945050505050565b60408051600481526024810182526020810180516001600160e01b031663313ce56760e01b179052905160009182916060916001600160a01b03861691611c139190612a1f565b600060405180830381855afa9150503d8060008114611c4e576040519150601f19603f3d011682016040523d82523d6000602084013e611c53565b606091505b5091509150818015611c66575080516020145b611c71576012611c85565b80806020019051810190611c859190612779565b949350505050565b808203828111156109765760405162461bcd60e51b815260040161081190612b43565b600081611cbe575081610976565b610c3a83600a84900a610c41565b6000808211611ced5760405162461bcd60e51b815260040161081190612bb2565b818381611cf657fe5b049392505050565b6000807f00000000000000000000000000000000000000000000000000000000000000009050600080846001600160a01b0316630902f1ac6040518163ffffffff1660e01b815260040160606040518083038186803b158015611d6057600080fd5b505afa158015611d74573d6000803e3d6000fd5b505050506040513d601f19601f82011682018060405250810190611d98919061270d565b506001600160701b031691506001600160701b031691506000856001600160a01b0316630dfe16816040518163ffffffff1660e01b815260040160206040518083038186803b158015611dea57600080fd5b505afa158015611dfe573d6000803e3d6000fd5b505050506040513d601f19601f82011682018060405250810190611e2291906123d2565b90506000866001600160a01b031663d21220a76040518163ffffffff1660e01b815260040160206040518083038186803b158015611e5f57600080fd5b505afa158015611e73573d6000803e3d6000fd5b505050506040513d601f19601f82011682018060405250810190611e9791906123d2565b90506000611ead836001600160a01b0316611bcc565b60ff1690506000611ec6836001600160a01b0316611bcc565b60ff169050611eda86611455601285611c8d565b9550611eeb85611455601284611c8d565b9450600080886001600160a01b0316866001600160a01b03161415611f2757670de0b6b3a76400009150611f208b60016112d9565b9050611fc6565b886001600160a01b0316856001600160a01b03161415611f5e57611f4c8b60006112d9565b9150670de0b6b3a76400009050611fc6565b611f6786610a86565b9150611f7285610a86565b905081611fa957670de0b6b3a7640000611f9160026102b38a85610c41565b81611f9857fe5b049950505050505050505050610966565b80611fc657670de0b6b3a7640000611f9160026102b38b86610c41565b670de0b6b3a7640000611fe6611fdc8984610c41565b610a738b86610c41565b81611fed57fe5b049b9a5050505050505050505050565b60408051600481526024810182526020810180516001600160e01b03166395d89b4160e01b179052905160609160009183916001600160a01b038616916120449190612a1f565b600060405180830381855afa9150503d806000811461207f576040519150601f19603f3d011682016040523d82523d6000602084013e612084565b606091505b5091509150818015612097575060008151115b6120bc57604051806040016040528060038152602001623f3f3f60e81b815250611c85565b80806020019051810190611c85919061254e565b60405180610160016040528060008152602001600081526020016000815260200160008152602001600081526020016000815260200160008152602001600081526020016060815260200160608152602001606081525090565b604051806101a00160405280600081526020016000815260200160006001600160a01b0316815260200160006001600160a01b0316815260200160006001600160a01b031681526020016060815260200160608152602001600081526020016000815260200160006001600160a01b031681526020016000815260200160008152602001600081525090565b604051806080016040528060006001600160a01b031681526020016000815260200160008152602001600081525090565b604051806060016040528060006001600160a01b0316815260200160008152602001600081525090565b604051806102000160405280600081526020016000815260200160006001600160a01b0316815260200160006001600160a01b0316815260200160006001600160a01b031681526020016060815260200160608152602001600081526020016000815260200160006001600160a01b031681526020016000815260200160008152602001600081526020016000815260200160008152602001600081525090565b6040805161012081018252600080825260208201819052918101829052606081018290526080810182905260a0810182905260c0810182905260e0810182905261010081019190915290565b60405180606001604052806000815260200160008152602001600081525090565b805161097681612d45565b60008083601f84011261233b578182fd5b50813567ffffffffffffffff811115612352578182fd5b602083019150836020808302850101111561236c57600080fd5b9250929050565b805163ffffffff8116811461097657600080fd5b805167ffffffffffffffff8116811461097657600080fd5b80516001600160601b038116811461097657600080fd5b6000602082840312156123c7578081fd5b8135610c3a81612d45565b6000602082840312156123e3578081fd5b8151610c3a81612d45565b60008060008060008060006080888a031215612408578283fd5b873567ffffffffffffffff8082111561241f578485fd5b61242b8b838c0161232a565b909950975060208a0135915080821115612443578485fd5b61244f8b838c0161232a565b909750955060408a0135915080821115612467578485fd5b506124748a828b0161232a565b909450925050606088013561248881612d45565b8091505092959891949750929550565b600080600080606085870312156124ad578384fd5b84356124b881612d45565b935060208501356124c881612d45565b9250604085013567ffffffffffffffff8111156124e3578283fd5b6124ef8782880161232a565b95989497509550505050565b60008060006040848603121561250f578283fd5b833561251a81612d45565b9250602084013567ffffffffffffffff811115612535578283fd5b6125418682870161232a565b9497909650939450505050565b60006020828403121561255f578081fd5b815167ffffffffffffffff80821115612576578283fd5b818401915084601f830112612589578283fd5b815181811115612597578384fd5b6125aa601f8201601f1916602001612cee565b91508082528560208285010111156125c0578384fd5b6125d1816020840160208601612d15565b50949350505050565b6000608082840312156125eb578081fd5b6125f56080612cee565b825161260081612d45565b808252506020830151602082015260408301516040820152606083015160608201528091505092915050565b600061012080838503121561263f578182fd5b61264881612cee565b9050612654848461231f565b8152612663846020850161239f565b602082015260408301516040820152606083015160608201526126898460808501612387565b608082015261269b8460a0850161231f565b60a08201526126ad8460c08501612373565b60c082015260e08381015190820152610100928301519281019290925250919050565b6000606082840312156126e1578081fd5b6126eb6060612cee565b8251815260208301516020820152604083015160408201528091505092915050565b600080600060608486031215612721578081fd5b835161272c81612d5d565b602085015190935061273d81612d5d565b604085015190925063ffffffff81168114612756578182fd5b809150509250925092565b600060208284031215612772578081fd5b5051919050565b60006020828403121561278a578081fd5b815160ff81168114610c3a578182fd5b6000610200825184526020830151602085015260408301516127bf604086018261288f565b5060608301516127d2606086018261288f565b5060808301516127e5608086018261288f565b5060a08301518160a08601526127fd828601826129f3565b91505060c083015184820360c086015261281782826129f3565b91505060e083015160e0850152610100808401518186015250610120808401516128438287018261288f565b50506101408381015190850152610160808401519085015261018080840151908501526101a080840151908501526101c080840151908501526101e09283015192909301919091525090565b6001600160a01b03169052565b6000815180845260208085019450848183028601828601855b858110156128df5783830389526128cd83835161279a565b988501989250908401906001016128b5565b5090979650505050505050565b6000815180845260208085019450848183028601828601855b858110156128df57838303895281516101a08151855286820151878601526040808301516129358288018261288f565b50506060808301516129498288018261288f565b505060808083015161295d8288018261288f565b505060a0808301518282880152612976838801826129f3565b9250505060c0808301518683038288015261299183826129f3565b9250505060e0808301518187015250610100808301518187015250610120808301516129bf8288018261288f565b5050610140828101519086015261016080830151908601526101809182015191909401529784019790840190600101612905565b60008151808452612a0b816020860160208601612d15565b601f01601f19169290920160200192915050565b60008251612a31818460208701612d15565b9190910192915050565b6001600160a01b0391909116815260200190565b6001600160a01b0392831681529116602082015260400190565b6000602080830181845280855180835260408601915060408482028701019250838701855b82811015612abc57603f19888603018452612aaa85835161279a565b94509285019290850190600101612a8e565b5092979650505050505050565b600060208252610c3a60208301846128ec565b602080825260169082015275536166654d6174683a20416464204f766572666c6f7760501b604082015260600190565b60208082526019908201527f4661726d4c656e7356323a204f6e6c7920666f7220424d434a00000000000000604082015260600190565b602080825260139082015272536166654d6174683a20556e646572666c6f7760681b604082015260600190565b60208082526022908201527f4661726d4c656e7356323a206f6e6c7920666f72204d43563220616e64204d43604082015261563360f01b606082015260800190565b602080825260159082015274536166654d6174683a20446976206279205a65726f60581b604082015260600190565b602080825260169082015275536166654d6174683a204d756c204f766572666c6f7760501b604082015260600190565b60006020825282516020830152602083015160408301526040830151606083015260608301516080830152608083015160a083015260a083015160c083015260c083015160e083015260e08301516101008181850152808501519150506101606101208181860152612c876101808601846128ec565b9250808601519050601f19610140818786030181880152612ca885846128ec565b908801518782039092018488015293509050612cc4838261289c565b9695505050505050565b90815260200190565b9182526001600160a01b0316602082015260400190565b60405181810167ffffffffffffffff81118282101715612d0d57600080fd5b604052919050565b60005b83811015612d30578181015183820152602001612d18565b83811115612d3f576000848401525b50505050565b6001600160a01b0381168114612d5a57600080fd5b50565b6001600160701b0381168114612d5a57600080fdfea2646970667358221220f387f5329b4c4951fa3d92bde03716f59c8145f65df5244aed28f122841425f764736f6c634300060c0033",
  "devdoc": {
    "kind": "dev",
    "methods": {
      "getAllFarmData(uint256[],uint256[],uint256[],address)": {
        "params": {
          "user": "The address of the user, if address(0), returns global info",
          "whitelistedPidsBMCJ": "Array of all ids of pools that are whitelisted in BMCJ",
          "whitelistedPidsV2": "Array of all ids of pools that are whitelisted in chefV2",
          "whitelistedPidsV3": "Array of all ids of pools that are whitelisted in chefV3"
        },
        "returns": {
          "_0": "AllFarmData The information of all the whitelisted farms of MCV2, MCV3 and BMCJ"
        }
      },
      "getAvaxPrice()": {
        "returns": {
          "_0": "uint256 the avax price, scaled to 18 decimals"
        }
      },
      "getBMCJFarmInfos(address,address,uint256[])": {
        "params": {
          "chef": "The address of the MasterChef",
          "user": "The address of the user, if address(0), returns global info",
          "whitelistedPids": "Array of all ids of pools that are whitelisted and valid to have their farm data returned"
        },
        "returns": {
          "_0": "FarmInfoBMCJ The information of all the whitelisted farms of BMCJ"
        }
      },
      "getDerivedAvaxPriceOfToken(address)": {
        "params": {
          "token": "The address of the token"
        },
        "returns": {
          "_0": "uint256 the token derived price, scaled to 18 decimals"
        }
      },
      "getMCFarmInfos(address,uint256[])": {
        "params": {
          "chef": "The address of the MasterChef",
          "whitelistedPids": "Array of all ids of pools that are whitelisted and valid to have their farm data returned"
        },
        "returns": {
          "_0": "FarmInfo The information of all the whitelisted farms of MCV2 or MCV3"
        }
      },
      "getTokenPrice(address)": {
        "params": {
          "token": "The address of the token"
        },
        "returns": {
          "_0": "uint256 the Usd price of token, scaled to 18 decimals"
        }
      }
    },
    "stateVariables": {
      "SEC_PER_YEAR": {
        "details": "365 * 86400, hard coding it for gas optimisation"
      }
    },
    "version": 1
  },
  "userdoc": {
    "kind": "user",
    "methods": {
      "getAllFarmData(uint256[],uint256[],uint256[],address)": {
        "notice": "Get all data needed for useFarms hook."
      },
      "getAvaxPrice()": {
        "notice": "Returns the price of avax in Usd"
      },
      "getBMCJFarmInfos(address,address,uint256[])": {
        "notice": "Returns the farm pairs data for BoostedMasterChefJoe"
      },
      "getDerivedAvaxPriceOfToken(address)": {
        "notice": "Returns the derived price of token, it needs to be paired with wavax"
      },
      "getMCFarmInfos(address,uint256[])": {
        "notice": "Returns the farm pairs data for MCV2 and MCV3"
      },
      "getTokenPrice(address)": {
        "notice": "Returns the Usd price of token, it needs to be paired with wavax"
      }
    },
    "version": 1
  },
  "storageLayout": {
    "storage": [],
    "types": null
  }
}