{
  "address": "0x195759C3F9FB62D740DD432E7A982c5Dee1298A5",
  "abi": [
    {
      "inputs": [
        {
          "internalType": "contract IJoeRouter01",
          "name": "_oldRouter",
          "type": "address"
        },
        {
          "internalType": "contract IJoeRouter01",
          "name": "_router",
          "type": "address"
        }
      ],
      "stateMutability": "nonpayable",
      "type": "constructor"
    },
    {
      "inputs": [
        {
          "internalType": "address",
          "name": "tokenA",
          "type": "address"
        },
        {
          "internalType": "address",
          "name": "tokenB",
          "type": "address"
        },
        {
          "internalType": "uint256",
          "name": "liquidity",
          "type": "uint256"
        },
        {
          "internalType": "uint256",
          "name": "amountAMin",
          "type": "uint256"
        },
        {
          "internalType": "uint256",
          "name": "amountBMin",
          "type": "uint256"
        },
        {
          "internalType": "uint256",
          "name": "deadline",
          "type": "uint256"
        }
      ],
      "name": "migrate",
      "outputs": [],
      "stateMutability": "nonpayable",
      "type": "function"
    },
    {
      "inputs": [
        {
          "internalType": "address",
          "name": "tokenA",
          "type": "address"
        },
        {
          "internalType": "address",
          "name": "tokenB",
          "type": "address"
        },
        {
          "internalType": "uint256",
          "name": "liquidity",
          "type": "uint256"
        },
        {
          "internalType": "uint256",
          "name": "amountAMin",
          "type": "uint256"
        },
        {
          "internalType": "uint256",
          "name": "amountBMin",
          "type": "uint256"
        },
        {
          "internalType": "uint256",
          "name": "deadline",
          "type": "uint256"
        },
        {
          "internalType": "uint8",
          "name": "v",
          "type": "uint8"
        },
        {
          "internalType": "bytes32",
          "name": "r",
          "type": "bytes32"
        },
        {
          "internalType": "bytes32",
          "name": "s",
          "type": "bytes32"
        }
      ],
      "name": "migrateWithPermit",
      "outputs": [],
      "stateMutability": "nonpayable",
      "type": "function"
    },
    {
      "inputs": [],
      "name": "oldRouter",
      "outputs": [
        {
          "internalType": "contract IJoeRouter01",
          "name": "",
          "type": "address"
        }
      ],
      "stateMutability": "view",
      "type": "function"
    },
    {
      "inputs": [],
      "name": "router",
      "outputs": [
        {
          "internalType": "contract IJoeRouter01",
          "name": "",
          "type": "address"
        }
      ],
      "stateMutability": "view",
      "type": "function"
    }
  ],
  "transactionHash": "0xf476d3c0fb97540f6ea2ea1e5da2eb07d76777d4b934b1504441f1dc95661c52",
  "args": [
    "0x7a250d5630B4cF539739dF2C5dAcb4c659F2488D",
    "0x62387711313CC10F433B32E010A05Bf768c2F037"
  ],
  "solcInputHash": "ff56eb94fffc35026e337f324696851d",
  "bytecode": "0x608060405234801561001057600080fd5b5060405161112d38038061112d8339818101604052604081101561003357600080fd5b508051602090910151600080546001600160a01b039384166001600160a01b031991821617909155600180549390921692169190911790556110b38061007a6000396000f3fe608060405234801561001057600080fd5b506004361061004c5760003560e01c8063396ac32814610051578063964c1f98146100b2578063aac55b39146100d6578063f887ea401461011e575b600080fd5b6100b0600480360361012081101561006857600080fd5b506001600160a01b03813581169160208101359091169060408101359060608101359060808101359060a08101359060ff60c0820135169060e0810135906101000135610126565b005b6100ba6101da565b604080516001600160a01b039092168252519081900360200190f35b6100b0600480360360c08110156100ec57600080fd5b506001600160a01b03813581169160208101359091169060408101359060608101359060808101359060a001356101e9565b6100ba610295565b60006101328a8a6102a4565b6040805163d505accf60e01b8152336004820152306024820152604481018b90526064810188905260ff8716608482015260a4810186905260c4810185905290519192506001600160a01b0383169163d505accf9160e48082019260009290919082900301818387803b1580156101a857600080fd5b505af11580156101bc573d6000803e3d6000fd5b505050506101ce8a8a8a8a8a8a6101e9565b50505050505050505050565b6000546001600160a01b031681565b42811015610231576040805162461bcd60e51b815260206004820152601060248201526f129bd954ddd85c0e881156141254915160821b604482015290519081900360640190fd5b6000806102428888888888886103da565b915091506000806102558a8a86866105e2565b9150915081841115610277576102776001600160a01b038b1633848703610720565b808311156101ce576101ce6001600160a01b038a1633838603610720565b6001546001600160a01b031681565b60008060006102b38585610777565b9150915060008054906101000a90046001600160a01b03166001600160a01b031663c45a01556040518163ffffffff1660e01b815260040160206040518083038186803b15801561030357600080fd5b505afa158015610317573d6000803e3d6000fd5b505050506040513d602081101561032d57600080fd5b5051604080516bffffffffffffffffffffffff19606095861b811660208381019190915294861b81166034830152825160288184030181526048830184528051908601206001600160f81b031960688401529390951b9094166069850152607d8401919091527f96e8ac4277198ff8b6f785478aa9a39f403cb768dd02cbee326c3e7da348845f609d808501919091528151808503909101815260bd909301905281519101209392505050565b60008060006103e989896102a4565b604080516323b872dd60e01b81523360048201526001600160a01b03831660248201819052604482018b9052915192935090916323b872dd916064808201926020929091908290030181600087803b15801561044457600080fd5b505af1158015610458573d6000803e3d6000fd5b505050506040513d602081101561046e57600080fd5b50506040805163226bf2d160e21b8152306004820152815160009283926001600160a01b038616926389afcb449260248084019391929182900301818787803b1580156104ba57600080fd5b505af11580156104ce573d6000803e3d6000fd5b505050506040513d60408110156104e457600080fd5b508051602090910151909250905060006104fe8c8c610777565b509050806001600160a01b03168c6001600160a01b031614610521578183610524565b82825b90965094508886101561057e576040805162461bcd60e51b815260206004820152601e60248201527f4a6f65526f6c6c3a20494e53554646494349454e545f415f414d4f554e540000604482015290519081900360640190fd5b878510156105d3576040805162461bcd60e51b815260206004820152601e60248201527f4a6f65526f6c6c3a20494e53554646494349454e545f425f414d4f554e540000604482015290519081900360640190fd5b50505050965096945050505050565b6000806105f18686868661086b565b6001546040805163c45a015560e01b81529051939550919350600092610675926001600160a01b039092169163c45a0155916004808301926020929190829003018186803b15801561064257600080fd5b505afa158015610656573d6000803e3d6000fd5b505050506040513d602081101561066c57600080fd5b50518888610a88565b905061068b6001600160a01b0388168285610720565b61069f6001600160a01b0387168284610720565b604080516335313c2160e11b815233600482015290516001600160a01b03831691636a6278429160248083019260209291908290030181600087803b1580156106e757600080fd5b505af11580156106fb573d6000803e3d6000fd5b505050506040513d602081101561071157600080fd5b50929791965090945050505050565b604080516001600160a01b038416602482015260448082018490528251808303909101815260649091019091526020810180516001600160e01b031663a9059cbb60e01b179052610772908490610b48565b505050565b600080826001600160a01b0316846001600160a01b031614156107e1576040805162461bcd60e51b815260206004820152601f60248201527f4a6f654c6962726172793a204944454e544943414c5f41444452455353455300604482015290519081900360640190fd5b826001600160a01b0316846001600160a01b031610610801578284610804565b83835b90925090506001600160a01b038216610864576040805162461bcd60e51b815260206004820152601860248201527f4a6f654c6962726172793a205a45524f5f414444524553530000000000000000604482015290519081900360640190fd5b9250929050565b6000806000600160009054906101000a90046001600160a01b03166001600160a01b031663c45a01556040518163ffffffff1660e01b815260040160206040518083038186803b1580156108be57600080fd5b505afa1580156108d2573d6000803e3d6000fd5b505050506040513d60208110156108e857600080fd5b50516040805163e6a4390560e01b81526001600160a01b038a81166004830152898116602483015291519293506000929184169163e6a4390591604480820192602092909190829003018186803b15801561094257600080fd5b505afa158015610956573d6000803e3d6000fd5b505050506040513d602081101561096c57600080fd5b50516001600160a01b03161415610a0a57806001600160a01b031663c9c6539688886040518363ffffffff1660e01b815260040180836001600160a01b03168152602001826001600160a01b0316815260200192505050602060405180830381600087803b1580156109dd57600080fd5b505af11580156109f1573d6000803e3d6000fd5b505050506040513d6020811015610a0757600080fd5b50505b600080610a18838a8a610bf9565b91509150816000148015610a2a575080155b15610a3a57869450859350610a7c565b6000610a47888484610cc7565b9050868111610a5b57879550935083610a7a565b6000610a68888486610cc7565b905088811115610a7457fe5b95508694505b505b50505094509492505050565b6000806000610a978585610777565b604080516bffffffffffffffffffffffff19606094851b811660208084019190915293851b81166034830152825160288184030181526048830184528051908501206001600160f81b031960688401529a90941b9093166069840152607d8301989098527f41e6225fa31c58579641c27f787341ba4a147ce63f7492b93f19d8303647d140609d808401919091528851808403909101815260bd909201909752805196019590952095945050505050565b6060610b9d826040518060400160405280602081526020017f5361666545524332303a206c6f772d6c6576656c2063616c6c206661696c6564815250856001600160a01b0316610d839092919063ffffffff16565b80519091501561077257808060200190516020811015610bbc57600080fd5b50516107725760405162461bcd60e51b815260040180806020018281038252602a815260200180611054602a913960400191505060405180910390fd5b6000806000610c088585610777565b509050600080610c19888888610a88565b6001600160a01b0316630902f1ac6040518163ffffffff1660e01b815260040160606040518083038186803b158015610c5157600080fd5b505afa158015610c65573d6000803e3d6000fd5b505050506040513d6060811015610c7b57600080fd5b5080516020909101516dffffffffffffffffffffffffffff91821693501690506001600160a01b0387811690841614610cb5578082610cb8565b81815b90999098509650505050505050565b6000808411610d1d576040805162461bcd60e51b815260206004820152601f60248201527f4a6f654c6962726172793a20494e53554646494349454e545f414d4f554e5400604482015290519081900360640190fd5b600083118015610d2d5750600082115b610d685760405162461bcd60e51b815260040180806020018281038252602281526020018061100c6022913960400191505060405180910390fd5b82610d738584610d9c565b81610d7a57fe5b04949350505050565b6060610d928484600085610e05565b90505b9392505050565b6000811580610db757505080820282828281610db457fe5b04145b610dff576040805162461bcd60e51b815260206004820152601460248201527364732d6d6174682d6d756c2d6f766572666c6f7760601b604482015290519081900360640190fd5b92915050565b606082471015610e465760405162461bcd60e51b815260040180806020018281038252602681526020018061102e6026913960400191505060405180910390fd5b610e4f85610f61565b610ea0576040805162461bcd60e51b815260206004820152601d60248201527f416464726573733a2063616c6c20746f206e6f6e2d636f6e7472616374000000604482015290519081900360640190fd5b60006060866001600160a01b031685876040518082805190602001908083835b60208310610edf5780518252601f199092019160209182019101610ec0565b6001836020036101000a03801982511681845116808217855250505050505090500191505060006040518083038185875af1925050503d8060008114610f41576040519150601f19603f3d011682016040523d82523d6000602084013e610f46565b606091505b5091509150610f56828286610f67565b979650505050505050565b3b151590565b60608315610f76575081610d95565b825115610f865782518084602001fd5b8160405162461bcd60e51b81526004018080602001828103825283818151815260200191508051906020019080838360005b83811015610fd0578181015183820152602001610fb8565b50505050905090810190601f168015610ffd5780820380516001836020036101000a031916815260200191505b509250505060405180910390fdfe4a6f654c6962726172793a20494e53554646494349454e545f4c4951554944495459416464726573733a20696e73756666696369656e742062616c616e636520666f722063616c6c5361666545524332303a204552433230206f7065726174696f6e20646964206e6f742073756363656564a26469706673582212208c048f8eeb5e46fa38165a61ec36f413ea884c9acf33c29b4f6b634e56f939d964736f6c634300060c0033",
  "devdoc": {
    "kind": "dev",
    "methods": {},
    "version": 1
  },
  "userdoc": {
    "kind": "user",
    "methods": {},
    "version": 1
  },
  "storageLayout": {
    "storage": [
      {
        "astId": 3571,
        "contract": "contracts/JoeRoll.sol:JoeRoll",
        "label": "oldRouter",
        "offset": 0,
        "slot": "0",
        "type": "t_contract(IJoeRouter01)12150"
      },
      {
        "astId": 3573,
        "contract": "contracts/JoeRoll.sol:JoeRoll",
        "label": "router",
        "offset": 0,
        "slot": "1",
        "type": "t_contract(IJoeRouter01)12150"
      }
    ],
    "types": {
      "t_contract(IJoeRouter01)12150": {
        "encoding": "inplace",
        "label": "contract IJoeRouter01",
        "numberOfBytes": "20"
      }
    }
  }
}