{
  "address": "0xDD91030c74b70b5A006AEc16ffF8F330476981c6",
  "abi": [
    {
      "inputs": [
        {
          "internalType": "contract JoeToken",
          "name": "_joe",
          "type": "address"
        },
        {
          "internalType": "address",
          "name": "_devaddr",
          "type": "address"
        },
        {
          "internalType": "address",
          "name": "_treasuryaddr",
          "type": "address"
        },
        {
          "internalType": "uint256",
          "name": "_joePerSec",
          "type": "uint256"
        },
        {
          "internalType": "uint256",
          "name": "_startTimestamp",
          "type": "uint256"
        },
        {
          "internalType": "uint256",
          "name": "_devPercent",
          "type": "uint256"
        },
        {
          "internalType": "uint256",
          "name": "_treasuryPercent",
          "type": "uint256"
        }
      ],
      "stateMutability": "nonpayable",
      "type": "constructor"
    },
    {
      "anonymous": false,
      "inputs": [
        {
          "indexed": true,
          "internalType": "address",
          "name": "lpToken",
          "type": "address"
        },
        {
          "indexed": false,
          "internalType": "uint256",
          "name": "allocPoint",
          "type": "uint256"
        },
        {
          "indexed": false,
          "internalType": "contract IRewarder",
          "name": "rewarder",
          "type": "address"
        }
      ],
      "name": "Add",
      "type": "event"
    },
    {
      "anonymous": false,
      "inputs": [
        {
          "indexed": true,
          "internalType": "address",
          "name": "user",
          "type": "address"
        },
        {
          "indexed": true,
          "internalType": "uint256",
          "name": "pid",
          "type": "uint256"
        },
        {
          "indexed": false,
          "internalType": "uint256",
          "name": "amount",
          "type": "uint256"
        }
      ],
      "name": "Deposit",
      "type": "event"
    },
    {
      "anonymous": false,
      "inputs": [
        {
          "indexed": true,
          "internalType": "address",
          "name": "user",
          "type": "address"
        },
        {
          "indexed": true,
          "internalType": "uint256",
          "name": "pid",
          "type": "uint256"
        },
        {
          "indexed": false,
          "internalType": "uint256",
          "name": "amount",
          "type": "uint256"
        }
      ],
      "name": "EmergencyWithdraw",
      "type": "event"
    },
    {
      "anonymous": false,
      "inputs": [
        {
          "indexed": true,
          "internalType": "address",
          "name": "previousOwner",
          "type": "address"
        },
        {
          "indexed": true,
          "internalType": "address",
          "name": "newOwner",
          "type": "address"
        }
      ],
      "name": "OwnershipTransferred",
      "type": "event"
    },
    {
      "anonymous": false,
      "inputs": [
        {
          "indexed": true,
          "internalType": "uint256",
          "name": "pid",
          "type": "uint256"
        },
        {
          "indexed": false,
          "internalType": "uint256",
          "name": "allocPoint",
          "type": "uint256"
        },
        {
          "indexed": false,
          "internalType": "contract IRewarder",
          "name": "rewarder",
          "type": "address"
        },
        {
          "indexed": false,
          "internalType": "bool",
          "name": "overwrite",
          "type": "bool"
        }
      ],
      "name": "Set",
      "type": "event"
    },
    {
      "anonymous": false,
      "inputs": [
        {
          "indexed": true,
          "internalType": "address",
          "name": "oldAddress",
          "type": "address"
        },
        {
          "indexed": true,
          "internalType": "address",
          "name": "newAddress",
          "type": "address"
        }
      ],
      "name": "SetDevAddress",
      "type": "event"
    },
    {
      "anonymous": false,
      "inputs": [
        {
          "indexed": true,
          "internalType": "address",
          "name": "user",
          "type": "address"
        },
        {
          "indexed": false,
          "internalType": "uint256",
          "name": "_joePerSec",
          "type": "uint256"
        }
      ],
      "name": "UpdateEmissionRate",
      "type": "event"
    },
    {
      "anonymous": false,
      "inputs": [
        {
          "indexed": true,
          "internalType": "address",
          "name": "user",
          "type": "address"
        },
        {
          "indexed": true,
          "internalType": "uint256",
          "name": "pid",
          "type": "uint256"
        },
        {
          "indexed": false,
          "internalType": "uint256",
          "name": "amount",
          "type": "uint256"
        }
      ],
      "name": "Withdraw",
      "type": "event"
    },
    {
      "inputs": [
        {
          "internalType": "uint256",
          "name": "_allocPoint",
          "type": "uint256"
        },
        {
          "internalType": "contract IERC20",
          "name": "_lpToken",
          "type": "address"
        },
        {
          "internalType": "contract IRewarder",
          "name": "_rewarder",
          "type": "address"
        }
      ],
      "name": "add",
      "outputs": [],
      "stateMutability": "nonpayable",
      "type": "function"
    },
    {
      "inputs": [
        {
          "internalType": "uint256",
          "name": "_pid",
          "type": "uint256"
        },
        {
          "internalType": "uint256",
          "name": "_amount",
          "type": "uint256"
        }
      ],
      "name": "deposit",
      "outputs": [],
      "stateMutability": "nonpayable",
      "type": "function"
    },
    {
      "inputs": [
        {
          "internalType": "address",
          "name": "_devaddr",
          "type": "address"
        }
      ],
      "name": "dev",
      "outputs": [],
      "stateMutability": "nonpayable",
      "type": "function"
    },
    {
      "inputs": [],
      "name": "devPercent",
      "outputs": [
        {
          "internalType": "uint256",
          "name": "",
          "type": "uint256"
        }
      ],
      "stateMutability": "view",
      "type": "function"
    },
    {
      "inputs": [],
      "name": "devaddr",
      "outputs": [
        {
          "internalType": "address",
          "name": "",
          "type": "address"
        }
      ],
      "stateMutability": "view",
      "type": "function"
    },
    {
      "inputs": [
        {
          "internalType": "uint256",
          "name": "_pid",
          "type": "uint256"
        }
      ],
      "name": "emergencyWithdraw",
      "outputs": [],
      "stateMutability": "nonpayable",
      "type": "function"
    },
    {
      "inputs": [],
      "name": "joe",
      "outputs": [
        {
          "internalType": "contract JoeToken",
          "name": "",
          "type": "address"
        }
      ],
      "stateMutability": "view",
      "type": "function"
    },
    {
      "inputs": [],
      "name": "joePerSec",
      "outputs": [
        {
          "internalType": "uint256",
          "name": "",
          "type": "uint256"
        }
      ],
      "stateMutability": "view",
      "type": "function"
    },
    {
      "inputs": [],
      "name": "massUpdatePools",
      "outputs": [],
      "stateMutability": "nonpayable",
      "type": "function"
    },
    {
      "inputs": [],
      "name": "owner",
      "outputs": [
        {
          "internalType": "address",
          "name": "",
          "type": "address"
        }
      ],
      "stateMutability": "view",
      "type": "function"
    },
    {
      "inputs": [
        {
          "internalType": "uint256",
          "name": "_pid",
          "type": "uint256"
        },
        {
          "internalType": "address",
          "name": "_user",
          "type": "address"
        }
      ],
      "name": "pendingJoe",
      "outputs": [
        {
          "internalType": "uint256",
          "name": "",
          "type": "uint256"
        }
      ],
      "stateMutability": "view",
      "type": "function"
    },
    {
      "inputs": [
        {
          "internalType": "uint256",
          "name": "",
          "type": "uint256"
        }
      ],
      "name": "poolInfo",
      "outputs": [
        {
          "internalType": "contract IERC20",
          "name": "lpToken",
          "type": "address"
        },
        {
          "internalType": "uint256",
          "name": "allocPoint",
          "type": "uint256"
        },
        {
          "internalType": "uint256",
          "name": "lastRewardTimestamp",
          "type": "uint256"
        },
        {
          "internalType": "uint256",
          "name": "accJoePerShare",
          "type": "uint256"
        },
        {
          "internalType": "contract IRewarder",
          "name": "rewarder",
          "type": "address"
        }
      ],
      "stateMutability": "view",
      "type": "function"
    },
    {
      "inputs": [],
      "name": "poolLength",
      "outputs": [
        {
          "internalType": "uint256",
          "name": "",
          "type": "uint256"
        }
      ],
      "stateMutability": "view",
      "type": "function"
    },
    {
      "inputs": [],
      "name": "renounceOwnership",
      "outputs": [],
      "stateMutability": "nonpayable",
      "type": "function"
    },
    {
      "inputs": [
        {
          "internalType": "uint256",
          "name": "_pid",
          "type": "uint256"
        },
        {
          "internalType": "uint256",
          "name": "_allocPoint",
          "type": "uint256"
        },
        {
          "internalType": "contract IRewarder",
          "name": "_rewarder",
          "type": "address"
        },
        {
          "internalType": "bool",
          "name": "overwrite",
          "type": "bool"
        }
      ],
      "name": "set",
      "outputs": [],
      "stateMutability": "nonpayable",
      "type": "function"
    },
    {
      "inputs": [
        {
          "internalType": "uint256",
          "name": "_newDevPercent",
          "type": "uint256"
        }
      ],
      "name": "setDevPercent",
      "outputs": [],
      "stateMutability": "nonpayable",
      "type": "function"
    },
    {
      "inputs": [
        {
          "internalType": "uint256",
          "name": "_newTreasuryPercent",
          "type": "uint256"
        }
      ],
      "name": "setTreasuryPercent",
      "outputs": [],
      "stateMutability": "nonpayable",
      "type": "function"
    },
    {
      "inputs": [],
      "name": "startTimestamp",
      "outputs": [
        {
          "internalType": "uint256",
          "name": "",
          "type": "uint256"
        }
      ],
      "stateMutability": "view",
      "type": "function"
    },
    {
      "inputs": [],
      "name": "totalAllocPoint",
      "outputs": [
        {
          "internalType": "uint256",
          "name": "",
          "type": "uint256"
        }
      ],
      "stateMutability": "view",
      "type": "function"
    },
    {
      "inputs": [
        {
          "internalType": "address",
          "name": "newOwner",
          "type": "address"
        }
      ],
      "name": "transferOwnership",
      "outputs": [],
      "stateMutability": "nonpayable",
      "type": "function"
    },
    {
      "inputs": [],
      "name": "treasuryPercent",
      "outputs": [
        {
          "internalType": "uint256",
          "name": "",
          "type": "uint256"
        }
      ],
      "stateMutability": "view",
      "type": "function"
    },
    {
      "inputs": [],
      "name": "treasuryaddr",
      "outputs": [
        {
          "internalType": "address",
          "name": "",
          "type": "address"
        }
      ],
      "stateMutability": "view",
      "type": "function"
    },
    {
      "inputs": [
        {
          "internalType": "uint256",
          "name": "_joePerSec",
          "type": "uint256"
        }
      ],
      "name": "updateEmissionRate",
      "outputs": [],
      "stateMutability": "nonpayable",
      "type": "function"
    },
    {
      "inputs": [
        {
          "internalType": "uint256",
          "name": "_pid",
          "type": "uint256"
        }
      ],
      "name": "updatePool",
      "outputs": [],
      "stateMutability": "nonpayable",
      "type": "function"
    },
    {
      "inputs": [
        {
          "internalType": "uint256",
          "name": "",
          "type": "uint256"
        },
        {
          "internalType": "address",
          "name": "",
          "type": "address"
        }
      ],
      "name": "userInfo",
      "outputs": [
        {
          "internalType": "uint256",
          "name": "amount",
          "type": "uint256"
        },
        {
          "internalType": "uint256",
          "name": "rewardDebt",
          "type": "uint256"
        }
      ],
      "stateMutability": "view",
      "type": "function"
    },
    {
      "inputs": [
        {
          "internalType": "uint256",
          "name": "_pid",
          "type": "uint256"
        },
        {
          "internalType": "uint256",
          "name": "_amount",
          "type": "uint256"
        }
      ],
      "name": "withdraw",
      "outputs": [],
      "stateMutability": "nonpayable",
      "type": "function"
    }
  ],
  "transactionHash": "0x9f59ddf771cb50a9b9510140c721f321afd1079d2dabb5fbc833e42c1aac6035",
  "args": [
    "0x9C153e528a88FCE093ece81f65bb1728998e3d65",
    "0x125c2EE2d4765891EAeAdDA8e4F06473282E3060",
    "0xD2A71475eca084C14a3f08Fa12C98362972e889C",
    "100000000000000000000",
    "1619065864",
    "200",
    "200"
  ],
  "solcInputHash": "5f093bd49e2d279d67efd2cf168c4406",
  "bytecode": "0x60806040523480156200001157600080fd5b506040516200237e3803806200237e833981016040819052620000349162000163565b6000620000406200015f565b600080546001600160a01b0319166001600160a01b0383169081178255604051929350917f8be0079c531659141344cd1fd0a4f28419497f9722a3daafe3b4186f6b6457e0908290a3506103e8821115620000b85760405162461bcd60e51b8152600401620000af9062000228565b60405180910390fd5b6103e8811115620000dd5760405162461bcd60e51b8152600401620000af90620001dd565b6103e88183011115620001045760405162461bcd60e51b8152600401620000af906200026e565b600180546001600160a01b03199081166001600160a01b03998a161790915560028054821697891697909717909655600380549096169490961693909317909355600455600c919091556005556006556000600b55620002ca565b3390565b600080600080600080600060e0888a0312156200017e578283fd5b87516200018b81620002b1565b60208901519097506200019e81620002b1565b6040890151909650620001b181620002b1565b80955050606088015193506080880151925060a0880151915060c0880151905092959891949750929550565b6020808252602b908201527f636f6e7374727563746f723a20696e76616c696420747265617375727920706560408201526a7263656e742076616c756560a81b606082015260800190565b60208082526026908201527f636f6e7374727563746f723a20696e76616c6964206465762070657263656e746040820152652076616c756560d01b606082015260800190565b60208082526023908201527f636f6e7374727563746f723a20746f74616c2070657263656e74206f766572206040820152620dac2f60eb1b606082015260800190565b6001600160a01b0381168114620002c757600080fd5b50565b6120a480620002da6000396000f3fe608060405234801561001057600080fd5b506004361061018e5760003560e01c806388bba42f116100de578063b985a3a011610097578063e2bbb15811610071578063e2bbb1581461030b578063e6fd48bc1461031e578063f2fde38b14610326578063fc3c28af146103395761018e565b8063b985a3a0146102f3578063ca418d23146102fb578063d49e77cd146103035761018e565b806388bba42f1461027e57806389a2bc25146102915780638d88a90e146102a45780638da5cb5b146102b757806393f1a40b146102bf578063ab7de098146102e05761018e565b8063441a3e701161014b578063630b5ba111610125578063630b5ba1146102465780636e99b75e1461024e5780636eaddad214610263578063715018a6146102765761018e565b8063441a3e701461020d57806351eb05a6146102205780635312ea8e146102335761018e565b806304ef9d5814610193578063081e3eda146101b15780630ba84cd2146101b95780631526fe27146101ce57806317caf6f1146101f25780633ccb2149146101fa575b600080fd5b61019b610341565b6040516101a89190611fd0565b60405180910390f35b61019b610347565b6101cc6101c7366004611962565b61034d565b005b6101e16101dc366004611962565b6103df565b6040516101a8959493929190611ad9565b61019b61042a565b61019b610208366004611992565b610430565b6101cc61021b366004611a02565b6105d1565b6101cc61022e366004611962565b610792565b6101cc610241366004611962565b610a63565b6101cc610b02565b610256610b25565b6040516101a89190611a88565b6101cc610271366004611962565b610b34565b6101cc610bc0565b6101cc61028c366004611a23565b610c49565b6101cc61029f366004611962565b610dee565b6101cc6102b236600461192a565b610e7a565b610256610ef0565b6102d26102cd366004611992565b610eff565b6040516101a8929190612011565b6101cc6102ee3660046119c1565b610f23565b610256611184565b61019b611193565b610256611199565b6101cc610319366004611a02565b6111a8565b61019b611351565b6101cc61033436600461192a565b611357565b61019b611417565b60065481565b60075490565b61035561141d565b6001600160a01b0316610366610ef0565b6001600160a01b0316146103955760405162461bcd60e51b815260040161038c90611d93565b60405180910390fd5b61039d610b02565b600481905560405133907fe2492e003bbe8afa53088b406f0c1cb5d9e280370fc72a74cf116ffd343c4053906103d4908490611fd0565b60405180910390a250565b600781815481106103ec57fe5b6000918252602090912060059091020180546001820154600283015460038401546004909401546001600160a01b0393841695509193909290911685565b600b5481565b6000806007848154811061044057fe5b60009182526020808320878452600a825260408085206001600160a01b03808a16875293528085206003600590950290920193840154845491516370a0823160e01b815294965091949193919216906370a08231906104a3903090600401611a88565b60206040518083038186803b1580156104bb57600080fd5b505afa1580156104cf573d6000803e3d6000fd5b505050506040513d601f19601f820116820180604052508101906104f3919061197a565b905083600201544211801561050757508015155b1561059657600061052585600201544261142190919063ffffffff16565b905060006006546005546103e80303905060006105716103e861056b84610565600b5461056b8d600101546105656004548c61144990919063ffffffff16565b90611449565b9061148a565b90506105906105898561056b8464e8d4a51000611449565b86906114bc565b94505050505b6105c483600101546105be64e8d4a5100061056b86886000015461144990919063ffffffff16565b90611421565b9450505050505b92915050565b6000600783815481106105e057fe5b60009182526020808320868452600a8252604080852033865290925292208054600590920290920192508311156106295760405162461bcd60e51b815260040161038c90611e8a565b61063284610792565b600061066082600101546105be64e8d4a5100061056b8760030154876000015461144990919063ffffffff16565b905061066c33826114e1565b81546106789085611421565b80835560038401546106959164e8d4a510009161056b9190611449565b82600101819055506000600786815481106106ac57fe5b60009182526020909120600460059092020101546001600160a01b0316905080156107325782546040516301a7af8b60e41b81526001600160a01b03831691631a7af8b0916106ff913391600401611a9c565b600060405180830381600087803b15801561071957600080fd5b505af115801561072d573d6000803e3d6000fd5b505050505b8354610748906001600160a01b03163387611681565b85336001600160a01b03167ff279e6a1f5e320cca91135676d9cb6e44ca8a08c0b88342bcdb1144f6511b568876040516107829190611fd0565b60405180910390a3505050505050565b6000600782815481106107a157fe5b90600052602060002090600502019050806002015442116107c25750610a60565b80546040516370a0823160e01b81526000916001600160a01b0316906370a08231906107f2903090600401611a88565b60206040518083038186803b15801561080a57600080fd5b505afa15801561081e573d6000803e3d6000fd5b505050506040513d601f19601f82011682018060405250810190610842919061197a565b905080610856575042600290910155610a60565b600061086f83600201544261142190919063ffffffff16565b90506000610896600b5461056b86600101546105656004548761144990919063ffffffff16565b6006546005546001546002549394506103e882810393909303936001600160a01b03918216936340c10f199391909216916108d69161056b908890611449565b6040518363ffffffff1660e01b81526004016108f3929190611a9c565b600060405180830381600087803b15801561090d57600080fd5b505af1158015610921573d6000803e3d6000fd5b50506001546003546006546001600160a01b0392831694506340c10f199350911690610956906103e89061056b908890611449565b6040518363ffffffff1660e01b8152600401610973929190611a9c565b600060405180830381600087803b15801561098d57600080fd5b505af11580156109a1573d6000803e3d6000fd5b50506001546001600160a01b031691506340c10f199050306109c96103e861056b8787611449565b6040518363ffffffff1660e01b81526004016109e6929190611a9c565b600060405180830381600087803b158015610a0057600080fd5b505af1158015610a14573d6000803e3d6000fd5b50505050610a4c610a416103e861056b846105658961056b64e8d4a510008a61144990919063ffffffff16565b6003870154906114bc565b600386015550504260029093019290925550505b50565b600060078281548110610a7257fe5b60009182526020808320858452600a82526040808520338087529352909320805460059093029093018054909450610ab7926001600160a01b03919091169190611681565b8054604051849133917fbb757047c2b5f3974fe26b7c10f732e7bce710b0952a71082702781e62ae059591610aeb91611fd0565b60405180910390a360008082556001909101555050565b60075460005b81811015610b2157610b1981610792565b600101610b08565b5050565b6003546001600160a01b031681565b610b3c61141d565b6001600160a01b0316610b4d610ef0565b6001600160a01b031614610b735760405162461bcd60e51b815260040161038c90611d93565b6103e8811115610b955760405162461bcd60e51b815260040161038c90611f8c565b6103e881600654011115610bbb5760405162461bcd60e51b815260040161038c90611dc8565b600555565b610bc861141d565b6001600160a01b0316610bd9610ef0565b6001600160a01b031614610bff5760405162461bcd60e51b815260040161038c90611d93565b600080546040516001600160a01b03909116907f8be0079c531659141344cd1fd0a4f28419497f9722a3daafe3b4186f6b6457e0908390a3600080546001600160a01b0319169055565b610c5161141d565b6001600160a01b0316610c62610ef0565b6001600160a01b031614610c885760405162461bcd60e51b815260040161038c90611d93565b610c91826116d7565b80610ca357506001600160a01b038216155b610cbf5760405162461bcd60e51b815260040161038c90611eb6565b610cc7610b02565b610d0483610cfe60078781548110610cdb57fe5b906000526020600020906005020160010154600b5461142190919063ffffffff16565b906114bc565b600b819055508260078581548110610d1857fe5b9060005260206000209060050201600101819055508015610d77578160078581548110610d4157fe5b906000526020600020906005020160040160006101000a8154816001600160a01b0302191690836001600160a01b031602179055505b837fa54644aae5c48c5971516f334e4fe8ecbc7930e23f34877d4203c6551e67ffaa8483610dce5760078781548110610dac57fe5b60009182526020909120600460059092020101546001600160a01b0316610dd0565b845b84604051610de093929190611ff0565b60405180910390a250505050565b610df661141d565b6001600160a01b0316610e07610ef0565b6001600160a01b031614610e2d5760405162461bcd60e51b815260040161038c90611d93565b6103e8811115610e4f5760405162461bcd60e51b815260040161038c90611c03565b6103e881600554011115610e755760405162461bcd60e51b815260040161038c90611b3c565b600655565b6002546001600160a01b03163314610ea45760405162461bcd60e51b815260040161038c90611d00565b600280546001600160a01b0319166001600160a01b03831690811790915560405133907f618c54559e94f1499a808aad71ee8729f8e74e8c48e979616328ce493a1a52e790600090a350565b6000546001600160a01b031690565b600a6020908152600092835260408084209091529082529020805460019091015482565b610f2b61141d565b6001600160a01b0316610f3c610ef0565b6001600160a01b031614610f625760405162461bcd60e51b815260040161038c90611d93565b610f6b826116d7565b610f875760405162461bcd60e51b815260040161038c90611e0d565b610f90816116d7565b80610fa257506001600160a01b038116155b610fbe5760405162461bcd60e51b815260040161038c90611efc565b610fc96008836116dd565b15610fe65760405162461bcd60e51b815260040161038c90611d64565b610fee610b02565b6000600c54421161100157600c54611003565b425b600b5490915061101390856114bc565b600b556040805160a0810182526001600160a01b038581168252602082018781529282018481526000606084018181528784166080860190815260078054600181018255935294517fa66cc928b5edb82af9bd49922954155ab7b0942694bea4ce44661d9a8736c688600590930292830180546001600160a01b031990811692871692909217905595517fa66cc928b5edb82af9bd49922954155ab7b0942694bea4ce44661d9a8736c68983015591517fa66cc928b5edb82af9bd49922954155ab7b0942694bea4ce44661d9a8736c68a82015590517fa66cc928b5edb82af9bd49922954155ab7b0942694bea4ce44661d9a8736c68b82015591517fa66cc928b5edb82af9bd49922954155ab7b0942694bea4ce44661d9a8736c68c909201805490931691161790556111486008846116f2565b50826001600160a01b03167f2e8ef56c340f4d8170b716322ecc62c0d1031eabccc4bd071abd186b9dd9ddcd8584604051610de0929190611fd9565b6001546001600160a01b031681565b60045481565b6002546001600160a01b031681565b6000600783815481106111b757fe5b60009182526020808320868452600a825260408085203386529092529220600590910290910191506111e884610792565b80541561122b57600061121d82600101546105be64e8d4a5100061056b8760030154876000015461144990919063ffffffff16565b905061122933826114e1565b505b805461123790846114bc565b80825560038301546112549164e8d4a510009161056b9190611449565b816001018190555060006007858154811061126b57fe5b60009182526020909120600460059092020101546001600160a01b0316905080156112f15781546040516301a7af8b60e41b81526001600160a01b03831691631a7af8b0916112be913391600401611a9c565b600060405180830381600087803b1580156112d857600080fd5b505af11580156112ec573d6000803e3d6000fd5b505050505b8254611308906001600160a01b0316333087611707565b84336001600160a01b03167f90890809c654f11d6e72a28fa60149770a0d11ec6c92319d6ceb2bb0a4ea1a15866040516113429190611fd0565b60405180910390a35050505050565b600c5481565b61135f61141d565b6001600160a01b0316611370610ef0565b6001600160a01b0316146113965760405162461bcd60e51b815260040161038c90611d93565b6001600160a01b0381166113bc5760405162461bcd60e51b815260040161038c90611b86565b600080546040516001600160a01b03808516939216917f8be0079c531659141344cd1fd0a4f28419497f9722a3daafe3b4186f6b6457e091a3600080546001600160a01b0319166001600160a01b0392909216919091179055565b60055481565b3390565b6000828211156114435760405162461bcd60e51b815260040161038c90611c4c565b50900390565b600082611458575060006105cb565b8282028284828161146557fe5b04146114835760405162461bcd60e51b815260040161038c90611d23565b9392505050565b60008082116114ab5760405162461bcd60e51b815260040161038c90611cc9565b8183816114b457fe5b049392505050565b6000828201838110156114835760405162461bcd60e51b815260040161038c90611bcc565b6001546040516370a0823160e01b81526000916001600160a01b0316906370a0823190611512903090600401611a88565b60206040518083038186803b15801561152a57600080fd5b505afa15801561153e573d6000803e3d6000fd5b505050506040513d601f19601f82011682018060405250810190611562919061197a565b9050808211156115f65760015460405163a9059cbb60e01b81526001600160a01b039091169063a9059cbb9061159e9086908590600401611a9c565b602060405180830381600087803b1580156115b857600080fd5b505af11580156115cc573d6000803e3d6000fd5b505050506040513d601f19601f820116820180604052508101906115f09190611946565b5061167c565b60015460405163a9059cbb60e01b81526001600160a01b039091169063a9059cbb906116289086908690600401611a9c565b602060405180830381600087803b15801561164257600080fd5b505af1158015611656573d6000803e3d6000fd5b505050506040513d601f19601f8201168201806040525081019061167a9190611946565b505b505050565b61167c8363a9059cbb60e01b84846040516024016116a0929190611a9c565b60408051601f198184030181529190526020810180516001600160e01b03166001600160e01b031990931692909217909152611728565b3b151590565b6000611483836001600160a01b0384166117b7565b6000611483836001600160a01b0384166117cf565b61167a846323b872dd60e01b8585856040516024016116a093929190611ab5565b606061177d826040518060400160405280602081526020017f5361666545524332303a206c6f772d6c6576656c2063616c6c206661696c6564815250856001600160a01b03166118199092919063ffffffff16565b80519091501561167c578080602001905181019061179b9190611946565b61167c5760405162461bcd60e51b815260040161038c90611f42565b60009081526001919091016020526040902054151590565b60006117db83836117b7565b611811575081546001818101845560008481526020808220909301849055845484825282860190935260409020919091556105cb565b5060006105cb565b60606118288484600085611830565b949350505050565b6060824710156118525760405162461bcd60e51b815260040161038c90611c83565b61185b856116d7565b6118775760405162461bcd60e51b815260040161038c90611e53565b60006060866001600160a01b031685876040516118949190611a6c565b60006040518083038185875af1925050503d80600081146118d1576040519150601f19603f3d011682016040523d82523d6000602084013e6118d6565b606091505b50915091506118e68282866118f1565b979650505050505050565b60608315611900575081611483565b8251156119105782518084602001fd5b8160405162461bcd60e51b815260040161038c9190611b09565b60006020828403121561193b578081fd5b81356114838161204b565b600060208284031215611957578081fd5b815161148381612060565b600060208284031215611973578081fd5b5035919050565b60006020828403121561198b578081fd5b5051919050565b600080604083850312156119a4578081fd5b8235915060208301356119b68161204b565b809150509250929050565b6000806000606084860312156119d5578081fd5b8335925060208401356119e78161204b565b915060408401356119f78161204b565b809150509250925092565b60008060408385031215611a14578182fd5b50508035926020909101359150565b60008060008060808587031215611a38578081fd5b84359350602085013592506040850135611a518161204b565b91506060850135611a6181612060565b939692955090935050565b60008251611a7e81846020870161201f565b9190910192915050565b6001600160a01b0391909116815260200190565b6001600160a01b03929092168252602082015260400190565b6001600160a01b039384168152919092166020820152604081019190915260600190565b6001600160a01b039586168152602081019490945260408401929092526060830152909116608082015260a00190565b6000602082528251806020840152611b2881604085016020870161201f565b601f01601f19169190910160400192915050565b6020808252602a908201527f736574547265617375727950657263656e743a20746f74616c2070657263656e6040820152690e840deeccae440dac2f60b31b606082015260800190565b60208082526026908201527f4f776e61626c653a206e6577206f776e657220697320746865207a65726f206160408201526564647265737360d01b606082015260800190565b6020808252601b908201527f536166654d6174683a206164646974696f6e206f766572666c6f770000000000604082015260600190565b60208082526029908201527f736574547265617375727950657263656e743a20696e76616c69642070657263604082015268656e742076616c756560b81b606082015260800190565b6020808252601e908201527f536166654d6174683a207375627472616374696f6e206f766572666c6f770000604082015260600190565b60208082526026908201527f416464726573733a20696e73756666696369656e742062616c616e636520666f6040820152651c8818d85b1b60d21b606082015260800190565b6020808252601a908201527f536166654d6174683a206469766973696f6e206279207a65726f000000000000604082015260600190565b6020808252600990820152686465763a207775743f60b81b604082015260600190565b60208082526021908201527f536166654d6174683a206d756c7469706c69636174696f6e206f766572666c6f6040820152607760f81b606082015260800190565b6020808252601590820152741859190e88131408185b1c9958591e481859191959605a1b604082015260600190565b6020808252818101527f4f776e61626c653a2063616c6c6572206973206e6f7420746865206f776e6572604082015260600190565b60208082526025908201527f73657444657650657263656e743a20746f74616c2070657263656e74206f76656040820152640e440dac2f60db1b606082015260800190565b60208082526026908201527f6164643a204c5020746f6b656e206d75737420626520612076616c696420636f6040820152651b9d1c9858dd60d21b606082015260800190565b6020808252601d908201527f416464726573733a2063616c6c20746f206e6f6e2d636f6e7472616374000000604082015260600190565b6020808252601290820152711dda5d1a191c985dce881b9bdd0819dbdbd960721b604082015260600190565b60208082526026908201527f7365743a207265776172646572206d75737420626520636f6e7472616374206f60408201526572207a65726f60d01b606082015260800190565b60208082526026908201527f6164643a207265776172646572206d75737420626520636f6e7472616374206f60408201526572207a65726f60d01b606082015260800190565b6020808252602a908201527f5361666545524332303a204552433230206f7065726174696f6e20646964206e6040820152691bdd081cdd58d8d9595960b21b606082015260800190565b60208082526024908201527f73657444657650657263656e743a20696e76616c69642070657263656e742076604082015263616c756560e01b606082015260800190565b90815260200190565b9182526001600160a01b0316602082015260400190565b9283526001600160a01b039190911660208301521515604082015260600190565b918252602082015260400190565b60005b8381101561203a578181015183820152602001612022565b8381111561167a5750506000910152565b6001600160a01b0381168114610a6057600080fd5b8015158114610a6057600080fdfea264697066735822122085d455d7c482ba41264f8ea7bb0b918c9f37bf6e937ca65b90c8c0b10dcde51d64736f6c634300060c0033",
  "devdoc": {
    "kind": "dev",
    "methods": {
      "owner()": {
        "details": "Returns the address of the current owner."
      },
      "renounceOwnership()": {
        "details": "Leaves the contract without owner. It will not be possible to call `onlyOwner` functions anymore. Can only be called by the current owner. NOTE: Renouncing ownership will leave the contract without an owner, thereby removing any functionality that is only available to the owner."
      },
      "transferOwnership(address)": {
        "details": "Transfers ownership of the contract to a new account (`newOwner`). Can only be called by the current owner."
      }
    },
    "version": 1
  },
  "userdoc": {
    "kind": "user",
    "methods": {},
    "version": 1
  },
  "storageLayout": {
    "storage": [
      {
        "astId": 253,
        "contract": "contracts/MasterChefJoeV2.sol:MasterChefJoeV2",
        "label": "_owner",
        "offset": 0,
        "slot": "0",
        "type": "t_address"
      },
      {
        "astId": 5971,
        "contract": "contracts/MasterChefJoeV2.sol:MasterChefJoeV2",
        "label": "joe",
        "offset": 0,
        "slot": "1",
        "type": "t_contract(JoeToken)4930"
      },
      {
        "astId": 5973,
        "contract": "contracts/MasterChefJoeV2.sol:MasterChefJoeV2",
        "label": "devaddr",
        "offset": 0,
        "slot": "2",
        "type": "t_address"
      },
      {
        "astId": 5975,
        "contract": "contracts/MasterChefJoeV2.sol:MasterChefJoeV2",
        "label": "treasuryaddr",
        "offset": 0,
        "slot": "3",
        "type": "t_address"
      },
      {
        "astId": 5977,
        "contract": "contracts/MasterChefJoeV2.sol:MasterChefJoeV2",
        "label": "joePerSec",
        "offset": 0,
        "slot": "4",
        "type": "t_uint256"
      },
      {
        "astId": 5979,
        "contract": "contracts/MasterChefJoeV2.sol:MasterChefJoeV2",
        "label": "devPercent",
        "offset": 0,
        "slot": "5",
        "type": "t_uint256"
      },
      {
        "astId": 5981,
        "contract": "contracts/MasterChefJoeV2.sol:MasterChefJoeV2",
        "label": "treasuryPercent",
        "offset": 0,
        "slot": "6",
        "type": "t_uint256"
      },
      {
        "astId": 5984,
        "contract": "contracts/MasterChefJoeV2.sol:MasterChefJoeV2",
        "label": "poolInfo",
        "offset": 0,
        "slot": "7",
        "type": "t_array(t_struct(PoolInfo)5969_storage)dyn_storage"
      },
      {
        "astId": 5986,
        "contract": "contracts/MasterChefJoeV2.sol:MasterChefJoeV2",
        "label": "lpTokens",
        "offset": 0,
        "slot": "8",
        "type": "t_struct(AddressSet)2099_storage"
      },
      {
        "astId": 5992,
        "contract": "contracts/MasterChefJoeV2.sol:MasterChefJoeV2",
        "label": "userInfo",
        "offset": 0,
        "slot": "10",
        "type": "t_mapping(t_uint256,t_mapping(t_address,t_struct(UserInfo)5958_storage))"
      },
      {
        "astId": 5994,
        "contract": "contracts/MasterChefJoeV2.sol:MasterChefJoeV2",
        "label": "totalAllocPoint",
        "offset": 0,
        "slot": "11",
        "type": "t_uint256"
      },
      {
        "astId": 5996,
        "contract": "contracts/MasterChefJoeV2.sol:MasterChefJoeV2",
        "label": "startTimestamp",
        "offset": 0,
        "slot": "12",
        "type": "t_uint256"
      }
    ],
    "types": {
      "t_address": {
        "encoding": "inplace",
        "label": "address",
        "numberOfBytes": "20"
      },
      "t_array(t_bytes32)dyn_storage": {
        "base": "t_bytes32",
        "encoding": "dynamic_array",
        "label": "bytes32[]",
        "numberOfBytes": "32"
      },
      "t_array(t_struct(PoolInfo)5969_storage)dyn_storage": {
        "base": "t_struct(PoolInfo)5969_storage",
        "encoding": "dynamic_array",
        "label": "struct MasterChefJoeV2.PoolInfo[]",
        "numberOfBytes": "32"
      },
      "t_bytes32": {
        "encoding": "inplace",
        "label": "bytes32",
        "numberOfBytes": "32"
      },
      "t_contract(IERC20)1291": {
        "encoding": "inplace",
        "label": "contract IERC20",
        "numberOfBytes": "20"
      },
      "t_contract(IRewarder)5942": {
        "encoding": "inplace",
        "label": "contract IRewarder",
        "numberOfBytes": "20"
      },
      "t_contract(JoeToken)4930": {
        "encoding": "inplace",
        "label": "contract JoeToken",
        "numberOfBytes": "20"
      },
      "t_mapping(t_address,t_struct(UserInfo)5958_storage)": {
        "encoding": "mapping",
        "key": "t_address",
        "label": "mapping(address => struct MasterChefJoeV2.UserInfo)",
        "numberOfBytes": "32",
        "value": "t_struct(UserInfo)5958_storage"
      },
      "t_mapping(t_bytes32,t_uint256)": {
        "encoding": "mapping",
        "key": "t_bytes32",
        "label": "mapping(bytes32 => uint256)",
        "numberOfBytes": "32",
        "value": "t_uint256"
      },
      "t_mapping(t_uint256,t_mapping(t_address,t_struct(UserInfo)5958_storage))": {
        "encoding": "mapping",
        "key": "t_uint256",
        "label": "mapping(uint256 => mapping(address => struct MasterChefJoeV2.UserInfo))",
        "numberOfBytes": "32",
        "value": "t_mapping(t_address,t_struct(UserInfo)5958_storage)"
      },
      "t_struct(AddressSet)2099_storage": {
        "encoding": "inplace",
        "label": "struct EnumerableSet.AddressSet",
        "members": [
          {
            "astId": 2098,
            "contract": "contracts/MasterChefJoeV2.sol:MasterChefJoeV2",
            "label": "_inner",
            "offset": 0,
            "slot": "0",
            "type": "t_struct(Set)1834_storage"
          }
        ],
        "numberOfBytes": "64"
      },
      "t_struct(PoolInfo)5969_storage": {
        "encoding": "inplace",
        "label": "struct MasterChefJoeV2.PoolInfo",
        "members": [
          {
            "astId": 5960,
            "contract": "contracts/MasterChefJoeV2.sol:MasterChefJoeV2",
            "label": "lpToken",
            "offset": 0,
            "slot": "0",
            "type": "t_contract(IERC20)1291"
          },
          {
            "astId": 5962,
            "contract": "contracts/MasterChefJoeV2.sol:MasterChefJoeV2",
            "label": "allocPoint",
            "offset": 0,
            "slot": "1",
            "type": "t_uint256"
          },
          {
            "astId": 5964,
            "contract": "contracts/MasterChefJoeV2.sol:MasterChefJoeV2",
            "label": "lastRewardTimestamp",
            "offset": 0,
            "slot": "2",
            "type": "t_uint256"
          },
          {
            "astId": 5966,
            "contract": "contracts/MasterChefJoeV2.sol:MasterChefJoeV2",
            "label": "accJoePerShare",
            "offset": 0,
            "slot": "3",
            "type": "t_uint256"
          },
          {
            "astId": 5968,
            "contract": "contracts/MasterChefJoeV2.sol:MasterChefJoeV2",
            "label": "rewarder",
            "offset": 0,
            "slot": "4",
            "type": "t_contract(IRewarder)5942"
          }
        ],
        "numberOfBytes": "160"
      },
      "t_struct(Set)1834_storage": {
        "encoding": "inplace",
        "label": "struct EnumerableSet.Set",
        "members": [
          {
            "astId": 1829,
            "contract": "contracts/MasterChefJoeV2.sol:MasterChefJoeV2",
            "label": "_values",
            "offset": 0,
            "slot": "0",
            "type": "t_array(t_bytes32)dyn_storage"
          },
          {
            "astId": 1833,
            "contract": "contracts/MasterChefJoeV2.sol:MasterChefJoeV2",
            "label": "_indexes",
            "offset": 0,
            "slot": "1",
            "type": "t_mapping(t_bytes32,t_uint256)"
          }
        ],
        "numberOfBytes": "64"
      },
      "t_struct(UserInfo)5958_storage": {
        "encoding": "inplace",
        "label": "struct MasterChefJoeV2.UserInfo",
        "members": [
          {
            "astId": 5955,
            "contract": "contracts/MasterChefJoeV2.sol:MasterChefJoeV2",
            "label": "amount",
            "offset": 0,
            "slot": "0",
            "type": "t_uint256"
          },
          {
            "astId": 5957,
            "contract": "contracts/MasterChefJoeV2.sol:MasterChefJoeV2",
            "label": "rewardDebt",
            "offset": 0,
            "slot": "1",
            "type": "t_uint256"
          }
        ],
        "numberOfBytes": "64"
      },
      "t_uint256": {
        "encoding": "inplace",
        "label": "uint256",
        "numberOfBytes": "32"
      }
    }
  }
}