{
  "address": "0x927bE1425F2C3599Ced2146459f6491eE450848b",
  "abi": [
    {
      "inputs": [
        {
          "internalType": "contract JoeToken",
          "name": "_joe",
          "type": "address"
        },
        {
          "internalType": "address",
          "name": "_devaddr",
          "type": "address"
        },
        {
          "internalType": "address",
          "name": "_treasuryaddr",
          "type": "address"
        },
        {
          "internalType": "uint256",
          "name": "_joePerSec",
          "type": "uint256"
        },
        {
          "internalType": "uint256",
          "name": "_startTimestamp",
          "type": "uint256"
        },
        {
          "internalType": "uint256",
          "name": "_devPercent",
          "type": "uint256"
        },
        {
          "internalType": "uint256",
          "name": "_treasuryPercent",
          "type": "uint256"
        }
      ],
      "stateMutability": "nonpayable",
      "type": "constructor"
    },
    {
      "anonymous": false,
      "inputs": [
        {
          "indexed": true,
          "internalType": "uint256",
          "name": "pid",
          "type": "uint256"
        },
        {
          "indexed": false,
          "internalType": "uint256",
          "name": "allocPoint",
          "type": "uint256"
        },
        {
          "indexed": true,
          "internalType": "contract IERC20",
          "name": "lpToken",
          "type": "address"
        },
        {
          "indexed": true,
          "internalType": "contract IRewarder",
          "name": "rewarder",
          "type": "address"
        }
      ],
      "name": "Add",
      "type": "event"
    },
    {
      "anonymous": false,
      "inputs": [
        {
          "indexed": true,
          "internalType": "address",
          "name": "user",
          "type": "address"
        },
        {
          "indexed": true,
          "internalType": "uint256",
          "name": "pid",
          "type": "uint256"
        },
        {
          "indexed": false,
          "internalType": "uint256",
          "name": "amount",
          "type": "uint256"
        }
      ],
      "name": "Deposit",
      "type": "event"
    },
    {
      "anonymous": false,
      "inputs": [
        {
          "indexed": true,
          "internalType": "address",
          "name": "user",
          "type": "address"
        },
        {
          "indexed": true,
          "internalType": "uint256",
          "name": "pid",
          "type": "uint256"
        },
        {
          "indexed": false,
          "internalType": "uint256",
          "name": "amount",
          "type": "uint256"
        }
      ],
      "name": "EmergencyWithdraw",
      "type": "event"
    },
    {
      "anonymous": false,
      "inputs": [
        {
          "indexed": true,
          "internalType": "address",
          "name": "user",
          "type": "address"
        },
        {
          "indexed": true,
          "internalType": "uint256",
          "name": "pid",
          "type": "uint256"
        },
        {
          "indexed": false,
          "internalType": "uint256",
          "name": "amount",
          "type": "uint256"
        }
      ],
      "name": "Harvest",
      "type": "event"
    },
    {
      "anonymous": false,
      "inputs": [
        {
          "indexed": true,
          "internalType": "address",
          "name": "previousOwner",
          "type": "address"
        },
        {
          "indexed": true,
          "internalType": "address",
          "name": "newOwner",
          "type": "address"
        }
      ],
      "name": "OwnershipTransferred",
      "type": "event"
    },
    {
      "anonymous": false,
      "inputs": [
        {
          "indexed": true,
          "internalType": "uint256",
          "name": "pid",
          "type": "uint256"
        },
        {
          "indexed": false,
          "internalType": "uint256",
          "name": "allocPoint",
          "type": "uint256"
        },
        {
          "indexed": true,
          "internalType": "contract IRewarder",
          "name": "rewarder",
          "type": "address"
        },
        {
          "indexed": false,
          "internalType": "bool",
          "name": "overwrite",
          "type": "bool"
        }
      ],
      "name": "Set",
      "type": "event"
    },
    {
      "anonymous": false,
      "inputs": [
        {
          "indexed": true,
          "internalType": "address",
          "name": "oldAddress",
          "type": "address"
        },
        {
          "indexed": true,
          "internalType": "address",
          "name": "newAddress",
          "type": "address"
        }
      ],
      "name": "SetDevAddress",
      "type": "event"
    },
    {
      "anonymous": false,
      "inputs": [
        {
          "indexed": true,
          "internalType": "address",
          "name": "user",
          "type": "address"
        },
        {
          "indexed": false,
          "internalType": "uint256",
          "name": "_joePerSec",
          "type": "uint256"
        }
      ],
      "name": "UpdateEmissionRate",
      "type": "event"
    },
    {
      "anonymous": false,
      "inputs": [
        {
          "indexed": true,
          "internalType": "uint256",
          "name": "pid",
          "type": "uint256"
        },
        {
          "indexed": false,
          "internalType": "uint256",
          "name": "lastRewardTimestamp",
          "type": "uint256"
        },
        {
          "indexed": false,
          "internalType": "uint256",
          "name": "lpSupply",
          "type": "uint256"
        },
        {
          "indexed": false,
          "internalType": "uint256",
          "name": "accJoePerShare",
          "type": "uint256"
        }
      ],
      "name": "UpdatePool",
      "type": "event"
    },
    {
      "anonymous": false,
      "inputs": [
        {
          "indexed": true,
          "internalType": "address",
          "name": "user",
          "type": "address"
        },
        {
          "indexed": true,
          "internalType": "uint256",
          "name": "pid",
          "type": "uint256"
        },
        {
          "indexed": false,
          "internalType": "uint256",
          "name": "amount",
          "type": "uint256"
        }
      ],
      "name": "Withdraw",
      "type": "event"
    },
    {
      "inputs": [
        {
          "internalType": "uint256",
          "name": "_allocPoint",
          "type": "uint256"
        },
        {
          "internalType": "contract IERC20",
          "name": "_lpToken",
          "type": "address"
        },
        {
          "internalType": "contract IRewarder",
          "name": "_rewarder",
          "type": "address"
        }
      ],
      "name": "add",
      "outputs": [],
      "stateMutability": "nonpayable",
      "type": "function"
    },
    {
      "inputs": [
        {
          "internalType": "uint256",
          "name": "_pid",
          "type": "uint256"
        },
        {
          "internalType": "uint256",
          "name": "_amount",
          "type": "uint256"
        }
      ],
      "name": "deposit",
      "outputs": [],
      "stateMutability": "nonpayable",
      "type": "function"
    },
    {
      "inputs": [
        {
          "internalType": "address",
          "name": "_devaddr",
          "type": "address"
        }
      ],
      "name": "dev",
      "outputs": [],
      "stateMutability": "nonpayable",
      "type": "function"
    },
    {
      "inputs": [],
      "name": "devPercent",
      "outputs": [
        {
          "internalType": "uint256",
          "name": "",
          "type": "uint256"
        }
      ],
      "stateMutability": "view",
      "type": "function"
    },
    {
      "inputs": [],
      "name": "devaddr",
      "outputs": [
        {
          "internalType": "address",
          "name": "",
          "type": "address"
        }
      ],
      "stateMutability": "view",
      "type": "function"
    },
    {
      "inputs": [
        {
          "internalType": "uint256",
          "name": "_pid",
          "type": "uint256"
        }
      ],
      "name": "emergencyWithdraw",
      "outputs": [],
      "stateMutability": "nonpayable",
      "type": "function"
    },
    {
      "inputs": [],
      "name": "joe",
      "outputs": [
        {
          "internalType": "contract JoeToken",
          "name": "",
          "type": "address"
        }
      ],
      "stateMutability": "view",
      "type": "function"
    },
    {
      "inputs": [],
      "name": "joePerSec",
      "outputs": [
        {
          "internalType": "uint256",
          "name": "",
          "type": "uint256"
        }
      ],
      "stateMutability": "view",
      "type": "function"
    },
    {
      "inputs": [],
      "name": "massUpdatePools",
      "outputs": [],
      "stateMutability": "nonpayable",
      "type": "function"
    },
    {
      "inputs": [],
      "name": "owner",
      "outputs": [
        {
          "internalType": "address",
          "name": "",
          "type": "address"
        }
      ],
      "stateMutability": "view",
      "type": "function"
    },
    {
      "inputs": [
        {
          "internalType": "uint256",
          "name": "_pid",
          "type": "uint256"
        },
        {
          "internalType": "address",
          "name": "_user",
          "type": "address"
        }
      ],
      "name": "pendingTokens",
      "outputs": [
        {
          "internalType": "uint256",
          "name": "pendingJoe",
          "type": "uint256"
        },
        {
          "internalType": "address",
          "name": "bonusTokenAddress",
          "type": "address"
        },
        {
          "internalType": "string",
          "name": "bonusTokenSymbol",
          "type": "string"
        },
        {
          "internalType": "uint256",
          "name": "pendingBonusToken",
          "type": "uint256"
        }
      ],
      "stateMutability": "view",
      "type": "function"
    },
    {
      "inputs": [
        {
          "internalType": "uint256",
          "name": "",
          "type": "uint256"
        }
      ],
      "name": "poolInfo",
      "outputs": [
        {
          "internalType": "contract IERC20",
          "name": "lpToken",
          "type": "address"
        },
        {
          "internalType": "uint256",
          "name": "allocPoint",
          "type": "uint256"
        },
        {
          "internalType": "uint256",
          "name": "lastRewardTimestamp",
          "type": "uint256"
        },
        {
          "internalType": "uint256",
          "name": "accJoePerShare",
          "type": "uint256"
        },
        {
          "internalType": "contract IRewarder",
          "name": "rewarder",
          "type": "address"
        }
      ],
      "stateMutability": "view",
      "type": "function"
    },
    {
      "inputs": [],
      "name": "poolLength",
      "outputs": [
        {
          "internalType": "uint256",
          "name": "",
          "type": "uint256"
        }
      ],
      "stateMutability": "view",
      "type": "function"
    },
    {
      "inputs": [],
      "name": "renounceOwnership",
      "outputs": [],
      "stateMutability": "nonpayable",
      "type": "function"
    },
    {
      "inputs": [
        {
          "internalType": "uint256",
          "name": "_pid",
          "type": "uint256"
        },
        {
          "internalType": "uint256",
          "name": "_allocPoint",
          "type": "uint256"
        },
        {
          "internalType": "contract IRewarder",
          "name": "_rewarder",
          "type": "address"
        },
        {
          "internalType": "bool",
          "name": "overwrite",
          "type": "bool"
        }
      ],
      "name": "set",
      "outputs": [],
      "stateMutability": "nonpayable",
      "type": "function"
    },
    {
      "inputs": [
        {
          "internalType": "uint256",
          "name": "_newDevPercent",
          "type": "uint256"
        }
      ],
      "name": "setDevPercent",
      "outputs": [],
      "stateMutability": "nonpayable",
      "type": "function"
    },
    {
      "inputs": [
        {
          "internalType": "uint256",
          "name": "_newTreasuryPercent",
          "type": "uint256"
        }
      ],
      "name": "setTreasuryPercent",
      "outputs": [],
      "stateMutability": "nonpayable",
      "type": "function"
    },
    {
      "inputs": [],
      "name": "startTimestamp",
      "outputs": [
        {
          "internalType": "uint256",
          "name": "",
          "type": "uint256"
        }
      ],
      "stateMutability": "view",
      "type": "function"
    },
    {
      "inputs": [],
      "name": "totalAllocPoint",
      "outputs": [
        {
          "internalType": "uint256",
          "name": "",
          "type": "uint256"
        }
      ],
      "stateMutability": "view",
      "type": "function"
    },
    {
      "inputs": [
        {
          "internalType": "address",
          "name": "newOwner",
          "type": "address"
        }
      ],
      "name": "transferOwnership",
      "outputs": [],
      "stateMutability": "nonpayable",
      "type": "function"
    },
    {
      "inputs": [],
      "name": "treasuryPercent",
      "outputs": [
        {
          "internalType": "uint256",
          "name": "",
          "type": "uint256"
        }
      ],
      "stateMutability": "view",
      "type": "function"
    },
    {
      "inputs": [],
      "name": "treasuryaddr",
      "outputs": [
        {
          "internalType": "address",
          "name": "",
          "type": "address"
        }
      ],
      "stateMutability": "view",
      "type": "function"
    },
    {
      "inputs": [
        {
          "internalType": "uint256",
          "name": "_joePerSec",
          "type": "uint256"
        }
      ],
      "name": "updateEmissionRate",
      "outputs": [],
      "stateMutability": "nonpayable",
      "type": "function"
    },
    {
      "inputs": [
        {
          "internalType": "uint256",
          "name": "_pid",
          "type": "uint256"
        }
      ],
      "name": "updatePool",
      "outputs": [],
      "stateMutability": "nonpayable",
      "type": "function"
    },
    {
      "inputs": [
        {
          "internalType": "uint256",
          "name": "",
          "type": "uint256"
        },
        {
          "internalType": "address",
          "name": "",
          "type": "address"
        }
      ],
      "name": "userInfo",
      "outputs": [
        {
          "internalType": "uint256",
          "name": "amount",
          "type": "uint256"
        },
        {
          "internalType": "uint256",
          "name": "rewardDebt",
          "type": "uint256"
        }
      ],
      "stateMutability": "view",
      "type": "function"
    },
    {
      "inputs": [
        {
          "internalType": "uint256",
          "name": "_pid",
          "type": "uint256"
        },
        {
          "internalType": "uint256",
          "name": "_amount",
          "type": "uint256"
        }
      ],
      "name": "withdraw",
      "outputs": [],
      "stateMutability": "nonpayable",
      "type": "function"
    }
  ],
  "transactionHash": "0x999366a051534a6d78ce9f7d1a502028217c3c33092ad5d065aeda7ad05d966e",
  "args": [
    "0xDDF06D89C908bC38e03067d65408D632fDA4fd9d",
    "0x125c2EE2d4765891EAeAdDA8e4F06473282E3060",
    "0xD2A71475eca084C14a3f08Fa12C98362972e889C",
    "100000000000000000000",
    "1619065864",
    "200",
    "200"
  ],
  "solcInputHash": "6743038823cbc01eec871af6b77ee723",
  "bytecode": "0x60806040523480156200001157600080fd5b506040516200289d3803806200289d833981016040819052620000349162000163565b6000620000406200015f565b600080546001600160a01b0319166001600160a01b0383169081178255604051929350917f8be0079c531659141344cd1fd0a4f28419497f9722a3daafe3b4186f6b6457e0908290a3506103e8821115620000b85760405162461bcd60e51b8152600401620000af9062000228565b60405180910390fd5b6103e8811115620000dd5760405162461bcd60e51b8152600401620000af90620001dd565b6103e88183011115620001045760405162461bcd60e51b8152600401620000af906200026e565b600180546001600160a01b03199081166001600160a01b03998a161790915560028054821697891697909717909655600380549096169490961693909317909355600455600c919091556005556006556000600b55620002ca565b3390565b600080600080600080600060e0888a0312156200017e578283fd5b87516200018b81620002b1565b60208901519097506200019e81620002b1565b6040890151909650620001b181620002b1565b80955050606088015193506080880151925060a0880151915060c0880151905092959891949750929550565b6020808252602b908201527f636f6e7374727563746f723a20696e76616c696420747265617375727920706560408201526a7263656e742076616c756560a81b606082015260800190565b60208082526026908201527f636f6e7374727563746f723a20696e76616c6964206465762070657263656e746040820152652076616c756560d01b606082015260800190565b60208082526023908201527f636f6e7374727563746f723a20746f74616c2070657263656e74206f766572206040820152620dac2f60eb1b606082015260800190565b6001600160a01b0381168114620002c757600080fd5b50565b6125c380620002da6000396000f3fe608060405234801561001057600080fd5b506004361061018e5760003560e01c806389a2bc25116100de578063ca418d2311610097578063e6fd48bc11610071578063e6fd48bc1461030b578063f2fde38b14610313578063fc3c28af14610326578063ffcd42631461032e5761018e565b8063ca418d23146102e8578063d49e77cd146102f0578063e2bbb158146102f85761018e565b806389a2bc251461027e5780638d88a90e146102915780638da5cb5b146102a457806393f1a40b146102ac578063ab7de098146102cd578063b985a3a0146102e05761018e565b806351eb05a61161014b5780636e99b75e116101255780636e99b75e1461023b5780636eaddad214610250578063715018a61461026357806388bba42f1461026b5761018e565b806351eb05a61461020d5780635312ea8e14610220578063630b5ba1146102335761018e565b806304ef9d5814610193578063081e3eda146101b15780630ba84cd2146101b95780631526fe27146101ce57806317caf6f1146101f2578063441a3e70146101fa575b600080fd5b61019b610351565b6040516101a891906124b0565b60405180910390f35b61019b610357565b6101cc6101c7366004611ed0565b61035d565b005b6101e16101dc366004611ed0565b6103ef565b6040516101a8959493929190612047565b61019b61043a565b6101cc610208366004611f70565b610440565b6101cc61021b366004611ed0565b61064f565b6101cc61022e366004611ed0565b610963565b6101cc610a02565b610243610a25565b6040516101a89190611ff6565b6101cc61025e366004611ed0565b610a34565b6101cc610ac0565b6101cc610279366004611f91565b610b49565b6101cc61028c366004611ed0565b610cf6565b6101cc61029f366004611de1565b610d82565b610243610df8565b6102bf6102ba366004611f00565b610e07565b6040516101a892919061251a565b6101cc6102db366004611f2f565b610e2b565b6102436110ac565b61019b6110bb565b6102436110c1565b6101cc610306366004611f70565b6110d0565b61019b6112bb565b6101cc610321366004611de1565b6112c1565b61019b611381565b61034161033c366004611f00565b611387565b6040516101a894939291906124b9565b60065481565b60075490565b6103656116cd565b6001600160a01b0316610376610df8565b6001600160a01b0316146103a55760405162461bcd60e51b815260040161039c906122bf565b60405180910390fd5b6103ad610a02565b600481905560405133907fe2492e003bbe8afa53088b406f0c1cb5d9e280370fc72a74cf116ffd343c4053906103e49084906124b0565b60405180910390a250565b600781815481106103fc57fe5b6000918252602090912060059091020180546001820154600283015460038401546004909401546001600160a01b0393841695509193909290911685565b600b5481565b60006007838154811061044f57fe5b60009182526020808320868452600a8252604080852033865290925292208054600590920290920192508311156104985760405162461bcd60e51b815260040161039c9061237f565b6104a18461064f565b60006104db82600101546104d564e8d4a510006104cf876003015487600001546116d190919063ffffffff16565b90611714565b90611746565b90506104e7338261176e565b84336001600160a01b03167f71bab65ced2e5750775a0613be067df48ef06cf92a496ebf7663ae06609249548360405161052191906124b0565b60405180910390a381546105359085611746565b80835560038401546105529164e8d4a51000916104cf91906116d1565b826001018190555060006007868154811061056957fe5b60009182526020909120600460059092020101546001600160a01b0316905080156105ef5782546040516301a7af8b60e41b81526001600160a01b03831691631a7af8b0916105bc91339160040161200a565b600060405180830381600087803b1580156105d657600080fd5b505af11580156105ea573d6000803e3d6000fd5b505050505b8354610605906001600160a01b0316338761190e565b85336001600160a01b03167ff279e6a1f5e320cca91135676d9cb6e44ca8a08c0b88342bcdb1144f6511b5688760405161063f91906124b0565b60405180910390a3505050505050565b60006007828154811061065e57fe5b906000526020600020906005020190508060020154421161067f5750610960565b80546040516370a0823160e01b81526000916001600160a01b0316906370a08231906106af903090600401611ff6565b60206040518083038186803b1580156106c757600080fd5b505afa1580156106db573d6000803e3d6000fd5b505050506040513d601f19601f820116820180604052508101906106ff9190611ee8565b905080610713575042600290910155610960565b600061072c83600201544261174690919063ffffffff16565b90506000610759600b546104cf8660010154610753600454876116d190919063ffffffff16565b906116d1565b6006546005546001546002549394506103e882810393909303936001600160a01b03918216936340c10f19939190921691610799916104cf9088906116d1565b6040518363ffffffff1660e01b81526004016107b692919061200a565b600060405180830381600087803b1580156107d057600080fd5b505af11580156107e4573d6000803e3d6000fd5b50506001546003546006546001600160a01b0392831694506340c10f199350911690610819906103e8906104cf9088906116d1565b6040518363ffffffff1660e01b815260040161083692919061200a565b600060405180830381600087803b15801561085057600080fd5b505af1158015610864573d6000803e3d6000fd5b50506001546001600160a01b031691506340c10f1990503061088c6103e86104cf87876116d1565b6040518363ffffffff1660e01b81526004016108a992919061200a565b600060405180830381600087803b1580156108c357600080fd5b505af11580156108d7573d6000803e3d6000fd5b5050505061090f6109046103e86104cf84610753896104cf64e8d4a510008a6116d190919063ffffffff16565b600387015490611a04565b60038601819055426002870181905560405188927f3be3541fc42237d611b30329040bfa4569541d156560acdbbae57640d20b8f46926109529290918991612528565b60405180910390a250505050505b50565b60006007828154811061097257fe5b60009182526020808320858452600a825260408085203380875293529093208054600590930290930180549094506109b7926001600160a01b0391909116919061190e565b8054604051849133917fbb757047c2b5f3974fe26b7c10f732e7bce710b0952a71082702781e62ae0595916109eb916124b0565b60405180910390a360008082556001909101555050565b60075460005b81811015610a2157610a198161064f565b600101610a08565b5050565b6003546001600160a01b031681565b610a3c6116cd565b6001600160a01b0316610a4d610df8565b6001600160a01b031614610a735760405162461bcd60e51b815260040161039c906122bf565b6103e8811115610a955760405162461bcd60e51b815260040161039c9061246c565b6103e881600654011115610abb5760405162461bcd60e51b815260040161039c906122f4565b600555565b610ac86116cd565b6001600160a01b0316610ad9610df8565b6001600160a01b031614610aff5760405162461bcd60e51b815260040161039c906122bf565b600080546040516001600160a01b03909116907f8be0079c531659141344cd1fd0a4f28419497f9722a3daafe3b4186f6b6457e0908390a3600080546001600160a01b0319169055565b610b516116cd565b6001600160a01b0316610b62610df8565b6001600160a01b031614610b885760405162461bcd60e51b815260040161039c906122bf565b610b9182611a29565b80610ba357506001600160a01b038216155b610bbf5760405162461bcd60e51b815260040161039c906123ab565b610bc7610a02565b610c0483610bfe60078781548110610bdb57fe5b906000526020600020906005020160010154600b5461174690919063ffffffff16565b90611a04565b600b819055508260078581548110610c1857fe5b9060005260206000209060050201600101819055508015610c77578160078581548110610c4157fe5b906000526020600020906005020160040160006101000a8154816001600160a01b0302191690836001600160a01b031602179055505b80610cab5760078481548110610c8957fe5b60009182526020909120600460059092020101546001600160a01b0316610cad565b815b6001600160a01b0316847fa54644aae5c48c5971516f334e4fe8ecbc7930e23f34877d4203c6551e67ffaa8584604051610ce892919061250a565b60405180910390a350505050565b610cfe6116cd565b6001600160a01b0316610d0f610df8565b6001600160a01b031614610d355760405162461bcd60e51b815260040161039c906122bf565b6103e8811115610d575760405162461bcd60e51b815260040161039c90612175565b6103e881600554011115610d7d5760405162461bcd60e51b815260040161039c90612077565b600655565b6002546001600160a01b03163314610dac5760405162461bcd60e51b815260040161039c9061222c565b600280546001600160a01b0319166001600160a01b03831690811790915560405133907f618c54559e94f1499a808aad71ee8729f8e74e8c48e979616328ce493a1a52e790600090a350565b6000546001600160a01b031690565b600a6020908152600092835260408084209091529082529020805460019091015482565b610e336116cd565b6001600160a01b0316610e44610df8565b6001600160a01b031614610e6a5760405162461bcd60e51b815260040161039c906122bf565b610e7382611a29565b610e8f5760405162461bcd60e51b815260040161039c90612339565b610e9881611a29565b80610eaa57506001600160a01b038116155b610ec65760405162461bcd60e51b815260040161039c906123f1565b610ed1600883611a33565b15610eee5760405162461bcd60e51b815260040161039c90612290565b610ef6610a02565b6000600c544211610f0957600c54610f0b565b425b600b54909150610f1b9085611a04565b600b556040805160a0810182526001600160a01b038581168252602082018781529282018481526000606084018181528784166080860190815260078054600181018255935294517fa66cc928b5edb82af9bd49922954155ab7b0942694bea4ce44661d9a8736c688600590930292830180546001600160a01b031990811692871692909217905595517fa66cc928b5edb82af9bd49922954155ab7b0942694bea4ce44661d9a8736c68983015591517fa66cc928b5edb82af9bd49922954155ab7b0942694bea4ce44661d9a8736c68a82015590517fa66cc928b5edb82af9bd49922954155ab7b0942694bea4ce44661d9a8736c68b82015591517fa66cc928b5edb82af9bd49922954155ab7b0942694bea4ce44661d9a8736c68c90920180549093169116179055611050600884611a48565b506007546001600160a01b03808416919085169061106f906001611746565b7f4b16bd2431ad24dc020ab0e1de7fcb6563dead6a24fb10089d6c23e97a70381f8760405161109e91906124b0565b60405180910390a450505050565b6001546001600160a01b031681565b60045481565b6002546001600160a01b031681565b6000600783815481106110df57fe5b60009182526020808320868452600a825260408085203386529092529220600590910290910191506111108461064f565b80541561119557600061114582600101546104d564e8d4a510006104cf876003015487600001546116d190919063ffffffff16565b9050611151338261176e565b84336001600160a01b03167f71bab65ced2e5750775a0613be067df48ef06cf92a496ebf7663ae06609249548360405161118b91906124b0565b60405180910390a3505b80546111a19084611a04565b80825560038301546111be9164e8d4a51000916104cf91906116d1565b81600101819055506000600785815481106111d557fe5b60009182526020909120600460059092020101546001600160a01b03169050801561125b5781546040516301a7af8b60e41b81526001600160a01b03831691631a7af8b09161122891339160040161200a565b600060405180830381600087803b15801561124257600080fd5b505af1158015611256573d6000803e3d6000fd5b505050505b8254611272906001600160a01b0316333087611a5d565b84336001600160a01b03167f90890809c654f11d6e72a28fa60149770a0d11ec6c92319d6ceb2bb0a4ea1a15866040516112ac91906124b0565b60405180910390a35050505050565b600c5481565b6112c96116cd565b6001600160a01b03166112da610df8565b6001600160a01b0316146113005760405162461bcd60e51b815260040161039c906122bf565b6001600160a01b0381166113265760405162461bcd60e51b815260040161039c906120f8565b600080546040516001600160a01b03808516939216917f8be0079c531659141344cd1fd0a4f28419497f9722a3daafe3b4186f6b6457e091a3600080546001600160a01b0319166001600160a01b0392909216919091179055565b60055481565b60008060606000806007878154811061139c57fe5b600091825260208083208a8452600a825260408085206001600160a01b03808d16875293528085206003600590950290920193840154845491516370a0823160e01b815294965091949193919216906370a08231906113ff903090600401611ff6565b60206040518083038186803b15801561141757600080fd5b505afa15801561142b573d6000803e3d6000fd5b505050506040513d601f19601f8201168201806040525081019061144f9190611ee8565b905083600201544211801561146357508015155b156114e657600061148185600201544261174690919063ffffffff16565b905060006006546005546103e80303905060006114c16103e86104cf84610753600b546104cf8d600101546107536004548c6116d190919063ffffffff16565b90506114e06114d9856104cf8464e8d4a510006116d1565b8690611a04565b94505050505b61150e83600101546104d564e8d4a510006104cf8688600001546116d190919063ffffffff16565b60048501549098506001600160a01b0316156116c0576004808501546040805163f7c618c160e01b815290516001600160a01b039092169263f7c618c1928282019260209290829003018186803b15801561156857600080fd5b505afa15801561157c573d6000803e3d6000fd5b505050506040513d601f19601f820116820180604052508101906115a09190611dfd565b965061163b8460040160009054906101000a90046001600160a01b03166001600160a01b031663f7c618c16040518163ffffffff1660e01b815260040160206040518083038186803b1580156115f557600080fd5b505afa158015611609573d6000803e3d6000fd5b505050506040513d601f19601f8201168201806040525081019061162d9190611dfd565b6001600160a01b0316611b56565b60048086015460405163c031a66f60e01b81529298506001600160a01b03169163c031a66f9161166d918d9101611ff6565b60206040518083038186803b15801561168557600080fd5b505afa158015611699573d6000803e3d6000fd5b505050506040513d601f19601f820116820180604052508101906116bd9190611ee8565b94505b5050505092959194509250565b3390565b6000826116e05750600061170e565b828202828482816116ed57fe5b041461170b5760405162461bcd60e51b815260040161039c9061224f565b90505b92915050565b60008082116117355760405162461bcd60e51b815260040161039c906121f5565b81838161173e57fe5b049392505050565b6000828211156117685760405162461bcd60e51b815260040161039c906121be565b50900390565b6001546040516370a0823160e01b81526000916001600160a01b0316906370a082319061179f903090600401611ff6565b60206040518083038186803b1580156117b757600080fd5b505afa1580156117cb573d6000803e3d6000fd5b505050506040513d601f19601f820116820180604052508101906117ef9190611ee8565b9050808211156118835760015460405163a9059cbb60e01b81526001600160a01b039091169063a9059cbb9061182b908690859060040161200a565b602060405180830381600087803b15801561184557600080fd5b505af1158015611859573d6000803e3d6000fd5b505050506040513d601f19601f8201168201806040525081019061187d9190611e19565b50611909565b60015460405163a9059cbb60e01b81526001600160a01b039091169063a9059cbb906118b5908690869060040161200a565b602060405180830381600087803b1580156118cf57600080fd5b505af11580156118e3573d6000803e3d6000fd5b505050506040513d601f19601f820116820180604052508101906119079190611e19565b505b505050565b60006060846001600160a01b031663a9059cbb60e01b858560405160240161193792919061200a565b60408051601f198184030181529181526020820180516001600160e01b03166001600160e01b03199094169390931790925290516119759190611fda565b6000604051808303816000865af19150503d80600081146119b2576040519150601f19603f3d011682016040523d82523d6000602084013e6119b7565b606091505b50915091508180156119e15750805115806119e15750808060200190518101906119e19190611e19565b6119fd5760405162461bcd60e51b815260040161039c906120c1565b5050505050565b60008282018381101561170b5760405162461bcd60e51b815260040161039c9061213e565b803b15155b919050565b600061170b836001600160a01b038416611c19565b600061170b836001600160a01b038416611c31565b60006060856001600160a01b03166323b872dd60e01b868686604051602401611a8893929190612023565b60408051601f198184030181529181526020820180516001600160e01b03166001600160e01b0319909416939093179092529051611ac69190611fda565b6000604051808303816000865af19150503d8060008114611b03576040519150601f19603f3d011682016040523d82523d6000602084013e611b08565b606091505b5091509150818015611b32575080511580611b32575080806020019051810190611b329190611e19565b611b4e5760405162461bcd60e51b815260040161039c90612437565b505050505050565b60408051600481526024810182526020810180516001600160e01b03166395d89b4160e01b179052905160609160009183916001600160a01b03861691611b9d9190611fda565b600060405180830381855afa9150503d8060008114611bd8576040519150601f19603f3d011682016040523d82523d6000602084013e611bdd565b606091505b509150915081611c0857604051806040016040528060038152602001623f3f3f60e81b815250611c11565b611c1181611c7b565b949350505050565b60009081526001919091016020526040902054151590565b6000611c3d8383611c19565b611c735750815460018181018455600084815260208082209093018490558454848252828601909352604090209190915561170e565b50600061170e565b60606040825110611ca15781806020019051810190611c9a9190611e35565b9050611a2e565b815160201415611dc15760005b60208160ff16108015611cdd5750828160ff1681518110611ccb57fe5b01602001516001600160f81b03191615155b15611cea57600101611cae565b60608160ff1667ffffffffffffffff81118015611d0657600080fd5b506040519080825280601f01601f191660200182016040528015611d31576020820181803683370190505b509050600091505b60208260ff16108015611d685750838260ff1681518110611d5657fe5b01602001516001600160f81b03191615155b15611db857838260ff1681518110611d7c57fe5b602001015160f81c60f81b818360ff1681518110611d9657fe5b60200101906001600160f81b031916908160001a905350600190910190611d39565b9150611a2e9050565b506040805180820190915260038152623f3f3f60e81b6020820152611a2e565b600060208284031215611df2578081fd5b813561170b8161256a565b600060208284031215611e0e578081fd5b815161170b8161256a565b600060208284031215611e2a578081fd5b815161170b8161257f565b600060208284031215611e46578081fd5b815167ffffffffffffffff80821115611e5d578283fd5b818401915084601f830112611e70578283fd5b815181811115611e7e578384fd5b604051601f8201601f191681016020018381118282101715611e9e578586fd5b604052818152838201602001871015611eb5578485fd5b611ec682602083016020870161253e565b9695505050505050565b600060208284031215611ee1578081fd5b5035919050565b600060208284031215611ef9578081fd5b5051919050565b60008060408385031215611f12578081fd5b823591506020830135611f248161256a565b809150509250929050565b600080600060608486031215611f43578081fd5b833592506020840135611f558161256a565b91506040840135611f658161256a565b809150509250925092565b60008060408385031215611f82578182fd5b50508035926020909101359150565b60008060008060808587031215611fa6578081fd5b84359350602085013592506040850135611fbf8161256a565b91506060850135611fcf8161257f565b939692955090935050565b60008251611fec81846020870161253e565b9190910192915050565b6001600160a01b0391909116815260200190565b6001600160a01b03929092168252602082015260400190565b6001600160a01b039384168152919092166020820152604081019190915260600190565b6001600160a01b039586168152602081019490945260408401929092526060830152909116608082015260a00190565b6020808252602a908201527f736574547265617375727950657263656e743a20746f74616c2070657263656e6040820152690e840deeccae440dac2f60b31b606082015260800190565b6020808252601c908201527f426f72696e6745524332303a205472616e73666572206661696c656400000000604082015260600190565b60208082526026908201527f4f776e61626c653a206e6577206f776e657220697320746865207a65726f206160408201526564647265737360d01b606082015260800190565b6020808252601b908201527f536166654d6174683a206164646974696f6e206f766572666c6f770000000000604082015260600190565b60208082526029908201527f736574547265617375727950657263656e743a20696e76616c69642070657263604082015268656e742076616c756560b81b606082015260800190565b6020808252601e908201527f536166654d6174683a207375627472616374696f6e206f766572666c6f770000604082015260600190565b6020808252601a908201527f536166654d6174683a206469766973696f6e206279207a65726f000000000000604082015260600190565b6020808252600990820152686465763a207775743f60b81b604082015260600190565b60208082526021908201527f536166654d6174683a206d756c7469706c69636174696f6e206f766572666c6f6040820152607760f81b606082015260800190565b6020808252601590820152741859190e88131408185b1c9958591e481859191959605a1b604082015260600190565b6020808252818101527f4f776e61626c653a2063616c6c6572206973206e6f7420746865206f776e6572604082015260600190565b60208082526025908201527f73657444657650657263656e743a20746f74616c2070657263656e74206f76656040820152640e440dac2f60db1b606082015260800190565b60208082526026908201527f6164643a204c5020746f6b656e206d75737420626520612076616c696420636f6040820152651b9d1c9858dd60d21b606082015260800190565b6020808252601290820152711dda5d1a191c985dce881b9bdd0819dbdbd960721b604082015260600190565b60208082526026908201527f7365743a207265776172646572206d75737420626520636f6e7472616374206f60408201526572207a65726f60d01b606082015260800190565b60208082526026908201527f6164643a207265776172646572206d75737420626520636f6e7472616374206f60408201526572207a65726f60d01b606082015260800190565b6020808252818101527f426f72696e6745524332303a205472616e7366657246726f6d206661696c6564604082015260600190565b60208082526024908201527f73657444657650657263656e743a20696e76616c69642070657263656e742076604082015263616c756560e01b606082015260800190565b90815260200190565b600085825260018060a01b03851660208301526080604083015283518060808401526124ec8160a085016020880161253e565b606083019390935250601f91909101601f19160160a0019392505050565b9182521515602082015260400190565b918252602082015260400190565b9283526020830191909152604082015260600190565b60005b83811015612559578181015183820152602001612541565b838111156119075750506000910152565b6001600160a01b038116811461096057600080fd5b801515811461096057600080fdfea2646970667358221220b3fed591f1a2b99a6a0111499c41406b87dd10b88bc964a5ad9f4379c7dfbc4664736f6c634300060c0033",
  "devdoc": {
    "kind": "dev",
    "methods": {
      "owner()": {
        "details": "Returns the address of the current owner."
      },
      "renounceOwnership()": {
        "details": "Leaves the contract without owner. It will not be possible to call `onlyOwner` functions anymore. Can only be called by the current owner. NOTE: Renouncing ownership will leave the contract without an owner, thereby removing any functionality that is only available to the owner."
      },
      "transferOwnership(address)": {
        "details": "Transfers ownership of the contract to a new account (`newOwner`). Can only be called by the current owner."
      }
    },
    "version": 1
  },
  "userdoc": {
    "kind": "user",
    "methods": {},
    "version": 1
  },
  "storageLayout": {
    "storage": [
      {
        "astId": 253,
        "contract": "contracts/MasterChefJoeV2.sol:MasterChefJoeV2",
        "label": "_owner",
        "offset": 0,
        "slot": "0",
        "type": "t_address"
      },
      {
        "astId": 6516,
        "contract": "contracts/MasterChefJoeV2.sol:MasterChefJoeV2",
        "label": "joe",
        "offset": 0,
        "slot": "1",
        "type": "t_contract(JoeToken)5186"
      },
      {
        "astId": 6518,
        "contract": "contracts/MasterChefJoeV2.sol:MasterChefJoeV2",
        "label": "devaddr",
        "offset": 0,
        "slot": "2",
        "type": "t_address"
      },
      {
        "astId": 6520,
        "contract": "contracts/MasterChefJoeV2.sol:MasterChefJoeV2",
        "label": "treasuryaddr",
        "offset": 0,
        "slot": "3",
        "type": "t_address"
      },
      {
        "astId": 6522,
        "contract": "contracts/MasterChefJoeV2.sol:MasterChefJoeV2",
        "label": "joePerSec",
        "offset": 0,
        "slot": "4",
        "type": "t_uint256"
      },
      {
        "astId": 6524,
        "contract": "contracts/MasterChefJoeV2.sol:MasterChefJoeV2",
        "label": "devPercent",
        "offset": 0,
        "slot": "5",
        "type": "t_uint256"
      },
      {
        "astId": 6526,
        "contract": "contracts/MasterChefJoeV2.sol:MasterChefJoeV2",
        "label": "treasuryPercent",
        "offset": 0,
        "slot": "6",
        "type": "t_uint256"
      },
      {
        "astId": 6529,
        "contract": "contracts/MasterChefJoeV2.sol:MasterChefJoeV2",
        "label": "poolInfo",
        "offset": 0,
        "slot": "7",
        "type": "t_array(t_struct(PoolInfo)6514_storage)dyn_storage"
      },
      {
        "astId": 6531,
        "contract": "contracts/MasterChefJoeV2.sol:MasterChefJoeV2",
        "label": "lpTokens",
        "offset": 0,
        "slot": "8",
        "type": "t_struct(AddressSet)2172_storage"
      },
      {
        "astId": 6537,
        "contract": "contracts/MasterChefJoeV2.sol:MasterChefJoeV2",
        "label": "userInfo",
        "offset": 0,
        "slot": "10",
        "type": "t_mapping(t_uint256,t_mapping(t_address,t_struct(UserInfo)6503_storage))"
      },
      {
        "astId": 6539,
        "contract": "contracts/MasterChefJoeV2.sol:MasterChefJoeV2",
        "label": "totalAllocPoint",
        "offset": 0,
        "slot": "11",
        "type": "t_uint256"
      },
      {
        "astId": 6541,
        "contract": "contracts/MasterChefJoeV2.sol:MasterChefJoeV2",
        "label": "startTimestamp",
        "offset": 0,
        "slot": "12",
        "type": "t_uint256"
      }
    ],
    "types": {
      "t_address": {
        "encoding": "inplace",
        "label": "address",
        "numberOfBytes": "20"
      },
      "t_array(t_bytes32)dyn_storage": {
        "base": "t_bytes32",
        "encoding": "dynamic_array",
        "label": "bytes32[]",
        "numberOfBytes": "32"
      },
      "t_array(t_struct(PoolInfo)6514_storage)dyn_storage": {
        "base": "t_struct(PoolInfo)6514_storage",
        "encoding": "dynamic_array",
        "label": "struct MasterChefJoeV2.PoolInfo[]",
        "numberOfBytes": "32"
      },
      "t_bytes32": {
        "encoding": "inplace",
        "label": "bytes32",
        "numberOfBytes": "32"
      },
      "t_contract(IERC20)1364": {
        "encoding": "inplace",
        "label": "contract IERC20",
        "numberOfBytes": "20"
      },
      "t_contract(IRewarder)6487": {
        "encoding": "inplace",
        "label": "contract IRewarder",
        "numberOfBytes": "20"
      },
      "t_contract(JoeToken)5186": {
        "encoding": "inplace",
        "label": "contract JoeToken",
        "numberOfBytes": "20"
      },
      "t_mapping(t_address,t_struct(UserInfo)6503_storage)": {
        "encoding": "mapping",
        "key": "t_address",
        "label": "mapping(address => struct MasterChefJoeV2.UserInfo)",
        "numberOfBytes": "32",
        "value": "t_struct(UserInfo)6503_storage"
      },
      "t_mapping(t_bytes32,t_uint256)": {
        "encoding": "mapping",
        "key": "t_bytes32",
        "label": "mapping(bytes32 => uint256)",
        "numberOfBytes": "32",
        "value": "t_uint256"
      },
      "t_mapping(t_uint256,t_mapping(t_address,t_struct(UserInfo)6503_storage))": {
        "encoding": "mapping",
        "key": "t_uint256",
        "label": "mapping(uint256 => mapping(address => struct MasterChefJoeV2.UserInfo))",
        "numberOfBytes": "32",
        "value": "t_mapping(t_address,t_struct(UserInfo)6503_storage)"
      },
      "t_struct(AddressSet)2172_storage": {
        "encoding": "inplace",
        "label": "struct EnumerableSet.AddressSet",
        "members": [
          {
            "astId": 2171,
            "contract": "contracts/MasterChefJoeV2.sol:MasterChefJoeV2",
            "label": "_inner",
            "offset": 0,
            "slot": "0",
            "type": "t_struct(Set)1907_storage"
          }
        ],
        "numberOfBytes": "64"
      },
      "t_struct(PoolInfo)6514_storage": {
        "encoding": "inplace",
        "label": "struct MasterChefJoeV2.PoolInfo",
        "members": [
          {
            "astId": 6505,
            "contract": "contracts/MasterChefJoeV2.sol:MasterChefJoeV2",
            "label": "lpToken",
            "offset": 0,
            "slot": "0",
            "type": "t_contract(IERC20)1364"
          },
          {
            "astId": 6507,
            "contract": "contracts/MasterChefJoeV2.sol:MasterChefJoeV2",
            "label": "allocPoint",
            "offset": 0,
            "slot": "1",
            "type": "t_uint256"
          },
          {
            "astId": 6509,
            "contract": "contracts/MasterChefJoeV2.sol:MasterChefJoeV2",
            "label": "lastRewardTimestamp",
            "offset": 0,
            "slot": "2",
            "type": "t_uint256"
          },
          {
            "astId": 6511,
            "contract": "contracts/MasterChefJoeV2.sol:MasterChefJoeV2",
            "label": "accJoePerShare",
            "offset": 0,
            "slot": "3",
            "type": "t_uint256"
          },
          {
            "astId": 6513,
            "contract": "contracts/MasterChefJoeV2.sol:MasterChefJoeV2",
            "label": "rewarder",
            "offset": 0,
            "slot": "4",
            "type": "t_contract(IRewarder)6487"
          }
        ],
        "numberOfBytes": "160"
      },
      "t_struct(Set)1907_storage": {
        "encoding": "inplace",
        "label": "struct EnumerableSet.Set",
        "members": [
          {
            "astId": 1902,
            "contract": "contracts/MasterChefJoeV2.sol:MasterChefJoeV2",
            "label": "_values",
            "offset": 0,
            "slot": "0",
            "type": "t_array(t_bytes32)dyn_storage"
          },
          {
            "astId": 1906,
            "contract": "contracts/MasterChefJoeV2.sol:MasterChefJoeV2",
            "label": "_indexes",
            "offset": 0,
            "slot": "1",
            "type": "t_mapping(t_bytes32,t_uint256)"
          }
        ],
        "numberOfBytes": "64"
      },
      "t_struct(UserInfo)6503_storage": {
        "encoding": "inplace",
        "label": "struct MasterChefJoeV2.UserInfo",
        "members": [
          {
            "astId": 6500,
            "contract": "contracts/MasterChefJoeV2.sol:MasterChefJoeV2",
            "label": "amount",
            "offset": 0,
            "slot": "0",
            "type": "t_uint256"
          },
          {
            "astId": 6502,
            "contract": "contracts/MasterChefJoeV2.sol:MasterChefJoeV2",
            "label": "rewardDebt",
            "offset": 0,
            "slot": "1",
            "type": "t_uint256"
          }
        ],
        "numberOfBytes": "64"
      },
      "t_uint256": {
        "encoding": "inplace",
        "label": "uint256",
        "numberOfBytes": "32"
      }
    }
  }
}