{
  "address": "0x6860E75C914A616423649b49A1Ed38862315209f",
  "abi": [
    {
      "inputs": [
        {
          "internalType": "contract JoeToken",
          "name": "_joe",
          "type": "address"
        },
        {
          "internalType": "address",
          "name": "_devaddr",
          "type": "address"
        },
        {
          "internalType": "address",
          "name": "_treasuryaddr",
          "type": "address"
        },
        {
          "internalType": "uint256",
          "name": "_joePerSec",
          "type": "uint256"
        },
        {
          "internalType": "uint256",
          "name": "_startTimestamp",
          "type": "uint256"
        },
        {
          "internalType": "uint256",
          "name": "_devPercent",
          "type": "uint256"
        },
        {
          "internalType": "uint256",
          "name": "_treasuryPercent",
          "type": "uint256"
        }
      ],
      "stateMutability": "nonpayable",
      "type": "constructor"
    },
    {
      "anonymous": false,
      "inputs": [
        {
          "indexed": true,
          "internalType": "address",
          "name": "lpToken",
          "type": "address"
        },
        {
          "indexed": false,
          "internalType": "uint256",
          "name": "allocPoint",
          "type": "uint256"
        }
      ],
      "name": "Add",
      "type": "event"
    },
    {
      "anonymous": false,
      "inputs": [
        {
          "indexed": true,
          "internalType": "address",
          "name": "user",
          "type": "address"
        },
        {
          "indexed": true,
          "internalType": "uint256",
          "name": "pid",
          "type": "uint256"
        },
        {
          "indexed": false,
          "internalType": "uint256",
          "name": "amount",
          "type": "uint256"
        }
      ],
      "name": "Deposit",
      "type": "event"
    },
    {
      "anonymous": false,
      "inputs": [
        {
          "indexed": true,
          "internalType": "address",
          "name": "user",
          "type": "address"
        },
        {
          "indexed": true,
          "internalType": "uint256",
          "name": "pid",
          "type": "uint256"
        },
        {
          "indexed": false,
          "internalType": "uint256",
          "name": "amount",
          "type": "uint256"
        }
      ],
      "name": "EmergencyWithdraw",
      "type": "event"
    },
    {
      "anonymous": false,
      "inputs": [
        {
          "indexed": true,
          "internalType": "address",
          "name": "previousOwner",
          "type": "address"
        },
        {
          "indexed": true,
          "internalType": "address",
          "name": "newOwner",
          "type": "address"
        }
      ],
      "name": "OwnershipTransferred",
      "type": "event"
    },
    {
      "anonymous": false,
      "inputs": [
        {
          "indexed": true,
          "internalType": "uint256",
          "name": "pid",
          "type": "uint256"
        },
        {
          "indexed": false,
          "internalType": "uint256",
          "name": "allocPoint",
          "type": "uint256"
        }
      ],
      "name": "Set",
      "type": "event"
    },
    {
      "anonymous": false,
      "inputs": [
        {
          "indexed": true,
          "internalType": "address",
          "name": "oldAddress",
          "type": "address"
        },
        {
          "indexed": true,
          "internalType": "address",
          "name": "newAddress",
          "type": "address"
        }
      ],
      "name": "SetDevAddress",
      "type": "event"
    },
    {
      "anonymous": false,
      "inputs": [
        {
          "indexed": true,
          "internalType": "address",
          "name": "user",
          "type": "address"
        },
        {
          "indexed": false,
          "internalType": "uint256",
          "name": "_joePerSec",
          "type": "uint256"
        }
      ],
      "name": "UpdateEmissionRate",
      "type": "event"
    },
    {
      "anonymous": false,
      "inputs": [
        {
          "indexed": true,
          "internalType": "address",
          "name": "user",
          "type": "address"
        },
        {
          "indexed": true,
          "internalType": "uint256",
          "name": "pid",
          "type": "uint256"
        },
        {
          "indexed": false,
          "internalType": "uint256",
          "name": "amount",
          "type": "uint256"
        }
      ],
      "name": "Withdraw",
      "type": "event"
    },
    {
      "inputs": [],
      "name": "BONUS_MULTIPLIER",
      "outputs": [
        {
          "internalType": "uint256",
          "name": "",
          "type": "uint256"
        }
      ],
      "stateMutability": "view",
      "type": "function"
    },
    {
      "inputs": [
        {
          "internalType": "uint256",
          "name": "_allocPoint",
          "type": "uint256"
        },
        {
          "internalType": "contract IERC20",
          "name": "_lpToken",
          "type": "address"
        }
      ],
      "name": "add",
      "outputs": [],
      "stateMutability": "nonpayable",
      "type": "function"
    },
    {
      "inputs": [
        {
          "internalType": "uint256",
          "name": "_pid",
          "type": "uint256"
        },
        {
          "internalType": "uint256",
          "name": "_amount",
          "type": "uint256"
        }
      ],
      "name": "deposit",
      "outputs": [],
      "stateMutability": "nonpayable",
      "type": "function"
    },
    {
      "inputs": [
        {
          "internalType": "address",
          "name": "_devaddr",
          "type": "address"
        }
      ],
      "name": "dev",
      "outputs": [],
      "stateMutability": "nonpayable",
      "type": "function"
    },
    {
      "inputs": [],
      "name": "devPercent",
      "outputs": [
        {
          "internalType": "uint256",
          "name": "",
          "type": "uint256"
        }
      ],
      "stateMutability": "view",
      "type": "function"
    },
    {
      "inputs": [],
      "name": "devaddr",
      "outputs": [
        {
          "internalType": "address",
          "name": "",
          "type": "address"
        }
      ],
      "stateMutability": "view",
      "type": "function"
    },
    {
      "inputs": [
        {
          "internalType": "uint256",
          "name": "_pid",
          "type": "uint256"
        }
      ],
      "name": "emergencyWithdraw",
      "outputs": [],
      "stateMutability": "nonpayable",
      "type": "function"
    },
    {
      "inputs": [
        {
          "internalType": "uint256",
          "name": "_from",
          "type": "uint256"
        },
        {
          "internalType": "uint256",
          "name": "_to",
          "type": "uint256"
        }
      ],
      "name": "getMultiplier",
      "outputs": [
        {
          "internalType": "uint256",
          "name": "",
          "type": "uint256"
        }
      ],
      "stateMutability": "view",
      "type": "function"
    },
    {
      "inputs": [
        {
          "internalType": "contract IERC20",
          "name": "",
          "type": "address"
        }
      ],
      "name": "isPool",
      "outputs": [
        {
          "internalType": "bool",
          "name": "",
          "type": "bool"
        }
      ],
      "stateMutability": "view",
      "type": "function"
    },
    {
      "inputs": [],
      "name": "joe",
      "outputs": [
        {
          "internalType": "contract JoeToken",
          "name": "",
          "type": "address"
        }
      ],
      "stateMutability": "view",
      "type": "function"
    },
    {
      "inputs": [],
      "name": "joePerSec",
      "outputs": [
        {
          "internalType": "uint256",
          "name": "",
          "type": "uint256"
        }
      ],
      "stateMutability": "view",
      "type": "function"
    },
    {
      "inputs": [],
      "name": "massUpdatePools",
      "outputs": [],
      "stateMutability": "nonpayable",
      "type": "function"
    },
    {
      "inputs": [],
      "name": "owner",
      "outputs": [
        {
          "internalType": "address",
          "name": "",
          "type": "address"
        }
      ],
      "stateMutability": "view",
      "type": "function"
    },
    {
      "inputs": [
        {
          "internalType": "uint256",
          "name": "_pid",
          "type": "uint256"
        },
        {
          "internalType": "address",
          "name": "_user",
          "type": "address"
        }
      ],
      "name": "pendingJoe",
      "outputs": [
        {
          "internalType": "uint256",
          "name": "",
          "type": "uint256"
        }
      ],
      "stateMutability": "view",
      "type": "function"
    },
    {
      "inputs": [
        {
          "internalType": "uint256",
          "name": "",
          "type": "uint256"
        }
      ],
      "name": "poolInfo",
      "outputs": [
        {
          "internalType": "contract IERC20",
          "name": "lpToken",
          "type": "address"
        },
        {
          "internalType": "uint256",
          "name": "allocPoint",
          "type": "uint256"
        },
        {
          "internalType": "uint256",
          "name": "lastRewardTimestamp",
          "type": "uint256"
        },
        {
          "internalType": "uint256",
          "name": "accJoePerShare",
          "type": "uint256"
        }
      ],
      "stateMutability": "view",
      "type": "function"
    },
    {
      "inputs": [],
      "name": "poolLength",
      "outputs": [
        {
          "internalType": "uint256",
          "name": "",
          "type": "uint256"
        }
      ],
      "stateMutability": "view",
      "type": "function"
    },
    {
      "inputs": [],
      "name": "renounceOwnership",
      "outputs": [],
      "stateMutability": "nonpayable",
      "type": "function"
    },
    {
      "inputs": [
        {
          "internalType": "uint256",
          "name": "_pid",
          "type": "uint256"
        },
        {
          "internalType": "uint256",
          "name": "_allocPoint",
          "type": "uint256"
        }
      ],
      "name": "set",
      "outputs": [],
      "stateMutability": "nonpayable",
      "type": "function"
    },
    {
      "inputs": [
        {
          "internalType": "uint256",
          "name": "_newDevPercent",
          "type": "uint256"
        }
      ],
      "name": "setDevPercent",
      "outputs": [],
      "stateMutability": "nonpayable",
      "type": "function"
    },
    {
      "inputs": [
        {
          "internalType": "uint256",
          "name": "_newTreasuryPercent",
          "type": "uint256"
        }
      ],
      "name": "setTreasuryPercent",
      "outputs": [],
      "stateMutability": "nonpayable",
      "type": "function"
    },
    {
      "inputs": [],
      "name": "startTimestamp",
      "outputs": [
        {
          "internalType": "uint256",
          "name": "",
          "type": "uint256"
        }
      ],
      "stateMutability": "view",
      "type": "function"
    },
    {
      "inputs": [],
      "name": "totalAllocPoint",
      "outputs": [
        {
          "internalType": "uint256",
          "name": "",
          "type": "uint256"
        }
      ],
      "stateMutability": "view",
      "type": "function"
    },
    {
      "inputs": [
        {
          "internalType": "address",
          "name": "newOwner",
          "type": "address"
        }
      ],
      "name": "transferOwnership",
      "outputs": [],
      "stateMutability": "nonpayable",
      "type": "function"
    },
    {
      "inputs": [],
      "name": "treasuryPercent",
      "outputs": [
        {
          "internalType": "uint256",
          "name": "",
          "type": "uint256"
        }
      ],
      "stateMutability": "view",
      "type": "function"
    },
    {
      "inputs": [],
      "name": "treasuryaddr",
      "outputs": [
        {
          "internalType": "address",
          "name": "",
          "type": "address"
        }
      ],
      "stateMutability": "view",
      "type": "function"
    },
    {
      "inputs": [
        {
          "internalType": "uint256",
          "name": "_joePerSec",
          "type": "uint256"
        }
      ],
      "name": "updateEmissionRate",
      "outputs": [],
      "stateMutability": "nonpayable",
      "type": "function"
    },
    {
      "inputs": [
        {
          "internalType": "uint256",
          "name": "multiplierNumber",
          "type": "uint256"
        }
      ],
      "name": "updateMultiplier",
      "outputs": [],
      "stateMutability": "nonpayable",
      "type": "function"
    },
    {
      "inputs": [
        {
          "internalType": "uint256",
          "name": "_pid",
          "type": "uint256"
        }
      ],
      "name": "updatePool",
      "outputs": [],
      "stateMutability": "nonpayable",
      "type": "function"
    },
    {
      "inputs": [
        {
          "internalType": "uint256",
          "name": "",
          "type": "uint256"
        },
        {
          "internalType": "address",
          "name": "",
          "type": "address"
        }
      ],
      "name": "userInfo",
      "outputs": [
        {
          "internalType": "uint256",
          "name": "amount",
          "type": "uint256"
        },
        {
          "internalType": "uint256",
          "name": "rewardDebt",
          "type": "uint256"
        }
      ],
      "stateMutability": "view",
      "type": "function"
    },
    {
      "inputs": [
        {
          "internalType": "uint256",
          "name": "_pid",
          "type": "uint256"
        },
        {
          "internalType": "uint256",
          "name": "_amount",
          "type": "uint256"
        }
      ],
      "name": "withdraw",
      "outputs": [],
      "stateMutability": "nonpayable",
      "type": "function"
    }
  ],
  "transactionHash": "0x319c00f412879e7e61deeab2cd660187078ac75aad9747115d5509dec78ea7ff",
  "args": [
    "0x49d5C2B8203F33436375EE93Faa92b5392216eC0",
    "0x125c2EE2d4765891EAeAdDA8e4F06473282E3060",
    "0xD2A71475eca084C14a3f08Fa12C98362972e889C",
    "100000000000000000000",
    "1619065864",
    "200",
    "200"
  ],
  "solcInputHash": "1c45e2e9c1a967be989fee50fc73844a",
  "bytecode": "0x608060405260016005556000600b553480156200001b57600080fd5b506040516200208f3803806200208f833981810160405260e08110156200004157600080fd5b508051602082015160408301516060840151608085015160a086015160c090960151949593949293919290919060006200007a620001e5565b600080546001600160a01b0319166001600160a01b0383169081178255604051929350917f8be0079c531659141344cd1fd0a4f28419497f9722a3daafe3b4186f6b6457e0908290a3506103e8821115620001075760405162461bcd60e51b8152600401808060200182810382526026815260200180620020466026913960400191505060405180910390fd5b6103e88111156200014a5760405162461bcd60e51b815260040180806020018281038252602b8152602001806200201b602b913960400191505060405180910390fd5b6103e881830111156200018f5760405162461bcd60e51b81526004018080602001828103825260238152602001806200206c6023913960400191505060405180910390fd5b600180546001600160a01b03199081166001600160a01b03998a161790915560028054821697891697909717909655600380549096169490961693909317909355600455600c91909155600655600755620001e9565b3390565b611e2280620001f96000396000f3fe608060405234801561001057600080fd5b50600436106101da5760003560e01c80636eaddad21161010457806393f1a40b116100a2578063e2bbb15811610071578063e2bbb158146104c8578063e6fd48bc146104eb578063f2fde38b146104f3578063fc3c28af14610519576101da565b806393f1a40b1461046b578063b985a3a0146104b0578063ca418d23146104b8578063d49e77cd146104c0576101da565b80638aa28550116100de5780638aa28550146104125780638d88a90e1461041a5780638da5cb5b146104405780638dbb1e3a14610448576101da565b80636eaddad2146103d0578063715018a6146103ed57806389a2bc25146103f5576101da565b80633ccb21491161017c5780635b16ebb71161014b5780635b16ebb71461034d5780635ffe614614610387578063630b5ba1146103a45780636e99b75e146103ac576101da565b80633ccb2149146102c4578063441a3e70146102f057806351eb05a6146103135780635312ea8e14610330576101da565b80631526fe27116101b85780631526fe271461022057806317caf6f11461026d5780631ab06ee5146102755780632b8bbbe814610298576101da565b806304ef9d58146101df578063081e3eda146101f95780630ba84cd214610201575b600080fd5b6101e7610521565b60408051918252519081900360200190f35b6101e7610527565b61021e6004803603602081101561021757600080fd5b503561052d565b005b61023d6004803603602081101561023657600080fd5b50356105d5565b604080516001600160a01b0390951685526020850193909352838301919091526060830152519081900360800190f35b6101e7610616565b61021e6004803603604081101561028b57600080fd5b508035906020013561061c565b61021e600480360360408110156102ae57600080fd5b50803590602001356001600160a01b0316610728565b6101e7600480360360408110156102da57600080fd5b50803590602001356001600160a01b0316610960565b61021e6004803603604081101561030657600080fd5b5080359060200135610aea565b61021e6004803603602081101561032957600080fd5b5035610c31565b61021e6004803603602081101561034657600080fd5b5035610f1c565b6103736004803603602081101561036357600080fd5b50356001600160a01b0316610fb7565b604080519115158252519081900360200190f35b61021e6004803603602081101561039d57600080fd5b5035610fcc565b61021e611033565b6103b4611056565b604080516001600160a01b039092168252519081900360200190f35b61021e600480360360208110156103e657600080fd5b5035611065565b61021e611152565b61021e6004803603602081101561040b57600080fd5b50356111fe565b6101e76112eb565b61021e6004803603602081101561043057600080fd5b50356001600160a01b03166112f1565b6103b4611388565b6101e76004803603604081101561045e57600080fd5b5080359060200135611397565b6104976004803603604081101561048157600080fd5b50803590602001356001600160a01b03166113b2565b6040805192835260208301919091528051918290030190f35b6103b46113d6565b6101e76113e5565b6103b46113eb565b61021e600480360360408110156104de57600080fd5b50803590602001356113fa565b6101e76114ff565b61021e6004803603602081101561050957600080fd5b50356001600160a01b0316611505565b6101e7611607565b60075481565b60085490565b61053561160d565b6001600160a01b0316610546611388565b6001600160a01b03161461058f576040805162461bcd60e51b81526020600482018190526024820152600080516020611d5a833981519152604482015290519081900360640190fd5b610597611033565b600481905560408051828152905133917fe2492e003bbe8afa53088b406f0c1cb5d9e280370fc72a74cf116ffd343c4053919081900360200190a250565b600881815481106105e257fe5b600091825260209091206004909102018054600182015460028301546003909301546001600160a01b039092169350919084565b600b5481565b61062461160d565b6001600160a01b0316610635611388565b6001600160a01b03161461067e576040805162461bcd60e51b81526020600482018190526024820152600080516020611d5a833981519152604482015290519081900360640190fd5b610686611033565b6106c3816106bd6008858154811061069a57fe5b906000526020600020906004020160010154600b5461161190919063ffffffff16565b9061166e565b600b8190555080600883815481106106d757fe5b906000526020600020906004020160010181905550817f545b620a3000f6303b158b321f06b4e95e28a27d70aecac8c6bdac4f48a9f6b3826040518082815260200191505060405180910390a25050565b61073061160d565b6001600160a01b0316610741611388565b6001600160a01b03161461078a576040805162461bcd60e51b81526020600482018190526024820152600080516020611d5a833981519152604482015290519081900360640190fd5b6001600160a01b03811660009081526009602052604090205460ff16156107f0576040805162461bcd60e51b81526020600482015260156024820152741859190e88131408185b1c9958591e481859191959605a1b604482015290519081900360640190fd5b6107f8611033565b6000600c54421161080b57600c5461080d565b425b600b5490915061081d908461166e565b600b55604080516080810182526001600160a01b038481168083526020808401888152848601878152600060608701818152600880546001808201835591845298517ff3f7a9fe364faab93b216da50a3214154f22a0a2b415b23a84c8169e8b636ee36004909a02998a0180546001600160a01b031916919099161790975592517ff3f7a9fe364faab93b216da50a3214154f22a0a2b415b23a84c8169e8b636ee488015590517ff3f7a9fe364faab93b216da50a3214154f22a0a2b415b23a84c8169e8b636ee587015590517ff3f7a9fe364faab93b216da50a3214154f22a0a2b415b23a84c8169e8b636ee6909501949094558184526009815292849020805460ff19169092179091558251868152925190927f2728c9d3205d667bbc0eefdfeda366261b4d021949630c047f3e5834b30611ab92908290030190a2505050565b6000806008848154811061097057fe5b60009182526020808320878452600a825260408085206001600160a01b03898116875290845281862060049586029093016003810154815484516370a0823160e01b81523098810198909852935191985093969395939492909116926370a08231926024808301939192829003018186803b1580156109ee57600080fd5b505afa158015610a02573d6000803e3d6000fd5b505050506040513d6020811015610a1857600080fd5b5051600285015490915042118015610a2f57508015155b15610aaf576000610a44856002015442611397565b90506000610a8b6103e8610a856007546006546103e80303610a7f600b54610a858c60010154610a7f6004548b6116c890919063ffffffff16565b906116c8565b90611721565b9050610aaa610aa384610a858464e8d4a510006116c8565b859061166e565b935050505b610add8360010154610ad764e8d4a51000610a858688600001546116c890919063ffffffff16565b90611611565b9450505050505b92915050565b600060088381548110610af957fe5b60009182526020808320868452600a825260408085203386529092529220805460049092029092019250831115610b6c576040805162461bcd60e51b81526020600482015260126024820152711dda5d1a191c985dce881b9bdd0819dbdbd960721b604482015290519081900360640190fd5b610b7584610c31565b6000610ba38260010154610ad764e8d4a51000610a85876003015487600001546116c890919063ffffffff16565b9050610baf3382611788565b8154610bbb9085611611565b82558254610bd3906001600160a01b03163386611919565b60038301548254610bee9164e8d4a5100091610a85916116c8565b6001830155604080518581529051869133917ff279e6a1f5e320cca91135676d9cb6e44ca8a08c0b88342bcdb1144f6511b5689181900360200190a35050505050565b600060088281548110610c4057fe5b9060005260206000209060040201905080600201544211610c615750610f19565b8054604080516370a0823160e01b815230600482015290516000926001600160a01b0316916370a08231916024808301926020929190829003018186803b158015610cab57600080fd5b505afa158015610cbf573d6000803e3d6000fd5b505050506040513d6020811015610cd557600080fd5b5051905080610ceb575042600290910155610f19565b6000610cfb836002015442611397565b90506000610d22600b54610a858660010154610a7f600454876116c890919063ffffffff16565b6007546006546001546002549394506103e882810393909303936001600160a01b03918216936340c10f19939190921691610d6291610a859088906116c8565b6040518363ffffffff1660e01b815260040180836001600160a01b0316815260200182815260200192505050600060405180830381600087803b158015610da857600080fd5b505af1158015610dbc573d6000803e3d6000fd5b50506001546003546007546001600160a01b0392831694506340c10f199350911690610df1906103e890610a859088906116c8565b6040518363ffffffff1660e01b815260040180836001600160a01b0316815260200182815260200192505050600060405180830381600087803b158015610e3757600080fd5b505af1158015610e4b573d6000803e3d6000fd5b50506001546001600160a01b031691506340c10f19905030610e736103e8610a8587876116c8565b6040518363ffffffff1660e01b815260040180836001600160a01b0316815260200182815260200192505050600060405180830381600087803b158015610eb957600080fd5b505af1158015610ecd573d6000803e3d6000fd5b50505050610f05610efa6103e8610a8584610a7f89610a8564e8d4a510008a6116c890919063ffffffff16565b60038701549061166e565b600386015550504260029093019290925550505b50565b600060088281548110610f2b57fe5b60009182526020808320858452600a82526040808520338087529352909320805460049093029093018054909450610f70926001600160a01b03919091169190611919565b80546040805191825251849133917fbb757047c2b5f3974fe26b7c10f732e7bce710b0952a71082702781e62ae05959181900360200190a360008082556001909101555050565b60096020526000908152604090205460ff1681565b610fd461160d565b6001600160a01b0316610fe5611388565b6001600160a01b03161461102e576040805162461bcd60e51b81526020600482018190526024820152600080516020611d5a833981519152604482015290519081900360640190fd5b600555565b60085460005b818110156110525761104a81610c31565b600101611039565b5050565b6003546001600160a01b031681565b61106d61160d565b6001600160a01b031661107e611388565b6001600160a01b0316146110c7576040805162461bcd60e51b81526020600482018190526024820152600080516020611d5a833981519152604482015290519081900360640190fd5b6103e88111156111085760405162461bcd60e51b8152600401808060200182810382526024815260200180611dc96024913960400191505060405180910390fd5b6103e88160075401111561114d5760405162461bcd60e51b8152600401808060200182810382526025815260200180611d7a6025913960400191505060405180910390fd5b600655565b61115a61160d565b6001600160a01b031661116b611388565b6001600160a01b0316146111b4576040805162461bcd60e51b81526020600482018190526024820152600080516020611d5a833981519152604482015290519081900360640190fd5b600080546040516001600160a01b03909116907f8be0079c531659141344cd1fd0a4f28419497f9722a3daafe3b4186f6b6457e0908390a3600080546001600160a01b0319169055565b61120661160d565b6001600160a01b0316611217611388565b6001600160a01b031614611260576040805162461bcd60e51b81526020600482018190526024820152600080516020611d5a833981519152604482015290519081900360640190fd5b6103e88111156112a15760405162461bcd60e51b8152600401808060200182810382526029815260200180611cea6029913960400191505060405180910390fd5b6103e8816006540111156112e65760405162461bcd60e51b815260040180806020018281038252602a815260200180611c9a602a913960400191505060405180910390fd5b600755565b60055481565b6002546001600160a01b0316331461133c576040805162461bcd60e51b81526020600482015260096024820152686465763a207775743f60b81b604482015290519081900360640190fd5b600280546001600160a01b0319166001600160a01b03831690811790915560405133907f618c54559e94f1499a808aad71ee8729f8e74e8c48e979616328ce493a1a52e790600090a350565b6000546001600160a01b031690565b6005546000906113ab90610a7f8486611611565b9392505050565b600a6020908152600092835260408084209091529082529020805460019091015482565b6001546001600160a01b031681565b60045481565b6002546001600160a01b031681565b60006008838154811061140957fe5b60009182526020808320868452600a8252604080852033865290925292206004909102909101915061143a84610c31565b80541561147d57600061146f8260010154610ad764e8d4a51000610a85876003015487600001546116c890919063ffffffff16565b905061147b3382611788565b505b8154611494906001600160a01b031633308661196b565b80546114a0908461166e565b80825560038301546114bd9164e8d4a5100091610a8591906116c8565b6001820155604080518481529051859133917f90890809c654f11d6e72a28fa60149770a0d11ec6c92319d6ceb2bb0a4ea1a159181900360200190a350505050565b600c5481565b61150d61160d565b6001600160a01b031661151e611388565b6001600160a01b031614611567576040805162461bcd60e51b81526020600482018190526024820152600080516020611d5a833981519152604482015290519081900360640190fd5b6001600160a01b0381166115ac5760405162461bcd60e51b8152600401808060200182810382526026815260200180611cc46026913960400191505060405180910390fd5b600080546040516001600160a01b03808516939216917f8be0079c531659141344cd1fd0a4f28419497f9722a3daafe3b4186f6b6457e091a3600080546001600160a01b0319166001600160a01b0392909216919091179055565b60065481565b3390565b600082821115611668576040805162461bcd60e51b815260206004820152601e60248201527f536166654d6174683a207375627472616374696f6e206f766572666c6f770000604482015290519081900360640190fd5b50900390565b6000828201838110156113ab576040805162461bcd60e51b815260206004820152601b60248201527f536166654d6174683a206164646974696f6e206f766572666c6f770000000000604482015290519081900360640190fd5b6000826116d757506000610ae4565b828202828482816116e457fe5b04146113ab5760405162461bcd60e51b8152600401808060200182810382526021815260200180611d396021913960400191505060405180910390fd5b6000808211611777576040805162461bcd60e51b815260206004820152601a60248201527f536166654d6174683a206469766973696f6e206279207a65726f000000000000604482015290519081900360640190fd5b81838161178057fe5b049392505050565b600154604080516370a0823160e01b815230600482015290516000926001600160a01b0316916370a08231916024808301926020929190829003018186803b1580156117d357600080fd5b505afa1580156117e7573d6000803e3d6000fd5b505050506040513d60208110156117fd57600080fd5b5051905080821115611891576001546040805163a9059cbb60e01b81526001600160a01b038681166004830152602482018590529151919092169163a9059cbb9160448083019260209291908290030181600087803b15801561185f57600080fd5b505af1158015611873573d6000803e3d6000fd5b505050506040513d602081101561188957600080fd5b506119149050565b6001546040805163a9059cbb60e01b81526001600160a01b038681166004830152602482018690529151919092169163a9059cbb9160448083019260209291908290030181600087803b1580156118e757600080fd5b505af11580156118fb573d6000803e3d6000fd5b505050506040513d602081101561191157600080fd5b50505b505050565b604080516001600160a01b038416602482015260448082018490528251808303909101815260649091019091526020810180516001600160e01b031663a9059cbb60e01b1790526119149084906119cb565b604080516001600160a01b0380861660248301528416604482015260648082018490528251808303909101815260849091019091526020810180516001600160e01b03166323b872dd60e01b1790526119c59085906119cb565b50505050565b6060611a20826040518060400160405280602081526020017f5361666545524332303a206c6f772d6c6576656c2063616c6c206661696c6564815250856001600160a01b0316611a7c9092919063ffffffff16565b80519091501561191457808060200190516020811015611a3f57600080fd5b50516119145760405162461bcd60e51b815260040180806020018281038252602a815260200180611d9f602a913960400191505060405180910390fd5b6060611a8b8484600085611a93565b949350505050565b606082471015611ad45760405162461bcd60e51b8152600401808060200182810382526026815260200180611d136026913960400191505060405180910390fd5b611add85611bef565b611b2e576040805162461bcd60e51b815260206004820152601d60248201527f416464726573733a2063616c6c20746f206e6f6e2d636f6e7472616374000000604482015290519081900360640190fd5b60006060866001600160a01b031685876040518082805190602001908083835b60208310611b6d5780518252601f199092019160209182019101611b4e565b6001836020036101000a03801982511681845116808217855250505050505090500191505060006040518083038185875af1925050503d8060008114611bcf576040519150601f19603f3d011682016040523d82523d6000602084013e611bd4565b606091505b5091509150611be4828286611bf5565b979650505050505050565b3b151590565b60608315611c045750816113ab565b825115611c145782518084602001fd5b8160405162461bcd60e51b81526004018080602001828103825283818151815260200191508051906020019080838360005b83811015611c5e578181015183820152602001611c46565b50505050905090810190601f168015611c8b5780820380516001836020036101000a031916815260200191505b509250505060405180910390fdfe736574547265617375727950657263656e743a20746f74616c2070657263656e74206f766572206d61784f776e61626c653a206e6577206f776e657220697320746865207a65726f2061646472657373736574547265617375727950657263656e743a20696e76616c69642070657263656e742076616c7565416464726573733a20696e73756666696369656e742062616c616e636520666f722063616c6c536166654d6174683a206d756c7469706c69636174696f6e206f766572666c6f774f776e61626c653a2063616c6c6572206973206e6f7420746865206f776e657273657444657650657263656e743a20746f74616c2070657263656e74206f766572206d61785361666545524332303a204552433230206f7065726174696f6e20646964206e6f74207375636365656473657444657650657263656e743a20696e76616c69642070657263656e742076616c7565a2646970667358221220ab0de03d93924c49736676a4787a4fd641b42ea951b136f2a76483a2872420d364736f6c634300060c0033636f6e7374727563746f723a20696e76616c69642074726561737572792070657263656e742076616c7565636f6e7374727563746f723a20696e76616c6964206465762070657263656e742076616c7565636f6e7374727563746f723a20746f74616c2070657263656e74206f766572206d6178",
  "devdoc": {
    "kind": "dev",
    "methods": {
      "owner()": {
        "details": "Returns the address of the current owner."
      },
      "renounceOwnership()": {
        "details": "Leaves the contract without owner. It will not be possible to call `onlyOwner` functions anymore. Can only be called by the current owner. NOTE: Renouncing ownership will leave the contract without an owner, thereby removing any functionality that is only available to the owner."
      },
      "transferOwnership(address)": {
        "details": "Transfers ownership of the contract to a new account (`newOwner`). Can only be called by the current owner."
      }
    },
    "version": 1
  },
  "userdoc": {
    "kind": "user",
    "methods": {},
    "version": 1
  },
  "storageLayout": {
    "storage": [
      {
        "astId": 7,
        "contract": "contracts/MasterChefJoe.sol:MasterChefJoe",
        "label": "_owner",
        "offset": 0,
        "slot": "0",
        "type": "t_address"
      },
      {
        "astId": 4724,
        "contract": "contracts/MasterChefJoe.sol:MasterChefJoe",
        "label": "joe",
        "offset": 0,
        "slot": "1",
        "type": "t_contract(JoeToken)4684"
      },
      {
        "astId": 4726,
        "contract": "contracts/MasterChefJoe.sol:MasterChefJoe",
        "label": "devaddr",
        "offset": 0,
        "slot": "2",
        "type": "t_address"
      },
      {
        "astId": 4728,
        "contract": "contracts/MasterChefJoe.sol:MasterChefJoe",
        "label": "treasuryaddr",
        "offset": 0,
        "slot": "3",
        "type": "t_address"
      },
      {
        "astId": 4730,
        "contract": "contracts/MasterChefJoe.sol:MasterChefJoe",
        "label": "joePerSec",
        "offset": 0,
        "slot": "4",
        "type": "t_uint256"
      },
      {
        "astId": 4733,
        "contract": "contracts/MasterChefJoe.sol:MasterChefJoe",
        "label": "BONUS_MULTIPLIER",
        "offset": 0,
        "slot": "5",
        "type": "t_uint256"
      },
      {
        "astId": 4735,
        "contract": "contracts/MasterChefJoe.sol:MasterChefJoe",
        "label": "devPercent",
        "offset": 0,
        "slot": "6",
        "type": "t_uint256"
      },
      {
        "astId": 4737,
        "contract": "contracts/MasterChefJoe.sol:MasterChefJoe",
        "label": "treasuryPercent",
        "offset": 0,
        "slot": "7",
        "type": "t_uint256"
      },
      {
        "astId": 4740,
        "contract": "contracts/MasterChefJoe.sol:MasterChefJoe",
        "label": "poolInfo",
        "offset": 0,
        "slot": "8",
        "type": "t_array(t_struct(PoolInfo)4722_storage)dyn_storage"
      },
      {
        "astId": 4744,
        "contract": "contracts/MasterChefJoe.sol:MasterChefJoe",
        "label": "isPool",
        "offset": 0,
        "slot": "9",
        "type": "t_mapping(t_contract(IERC20)1045,t_bool)"
      },
      {
        "astId": 4750,
        "contract": "contracts/MasterChefJoe.sol:MasterChefJoe",
        "label": "userInfo",
        "offset": 0,
        "slot": "10",
        "type": "t_mapping(t_uint256,t_mapping(t_address,t_struct(UserInfo)4713_storage))"
      },
      {
        "astId": 4753,
        "contract": "contracts/MasterChefJoe.sol:MasterChefJoe",
        "label": "totalAllocPoint",
        "offset": 0,
        "slot": "11",
        "type": "t_uint256"
      },
      {
        "astId": 4755,
        "contract": "contracts/MasterChefJoe.sol:MasterChefJoe",
        "label": "startTimestamp",
        "offset": 0,
        "slot": "12",
        "type": "t_uint256"
      }
    ],
    "types": {
      "t_address": {
        "encoding": "inplace",
        "label": "address",
        "numberOfBytes": "20"
      },
      "t_array(t_struct(PoolInfo)4722_storage)dyn_storage": {
        "base": "t_struct(PoolInfo)4722_storage",
        "encoding": "dynamic_array",
        "label": "struct MasterChefJoe.PoolInfo[]",
        "numberOfBytes": "32"
      },
      "t_bool": {
        "encoding": "inplace",
        "label": "bool",
        "numberOfBytes": "1"
      },
      "t_contract(IERC20)1045": {
        "encoding": "inplace",
        "label": "contract IERC20",
        "numberOfBytes": "20"
      },
      "t_contract(JoeToken)4684": {
        "encoding": "inplace",
        "label": "contract JoeToken",
        "numberOfBytes": "20"
      },
      "t_mapping(t_address,t_struct(UserInfo)4713_storage)": {
        "encoding": "mapping",
        "key": "t_address",
        "label": "mapping(address => struct MasterChefJoe.UserInfo)",
        "numberOfBytes": "32",
        "value": "t_struct(UserInfo)4713_storage"
      },
      "t_mapping(t_contract(IERC20)1045,t_bool)": {
        "encoding": "mapping",
        "key": "t_contract(IERC20)1045",
        "label": "mapping(contract IERC20 => bool)",
        "numberOfBytes": "32",
        "value": "t_bool"
      },
      "t_mapping(t_uint256,t_mapping(t_address,t_struct(UserInfo)4713_storage))": {
        "encoding": "mapping",
        "key": "t_uint256",
        "label": "mapping(uint256 => mapping(address => struct MasterChefJoe.UserInfo))",
        "numberOfBytes": "32",
        "value": "t_mapping(t_address,t_struct(UserInfo)4713_storage)"
      },
      "t_struct(PoolInfo)4722_storage": {
        "encoding": "inplace",
        "label": "struct MasterChefJoe.PoolInfo",
        "members": [
          {
            "astId": 4715,
            "contract": "contracts/MasterChefJoe.sol:MasterChefJoe",
            "label": "lpToken",
            "offset": 0,
            "slot": "0",
            "type": "t_contract(IERC20)1045"
          },
          {
            "astId": 4717,
            "contract": "contracts/MasterChefJoe.sol:MasterChefJoe",
            "label": "allocPoint",
            "offset": 0,
            "slot": "1",
            "type": "t_uint256"
          },
          {
            "astId": 4719,
            "contract": "contracts/MasterChefJoe.sol:MasterChefJoe",
            "label": "lastRewardTimestamp",
            "offset": 0,
            "slot": "2",
            "type": "t_uint256"
          },
          {
            "astId": 4721,
            "contract": "contracts/MasterChefJoe.sol:MasterChefJoe",
            "label": "accJoePerShare",
            "offset": 0,
            "slot": "3",
            "type": "t_uint256"
          }
        ],
        "numberOfBytes": "128"
      },
      "t_struct(UserInfo)4713_storage": {
        "encoding": "inplace",
        "label": "struct MasterChefJoe.UserInfo",
        "members": [
          {
            "astId": 4710,
            "contract": "contracts/MasterChefJoe.sol:MasterChefJoe",
            "label": "amount",
            "offset": 0,
            "slot": "0",
            "type": "t_uint256"
          },
          {
            "astId": 4712,
            "contract": "contracts/MasterChefJoe.sol:MasterChefJoe",
            "label": "rewardDebt",
            "offset": 0,
            "slot": "1",
            "type": "t_uint256"
          }
        ],
        "numberOfBytes": "64"
      },
      "t_uint256": {
        "encoding": "inplace",
        "label": "uint256",
        "numberOfBytes": "32"
      }
    }
  }
}