{
  "address": "0x770B6E8a1b39F1a3ea06069cbd6d1e0b5dB264f3",
  "abi": [
    {
      "inputs": [
        {
          "internalType": "contract JoeToken",
          "name": "_joe",
          "type": "address"
        },
        {
          "internalType": "address",
          "name": "_devaddr",
          "type": "address"
        },
        {
          "internalType": "address",
          "name": "_treasuryaddr",
          "type": "address"
        },
        {
          "internalType": "uint256",
          "name": "_joePerSec",
          "type": "uint256"
        },
        {
          "internalType": "uint256",
          "name": "_startTimestamp",
          "type": "uint256"
        },
        {
          "internalType": "uint256",
          "name": "_devPercent",
          "type": "uint256"
        },
        {
          "internalType": "uint256",
          "name": "_treasuryPercent",
          "type": "uint256"
        }
      ],
      "stateMutability": "nonpayable",
      "type": "constructor"
    },
    {
      "anonymous": false,
      "inputs": [
        {
          "indexed": true,
          "internalType": "address",
          "name": "lpToken",
          "type": "address"
        },
        {
          "indexed": false,
          "internalType": "uint256",
          "name": "allocPoint",
          "type": "uint256"
        }
      ],
      "name": "Add",
      "type": "event"
    },
    {
      "anonymous": false,
      "inputs": [
        {
          "indexed": true,
          "internalType": "address",
          "name": "user",
          "type": "address"
        },
        {
          "indexed": true,
          "internalType": "uint256",
          "name": "pid",
          "type": "uint256"
        },
        {
          "indexed": false,
          "internalType": "uint256",
          "name": "amount",
          "type": "uint256"
        }
      ],
      "name": "Deposit",
      "type": "event"
    },
    {
      "anonymous": false,
      "inputs": [
        {
          "indexed": true,
          "internalType": "address",
          "name": "user",
          "type": "address"
        },
        {
          "indexed": true,
          "internalType": "uint256",
          "name": "pid",
          "type": "uint256"
        },
        {
          "indexed": false,
          "internalType": "uint256",
          "name": "amount",
          "type": "uint256"
        }
      ],
      "name": "EmergencyWithdraw",
      "type": "event"
    },
    {
      "anonymous": false,
      "inputs": [
        {
          "indexed": true,
          "internalType": "address",
          "name": "previousOwner",
          "type": "address"
        },
        {
          "indexed": true,
          "internalType": "address",
          "name": "newOwner",
          "type": "address"
        }
      ],
      "name": "OwnershipTransferred",
      "type": "event"
    },
    {
      "anonymous": false,
      "inputs": [
        {
          "indexed": true,
          "internalType": "uint256",
          "name": "pid",
          "type": "uint256"
        },
        {
          "indexed": false,
          "internalType": "uint256",
          "name": "allocPoint",
          "type": "uint256"
        }
      ],
      "name": "Set",
      "type": "event"
    },
    {
      "anonymous": false,
      "inputs": [
        {
          "indexed": true,
          "internalType": "address",
          "name": "oldAddress",
          "type": "address"
        },
        {
          "indexed": true,
          "internalType": "address",
          "name": "newAddress",
          "type": "address"
        }
      ],
      "name": "SetDevAddress",
      "type": "event"
    },
    {
      "anonymous": false,
      "inputs": [
        {
          "indexed": true,
          "internalType": "address",
          "name": "user",
          "type": "address"
        },
        {
          "indexed": false,
          "internalType": "uint256",
          "name": "_joePerSec",
          "type": "uint256"
        }
      ],
      "name": "UpdateEmissionRate",
      "type": "event"
    },
    {
      "anonymous": false,
      "inputs": [
        {
          "indexed": true,
          "internalType": "address",
          "name": "user",
          "type": "address"
        },
        {
          "indexed": true,
          "internalType": "uint256",
          "name": "pid",
          "type": "uint256"
        },
        {
          "indexed": false,
          "internalType": "uint256",
          "name": "amount",
          "type": "uint256"
        }
      ],
      "name": "Withdraw",
      "type": "event"
    },
    {
      "inputs": [
        {
          "internalType": "uint256",
          "name": "_allocPoint",
          "type": "uint256"
        },
        {
          "internalType": "contract IERC20",
          "name": "_lpToken",
          "type": "address"
        }
      ],
      "name": "add",
      "outputs": [],
      "stateMutability": "nonpayable",
      "type": "function"
    },
    {
      "inputs": [
        {
          "internalType": "uint256",
          "name": "_pid",
          "type": "uint256"
        },
        {
          "internalType": "uint256",
          "name": "_amount",
          "type": "uint256"
        }
      ],
      "name": "deposit",
      "outputs": [],
      "stateMutability": "nonpayable",
      "type": "function"
    },
    {
      "inputs": [
        {
          "internalType": "address",
          "name": "_devaddr",
          "type": "address"
        }
      ],
      "name": "dev",
      "outputs": [],
      "stateMutability": "nonpayable",
      "type": "function"
    },
    {
      "inputs": [],
      "name": "devPercent",
      "outputs": [
        {
          "internalType": "uint256",
          "name": "",
          "type": "uint256"
        }
      ],
      "stateMutability": "view",
      "type": "function"
    },
    {
      "inputs": [],
      "name": "devaddr",
      "outputs": [
        {
          "internalType": "address",
          "name": "",
          "type": "address"
        }
      ],
      "stateMutability": "view",
      "type": "function"
    },
    {
      "inputs": [
        {
          "internalType": "uint256",
          "name": "_pid",
          "type": "uint256"
        }
      ],
      "name": "emergencyWithdraw",
      "outputs": [],
      "stateMutability": "nonpayable",
      "type": "function"
    },
    {
      "inputs": [
        {
          "internalType": "contract IERC20",
          "name": "",
          "type": "address"
        }
      ],
      "name": "isPool",
      "outputs": [
        {
          "internalType": "bool",
          "name": "",
          "type": "bool"
        }
      ],
      "stateMutability": "view",
      "type": "function"
    },
    {
      "inputs": [],
      "name": "joe",
      "outputs": [
        {
          "internalType": "contract JoeToken",
          "name": "",
          "type": "address"
        }
      ],
      "stateMutability": "view",
      "type": "function"
    },
    {
      "inputs": [],
      "name": "joePerSec",
      "outputs": [
        {
          "internalType": "uint256",
          "name": "",
          "type": "uint256"
        }
      ],
      "stateMutability": "view",
      "type": "function"
    },
    {
      "inputs": [],
      "name": "massUpdatePools",
      "outputs": [],
      "stateMutability": "nonpayable",
      "type": "function"
    },
    {
      "inputs": [],
      "name": "owner",
      "outputs": [
        {
          "internalType": "address",
          "name": "",
          "type": "address"
        }
      ],
      "stateMutability": "view",
      "type": "function"
    },
    {
      "inputs": [
        {
          "internalType": "uint256",
          "name": "_pid",
          "type": "uint256"
        },
        {
          "internalType": "address",
          "name": "_user",
          "type": "address"
        }
      ],
      "name": "pendingJoe",
      "outputs": [
        {
          "internalType": "uint256",
          "name": "",
          "type": "uint256"
        }
      ],
      "stateMutability": "view",
      "type": "function"
    },
    {
      "inputs": [
        {
          "internalType": "uint256",
          "name": "",
          "type": "uint256"
        }
      ],
      "name": "poolInfo",
      "outputs": [
        {
          "internalType": "contract IERC20",
          "name": "lpToken",
          "type": "address"
        },
        {
          "internalType": "uint256",
          "name": "allocPoint",
          "type": "uint256"
        },
        {
          "internalType": "uint256",
          "name": "lastRewardTimestamp",
          "type": "uint256"
        },
        {
          "internalType": "uint256",
          "name": "accJoePerShare",
          "type": "uint256"
        }
      ],
      "stateMutability": "view",
      "type": "function"
    },
    {
      "inputs": [],
      "name": "poolLength",
      "outputs": [
        {
          "internalType": "uint256",
          "name": "",
          "type": "uint256"
        }
      ],
      "stateMutability": "view",
      "type": "function"
    },
    {
      "inputs": [],
      "name": "renounceOwnership",
      "outputs": [],
      "stateMutability": "nonpayable",
      "type": "function"
    },
    {
      "inputs": [
        {
          "internalType": "uint256",
          "name": "_pid",
          "type": "uint256"
        },
        {
          "internalType": "uint256",
          "name": "_allocPoint",
          "type": "uint256"
        }
      ],
      "name": "set",
      "outputs": [],
      "stateMutability": "nonpayable",
      "type": "function"
    },
    {
      "inputs": [
        {
          "internalType": "uint256",
          "name": "_newDevPercent",
          "type": "uint256"
        }
      ],
      "name": "setDevPercent",
      "outputs": [],
      "stateMutability": "nonpayable",
      "type": "function"
    },
    {
      "inputs": [
        {
          "internalType": "uint256",
          "name": "_newTreasuryPercent",
          "type": "uint256"
        }
      ],
      "name": "setTreasuryPercent",
      "outputs": [],
      "stateMutability": "nonpayable",
      "type": "function"
    },
    {
      "inputs": [],
      "name": "startTimestamp",
      "outputs": [
        {
          "internalType": "uint256",
          "name": "",
          "type": "uint256"
        }
      ],
      "stateMutability": "view",
      "type": "function"
    },
    {
      "inputs": [],
      "name": "totalAllocPoint",
      "outputs": [
        {
          "internalType": "uint256",
          "name": "",
          "type": "uint256"
        }
      ],
      "stateMutability": "view",
      "type": "function"
    },
    {
      "inputs": [
        {
          "internalType": "address",
          "name": "newOwner",
          "type": "address"
        }
      ],
      "name": "transferOwnership",
      "outputs": [],
      "stateMutability": "nonpayable",
      "type": "function"
    },
    {
      "inputs": [],
      "name": "treasuryPercent",
      "outputs": [
        {
          "internalType": "uint256",
          "name": "",
          "type": "uint256"
        }
      ],
      "stateMutability": "view",
      "type": "function"
    },
    {
      "inputs": [],
      "name": "treasuryaddr",
      "outputs": [
        {
          "internalType": "address",
          "name": "",
          "type": "address"
        }
      ],
      "stateMutability": "view",
      "type": "function"
    },
    {
      "inputs": [
        {
          "internalType": "uint256",
          "name": "_joePerSec",
          "type": "uint256"
        }
      ],
      "name": "updateEmissionRate",
      "outputs": [],
      "stateMutability": "nonpayable",
      "type": "function"
    },
    {
      "inputs": [
        {
          "internalType": "uint256",
          "name": "_pid",
          "type": "uint256"
        }
      ],
      "name": "updatePool",
      "outputs": [],
      "stateMutability": "nonpayable",
      "type": "function"
    },
    {
      "inputs": [
        {
          "internalType": "uint256",
          "name": "",
          "type": "uint256"
        },
        {
          "internalType": "address",
          "name": "",
          "type": "address"
        }
      ],
      "name": "userInfo",
      "outputs": [
        {
          "internalType": "uint256",
          "name": "amount",
          "type": "uint256"
        },
        {
          "internalType": "uint256",
          "name": "rewardDebt",
          "type": "uint256"
        }
      ],
      "stateMutability": "view",
      "type": "function"
    },
    {
      "inputs": [
        {
          "internalType": "uint256",
          "name": "_pid",
          "type": "uint256"
        },
        {
          "internalType": "uint256",
          "name": "_amount",
          "type": "uint256"
        }
      ],
      "name": "withdraw",
      "outputs": [],
      "stateMutability": "nonpayable",
      "type": "function"
    }
  ],
  "transactionHash": "0xacd5e50beb544bed5d944d969c290641744c224358c8d42503a7b0426d1d790c",
  "args": [
    "0x4bCa851F272B1a3DAdb077e86AFa94910160d03E",
    "0x125c2EE2d4765891EAeAdDA8e4F06473282E3060",
    "0xD2A71475eca084C14a3f08Fa12C98362972e889C",
    "100000000000000000000",
    "1619065864",
    "200",
    "200"
  ],
  "solcInputHash": "8536a9811254562a5bc06a088cb5c514",
  "bytecode": "0x60806040526000600a553480156200001657600080fd5b5060405162001fa238038062001fa2833981810160405260e08110156200003c57600080fd5b508051602082015160408301516060840151608085015160a086015160c0909601519495939492939192909190600062000075620001e0565b600080546001600160a01b0319166001600160a01b0383169081178255604051929350917f8be0079c531659141344cd1fd0a4f28419497f9722a3daafe3b4186f6b6457e0908290a3506103e8821115620001025760405162461bcd60e51b815260040180806020018281038252602681526020018062001f596026913960400191505060405180910390fd5b6103e8811115620001455760405162461bcd60e51b815260040180806020018281038252602b81526020018062001f2e602b913960400191505060405180910390fd5b6103e881830111156200018a5760405162461bcd60e51b815260040180806020018281038252602381526020018062001f7f6023913960400191505060405180910390fd5b600180546001600160a01b03199081166001600160a01b03998a161790915560028054821697891697909717909655600380549096169490961693909317909355600455600b91909155600555600655620001e4565b3390565b611d3a80620001f46000396000f3fe608060405234801561001057600080fd5b50600436106101a95760003560e01c80636e99b75e116100f9578063b985a3a011610097578063e2bbb15811610071578063e2bbb1581461044f578063e6fd48bc14610472578063f2fde38b1461047a578063fc3c28af146104a0576101a9565b8063b985a3a014610437578063ca418d231461043f578063d49e77cd14610447576101a9565b806389a2bc25116100d357806389a2bc25146103a75780638d88a90e146103c45780638da5cb5b146103ea57806393f1a40b146103f2576101a9565b80636e99b75e1461035e5780636eaddad214610382578063715018a61461039f576101a9565b80632b8bbbe81161016657806351eb05a61161014057806351eb05a6146102e25780635312ea8e146102ff5780635b16ebb71461031c578063630b5ba114610356576101a9565b80632b8bbbe8146102675780633ccb214914610293578063441a3e70146102bf576101a9565b806304ef9d58146101ae578063081e3eda146101c85780630ba84cd2146101d05780631526fe27146101ef57806317caf6f11461023c5780631ab06ee514610244575b600080fd5b6101b66104a8565b60408051918252519081900360200190f35b6101b66104ae565b6101ed600480360360208110156101e657600080fd5b50356104b4565b005b61020c6004803603602081101561020557600080fd5b503561055c565b604080516001600160a01b0390951685526020850193909352838301919091526060830152519081900360800190f35b6101b661059d565b6101ed6004803603604081101561025a57600080fd5b50803590602001356105a3565b6101ed6004803603604081101561027d57600080fd5b50803590602001356001600160a01b03166106af565b6101b6600480360360408110156102a957600080fd5b50803590602001356001600160a01b03166108e7565b6101ed600480360360408110156102d557600080fd5b5080359060200135610a7a565b6101ed600480360360208110156102f857600080fd5b5035610bc1565b6101ed6004803603602081101561031557600080fd5b5035610eb5565b6103426004803603602081101561033257600080fd5b50356001600160a01b0316610f50565b604080519115158252519081900360200190f35b6101ed610f65565b610366610f88565b604080516001600160a01b039092168252519081900360200190f35b6101ed6004803603602081101561039857600080fd5b5035610f97565b6101ed611084565b6101ed600480360360208110156103bd57600080fd5b5035611130565b6101ed600480360360208110156103da57600080fd5b50356001600160a01b031661121d565b6103666112b4565b61041e6004803603604081101561040857600080fd5b50803590602001356001600160a01b03166112c3565b6040805192835260208301919091528051918290030190f35b6103666112e7565b6101b66112f6565b6103666112fc565b6101ed6004803603604081101561046557600080fd5b508035906020013561130b565b6101b6611410565b6101ed6004803603602081101561049057600080fd5b50356001600160a01b0316611416565b6101b6611518565b60065481565b60075490565b6104bc61151e565b6001600160a01b03166104cd6112b4565b6001600160a01b031614610516576040805162461bcd60e51b81526020600482018190526024820152600080516020611c72833981519152604482015290519081900360640190fd5b61051e610f65565b600481905560408051828152905133917fe2492e003bbe8afa53088b406f0c1cb5d9e280370fc72a74cf116ffd343c4053919081900360200190a250565b6007818154811061056957fe5b600091825260209091206004909102018054600182015460028301546003909301546001600160a01b039092169350919084565b600a5481565b6105ab61151e565b6001600160a01b03166105bc6112b4565b6001600160a01b031614610605576040805162461bcd60e51b81526020600482018190526024820152600080516020611c72833981519152604482015290519081900360640190fd5b61060d610f65565b61064a816106446007858154811061062157fe5b906000526020600020906004020160010154600a5461152290919063ffffffff16565b9061157f565b600a81905550806007838154811061065e57fe5b906000526020600020906004020160010181905550817f545b620a3000f6303b158b321f06b4e95e28a27d70aecac8c6bdac4f48a9f6b3826040518082815260200191505060405180910390a25050565b6106b761151e565b6001600160a01b03166106c86112b4565b6001600160a01b031614610711576040805162461bcd60e51b81526020600482018190526024820152600080516020611c72833981519152604482015290519081900360640190fd5b6001600160a01b03811660009081526008602052604090205460ff1615610777576040805162461bcd60e51b81526020600482015260156024820152741859190e88131408185b1c9958591e481859191959605a1b604482015290519081900360640190fd5b61077f610f65565b6000600b54421161079257600b54610794565b425b600a549091506107a4908461157f565b600a55604080516080810182526001600160a01b038481168083526020808401888152848601878152600060608701818152600780546001808201835591845298517fa66cc928b5edb82af9bd49922954155ab7b0942694bea4ce44661d9a8736c6886004909a02998a0180546001600160a01b031916919099161790975592517fa66cc928b5edb82af9bd49922954155ab7b0942694bea4ce44661d9a8736c68988015590517fa66cc928b5edb82af9bd49922954155ab7b0942694bea4ce44661d9a8736c68a87015590517fa66cc928b5edb82af9bd49922954155ab7b0942694bea4ce44661d9a8736c68b909501949094558184526008815292849020805460ff19169092179091558251868152925190927f2728c9d3205d667bbc0eefdfeda366261b4d021949630c047f3e5834b30611ab92908290030190a2505050565b600080600784815481106108f757fe5b600091825260208083208784526009825260408085206001600160a01b03898116875290845281862060049586029093016003810154815484516370a0823160e01b81523098810198909852935191985093969395939492909116926370a08231926024808301939192829003018186803b15801561097557600080fd5b505afa158015610989573d6000803e3d6000fd5b505050506040513d602081101561099f57600080fd5b50516002850154909150421180156109b657508015155b15610a3f5760006109d485600201544261152290919063ffffffff16565b90506000610a1b6103e8610a156006546005546103e80303610a0f600a54610a158c60010154610a0f6004548b6115e090919063ffffffff16565b906115e0565b90611639565b9050610a3a610a3384610a158464e8d4a510006115e0565b859061157f565b935050505b610a6d8360010154610a6764e8d4a51000610a158688600001546115e090919063ffffffff16565b90611522565b9450505050505b92915050565b600060078381548110610a8957fe5b600091825260208083208684526009825260408085203386529092529220805460049092029092019250831115610afc576040805162461bcd60e51b81526020600482015260126024820152711dda5d1a191c985dce881b9bdd0819dbdbd960721b604482015290519081900360640190fd5b610b0584610bc1565b6000610b338260010154610a6764e8d4a51000610a15876003015487600001546115e090919063ffffffff16565b9050610b3f33826116a0565b8154610b4b9085611522565b82558254610b63906001600160a01b03163386611831565b60038301548254610b7e9164e8d4a5100091610a15916115e0565b6001830155604080518581529051869133917ff279e6a1f5e320cca91135676d9cb6e44ca8a08c0b88342bcdb1144f6511b5689181900360200190a35050505050565b600060078281548110610bd057fe5b9060005260206000209060040201905080600201544211610bf15750610eb2565b8054604080516370a0823160e01b815230600482015290516000926001600160a01b0316916370a08231916024808301926020929190829003018186803b158015610c3b57600080fd5b505afa158015610c4f573d6000803e3d6000fd5b505050506040513d6020811015610c6557600080fd5b5051905080610c7b575042600290910155610eb2565b6000610c9483600201544261152290919063ffffffff16565b90506000610cbb600a54610a158660010154610a0f600454876115e090919063ffffffff16565b6006546005546001546002549394506103e882810393909303936001600160a01b03918216936340c10f19939190921691610cfb91610a159088906115e0565b6040518363ffffffff1660e01b815260040180836001600160a01b0316815260200182815260200192505050600060405180830381600087803b158015610d4157600080fd5b505af1158015610d55573d6000803e3d6000fd5b50506001546003546006546001600160a01b0392831694506340c10f199350911690610d8a906103e890610a159088906115e0565b6040518363ffffffff1660e01b815260040180836001600160a01b0316815260200182815260200192505050600060405180830381600087803b158015610dd057600080fd5b505af1158015610de4573d6000803e3d6000fd5b50506001546001600160a01b031691506340c10f19905030610e0c6103e8610a1587876115e0565b6040518363ffffffff1660e01b815260040180836001600160a01b0316815260200182815260200192505050600060405180830381600087803b158015610e5257600080fd5b505af1158015610e66573d6000803e3d6000fd5b50505050610e9e610e936103e8610a1584610a0f89610a1564e8d4a510008a6115e090919063ffffffff16565b60038701549061157f565b600386015550504260029093019290925550505b50565b600060078281548110610ec457fe5b60009182526020808320858452600982526040808520338087529352909320805460049093029093018054909450610f09926001600160a01b03919091169190611831565b80546040805191825251849133917fbb757047c2b5f3974fe26b7c10f732e7bce710b0952a71082702781e62ae05959181900360200190a360008082556001909101555050565b60086020526000908152604090205460ff1681565b60075460005b81811015610f8457610f7c81610bc1565b600101610f6b565b5050565b6003546001600160a01b031681565b610f9f61151e565b6001600160a01b0316610fb06112b4565b6001600160a01b031614610ff9576040805162461bcd60e51b81526020600482018190526024820152600080516020611c72833981519152604482015290519081900360640190fd5b6103e881111561103a5760405162461bcd60e51b8152600401808060200182810382526024815260200180611ce16024913960400191505060405180910390fd5b6103e88160065401111561107f5760405162461bcd60e51b8152600401808060200182810382526025815260200180611c926025913960400191505060405180910390fd5b600555565b61108c61151e565b6001600160a01b031661109d6112b4565b6001600160a01b0316146110e6576040805162461bcd60e51b81526020600482018190526024820152600080516020611c72833981519152604482015290519081900360640190fd5b600080546040516001600160a01b03909116907f8be0079c531659141344cd1fd0a4f28419497f9722a3daafe3b4186f6b6457e0908390a3600080546001600160a01b0319169055565b61113861151e565b6001600160a01b03166111496112b4565b6001600160a01b031614611192576040805162461bcd60e51b81526020600482018190526024820152600080516020611c72833981519152604482015290519081900360640190fd5b6103e88111156111d35760405162461bcd60e51b8152600401808060200182810382526029815260200180611c026029913960400191505060405180910390fd5b6103e8816005540111156112185760405162461bcd60e51b815260040180806020018281038252602a815260200180611bb2602a913960400191505060405180910390fd5b600655565b6002546001600160a01b03163314611268576040805162461bcd60e51b81526020600482015260096024820152686465763a207775743f60b81b604482015290519081900360640190fd5b600280546001600160a01b0319166001600160a01b03831690811790915560405133907f618c54559e94f1499a808aad71ee8729f8e74e8c48e979616328ce493a1a52e790600090a350565b6000546001600160a01b031690565b60096020908152600092835260408084209091529082529020805460019091015482565b6001546001600160a01b031681565b60045481565b6002546001600160a01b031681565b60006007838154811061131a57fe5b6000918252602080832086845260098252604080852033865290925292206004909102909101915061134b84610bc1565b80541561138e5760006113808260010154610a6764e8d4a51000610a15876003015487600001546115e090919063ffffffff16565b905061138c33826116a0565b505b81546113a5906001600160a01b0316333086611883565b80546113b1908461157f565b80825560038301546113ce9164e8d4a5100091610a1591906115e0565b6001820155604080518481529051859133917f90890809c654f11d6e72a28fa60149770a0d11ec6c92319d6ceb2bb0a4ea1a159181900360200190a350505050565b600b5481565b61141e61151e565b6001600160a01b031661142f6112b4565b6001600160a01b031614611478576040805162461bcd60e51b81526020600482018190526024820152600080516020611c72833981519152604482015290519081900360640190fd5b6001600160a01b0381166114bd5760405162461bcd60e51b8152600401808060200182810382526026815260200180611bdc6026913960400191505060405180910390fd5b600080546040516001600160a01b03808516939216917f8be0079c531659141344cd1fd0a4f28419497f9722a3daafe3b4186f6b6457e091a3600080546001600160a01b0319166001600160a01b0392909216919091179055565b60055481565b3390565b600082821115611579576040805162461bcd60e51b815260206004820152601e60248201527f536166654d6174683a207375627472616374696f6e206f766572666c6f770000604482015290519081900360640190fd5b50900390565b6000828201838110156115d9576040805162461bcd60e51b815260206004820152601b60248201527f536166654d6174683a206164646974696f6e206f766572666c6f770000000000604482015290519081900360640190fd5b9392505050565b6000826115ef57506000610a74565b828202828482816115fc57fe5b04146115d95760405162461bcd60e51b8152600401808060200182810382526021815260200180611c516021913960400191505060405180910390fd5b600080821161168f576040805162461bcd60e51b815260206004820152601a60248201527f536166654d6174683a206469766973696f6e206279207a65726f000000000000604482015290519081900360640190fd5b81838161169857fe5b049392505050565b600154604080516370a0823160e01b815230600482015290516000926001600160a01b0316916370a08231916024808301926020929190829003018186803b1580156116eb57600080fd5b505afa1580156116ff573d6000803e3d6000fd5b505050506040513d602081101561171557600080fd5b50519050808211156117a9576001546040805163a9059cbb60e01b81526001600160a01b038681166004830152602482018590529151919092169163a9059cbb9160448083019260209291908290030181600087803b15801561177757600080fd5b505af115801561178b573d6000803e3d6000fd5b505050506040513d60208110156117a157600080fd5b5061182c9050565b6001546040805163a9059cbb60e01b81526001600160a01b038681166004830152602482018690529151919092169163a9059cbb9160448083019260209291908290030181600087803b1580156117ff57600080fd5b505af1158015611813573d6000803e3d6000fd5b505050506040513d602081101561182957600080fd5b50505b505050565b604080516001600160a01b038416602482015260448082018490528251808303909101815260649091019091526020810180516001600160e01b031663a9059cbb60e01b17905261182c9084906118e3565b604080516001600160a01b0380861660248301528416604482015260648082018490528251808303909101815260849091019091526020810180516001600160e01b03166323b872dd60e01b1790526118dd9085906118e3565b50505050565b6060611938826040518060400160405280602081526020017f5361666545524332303a206c6f772d6c6576656c2063616c6c206661696c6564815250856001600160a01b03166119949092919063ffffffff16565b80519091501561182c5780806020019051602081101561195757600080fd5b505161182c5760405162461bcd60e51b815260040180806020018281038252602a815260200180611cb7602a913960400191505060405180910390fd5b60606119a384846000856119ab565b949350505050565b6060824710156119ec5760405162461bcd60e51b8152600401808060200182810382526026815260200180611c2b6026913960400191505060405180910390fd5b6119f585611b07565b611a46576040805162461bcd60e51b815260206004820152601d60248201527f416464726573733a2063616c6c20746f206e6f6e2d636f6e7472616374000000604482015290519081900360640190fd5b60006060866001600160a01b031685876040518082805190602001908083835b60208310611a855780518252601f199092019160209182019101611a66565b6001836020036101000a03801982511681845116808217855250505050505090500191505060006040518083038185875af1925050503d8060008114611ae7576040519150601f19603f3d011682016040523d82523d6000602084013e611aec565b606091505b5091509150611afc828286611b0d565b979650505050505050565b3b151590565b60608315611b1c5750816115d9565b825115611b2c5782518084602001fd5b8160405162461bcd60e51b81526004018080602001828103825283818151815260200191508051906020019080838360005b83811015611b76578181015183820152602001611b5e565b50505050905090810190601f168015611ba35780820380516001836020036101000a031916815260200191505b509250505060405180910390fdfe736574547265617375727950657263656e743a20746f74616c2070657263656e74206f766572206d61784f776e61626c653a206e6577206f776e657220697320746865207a65726f2061646472657373736574547265617375727950657263656e743a20696e76616c69642070657263656e742076616c7565416464726573733a20696e73756666696369656e742062616c616e636520666f722063616c6c536166654d6174683a206d756c7469706c69636174696f6e206f766572666c6f774f776e61626c653a2063616c6c6572206973206e6f7420746865206f776e657273657444657650657263656e743a20746f74616c2070657263656e74206f766572206d61785361666545524332303a204552433230206f7065726174696f6e20646964206e6f74207375636365656473657444657650657263656e743a20696e76616c69642070657263656e742076616c7565a26469706673582212204ae4d240671084c18555434653222bddc305ec0ae57869bb18cad820d177535f64736f6c634300060c0033636f6e7374727563746f723a20696e76616c69642074726561737572792070657263656e742076616c7565636f6e7374727563746f723a20696e76616c6964206465762070657263656e742076616c7565636f6e7374727563746f723a20746f74616c2070657263656e74206f766572206d6178",
  "devdoc": {
    "kind": "dev",
    "methods": {
      "owner()": {
        "details": "Returns the address of the current owner."
      },
      "renounceOwnership()": {
        "details": "Leaves the contract without owner. It will not be possible to call `onlyOwner` functions anymore. Can only be called by the current owner. NOTE: Renouncing ownership will leave the contract without an owner, thereby removing any functionality that is only available to the owner."
      },
      "transferOwnership(address)": {
        "details": "Transfers ownership of the contract to a new account (`newOwner`). Can only be called by the current owner."
      }
    },
    "version": 1
  },
  "userdoc": {
    "kind": "user",
    "methods": {},
    "version": 1
  },
  "storageLayout": {
    "storage": [
      {
        "astId": 253,
        "contract": "contracts/MasterChefJoe.sol:MasterChefJoe",
        "label": "_owner",
        "offset": 0,
        "slot": "0",
        "type": "t_address"
      },
      {
        "astId": 5502,
        "contract": "contracts/MasterChefJoe.sol:MasterChefJoe",
        "label": "joe",
        "offset": 0,
        "slot": "1",
        "type": "t_contract(JoeToken)5186"
      },
      {
        "astId": 5504,
        "contract": "contracts/MasterChefJoe.sol:MasterChefJoe",
        "label": "devaddr",
        "offset": 0,
        "slot": "2",
        "type": "t_address"
      },
      {
        "astId": 5506,
        "contract": "contracts/MasterChefJoe.sol:MasterChefJoe",
        "label": "treasuryaddr",
        "offset": 0,
        "slot": "3",
        "type": "t_address"
      },
      {
        "astId": 5508,
        "contract": "contracts/MasterChefJoe.sol:MasterChefJoe",
        "label": "joePerSec",
        "offset": 0,
        "slot": "4",
        "type": "t_uint256"
      },
      {
        "astId": 5510,
        "contract": "contracts/MasterChefJoe.sol:MasterChefJoe",
        "label": "devPercent",
        "offset": 0,
        "slot": "5",
        "type": "t_uint256"
      },
      {
        "astId": 5512,
        "contract": "contracts/MasterChefJoe.sol:MasterChefJoe",
        "label": "treasuryPercent",
        "offset": 0,
        "slot": "6",
        "type": "t_uint256"
      },
      {
        "astId": 5515,
        "contract": "contracts/MasterChefJoe.sol:MasterChefJoe",
        "label": "poolInfo",
        "offset": 0,
        "slot": "7",
        "type": "t_array(t_struct(PoolInfo)5500_storage)dyn_storage"
      },
      {
        "astId": 5519,
        "contract": "contracts/MasterChefJoe.sol:MasterChefJoe",
        "label": "isPool",
        "offset": 0,
        "slot": "8",
        "type": "t_mapping(t_contract(IERC20)1364,t_bool)"
      },
      {
        "astId": 5525,
        "contract": "contracts/MasterChefJoe.sol:MasterChefJoe",
        "label": "userInfo",
        "offset": 0,
        "slot": "9",
        "type": "t_mapping(t_uint256,t_mapping(t_address,t_struct(UserInfo)5491_storage))"
      },
      {
        "astId": 5528,
        "contract": "contracts/MasterChefJoe.sol:MasterChefJoe",
        "label": "totalAllocPoint",
        "offset": 0,
        "slot": "10",
        "type": "t_uint256"
      },
      {
        "astId": 5530,
        "contract": "contracts/MasterChefJoe.sol:MasterChefJoe",
        "label": "startTimestamp",
        "offset": 0,
        "slot": "11",
        "type": "t_uint256"
      }
    ],
    "types": {
      "t_address": {
        "encoding": "inplace",
        "label": "address",
        "numberOfBytes": "20"
      },
      "t_array(t_struct(PoolInfo)5500_storage)dyn_storage": {
        "base": "t_struct(PoolInfo)5500_storage",
        "encoding": "dynamic_array",
        "label": "struct MasterChefJoe.PoolInfo[]",
        "numberOfBytes": "32"
      },
      "t_bool": {
        "encoding": "inplace",
        "label": "bool",
        "numberOfBytes": "1"
      },
      "t_contract(IERC20)1364": {
        "encoding": "inplace",
        "label": "contract IERC20",
        "numberOfBytes": "20"
      },
      "t_contract(JoeToken)5186": {
        "encoding": "inplace",
        "label": "contract JoeToken",
        "numberOfBytes": "20"
      },
      "t_mapping(t_address,t_struct(UserInfo)5491_storage)": {
        "encoding": "mapping",
        "key": "t_address",
        "label": "mapping(address => struct MasterChefJoe.UserInfo)",
        "numberOfBytes": "32",
        "value": "t_struct(UserInfo)5491_storage"
      },
      "t_mapping(t_contract(IERC20)1364,t_bool)": {
        "encoding": "mapping",
        "key": "t_contract(IERC20)1364",
        "label": "mapping(contract IERC20 => bool)",
        "numberOfBytes": "32",
        "value": "t_bool"
      },
      "t_mapping(t_uint256,t_mapping(t_address,t_struct(UserInfo)5491_storage))": {
        "encoding": "mapping",
        "key": "t_uint256",
        "label": "mapping(uint256 => mapping(address => struct MasterChefJoe.UserInfo))",
        "numberOfBytes": "32",
        "value": "t_mapping(t_address,t_struct(UserInfo)5491_storage)"
      },
      "t_struct(PoolInfo)5500_storage": {
        "encoding": "inplace",
        "label": "struct MasterChefJoe.PoolInfo",
        "members": [
          {
            "astId": 5493,
            "contract": "contracts/MasterChefJoe.sol:MasterChefJoe",
            "label": "lpToken",
            "offset": 0,
            "slot": "0",
            "type": "t_contract(IERC20)1364"
          },
          {
            "astId": 5495,
            "contract": "contracts/MasterChefJoe.sol:MasterChefJoe",
            "label": "allocPoint",
            "offset": 0,
            "slot": "1",
            "type": "t_uint256"
          },
          {
            "astId": 5497,
            "contract": "contracts/MasterChefJoe.sol:MasterChefJoe",
            "label": "lastRewardTimestamp",
            "offset": 0,
            "slot": "2",
            "type": "t_uint256"
          },
          {
            "astId": 5499,
            "contract": "contracts/MasterChefJoe.sol:MasterChefJoe",
            "label": "accJoePerShare",
            "offset": 0,
            "slot": "3",
            "type": "t_uint256"
          }
        ],
        "numberOfBytes": "128"
      },
      "t_struct(UserInfo)5491_storage": {
        "encoding": "inplace",
        "label": "struct MasterChefJoe.UserInfo",
        "members": [
          {
            "astId": 5488,
            "contract": "contracts/MasterChefJoe.sol:MasterChefJoe",
            "label": "amount",
            "offset": 0,
            "slot": "0",
            "type": "t_uint256"
          },
          {
            "astId": 5490,
            "contract": "contracts/MasterChefJoe.sol:MasterChefJoe",
            "label": "rewardDebt",
            "offset": 0,
            "slot": "1",
            "type": "t_uint256"
          }
        ],
        "numberOfBytes": "64"
      },
      "t_uint256": {
        "encoding": "inplace",
        "label": "uint256",
        "numberOfBytes": "32"
      }
    }
  }
}