{
  "address": "0x03213938D9672AE4710cC5F00f595d777Af671D1",
  "abi": [
    {
      "anonymous": false,
      "inputs": [
        {
          "indexed": true,
          "internalType": "address",
          "name": "user",
          "type": "address"
        },
        {
          "indexed": true,
          "internalType": "address",
          "name": "rewardToken",
          "type": "address"
        },
        {
          "indexed": false,
          "internalType": "uint256",
          "name": "amount",
          "type": "uint256"
        }
      ],
      "name": "ClaimReward",
      "type": "event"
    },
    {
      "anonymous": false,
      "inputs": [
        {
          "indexed": true,
          "internalType": "address",
          "name": "user",
          "type": "address"
        },
        {
          "indexed": false,
          "internalType": "uint256",
          "name": "amount",
          "type": "uint256"
        },
        {
          "indexed": false,
          "internalType": "uint256",
          "name": "fee",
          "type": "uint256"
        }
      ],
      "name": "Deposit",
      "type": "event"
    },
    {
      "anonymous": false,
      "inputs": [
        {
          "indexed": false,
          "internalType": "uint256",
          "name": "newFee",
          "type": "uint256"
        },
        {
          "indexed": false,
          "internalType": "uint256",
          "name": "oldFee",
          "type": "uint256"
        }
      ],
      "name": "DepositFeeChanged",
      "type": "event"
    },
    {
      "anonymous": false,
      "inputs": [
        {
          "indexed": true,
          "internalType": "address",
          "name": "user",
          "type": "address"
        },
        {
          "indexed": false,
          "internalType": "uint256",
          "name": "amount",
          "type": "uint256"
        }
      ],
      "name": "EmergencyWithdraw",
      "type": "event"
    },
    {
      "anonymous": false,
      "inputs": [
        {
          "indexed": true,
          "internalType": "address",
          "name": "previousOwner",
          "type": "address"
        },
        {
          "indexed": true,
          "internalType": "address",
          "name": "newOwner",
          "type": "address"
        }
      ],
      "name": "OwnershipTransferred",
      "type": "event"
    },
    {
      "anonymous": false,
      "inputs": [
        {
          "indexed": false,
          "internalType": "address",
          "name": "token",
          "type": "address"
        }
      ],
      "name": "RewardTokenAdded",
      "type": "event"
    },
    {
      "anonymous": false,
      "inputs": [
        {
          "indexed": false,
          "internalType": "address",
          "name": "token",
          "type": "address"
        }
      ],
      "name": "RewardTokenRemoved",
      "type": "event"
    },
    {
      "anonymous": false,
      "inputs": [
        {
          "indexed": true,
          "internalType": "address",
          "name": "user",
          "type": "address"
        },
        {
          "indexed": false,
          "internalType": "uint256",
          "name": "amount",
          "type": "uint256"
        }
      ],
      "name": "Withdraw",
      "type": "event"
    },
    {
      "inputs": [],
      "name": "ACC_REWARD_PER_SHARE_PRECISION",
      "outputs": [
        {
          "internalType": "uint256",
          "name": "",
          "type": "uint256"
        }
      ],
      "stateMutability": "view",
      "type": "function"
    },
    {
      "inputs": [],
      "name": "DEPOSIT_FEE_PERCENT_PRECISION",
      "outputs": [
        {
          "internalType": "uint256",
          "name": "",
          "type": "uint256"
        }
      ],
      "stateMutability": "view",
      "type": "function"
    },
    {
      "inputs": [
        {
          "internalType": "contract IERC20Upgradeable",
          "name": "",
          "type": "address"
        }
      ],
      "name": "accRewardPerShare",
      "outputs": [
        {
          "internalType": "uint256",
          "name": "",
          "type": "uint256"
        }
      ],
      "stateMutability": "view",
      "type": "function"
    },
    {
      "inputs": [
        {
          "internalType": "contract IERC20Upgradeable",
          "name": "_rewardToken",
          "type": "address"
        }
      ],
      "name": "addRewardToken",
      "outputs": [],
      "stateMutability": "nonpayable",
      "type": "function"
    },
    {
      "inputs": [
        {
          "internalType": "uint256",
          "name": "_amount",
          "type": "uint256"
        }
      ],
      "name": "deposit",
      "outputs": [],
      "stateMutability": "nonpayable",
      "type": "function"
    },
    {
      "inputs": [],
      "name": "depositFeePercent",
      "outputs": [
        {
          "internalType": "uint256",
          "name": "",
          "type": "uint256"
        }
      ],
      "stateMutability": "view",
      "type": "function"
    },
    {
      "inputs": [],
      "name": "emergencyWithdraw",
      "outputs": [],
      "stateMutability": "nonpayable",
      "type": "function"
    },
    {
      "inputs": [],
      "name": "feeCollector",
      "outputs": [
        {
          "internalType": "address",
          "name": "",
          "type": "address"
        }
      ],
      "stateMutability": "view",
      "type": "function"
    },
    {
      "inputs": [
        {
          "internalType": "address",
          "name": "_user",
          "type": "address"
        },
        {
          "internalType": "contract IERC20Upgradeable",
          "name": "_rewardToken",
          "type": "address"
        }
      ],
      "name": "getUserInfo",
      "outputs": [
        {
          "internalType": "uint256",
          "name": "",
          "type": "uint256"
        },
        {
          "internalType": "uint256",
          "name": "",
          "type": "uint256"
        }
      ],
      "stateMutability": "view",
      "type": "function"
    },
    {
      "inputs": [
        {
          "internalType": "contract IERC20Upgradeable",
          "name": "_rewardToken",
          "type": "address"
        },
        {
          "internalType": "contract IERC20Upgradeable",
          "name": "_joe",
          "type": "address"
        },
        {
          "internalType": "address",
          "name": "_feeCollector",
          "type": "address"
        },
        {
          "internalType": "uint256",
          "name": "_depositFeePercent",
          "type": "uint256"
        }
      ],
      "name": "initialize",
      "outputs": [],
      "stateMutability": "nonpayable",
      "type": "function"
    },
    {
      "inputs": [],
      "name": "internalJoeBalance",
      "outputs": [
        {
          "internalType": "uint256",
          "name": "",
          "type": "uint256"
        }
      ],
      "stateMutability": "view",
      "type": "function"
    },
    {
      "inputs": [
        {
          "internalType": "contract IERC20Upgradeable",
          "name": "",
          "type": "address"
        }
      ],
      "name": "isRewardToken",
      "outputs": [
        {
          "internalType": "bool",
          "name": "",
          "type": "bool"
        }
      ],
      "stateMutability": "view",
      "type": "function"
    },
    {
      "inputs": [],
      "name": "joe",
      "outputs": [
        {
          "internalType": "contract IERC20Upgradeable",
          "name": "",
          "type": "address"
        }
      ],
      "stateMutability": "view",
      "type": "function"
    },
    {
      "inputs": [
        {
          "internalType": "contract IERC20Upgradeable",
          "name": "",
          "type": "address"
        }
      ],
      "name": "lastRewardBalance",
      "outputs": [
        {
          "internalType": "uint256",
          "name": "",
          "type": "uint256"
        }
      ],
      "stateMutability": "view",
      "type": "function"
    },
    {
      "inputs": [],
      "name": "owner",
      "outputs": [
        {
          "internalType": "address",
          "name": "",
          "type": "address"
        }
      ],
      "stateMutability": "view",
      "type": "function"
    },
    {
      "inputs": [
        {
          "internalType": "address",
          "name": "_user",
          "type": "address"
        },
        {
          "internalType": "contract IERC20Upgradeable",
          "name": "_token",
          "type": "address"
        }
      ],
      "name": "pendingReward",
      "outputs": [
        {
          "internalType": "uint256",
          "name": "",
          "type": "uint256"
        }
      ],
      "stateMutability": "view",
      "type": "function"
    },
    {
      "inputs": [
        {
          "internalType": "contract IERC20Upgradeable",
          "name": "_rewardToken",
          "type": "address"
        }
      ],
      "name": "removeRewardToken",
      "outputs": [],
      "stateMutability": "nonpayable",
      "type": "function"
    },
    {
      "inputs": [],
      "name": "renounceOwnership",
      "outputs": [],
      "stateMutability": "nonpayable",
      "type": "function"
    },
    {
      "inputs": [
        {
          "internalType": "uint256",
          "name": "",
          "type": "uint256"
        }
      ],
      "name": "rewardTokens",
      "outputs": [
        {
          "internalType": "contract IERC20Upgradeable",
          "name": "",
          "type": "address"
        }
      ],
      "stateMutability": "view",
      "type": "function"
    },
    {
      "inputs": [],
      "name": "rewardTokensLength",
      "outputs": [
        {
          "internalType": "uint256",
          "name": "",
          "type": "uint256"
        }
      ],
      "stateMutability": "view",
      "type": "function"
    },
    {
      "inputs": [
        {
          "internalType": "uint256",
          "name": "_depositFeePercent",
          "type": "uint256"
        }
      ],
      "name": "setDepositFeePercent",
      "outputs": [],
      "stateMutability": "nonpayable",
      "type": "function"
    },
    {
      "inputs": [
        {
          "internalType": "address",
          "name": "newOwner",
          "type": "address"
        }
      ],
      "name": "transferOwnership",
      "outputs": [],
      "stateMutability": "nonpayable",
      "type": "function"
    },
    {
      "inputs": [
        {
          "internalType": "contract IERC20Upgradeable",
          "name": "_token",
          "type": "address"
        }
      ],
      "name": "updateReward",
      "outputs": [],
      "stateMutability": "nonpayable",
      "type": "function"
    },
    {
      "inputs": [
        {
          "internalType": "uint256",
          "name": "_amount",
          "type": "uint256"
        }
      ],
      "name": "withdraw",
      "outputs": [],
      "stateMutability": "nonpayable",
      "type": "function"
    }
  ],
  "transactionHash": "0x00493f46667647878e0d3f0451445e2ca5a1c9cfafaa85665c3b652980d39cc0",
  "args": [],
  "numDeployments": 3,
  "solcInputHash": "e11367eee20deb9b2e496d66278a2bed",
  "bytecode": "0x608060405234801561001057600080fd5b50613bcb806100206000396000f3fe608060405234801561001057600080fd5b50600436106101585760003560e01c8063a090a2b4116100c3578063c415b95c1161007c578063c415b95c14610577578063cc1252ae146105ab578063cf756fdf146105c9578063db2e21bc14610657578063f2801fe714610661578063f2fde38b146106e057610158565b8063a090a2b414610461578063a610708a1461047f578063b5fd73f81461049d578063b6b55f25146104f7578063b985a3a014610525578063bf199e621461055957610158565b80635fc0d9e0116101155780635fc0d9e0146102b7578063632447c91461030f578063715018a6146103535780637bb7bed11461035d5780638da5cb5b146103b55780639ced7e76146103e957610158565b80631c03e6cc1461015d5780632052eb77146101a15780632e1a7d4d146101cf5780633c97d5ae146101fd5780633d509c971461021b5780635dcea4d41461025f575b600080fd5b61019f6004803603602081101561017357600080fd5b81019080803573ffffffffffffffffffffffffffffffffffffffff169060200190929190505050610724565b005b6101cd600480360360208110156101b757600080fd5b8101908080359060200190929190505050610a3c565b005b6101fb600480360360208110156101e557600080fd5b8101908080359060200190929190505050610bb8565b005b610205610fb5565b6040518082815260200191505060405180910390f35b61025d6004803603602081101561023157600080fd5b81019080803573ffffffffffffffffffffffffffffffffffffffff169060200190929190505050610fbb565b005b6102a16004803603602081101561027557600080fd5b81019080803573ffffffffffffffffffffffffffffffffffffffff16906020019092919050505061133c565b6040518082815260200191505060405180910390f35b6102f9600480360360208110156102cd57600080fd5b81019080803573ffffffffffffffffffffffffffffffffffffffff169060200190929190505050611354565b6040518082815260200191505060405180910390f35b6103516004803603602081101561032557600080fd5b81019080803573ffffffffffffffffffffffffffffffffffffffff16906020019092919050505061136c565b005b61035b6116e5565b005b6103896004803603602081101561037357600080fd5b8101908080359060200190929190505050611870565b604051808273ffffffffffffffffffffffffffffffffffffffff16815260200191505060405180910390f35b6103bd6118af565b604051808273ffffffffffffffffffffffffffffffffffffffff16815260200191505060405180910390f35b61044b600480360360408110156103ff57600080fd5b81019080803573ffffffffffffffffffffffffffffffffffffffff169060200190929190803573ffffffffffffffffffffffffffffffffffffffff1690602001909291905050506118d9565b6040518082815260200191505060405180910390f35b610469611c97565b6040518082815260200191505060405180910390f35b610487611c9d565b6040518082815260200191505060405180910390f35b6104df600480360360208110156104b357600080fd5b81019080803573ffffffffffffffffffffffffffffffffffffffff169060200190929190505050611ca3565b60405180821515815260200191505060405180910390f35b6105236004803603602081101561050d57600080fd5b8101908080359060200190929190505050611cc3565b005b61052d612135565b604051808273ffffffffffffffffffffffffffffffffffffffff16815260200191505060405180910390f35b61056161215b565b6040518082815260200191505060405180910390f35b61057f612168565b604051808273ffffffffffffffffffffffffffffffffffffffff16815260200191505060405180910390f35b6105b361218e565b6040518082815260200191505060405180910390f35b610655600480360360808110156105df57600080fd5b81019080803573ffffffffffffffffffffffffffffffffffffffff169060200190929190803573ffffffffffffffffffffffffffffffffffffffff169060200190929190803573ffffffffffffffffffffffffffffffffffffffff16906020019092919080359060200190929190505050612194565b005b61065f6125f5565b005b6106c36004803603604081101561067757600080fd5b81019080803573ffffffffffffffffffffffffffffffffffffffff169060200190929190803573ffffffffffffffffffffffffffffffffffffffff1690602001909291905050506127c2565b604051808381526020018281526020019250505060405180910390f35b610722600480360360208110156106f657600080fd5b81019080803573ffffffffffffffffffffffffffffffffffffffff16906020019092919050505061285b565b005b61072c612a6b565b73ffffffffffffffffffffffffffffffffffffffff16603360009054906101000a900473ffffffffffffffffffffffffffffffffffffffff1673ffffffffffffffffffffffffffffffffffffffff16146107ee576040517f08c379a00000000000000000000000000000000000000000000000000000000081526004018080602001828103825260208152602001807f4f776e61626c653a2063616c6c6572206973206e6f7420746865206f776e657281525060200191505060405180910390fd5b606860008273ffffffffffffffffffffffffffffffffffffffff1673ffffffffffffffffffffffffffffffffffffffff16815260200190815260200160002060009054906101000a900460ff161580156108755750600073ffffffffffffffffffffffffffffffffffffffff168173ffffffffffffffffffffffffffffffffffffffff1614155b6108ca576040517f08c379a0000000000000000000000000000000000000000000000000000000008152600401808060200182810382526026815260200180613a756026913960400191505060405180910390fd5b601960678054905010610928576040517f08c379a00000000000000000000000000000000000000000000000000000000081526004018080602001828103825260278152602001806139076027913960400191505060405180910390fd5b6067819080600181540180825580915050600190039060005260206000200160009091909190916101000a81548173ffffffffffffffffffffffffffffffffffffffff021916908373ffffffffffffffffffffffffffffffffffffffff1602179055506001606860008373ffffffffffffffffffffffffffffffffffffffff1673ffffffffffffffffffffffffffffffffffffffff16815260200190815260200160002060006101000a81548160ff0219169083151502179055506109ec8161136c565b7ff3e4c2c64e71e6ba2eaab9a599bced62f9eb91d2cda610bf41aa8c80ff2cf82681604051808273ffffffffffffffffffffffffffffffffffffffff16815260200191505060405180910390a150565b610a44612a6b565b73ffffffffffffffffffffffffffffffffffffffff16603360009054906101000a900473ffffffffffffffffffffffffffffffffffffffff1673ffffffffffffffffffffffffffffffffffffffff1614610b06576040517f08c379a00000000000000000000000000000000000000000000000000000000081526004018080602001828103825260208152602001807f4f776e61626c653a2063616c6c6572206973206e6f7420746865206f776e657281525060200191505060405180910390fd5b6706f05b59d3b20000811115610b67576040517f08c379a00000000000000000000000000000000000000000000000000000000081526004018080602001828103825260378152602001806139c76037913960400191505060405180910390fd5b6000606b54905081606b819055507f6be5411ea11f30380402ca68832d060d744cbc5f62d2344495c10256ba93904a8282604051808381526020018281526020019250505060405180910390a15050565b6000606f6000610bc6612a6b565b73ffffffffffffffffffffffffffffffffffffffff1673ffffffffffffffffffffffffffffffffffffffff168152602001908152602001600020905060008160000154905080831115610c64576040517f08c379a0000000000000000000000000000000000000000000000000000000008152600401808060200182810382526031815260200180613b086031913960400191505060405180910390fd5b6000610c7d848460000154612a7390919063ffffffff16565b90508083600001819055506000606780549050905060008314610eea5760005b81811015610ee857600060678281548110610cb457fe5b9060005260206000200160009054906101000a900473ffffffffffffffffffffffffffffffffffffffff169050610cea8161136c565b6000610da58760010160008473ffffffffffffffffffffffffffffffffffffffff1673ffffffffffffffffffffffffffffffffffffffff16815260200190815260200160002054610d97606e54610d89606d60008873ffffffffffffffffffffffffffffffffffffffff1673ffffffffffffffffffffffffffffffffffffffff168152602001908152602001600020548b612abd90919063ffffffff16565b612b4390919063ffffffff16565b612a7390919063ffffffff16565b9050610e0d606e54610dff606d60008673ffffffffffffffffffffffffffffffffffffffff1673ffffffffffffffffffffffffffffffffffffffff1681526020019081526020016000205488612abd90919063ffffffff16565b612b4390919063ffffffff16565b8760010160008473ffffffffffffffffffffffffffffffffffffffff1673ffffffffffffffffffffffffffffffffffffffff1681526020019081526020016000208190555060008114610ed957610e6c82610e66612a6b565b83612b8d565b8173ffffffffffffffffffffffffffffffffffffffff16610e8b612a6b565b73ffffffffffffffffffffffffffffffffffffffff167f7e77f685b38c861064cb08f2776eb5dfd3c82f652ed9f21221b8c53b75628e51836040518082815260200191505060405180910390a35b50508080600101915050610c9d565b505b610eff85606654612a7390919063ffffffff16565b606681905550610f59610f10612a6b565b86606560009054906101000a900473ffffffffffffffffffffffffffffffffffffffff1673ffffffffffffffffffffffffffffffffffffffff16612e3d9092919063ffffffff16565b610f61612a6b565b73ffffffffffffffffffffffffffffffffffffffff167f884edad9ce6fa2440d8a54cc123490eb96d2768479d49ff9c7366125a9424364866040518082815260200191505060405180910390a25050505050565b606e5481565b610fc3612a6b565b73ffffffffffffffffffffffffffffffffffffffff16603360009054906101000a900473ffffffffffffffffffffffffffffffffffffffff1673ffffffffffffffffffffffffffffffffffffffff1614611085576040517f08c379a00000000000000000000000000000000000000000000000000000000081526004018080602001828103825260208152602001807f4f776e61626c653a2063616c6c6572206973206e6f7420746865206f776e657281525060200191505060405180910390fd5b606860008273ffffffffffffffffffffffffffffffffffffffff1673ffffffffffffffffffffffffffffffffffffffff16815260200190815260200160002060009054906101000a900460ff16611127576040517f08c379a0000000000000000000000000000000000000000000000000000000008152600401808060200182810382526028815260200180613a2c6028913960400191505060405180910390fd5b6111308161136c565b6000606860008373ffffffffffffffffffffffffffffffffffffffff1673ffffffffffffffffffffffffffffffffffffffff16815260200190815260200160002060006101000a81548160ff0219169083151502179055506000606780549050905060005b818110156112ea578273ffffffffffffffffffffffffffffffffffffffff16606782815481106111c157fe5b9060005260206000200160009054906101000a900473ffffffffffffffffffffffffffffffffffffffff1673ffffffffffffffffffffffffffffffffffffffff1614156112dd576067600183038154811061121857fe5b9060005260206000200160009054906101000a900473ffffffffffffffffffffffffffffffffffffffff166067828154811061125057fe5b9060005260206000200160006101000a81548173ffffffffffffffffffffffffffffffffffffffff021916908373ffffffffffffffffffffffffffffffffffffffff16021790555060678054806112a357fe5b6001900381819060005260206000200160006101000a81549073ffffffffffffffffffffffffffffffffffffffff021916905590556112ea565b8080600101915050611195565b507f66257bcef574219c04f7c05f7a1c78d599da10491294c92a5805c48b4cdf500982604051808273ffffffffffffffffffffffffffffffffffffffff16815260200191505060405180910390a15050565b606d6020528060005260406000206000915090505481565b60696020528060005260406000206000915090505481565b606860008273ffffffffffffffffffffffffffffffffffffffff1673ffffffffffffffffffffffffffffffffffffffff16815260200190815260200160002060009054906101000a900460ff1661140e576040517f08c379a00000000000000000000000000000000000000000000000000000000081526004018080602001828103825260248152602001806139a36024913960400191505060405180910390fd5b6000606654905060008273ffffffffffffffffffffffffffffffffffffffff166370a08231306040518263ffffffff1660e01b8152600401808273ffffffffffffffffffffffffffffffffffffffff16815260200191505060206040518083038186803b15801561147e57600080fd5b505afa158015611492573d6000803e3d6000fd5b505050506040513d60208110156114a857600080fd5b810190808051906020019092919050505090506000606560009054906101000a900473ffffffffffffffffffffffffffffffffffffffff1673ffffffffffffffffffffffffffffffffffffffff168473ffffffffffffffffffffffffffffffffffffffff1614611518578161152c565b61152b8383612a7390919063ffffffff16565b5b9050606960008573ffffffffffffffffffffffffffffffffffffffff1673ffffffffffffffffffffffffffffffffffffffff1681526020019081526020016000205481148061157b5750600083145b15611588575050506116e2565b60006115dc606960008773ffffffffffffffffffffffffffffffffffffffff1673ffffffffffffffffffffffffffffffffffffffff1681526020019081526020016000205483612a7390919063ffffffff16565b9050611656611608856115fa606e5485612abd90919063ffffffff16565b612b4390919063ffffffff16565b606d60008873ffffffffffffffffffffffffffffffffffffffff1673ffffffffffffffffffffffffffffffffffffffff16815260200190815260200160002054612edf90919063ffffffff16565b606d60008773ffffffffffffffffffffffffffffffffffffffff1673ffffffffffffffffffffffffffffffffffffffff1681526020019081526020016000208190555081606960008773ffffffffffffffffffffffffffffffffffffffff1673ffffffffffffffffffffffffffffffffffffffff16815260200190815260200160002081905550505050505b50565b6116ed612a6b565b73ffffffffffffffffffffffffffffffffffffffff16603360009054906101000a900473ffffffffffffffffffffffffffffffffffffffff1673ffffffffffffffffffffffffffffffffffffffff16146117af576040517f08c379a00000000000000000000000000000000000000000000000000000000081526004018080602001828103825260208152602001807f4f776e61626c653a2063616c6c6572206973206e6f7420746865206f776e657281525060200191505060405180910390fd5b600073ffffffffffffffffffffffffffffffffffffffff16603360009054906101000a900473ffffffffffffffffffffffffffffffffffffffff1673ffffffffffffffffffffffffffffffffffffffff167f8be0079c531659141344cd1fd0a4f28419497f9722a3daafe3b4186f6b6457e060405160405180910390a36000603360006101000a81548173ffffffffffffffffffffffffffffffffffffffff021916908373ffffffffffffffffffffffffffffffffffffffff160217905550565b6067818154811061188057600080fd5b906000526020600020016000915054906101000a900473ffffffffffffffffffffffffffffffffffffffff1681565b6000603360009054906101000a900473ffffffffffffffffffffffffffffffffffffffff16905090565b6000606860008373ffffffffffffffffffffffffffffffffffffffff1673ffffffffffffffffffffffffffffffffffffffff16815260200190815260200160002060009054906101000a900460ff1661197d576040517f08c379a00000000000000000000000000000000000000000000000000000000081526004018080602001828103825260248152602001806139a36024913960400191505060405180910390fd5b6000606f60008573ffffffffffffffffffffffffffffffffffffffff1673ffffffffffffffffffffffffffffffffffffffff1681526020019081526020016000209050600060665490506000606d60008673ffffffffffffffffffffffffffffffffffffffff1673ffffffffffffffffffffffffffffffffffffffff16815260200190815260200160002054905060008573ffffffffffffffffffffffffffffffffffffffff166370a08231306040518263ffffffff1660e01b8152600401808273ffffffffffffffffffffffffffffffffffffffff16815260200191505060206040518083038186803b158015611a7457600080fd5b505afa158015611a88573d6000803e3d6000fd5b505050506040513d6020811015611a9e57600080fd5b810190808051906020019092919050505090506000606560009054906101000a900473ffffffffffffffffffffffffffffffffffffffff1673ffffffffffffffffffffffffffffffffffffffff168773ffffffffffffffffffffffffffffffffffffffff1614611b0e5781611b22565b611b218483612a7390919063ffffffff16565b5b9050606960008873ffffffffffffffffffffffffffffffffffffffff1673ffffffffffffffffffffffffffffffffffffffff168152602001908152602001600020548114158015611b74575060008414155b15611c0c576000611bcd606960008a73ffffffffffffffffffffffffffffffffffffffff1673ffffffffffffffffffffffffffffffffffffffff1681526020019081526020016000205483612a7390919063ffffffff16565b9050611c08611bf986611beb606e5485612abd90919063ffffffff16565b612b4390919063ffffffff16565b85612edf90919063ffffffff16565b9350505b611c8a8560010160008973ffffffffffffffffffffffffffffffffffffffff1673ffffffffffffffffffffffffffffffffffffffff16815260200190815260200160002054611c7c606e54611c6e878a60000154612abd90919063ffffffff16565b612b4390919063ffffffff16565b612a7390919063ffffffff16565b9550505050505092915050565b60665481565b606c5481565b60686020528060005260406000206000915054906101000a900460ff1681565b6000606f6000611cd1612a6b565b73ffffffffffffffffffffffffffffffffffffffff1673ffffffffffffffffffffffffffffffffffffffff16815260200190815260200160002090506000611d38606c54611d2a606b5486612abd90919063ffffffff16565b612b4390919063ffffffff16565b90506000611d4f8285612a7390919063ffffffff16565b90506000836000015490506000611d73838660000154612edf90919063ffffffff16565b90508085600001819055506000606780549050905060005b81811015611fe557600060678281548110611da257fe5b9060005260206000200160009054906101000a900473ffffffffffffffffffffffffffffffffffffffff169050611dd88161136c565b60008860010160008373ffffffffffffffffffffffffffffffffffffffff1673ffffffffffffffffffffffffffffffffffffffff168152602001908152602001600020549050611e84606e54611e76606d60008673ffffffffffffffffffffffffffffffffffffffff1673ffffffffffffffffffffffffffffffffffffffff1681526020019081526020016000205488612abd90919063ffffffff16565b612b4390919063ffffffff16565b8960010160008473ffffffffffffffffffffffffffffffffffffffff1673ffffffffffffffffffffffffffffffffffffffff1681526020019081526020016000208190555060008614611fd6576000611f4b82611f3d606e54611f2f606d60008973ffffffffffffffffffffffffffffffffffffffff1673ffffffffffffffffffffffffffffffffffffffff168152602001908152602001600020548c612abd90919063ffffffff16565b612b4390919063ffffffff16565b612a7390919063ffffffff16565b905060008114611fd457611f6783611f61612a6b565b83612b8d565b8273ffffffffffffffffffffffffffffffffffffffff16611f86612a6b565b73ffffffffffffffffffffffffffffffffffffffff167f7e77f685b38c861064cb08f2776eb5dfd3c82f652ed9f21221b8c53b75628e51836040518082815260200191505060405180910390a35b505b50508080600101915050611d8b565b50611ffb84606654612edf90919063ffffffff16565b60668190555061207961200c612a6b565b606a60009054906101000a900473ffffffffffffffffffffffffffffffffffffffff1687606560009054906101000a900473ffffffffffffffffffffffffffffffffffffffff1673ffffffffffffffffffffffffffffffffffffffff16612f67909392919063ffffffff16565b6120cf612084612a6b565b3086606560009054906101000a900473ffffffffffffffffffffffffffffffffffffffff1673ffffffffffffffffffffffffffffffffffffffff16612f67909392919063ffffffff16565b6120d7612a6b565b73ffffffffffffffffffffffffffffffffffffffff167f90890809c654f11d6e72a28fa60149770a0d11ec6c92319d6ceb2bb0a4ea1a158587604051808381526020018281526020019250505060405180910390a250505050505050565b606560009054906101000a900473ffffffffffffffffffffffffffffffffffffffff1681565b6000606780549050905090565b606a60009054906101000a900473ffffffffffffffffffffffffffffffffffffffff1681565b606b5481565b600060019054906101000a900460ff16806121b357506121b2613028565b5b806121c9575060008054906101000a900460ff16155b61221e576040517f08c379a000000000000000000000000000000000000000000000000000000000815260040180806020018281038252602e8152602001806139fe602e913960400191505060405180910390fd5b60008060019054906101000a900460ff16159050801561226e576001600060016101000a81548160ff02191690831515021790555060016000806101000a81548160ff0219169083151502179055505b61227661303f565b600073ffffffffffffffffffffffffffffffffffffffff168573ffffffffffffffffffffffffffffffffffffffff1614156122fc576040517f08c379a0000000000000000000000000000000000000000000000000000000008152600401808060200182810382526032815260200180613ad66032913960400191505060405180910390fd5b600073ffffffffffffffffffffffffffffffffffffffff168473ffffffffffffffffffffffffffffffffffffffff161415612382576040517f08c379a00000000000000000000000000000000000000000000000000000000081526004018080602001828103825260298152602001806139546029913960400191505060405180910390fd5b600073ffffffffffffffffffffffffffffffffffffffff168373ffffffffffffffffffffffffffffffffffffffff161415612408576040517f08c379a0000000000000000000000000000000000000000000000000000000008152600401808060200182810382526033815260200180613b636033913960400191505060405180910390fd5b6706f05b59d3b20000821115612469576040517f08c379a000000000000000000000000000000000000000000000000000000000815260040180806020018281038252603b815260200180613a9b603b913960400191505060405180910390fd5b83606560006101000a81548173ffffffffffffffffffffffffffffffffffffffff021916908373ffffffffffffffffffffffffffffffffffffffff16021790555081606b8190555082606a60006101000a81548173ffffffffffffffffffffffffffffffffffffffff021916908373ffffffffffffffffffffffffffffffffffffffff1602179055506001606860008773ffffffffffffffffffffffffffffffffffffffff1673ffffffffffffffffffffffffffffffffffffffff16815260200190815260200160002060006101000a81548160ff0219169083151502179055506067859080600181540180825580915050600190039060005260206000200160009091909190916101000a81548173ffffffffffffffffffffffffffffffffffffffff021916908373ffffffffffffffffffffffffffffffffffffffff160217905550670de0b6b3a7640000606c8190555069d3c21bcecceda1000000606e8190555080156125ee5760008060016101000a81548160ff0219169083151502179055505b5050505050565b6000606f6000612603612a6b565b73ffffffffffffffffffffffffffffffffffffffff1673ffffffffffffffffffffffffffffffffffffffff1681526020019081526020016000209050600081600001549050600082600001819055506000606780549050905060005b818110156126f85760006067828154811061267657fe5b9060005260206000200160009054906101000a900473ffffffffffffffffffffffffffffffffffffffff16905060008560010160008373ffffffffffffffffffffffffffffffffffffffff1673ffffffffffffffffffffffffffffffffffffffff1681526020019081526020016000208190555050808060010191505061265f565b5061270e82606654612a7390919063ffffffff16565b60668190555061276861271f612a6b565b83606560009054906101000a900473ffffffffffffffffffffffffffffffffffffffff1673ffffffffffffffffffffffffffffffffffffffff16612e3d9092919063ffffffff16565b612770612a6b565b73ffffffffffffffffffffffffffffffffffffffff167f5fafa99d0643513820be26656b45130b01e1c03062e1266bf36f88cbd3bd9695836040518082815260200191505060405180910390a2505050565b6000806000606f60008673ffffffffffffffffffffffffffffffffffffffff1673ffffffffffffffffffffffffffffffffffffffff168152602001908152602001600020905080600001548160010160008673ffffffffffffffffffffffffffffffffffffffff1673ffffffffffffffffffffffffffffffffffffffff1681526020019081526020016000205492509250509250929050565b612863612a6b565b73ffffffffffffffffffffffffffffffffffffffff16603360009054906101000a900473ffffffffffffffffffffffffffffffffffffffff1673ffffffffffffffffffffffffffffffffffffffff1614612925576040517f08c379a00000000000000000000000000000000000000000000000000000000081526004018080602001828103825260208152602001807f4f776e61626c653a2063616c6c6572206973206e6f7420746865206f776e657281525060200191505060405180910390fd5b600073ffffffffffffffffffffffffffffffffffffffff168173ffffffffffffffffffffffffffffffffffffffff1614156129ab576040517f08c379a000000000000000000000000000000000000000000000000000000000815260040180806020018281038252602681526020018061392e6026913960400191505060405180910390fd5b8073ffffffffffffffffffffffffffffffffffffffff16603360009054906101000a900473ffffffffffffffffffffffffffffffffffffffff1673ffffffffffffffffffffffffffffffffffffffff167f8be0079c531659141344cd1fd0a4f28419497f9722a3daafe3b4186f6b6457e060405160405180910390a380603360006101000a81548173ffffffffffffffffffffffffffffffffffffffff021916908373ffffffffffffffffffffffffffffffffffffffff16021790555050565b600033905090565b6000612ab583836040518060400160405280601e81526020017f536166654d6174683a207375627472616374696f6e206f766572666c6f77000081525061314d565b905092915050565b600080831415612ad05760009050612b3d565b6000828402905082848281612ae157fe5b0414612b38576040517f08c379a0000000000000000000000000000000000000000000000000000000008152600401808060200182810382526021815260200180613a546021913960400191505060405180910390fd5b809150505b92915050565b6000612b8583836040518060400160405280601a81526020017f536166654d6174683a206469766973696f6e206279207a65726f00000000000081525061320d565b905092915050565b60008373ffffffffffffffffffffffffffffffffffffffff166370a08231306040518263ffffffff1660e01b8152600401808273ffffffffffffffffffffffffffffffffffffffff16815260200191505060206040518083038186803b158015612bf657600080fd5b505afa158015612c0a573d6000803e3d6000fd5b505050506040513d6020811015612c2057600080fd5b810190808051906020019092919050505090506000606560009054906101000a900473ffffffffffffffffffffffffffffffffffffffff1673ffffffffffffffffffffffffffffffffffffffff168573ffffffffffffffffffffffffffffffffffffffff1614612c905781612ca6565b612ca560665483612a7390919063ffffffff16565b5b905080831115612d7557612d0281606960008873ffffffffffffffffffffffffffffffffffffffff1673ffffffffffffffffffffffffffffffffffffffff16815260200190815260200160002054612a7390919063ffffffff16565b606960008773ffffffffffffffffffffffffffffffffffffffff1673ffffffffffffffffffffffffffffffffffffffff16815260200190815260200160002081905550612d7084828773ffffffffffffffffffffffffffffffffffffffff16612e3d9092919063ffffffff16565b612e36565b612dc783606960008873ffffffffffffffffffffffffffffffffffffffff1673ffffffffffffffffffffffffffffffffffffffff16815260200190815260200160002054612a7390919063ffffffff16565b606960008773ffffffffffffffffffffffffffffffffffffffff1673ffffffffffffffffffffffffffffffffffffffff16815260200190815260200160002081905550612e3584848773ffffffffffffffffffffffffffffffffffffffff16612e3d9092919063ffffffff16565b5b5050505050565b612eda8363a9059cbb60e01b8484604051602401808373ffffffffffffffffffffffffffffffffffffffff16815260200182815260200192505050604051602081830303815290604052907bffffffffffffffffffffffffffffffffffffffffffffffffffffffff19166020820180517bffffffffffffffffffffffffffffffffffffffffffffffffffffffff83818316178352505050506132d3565b505050565b600080828401905083811015612f5d576040517f08c379a000000000000000000000000000000000000000000000000000000000815260040180806020018281038252601b8152602001807f536166654d6174683a206164646974696f6e206f766572666c6f77000000000081525060200191505060405180910390fd5b8091505092915050565b613022846323b872dd60e01b858585604051602401808473ffffffffffffffffffffffffffffffffffffffff1681526020018373ffffffffffffffffffffffffffffffffffffffff1681526020018281526020019350505050604051602081830303815290604052907bffffffffffffffffffffffffffffffffffffffffffffffffffffffff19166020820180517bffffffffffffffffffffffffffffffffffffffffffffffffffffffff83818316178352505050506132d3565b50505050565b6000803090506000813b9050600081149250505090565b600060019054906101000a900460ff168061305e575061305d613028565b5b80613074575060008054906101000a900460ff16155b6130c9576040517f08c379a000000000000000000000000000000000000000000000000000000000815260040180806020018281038252602e8152602001806139fe602e913960400191505060405180910390fd5b60008060019054906101000a900460ff161590508015613119576001600060016101000a81548160ff02191690831515021790555060016000806101000a81548160ff0219169083151502179055505b6131216133c2565b6131296134c0565b801561314a5760008060016101000a81548160ff0219169083151502179055505b50565b60008383111582906131fa576040517f08c379a00000000000000000000000000000000000000000000000000000000081526004018080602001828103825283818151815260200191508051906020019080838360005b838110156131bf5780820151818401526020810190506131a4565b50505050905090810190601f1680156131ec5780820380516001836020036101000a031916815260200191505b509250505060405180910390fd5b5060008385039050809150509392505050565b600080831182906132b9576040517f08c379a00000000000000000000000000000000000000000000000000000000081526004018080602001828103825283818151815260200191508051906020019080838360005b8381101561327e578082015181840152602081019050613263565b50505050905090810190601f1680156132ab5780820380516001836020036101000a031916815260200191505b509250505060405180910390fd5b5060008385816132c557fe5b049050809150509392505050565b6000613335826040518060400160405280602081526020017f5361666545524332303a206c6f772d6c6576656c2063616c6c206661696c65648152508573ffffffffffffffffffffffffffffffffffffffff166136679092919063ffffffff16565b90506000815111156133bd5780806020019051602081101561335657600080fd5b81019080805190602001909291905050506133bc576040517f08c379a000000000000000000000000000000000000000000000000000000000815260040180806020018281038252602a815260200180613b39602a913960400191505060405180910390fd5b5b505050565b600060019054906101000a900460ff16806133e157506133e0613028565b5b806133f7575060008054906101000a900460ff16155b61344c576040517f08c379a000000000000000000000000000000000000000000000000000000000815260040180806020018281038252602e8152602001806139fe602e913960400191505060405180910390fd5b60008060019054906101000a900460ff16159050801561349c576001600060016101000a81548160ff02191690831515021790555060016000806101000a81548160ff0219169083151502179055505b80156134bd5760008060016101000a81548160ff0219169083151502179055505b50565b600060019054906101000a900460ff16806134df57506134de613028565b5b806134f5575060008054906101000a900460ff16155b61354a576040517f08c379a000000000000000000000000000000000000000000000000000000000815260040180806020018281038252602e8152602001806139fe602e913960400191505060405180910390fd5b60008060019054906101000a900460ff16159050801561359a576001600060016101000a81548160ff02191690831515021790555060016000806101000a81548160ff0219169083151502179055505b60006135a4612a6b565b905080603360006101000a81548173ffffffffffffffffffffffffffffffffffffffff021916908373ffffffffffffffffffffffffffffffffffffffff1602179055508073ffffffffffffffffffffffffffffffffffffffff16600073ffffffffffffffffffffffffffffffffffffffff167f8be0079c531659141344cd1fd0a4f28419497f9722a3daafe3b4186f6b6457e060405160405180910390a35080156136645760008060016101000a81548160ff0219169083151502179055505b50565b6060613676848460008561367f565b90509392505050565b6060824710156136da576040517f08c379a000000000000000000000000000000000000000000000000000000000815260040180806020018281038252602681526020018061397d6026913960400191505060405180910390fd5b6136e385613827565b613755576040517f08c379a000000000000000000000000000000000000000000000000000000000815260040180806020018281038252601d8152602001807f416464726573733a2063616c6c20746f206e6f6e2d636f6e747261637400000081525060200191505060405180910390fd5b6000808673ffffffffffffffffffffffffffffffffffffffff1685876040518082805190602001908083835b602083106137a45780518252602082019150602081019050602083039250613781565b6001836020036101000a03801982511681845116808217855250505050505090500191505060006040518083038185875af1925050503d8060008114613806576040519150601f19603f3d011682016040523d82523d6000602084013e61380b565b606091505b509150915061381b82828661383a565b92505050949350505050565b600080823b905060008111915050919050565b6060831561384a578290506138ff565b60008351111561385d5782518084602001fd5b816040517f08c379a00000000000000000000000000000000000000000000000000000000081526004018080602001828103825283818151815260200191508051906020019080838360005b838110156138c45780820151818401526020810190506138a9565b50505050905090810190601f1680156138f15780820380516001836020036101000a031916815260200191505b509250505060405180910390fd5b939250505056fe537461626c654a6f655374616b696e673a206c697374206f6620746f6b656e20746f6f206269674f776e61626c653a206e6577206f776e657220697320746865207a65726f2061646472657373537461626c654a6f655374616b696e673a206a6f652063616e27742062652061646472657373283029416464726573733a20696e73756666696369656e742062616c616e636520666f722063616c6c537461626c654a6f655374616b696e673a2077726f6e672072657761726420746f6b656e537461626c654a6f655374616b696e673a206465706f736974206665652063616e27742062652067726561746572207468616e20353025496e697469616c697a61626c653a20636f6e747261637420697320616c726561647920696e697469616c697a6564537461626c654a6f655374616b696e673a20746f6b656e2063616e27742062652072656d6f766564536166654d6174683a206d756c7469706c69636174696f6e206f766572666c6f77537461626c654a6f655374616b696e673a20746f6b656e2063616e2774206265206164646564537461626c654a6f655374616b696e673a206d6178206465706f736974206665652063616e27742062652067726561746572207468616e20353025537461626c654a6f655374616b696e673a2072657761726420746f6b656e2063616e27742062652061646472657373283029537461626c654a6f655374616b696e673a20776974686472617720616d6f756e7420657863656564732062616c616e63655361666545524332303a204552433230206f7065726174696f6e20646964206e6f742073756363656564537461626c654a6f655374616b696e673a2066656520636f6c6c6563746f722063616e27742062652061646472657373283029a2646970667358221220ccc64827cf158c880c689102f3495125ea90beb6f8d06603234898d8020d05c164736f6c63430007060033",
  "devdoc": {
    "author": "Trader Joe",
    "kind": "dev",
    "methods": {
      "addRewardToken(address)": {
        "params": {
          "_rewardToken": "The address of the reward token"
        }
      },
      "deposit(uint256)": {
        "params": {
          "_amount": "The amount of JOE to deposit"
        }
      },
      "getUserInfo(address,address)": {
        "params": {
          "_rewardToken": "The address of the reward token",
          "_user": "The address of the user"
        },
        "returns": {
          "_0": "The amount of JOE user has deposited",
          "_1": "The reward debt for the chosen token"
        }
      },
      "initialize(address,address,address,uint256)": {
        "details": "This contract needs to receive an ERC20 `_rewardToken` in order to distribute them (with MoneyMaker in our case)",
        "params": {
          "_depositFeePercent": "The deposit fee percent, scalled to 1e18, e.g. 3% is 3e16",
          "_feeCollector": "The address where deposit fees will be sent",
          "_joe": "The address of the JOE token",
          "_rewardToken": "The address of the ERC20 reward token"
        }
      },
      "owner()": {
        "details": "Returns the address of the current owner."
      },
      "pendingReward(address,address)": {
        "params": {
          "_token": "The address of the token",
          "_user": "The address of the user"
        },
        "returns": {
          "_0": "`_user`'s pending reward token"
        }
      },
      "removeRewardToken(address)": {
        "params": {
          "_rewardToken": "The address of the reward token"
        }
      },
      "renounceOwnership()": {
        "details": "Leaves the contract without owner. It will not be possible to call `onlyOwner` functions anymore. Can only be called by the current owner. NOTE: Renouncing ownership will leave the contract without an owner, thereby removing any functionality that is only available to the owner."
      },
      "rewardTokensLength()": {
        "returns": {
          "_0": "The length of the array"
        }
      },
      "setDepositFeePercent(uint256)": {
        "params": {
          "_depositFeePercent": "The new deposit fee percent"
        }
      },
      "transferOwnership(address)": {
        "details": "Transfers ownership of the contract to a new account (`newOwner`). Can only be called by the current owner."
      },
      "updateReward(address)": {
        "details": "Needs to be called before any deposit or withdrawal",
        "params": {
          "_token": "The address of the reward token"
        }
      },
      "withdraw(uint256)": {
        "params": {
          "_amount": "The amount of JOE to withdraw"
        }
      }
    },
    "stateVariables": {
      "internalJoeBalance": {
        "details": "Internal balance of JOE, this gets updated on user deposits / withdrawals this allows to reward users with JOE"
      },
      "userInfo": {
        "details": "Info of each user that stakes JOE"
      }
    },
    "title": "Stable JOE Staking",
    "version": 1
  },
  "userdoc": {
    "events": {
      "ClaimReward(address,address,uint256)": {
        "notice": "Emitted when a user claims reward"
      },
      "Deposit(address,uint256,uint256)": {
        "notice": "Emitted when a user deposits JOE"
      },
      "DepositFeeChanged(uint256,uint256)": {
        "notice": "Emitted when owner changes the deposit fee percentage"
      },
      "EmergencyWithdraw(address,uint256)": {
        "notice": "Emitted when a user emergency withdraws its JOE"
      },
      "RewardTokenAdded(address)": {
        "notice": "Emitted when owner adds a token to the reward tokens list"
      },
      "RewardTokenRemoved(address)": {
        "notice": "Emitted when owner removes a token from the reward tokens list"
      },
      "Withdraw(address,uint256)": {
        "notice": "Emitted when a user withdraws JOE"
      }
    },
    "kind": "user",
    "methods": {
      "ACC_REWARD_PER_SHARE_PRECISION()": {
        "notice": "The precision of `accRewardPerShare`"
      },
      "DEPOSIT_FEE_PERCENT_PRECISION()": {
        "notice": "The precision of `depositFeePercent`"
      },
      "accRewardPerShare(address)": {
        "notice": "Accumulated `token` rewards per share, scaled to `ACC_REWARD_PER_SHARE_PRECISION`"
      },
      "addRewardToken(address)": {
        "notice": "Add a reward token"
      },
      "deposit(uint256)": {
        "notice": "Deposit JOE for reward token allocation"
      },
      "depositFeePercent()": {
        "notice": "The deposit fee, scaled to `DEPOSIT_FEE_PERCENT_PRECISION`"
      },
      "emergencyWithdraw()": {
        "notice": "Withdraw without caring about rewards. EMERGENCY ONLY"
      },
      "getUserInfo(address,address)": {
        "notice": "Get user info"
      },
      "initialize(address,address,address,uint256)": {
        "notice": "Initialize a new StableJoeStaking contract"
      },
      "lastRewardBalance(address)": {
        "notice": "Last reward balance of `token`"
      },
      "pendingReward(address,address)": {
        "notice": "View function to see pending reward token on frontend"
      },
      "removeRewardToken(address)": {
        "notice": "Remove a reward token"
      },
      "rewardTokens(uint256)": {
        "notice": "Array of tokens that users can claim"
      },
      "rewardTokensLength()": {
        "notice": "Get the number of reward tokens"
      },
      "setDepositFeePercent(uint256)": {
        "notice": "Set the deposit fee percent"
      },
      "updateReward(address)": {
        "notice": "Update reward variables"
      },
      "withdraw(uint256)": {
        "notice": "Withdraw JOE and harvest the rewards"
      }
    },
    "notice": "StableJoeStaking is a contract that allows JOE deposits and receives stablecoins sent by MoneyMaker's daily harvests. Users deposit JOE and receive a share of what has been sent by MoneyMaker based on their participation of the total deposited JOE. It is similar to a MasterChef, but we allow for claiming of different reward tokens (in case at some point we wish to change the stablecoin rewarded). Every time `updateReward(token)` is called, We distribute the balance of that tokens as rewards to users that are currently staking inside this contract, and they can claim it using `withdraw(0)`",
    "version": 1
  },
  "storageLayout": {
    "storage": [
      {
        "astId": 376,
        "contract": "contracts/StableJoeStaking.sol:StableJoeStaking",
        "label": "_initialized",
        "offset": 0,
        "slot": "0",
        "type": "t_bool"
      },
      {
        "astId": 379,
        "contract": "contracts/StableJoeStaking.sol:StableJoeStaking",
        "label": "_initializing",
        "offset": 1,
        "slot": "0",
        "type": "t_bool"
      },
      {
        "astId": 43,
        "contract": "contracts/StableJoeStaking.sol:StableJoeStaking",
        "label": "__gap",
        "offset": 0,
        "slot": "1",
        "type": "t_array(t_uint256)50_storage"
      },
      {
        "astId": 55,
        "contract": "contracts/StableJoeStaking.sol:StableJoeStaking",
        "label": "_owner",
        "offset": 0,
        "slot": "51",
        "type": "t_address"
      },
      {
        "astId": 173,
        "contract": "contracts/StableJoeStaking.sol:StableJoeStaking",
        "label": "__gap",
        "offset": 0,
        "slot": "52",
        "type": "t_array(t_uint256)49_storage"
      },
      {
        "astId": 3303,
        "contract": "contracts/StableJoeStaking.sol:StableJoeStaking",
        "label": "joe",
        "offset": 0,
        "slot": "101",
        "type": "t_contract(IERC20Upgradeable)519"
      },
      {
        "astId": 3306,
        "contract": "contracts/StableJoeStaking.sol:StableJoeStaking",
        "label": "internalJoeBalance",
        "offset": 0,
        "slot": "102",
        "type": "t_uint256"
      },
      {
        "astId": 3310,
        "contract": "contracts/StableJoeStaking.sol:StableJoeStaking",
        "label": "rewardTokens",
        "offset": 0,
        "slot": "103",
        "type": "t_array(t_contract(IERC20Upgradeable)519)dyn_storage"
      },
      {
        "astId": 3314,
        "contract": "contracts/StableJoeStaking.sol:StableJoeStaking",
        "label": "isRewardToken",
        "offset": 0,
        "slot": "104",
        "type": "t_mapping(t_contract(IERC20Upgradeable)519,t_bool)"
      },
      {
        "astId": 3319,
        "contract": "contracts/StableJoeStaking.sol:StableJoeStaking",
        "label": "lastRewardBalance",
        "offset": 0,
        "slot": "105",
        "type": "t_mapping(t_contract(IERC20Upgradeable)519,t_uint256)"
      },
      {
        "astId": 3321,
        "contract": "contracts/StableJoeStaking.sol:StableJoeStaking",
        "label": "feeCollector",
        "offset": 0,
        "slot": "106",
        "type": "t_address"
      },
      {
        "astId": 3324,
        "contract": "contracts/StableJoeStaking.sol:StableJoeStaking",
        "label": "depositFeePercent",
        "offset": 0,
        "slot": "107",
        "type": "t_uint256"
      },
      {
        "astId": 3327,
        "contract": "contracts/StableJoeStaking.sol:StableJoeStaking",
        "label": "DEPOSIT_FEE_PERCENT_PRECISION",
        "offset": 0,
        "slot": "108",
        "type": "t_uint256"
      },
      {
        "astId": 3332,
        "contract": "contracts/StableJoeStaking.sol:StableJoeStaking",
        "label": "accRewardPerShare",
        "offset": 0,
        "slot": "109",
        "type": "t_mapping(t_contract(IERC20Upgradeable)519,t_uint256)"
      },
      {
        "astId": 3335,
        "contract": "contracts/StableJoeStaking.sol:StableJoeStaking",
        "label": "ACC_REWARD_PER_SHARE_PRECISION",
        "offset": 0,
        "slot": "110",
        "type": "t_uint256"
      },
      {
        "astId": 3340,
        "contract": "contracts/StableJoeStaking.sol:StableJoeStaking",
        "label": "userInfo",
        "offset": 0,
        "slot": "111",
        "type": "t_mapping(t_address,t_struct(UserInfo)3301_storage)"
      }
    ],
    "types": {
      "t_address": {
        "encoding": "inplace",
        "label": "address",
        "numberOfBytes": "20"
      },
      "t_array(t_contract(IERC20Upgradeable)519)dyn_storage": {
        "base": "t_contract(IERC20Upgradeable)519",
        "encoding": "dynamic_array",
        "label": "contract IERC20Upgradeable[]",
        "numberOfBytes": "32"
      },
      "t_array(t_uint256)49_storage": {
        "base": "t_uint256",
        "encoding": "inplace",
        "label": "uint256[49]",
        "numberOfBytes": "1568"
      },
      "t_array(t_uint256)50_storage": {
        "base": "t_uint256",
        "encoding": "inplace",
        "label": "uint256[50]",
        "numberOfBytes": "1600"
      },
      "t_bool": {
        "encoding": "inplace",
        "label": "bool",
        "numberOfBytes": "1"
      },
      "t_contract(IERC20Upgradeable)519": {
        "encoding": "inplace",
        "label": "contract IERC20Upgradeable",
        "numberOfBytes": "20"
      },
      "t_mapping(t_address,t_struct(UserInfo)3301_storage)": {
        "encoding": "mapping",
        "key": "t_address",
        "label": "mapping(address => struct StableJoeStaking.UserInfo)",
        "numberOfBytes": "32",
        "value": "t_struct(UserInfo)3301_storage"
      },
      "t_mapping(t_contract(IERC20Upgradeable)519,t_bool)": {
        "encoding": "mapping",
        "key": "t_contract(IERC20Upgradeable)519",
        "label": "mapping(contract IERC20Upgradeable => bool)",
        "numberOfBytes": "32",
        "value": "t_bool"
      },
      "t_mapping(t_contract(IERC20Upgradeable)519,t_uint256)": {
        "encoding": "mapping",
        "key": "t_contract(IERC20Upgradeable)519",
        "label": "mapping(contract IERC20Upgradeable => uint256)",
        "numberOfBytes": "32",
        "value": "t_uint256"
      },
      "t_struct(UserInfo)3301_storage": {
        "encoding": "inplace",
        "label": "struct StableJoeStaking.UserInfo",
        "members": [
          {
            "astId": 3296,
            "contract": "contracts/StableJoeStaking.sol:StableJoeStaking",
            "label": "amount",
            "offset": 0,
            "slot": "0",
            "type": "t_uint256"
          },
          {
            "astId": 3300,
            "contract": "contracts/StableJoeStaking.sol:StableJoeStaking",
            "label": "rewardDebt",
            "offset": 0,
            "slot": "1",
            "type": "t_mapping(t_contract(IERC20Upgradeable)519,t_uint256)"
          }
        ],
        "numberOfBytes": "64"
      },
      "t_uint256": {
        "encoding": "inplace",
        "label": "uint256",
        "numberOfBytes": "32"
      }
    }
  }
}