{
  "address": "0x70c949152D2AC84FbB809228606db4654773D994",
  "abi": [
    {
      "anonymous": false,
      "inputs": [
        {
          "indexed": true,
          "internalType": "address",
          "name": "previousOwner",
          "type": "address"
        },
        {
          "indexed": true,
          "internalType": "address",
          "name": "newOwner",
          "type": "address"
        }
      ],
      "name": "OwnershipTransferred",
      "type": "event"
    },
    {
      "inputs": [
        {
          "internalType": "address",
          "name": "_joe",
          "type": "address"
        },
        {
          "internalType": "address",
          "name": "_router",
          "type": "address"
        }
      ],
      "name": "initialize",
      "outputs": [],
      "stateMutability": "nonpayable",
      "type": "function"
    },
    {
      "inputs": [
        {
          "internalType": "address",
          "name": "_address",
          "type": "address"
        }
      ],
      "name": "isLP",
      "outputs": [
        {
          "internalType": "bool",
          "name": "",
          "type": "bool"
        }
      ],
      "stateMutability": "view",
      "type": "function"
    },
    {
      "inputs": [],
      "name": "owner",
      "outputs": [
        {
          "internalType": "address",
          "name": "",
          "type": "address"
        }
      ],
      "stateMutability": "view",
      "type": "function"
    },
    {
      "inputs": [
        {
          "internalType": "uint256",
          "name": "i",
          "type": "uint256"
        }
      ],
      "name": "removeToken",
      "outputs": [],
      "stateMutability": "nonpayable",
      "type": "function"
    },
    {
      "inputs": [],
      "name": "renounceOwnership",
      "outputs": [],
      "stateMutability": "nonpayable",
      "type": "function"
    },
    {
      "inputs": [
        {
          "internalType": "address",
          "name": "_address",
          "type": "address"
        }
      ],
      "name": "routePair",
      "outputs": [
        {
          "internalType": "address",
          "name": "",
          "type": "address"
        }
      ],
      "stateMutability": "view",
      "type": "function"
    },
    {
      "inputs": [
        {
          "internalType": "address",
          "name": "token",
          "type": "address"
        }
      ],
      "name": "setNotLP",
      "outputs": [],
      "stateMutability": "nonpayable",
      "type": "function"
    },
    {
      "inputs": [
        {
          "internalType": "address",
          "name": "asset",
          "type": "address"
        },
        {
          "internalType": "address",
          "name": "route",
          "type": "address"
        }
      ],
      "name": "setRoutePairAddress",
      "outputs": [],
      "stateMutability": "nonpayable",
      "type": "function"
    },
    {
      "inputs": [],
      "name": "sweep",
      "outputs": [],
      "stateMutability": "nonpayable",
      "type": "function"
    },
    {
      "inputs": [
        {
          "internalType": "uint256",
          "name": "",
          "type": "uint256"
        }
      ],
      "name": "tokens",
      "outputs": [
        {
          "internalType": "address",
          "name": "",
          "type": "address"
        }
      ],
      "stateMutability": "view",
      "type": "function"
    },
    {
      "inputs": [
        {
          "internalType": "address",
          "name": "newOwner",
          "type": "address"
        }
      ],
      "name": "transferOwnership",
      "outputs": [],
      "stateMutability": "nonpayable",
      "type": "function"
    },
    {
      "inputs": [
        {
          "internalType": "address",
          "name": "token",
          "type": "address"
        }
      ],
      "name": "withdraw",
      "outputs": [],
      "stateMutability": "nonpayable",
      "type": "function"
    },
    {
      "inputs": [
        {
          "internalType": "address",
          "name": "_to",
          "type": "address"
        }
      ],
      "name": "zapIn",
      "outputs": [],
      "stateMutability": "payable",
      "type": "function"
    },
    {
      "inputs": [
        {
          "internalType": "address",
          "name": "_from",
          "type": "address"
        },
        {
          "internalType": "uint256",
          "name": "amount",
          "type": "uint256"
        },
        {
          "internalType": "address",
          "name": "_to",
          "type": "address"
        }
      ],
      "name": "zapInToken",
      "outputs": [],
      "stateMutability": "nonpayable",
      "type": "function"
    },
    {
      "inputs": [
        {
          "internalType": "address",
          "name": "_from",
          "type": "address"
        },
        {
          "internalType": "uint256",
          "name": "amount",
          "type": "uint256"
        }
      ],
      "name": "zapOut",
      "outputs": [],
      "stateMutability": "nonpayable",
      "type": "function"
    },
    {
      "stateMutability": "payable",
      "type": "receive"
    }
  ],
  "transactionHash": "0x95a7a857cb82406b41f87a6073393f749c07ad843e5ad8e0045029bb0c25f236",
  "args": [],
  "solcInputHash": "bd0de70534db79032ecb32d2f3332386",
  "bytecode": "0x608060405234801561001057600080fd5b50612dd7806100206000396000f3fe6080604052600436106100ec5760003560e01c806351cff8d91161008a578063985c9d5611610059578063985c9d561461030f578063d9139f6314610342578063f2fde38b1461037b578063fe47068d146103ae576100f3565b806351cff8d91461026b578063715018a61461029e5780637df0f767146102b35780638da5cb5b146102fa576100f3565b806335faa416116100c657806335faa416146101ab57806336c5d724146101c0578063485cc955146101ea5780634f64b2be14610225576100f3565b80631c286c8a146100f85780631c4009f9146101355780631eff9adb14610178576100f3565b366100f357005b600080fd5b34801561010457600080fd5b506101336004803603604081101561011b57600080fd5b506001600160a01b03813581169160200135166103d4565b005b34801561014157600080fd5b506101336004803603606081101561015857600080fd5b506001600160a01b0381358116916020810135916040909101351661045a565b34801561018457600080fd5b506101336004803603602081101561019b57600080fd5b50356001600160a01b03166106e7565b3480156101b757600080fd5b506101336107be565b3480156101cc57600080fd5b50610133600480360360208110156101e357600080fd5b50356109c3565b3480156101f657600080fd5b506101336004803603604081101561020d57600080fd5b506001600160a01b0381358116916020013516610af1565b34801561023157600080fd5b5061024f6004803603602081101561024857600080fd5b5035610c98565b604080516001600160a01b039092168252519081900360200190f35b34801561027757600080fd5b506101336004803603602081101561028e57600080fd5b50356001600160a01b0316610cbf565b3480156102aa57600080fd5b50610133610e6d565b3480156102bf57600080fd5b506102e6600480360360208110156102d657600080fd5b50356001600160a01b0316610f0f565b604080519115158252519081900360200190f35b34801561030657600080fd5b5061024f610f2e565b34801561031b57600080fd5b5061024f6004803603602081101561033257600080fd5b50356001600160a01b0316610f3d565b34801561034e57600080fd5b506101336004803603604081101561036557600080fd5b506001600160a01b038135169060200135610f5b565b34801561038757600080fd5b506101336004803603602081101561039e57600080fd5b50356001600160a01b0316611233565b610133600480360360208110156103c457600080fd5b50356001600160a01b031661132c565b6103dc611337565b6033546001600160a01b0390811691161461042c576040805162461bcd60e51b81526020600482018190526024820152600080516020612d22833981519152604482015290519081900360640190fd5b6001600160a01b03918216600090815260686020526040902080546001600160a01b03191691909216179055565b61046f6001600160a01b03841633308561133b565b61047883611395565b61048181610f0f565b156106d45760008190506000816001600160a01b0316630dfe16816040518163ffffffff1660e01b815260040160206040518083038186803b1580156104c657600080fd5b505afa1580156104da573d6000803e3d6000fd5b505050506040513d60208110156104f057600080fd5b50516040805163d21220a760e01b815290519192506000916001600160a01b0385169163d21220a7916004808301926020929190829003018186803b15801561053857600080fd5b505afa15801561054c573d6000803e3d6000fd5b505050506040513d602081101561056257600080fd5b505190506001600160a01b0386811690831614806105915750806001600160a01b0316866001600160a01b0316145b156106b0576000826001600160a01b0316876001600160a01b0316146105b757826105b9565b815b90506105c481611395565b60006105d1876002611434565b905060006105e18983853061149b565b6066549091506001600160a01b031663e8e337008a856106018c87611d02565b604080516001600160e01b031960e087901b1681526001600160a01b03948516600482015292909316602483015260448201526064810185905260006084820181905260a482018190523360c48301524260e483015291516101048083019360609383900390910190829087803b15801561067b57600080fd5b505af115801561068f573d6000803e3d6000fd5b505050506040513d60608110156106a557600080fd5b506106cc9350505050565b60006106bd878730611d5f565b90506106ca858233612091565b505b5050506106e2565b6106e08383833361149b565b505b505050565b6106ef611337565b6033546001600160a01b0390811691161461073f576040805162461bcd60e51b81526020600482018190526024820152600080516020612d22833981519152604482015290519081900360640190fd5b6001600160a01b0381166000908152606760205260409020805460ff19811660011790915560ff161580156107ba57606980546001810182556000919091527f7fb4302e8e91f9110a6554c2c0a24601252c2a42c2220ca988efcfe3999143080180546001600160a01b0319166001600160a01b0384161790555b5050565b6107c6611337565b6033546001600160a01b03908116911614610816576040805162461bcd60e51b81526020600482018190526024820152600080516020612d22833981519152604482015290519081900360640190fd5b60005b6069548110156109785760006069828154811061083257fe5b6000918252602090912001546001600160a01b03169050806108545750610970565b6000816001600160a01b03166370a08231306040518263ffffffff1660e01b815260040180826001600160a01b0316815260200191505060206040518083038186803b1580156108a357600080fd5b505afa1580156108b7573d6000803e3d6000fd5b505050506040513d60208110156108cd57600080fd5b50519050801561096d576001600160a01b038216600080516020612cae833981519152141561095957816001600160a01b0316632e1a7d4d826040518263ffffffff1660e01b815260040180828152602001915050600060405180830381600087803b15801561093c57600080fd5b505af1158015610950573d6000803e3d6000fd5b5050505061096d565b61096b8282610966610f2e565b611d5f565b505b50505b600101610819565b504780156109c057610988610f2e565b6001600160a01b03166108fc829081150290604051600060405180830381858888f193505050501580156107ba573d6000803e3d6000fd5b50565b6109cb611337565b6033546001600160a01b03908116911614610a1b576040805162461bcd60e51b81526020600482018190526024820152600080516020612d22833981519152604482015290519081900360640190fd5b600060698281548110610a2a57fe5b60009182526020808320909101546001600160a01b031680835260679091526040909120805460ff1916905560698054919250906000198101908110610a6c57fe5b600091825260209091200154606980546001600160a01b039092169184908110610a9257fe5b9060005260206000200160006101000a8154816001600160a01b0302191690836001600160a01b031602179055506069805480610acb57fe5b600082815260209020810160001990810180546001600160a01b03191690550190555050565b600054610100900460ff1680610b0a5750610b0a6123dd565b80610b18575060005460ff16155b610b535760405162461bcd60e51b815260040180806020018281038252602e815260200180612cf4602e913960400191505060405180910390fd5b600054610100900460ff16158015610b7e576000805460ff1961ff0019909116610100171660011790555b610b866123e3565b6000610b90610f2e565b6001600160a01b03161415610bec576040805162461bcd60e51b815260206004820152601960248201527f5a61704554483a206f776e6572206d7573742062652073657400000000000000604482015290519081900360640190fd5b606580546001600160a01b038086166001600160a01b0319928316179092556066805492851692909116919091179055610c33600080516020612cae8339815191526106e7565b610c5073e734779ca7a5eca71bf87af3938b60b22f628cd36106e7565b606554610c65906001600160a01b03166106e7565b610c8273e734779ca7a5eca71bf87af3938b60b22f628cd36106e7565b80156106e2576000805461ff0019169055505050565b60698181548110610ca557fe5b6000918252602090912001546001600160a01b0316905081565b610cc7611337565b6033546001600160a01b03908116911614610d17576040805162461bcd60e51b81526020600482018190526024820152600080516020612d22833981519152604482015290519081900360640190fd5b6001600160a01b038116610d6b57610d2d610f2e565b6001600160a01b03166108fc479081150290604051600060405180830381858888f19350505050158015610d65573d6000803e3d6000fd5b506109c0565b806001600160a01b031663a9059cbb610d82610f2e565b604080516370a0823160e01b815230600482015290516001600160a01b038616916370a08231916024808301926020929190829003018186803b158015610dc857600080fd5b505afa158015610ddc573d6000803e3d6000fd5b505050506040513d6020811015610df257600080fd5b5051604080516001600160e01b031960e086901b1681526001600160a01b03909316600484015260248301919091525160448083019260209291908290030181600087803b158015610e4357600080fd5b505af1158015610e57573d6000803e3d6000fd5b505050506040513d60208110156106e257600080fd5b610e75611337565b6033546001600160a01b03908116911614610ec5576040805162461bcd60e51b81526020600482018190526024820152600080516020612d22833981519152604482015290519081900360640190fd5b6033546040516000916001600160a01b0316907f8be0079c531659141344cd1fd0a4f28419497f9722a3daafe3b4186f6b6457e0908390a3603380546001600160a01b0319169055565b6001600160a01b031660009081526067602052604090205460ff161590565b6033546001600160a01b031690565b6001600160a01b039081166000908152606860205260409020541690565b610f706001600160a01b03831633308461133b565b610f7982611395565b610f8282610f0f565b610f9757610f91828233611d5f565b506107ba565b60008290506000816001600160a01b0316630dfe16816040518163ffffffff1660e01b815260040160206040518083038186803b158015610fd757600080fd5b505afa158015610feb573d6000803e3d6000fd5b505050506040513d602081101561100157600080fd5b50516040805163d21220a760e01b815290519192506000916001600160a01b0385169163d21220a7916004808301926020929190829003018186803b15801561104957600080fd5b505afa15801561105d573d6000803e3d6000fd5b505050506040513d602081101561107357600080fd5b505190506001600160a01b038216600080516020612cae83398151915214806110b257506001600160a01b038116600080516020612cae833981519152145b15611186576066546001600160a01b03908116906333c6b725908416600080516020612cae83398151915214156110e957826110eb565b835b604080516001600160e01b031960e085901b1681526001600160a01b03909216600483015260248201889052600060448301819052606483018190523360848401524260a4840152815160c4808501949192918390030190829087803b15801561115457600080fd5b505af1158015611168573d6000803e3d6000fd5b505050506040513d604081101561117e57600080fd5b5061122c9050565b60665460408051635d5155ef60e11b81526001600160a01b038581166004830152848116602483015260448201889052600060648301819052608483018190523360a48401524260c48401528351919094169363baa2abde9360e480850194919392918390030190829087803b1580156111ff57600080fd5b505af1158015611213573d6000803e3d6000fd5b505050506040513d604081101561122957600080fd5b50505b5050505050565b61123b611337565b6033546001600160a01b0390811691161461128b576040805162461bcd60e51b81526020600482018190526024820152600080516020612d22833981519152604482015290519081900360640190fd5b6001600160a01b0381166112d05760405162461bcd60e51b8152600401808060200182810382526026815260200180612c886026913960400191505060405180910390fd5b6033546040516001600160a01b038084169216907f8be0079c531659141344cd1fd0a4f28419497f9722a3daafe3b4186f6b6457e090600090a3603380546001600160a01b0319166001600160a01b0392909216919091179055565b6109c0813433612091565b3390565b604080516001600160a01b0380861660248301528416604482015260648082018490528251808303909101815260849091019091526020810180516001600160e01b03166323b872dd60e01b1790526106e0908590612494565b60665460408051636eb1769f60e11b81523060048201526001600160a01b03928316602482015290519183169163dd62ed3e91604480820192602092909190829003018186803b1580156113e857600080fd5b505afa1580156113fc573d6000803e3d6000fd5b505050506040513d602081101561141257600080fd5b50516109c0576066546109c0906001600160a01b038381169116600019612545565b600080821161148a576040805162461bcd60e51b815260206004820152601a60248201527f536166654d6174683a206469766973696f6e206279207a65726f000000000000604482015290519081900360640190fd5b81838161149357fe5b049392505050565b6001600160a01b03808516600090815260686020526040812054909116806114da57506001600160a01b03808416600090815260686020526040902054165b60606001600160a01b0382161580159061152a57506001600160a01b038716600080516020612cae833981519152148061152a57506001600160a01b038516600080516020612cae833981519152145b156115f057600360005b5060405190808252806020026020018201604052801561155e578160200160208202803683370190505b509050868160008151811061156f57fe5b60200260200101906001600160a01b031690816001600160a01b031681525050818160018151811061159d57fe5b60200260200101906001600160a01b031690816001600160a01b03168152505084816002815181106115cb57fe5b60200260200101906001600160a01b031690816001600160a01b031681525050611b4d565b6001600160a01b038216158015906116345750816001600160a01b0316876001600160a01b031614806116345750816001600160a01b0316856001600160a01b0316145b156116a757600260005b50604051908082528060200260200182016040528015611668578160200160208202803683370190505b509050868160008151811061167957fe5b60200260200101906001600160a01b031690816001600160a01b03168152505084816001815181106115cb57fe5b6001600160a01b038216158015906116e357506001600160a01b03808616600090815260686020526040808220548a8416835291205482169116145b156116f15760036000611534565b6001600160a01b03878116600090815260686020526040902054161580159061173357506001600160a01b038581166000908152606860205260409020541615155b801561176457506001600160a01b03808616600090815260686020526040808220548a841683529120548216911614155b1561187e5760408051600580825260c08201909252906020820160a080368337019050509050868160008151811061179857fe5b6001600160a01b039283166020918202929092018101919091528882166000908152606890915260409020548251911690829060019081106117d657fe5b60200260200101906001600160a01b031690816001600160a01b031681525050600080516020612cae8339815191528160028151811061181257fe5b6001600160a01b0392831660209182029290920181019190915286821660009081526068909152604090205482519116908290600390811061185057fe5b60200260200101906001600160a01b031690816001600160a01b03168152505084816004815181106115cb57fe5b6001600160a01b038216158015906118af57506001600160a01b038781166000908152606860205260409020541615155b1561197b5760408051600480825260a08201909252906020820160808036833701905050905086816000815181106118e357fe5b60200260200101906001600160a01b031690816001600160a01b031681525050818160018151811061191157fe5b60200260200101906001600160a01b031690816001600160a01b031681525050600080516020612cae8339815191528160028151811061194d57fe5b60200260200101906001600160a01b031690816001600160a01b03168152505084816003815181106115cb57fe5b6001600160a01b038216158015906119ac57506001600160a01b038581166000908152606860205260409020541615155b15611a4a5760408051600480825260a08201909252906020820160808036833701905050905086816000815181106119e057fe5b60200260200101906001600160a01b031690816001600160a01b031681525050600080516020612cae83398151915281600181518110611a1c57fe5b60200260200101906001600160a01b031690816001600160a01b031681525050818160028151811061194d57fe5b6001600160a01b038716600080516020612cae8339815191521480611a8557506001600160a01b038516600080516020612cae833981519152145b15611a93576002600061163e565b6040805160038082526080820190925290602082016060803683370190505090508681600081518110611ac257fe5b60200260200101906001600160a01b031690816001600160a01b031681525050600080516020612cae83398151915281600181518110611afe57fe5b60200260200101906001600160a01b031690816001600160a01b0316815250508481600281518110611b2c57fe5b60200260200101906001600160a01b031690816001600160a01b0316815250505b6060606660009054906101000a90046001600160a01b03166001600160a01b03166338ed17398860008589426040518663ffffffff1660e01b81526004018086815260200185815260200180602001846001600160a01b03168152602001838152602001828103825285818151815260200191508051906020019060200280838360005b83811015611be9578181015183820152602001611bd1565b505050509050019650505050505050600060405180830381600087803b158015611c1257600080fd5b505af1158015611c26573d6000803e3d6000fd5b505050506040513d6000823e601f3d908101601f191682016040526020811015611c4f57600080fd5b8101908080516040519392919084640100000000821115611c6f57600080fd5b908301906020820185811115611c8457600080fd5b8251866020820283011164010000000082111715611ca157600080fd5b82525081516020918201928201910280838360005b83811015611cce578181015183820152602001611cb6565b50505050905001604052505050905080600182510381518110611ced57fe5b60200260200101519350505050949350505050565b600082821115611d59576040805162461bcd60e51b815260206004820152601e60248201527f536166654d6174683a207375627472616374696f6e206f766572666c6f770000604482015290519081900360640190fd5b50900390565b6001600160a01b0383811660009081526068602052604081205490916060911615611e52576040805160038082526080820190925290602082016060803683370190505090508481600081518110611db357fe5b6001600160a01b03928316602091820292909201810191909152868216600090815260689091526040902054825191169082906001908110611df157fe5b60200260200101906001600160a01b031690816001600160a01b031681525050600080516020612cae83398151915281600281518110611e2d57fe5b60200260200101906001600160a01b031690816001600160a01b031681525050611edd565b60408051600280825260608201835290916020830190803683370190505090508481600081518110611e8057fe5b60200260200101906001600160a01b031690816001600160a01b031681525050600080516020612cae83398151915281600181518110611ebc57fe5b60200260200101906001600160a01b031690816001600160a01b0316815250505b6060606660009054906101000a90046001600160a01b03166001600160a01b031663676528d18660008588426040518663ffffffff1660e01b81526004018086815260200185815260200180602001846001600160a01b03168152602001838152602001828103825285818151815260200191508051906020019060200280838360005b83811015611f79578181015183820152602001611f61565b505050509050019650505050505050600060405180830381600087803b158015611fa257600080fd5b505af1158015611fb6573d6000803e3d6000fd5b505050506040513d6000823e601f3d908101601f191682016040526020811015611fdf57600080fd5b8101908080516040519392919084640100000000821115611fff57600080fd5b90830190602082018581111561201457600080fd5b825186602082028301116401000000008211171561203157600080fd5b82525081516020918201928201910280838360005b8381101561205e578181015183820152602001612046565b5050505090500160405250505090508060018251038151811061207d57fe5b6020026020010151925050505b9392505050565b61209a83610f0f565b6120af576120a9838383612658565b506106e2565b60008390506000816001600160a01b0316630dfe16816040518163ffffffff1660e01b815260040160206040518083038186803b1580156120ef57600080fd5b505afa158015612103573d6000803e3d6000fd5b505050506040513d602081101561211957600080fd5b50516040805163d21220a760e01b815290519192506000916001600160a01b0385169163d21220a7916004808301926020929190829003018186803b15801561216157600080fd5b505afa158015612175573d6000803e3d6000fd5b505050506040513d602081101561218b57600080fd5b505190506001600160a01b038216600080516020612cae83398151915214806121ca57506001600160a01b038116600080516020612cae833981519152145b156122da5760006001600160a01b038316600080516020612cae833981519152146121f557826121f7565b815b90506000612206876002611434565b90506000612215838330612658565b905061222083611395565b6066546001600160a01b031663f91b3f7261223b8a85611d02565b604080516001600160e01b031960e085901b1681526001600160a01b0380891660048301526024820187905260006044830181905260648301528c1660848201524260a4820152905160c480830192606092919082900301818588803b1580156122a457600080fd5b505af11580156122b8573d6000803e3d6000fd5b50505050506040513d60608110156122cf57600080fd5b506123d59350505050565b60006122e7866002611434565b905060006122f6848330612658565b9050600061230e846123088a86611d02565b30612658565b905061231985611395565b61232284611395565b6066546040805162e8e33760e81b81526001600160a01b0388811660048301528781166024830152604482018690526064820185905260006084830181905260a483018190528b821660c48401524260e4840152925193169263e8e337009261010480840193606093929083900390910190829087803b1580156123a557600080fd5b505af11580156123b9573d6000803e3d6000fd5b505050506040513d60608110156123cf57600080fd5b50505050505b505050505050565b303b1590565b600054610100900460ff16806123fc57506123fc6123dd565b8061240a575060005460ff16155b6124455760405162461bcd60e51b815260040180806020018281038252602e815260200180612cf4602e913960400191505060405180910390fd5b600054610100900460ff16158015612470576000805460ff1961ff0019909116610100171660011790555b6124786128d1565b612480612971565b80156109c0576000805461ff001916905550565b60606124e9826040518060400160405280602081526020017f5361666545524332303a206c6f772d6c6576656c2063616c6c206661696c6564815250856001600160a01b0316612a6a9092919063ffffffff16565b8051909150156106e25780806020019051602081101561250857600080fd5b50516106e25760405162461bcd60e51b815260040180806020018281038252602a815260200180612d42602a913960400191505060405180910390fd5b8015806125cb575060408051636eb1769f60e11b81523060048201526001600160a01b03848116602483015291519185169163dd62ed3e91604480820192602092909190829003018186803b15801561259d57600080fd5b505afa1580156125b1573d6000803e3d6000fd5b505050506040513d60208110156125c757600080fd5b5051155b6126065760405162461bcd60e51b8152600401808060200182810382526036815260200180612d6c6036913960400191505060405180910390fd5b604080516001600160a01b038416602482015260448082018490528251808303909101815260649091019091526020810180516001600160e01b031663095ea7b360e01b1790526106e2908490612494565b6001600160a01b038381166000908152606860205260408120549091606091161561274b57604080516003808252608082019092529060208201606080368337019050509050600080516020612cae833981519152816000815181106126ba57fe5b6001600160a01b039283166020918202929092018101919091528682166000908152606890915260409020548251911690829060019081106126f857fe5b60200260200101906001600160a01b031690816001600160a01b031681525050848160028151811061272657fe5b60200260200101906001600160a01b031690816001600160a01b0316815250506127d6565b6040805160028082526060820183529091602083019080368337019050509050600080516020612cae8339815191528160008151811061278757fe5b60200260200101906001600160a01b031690816001600160a01b03168152505084816001815181106127b557fe5b60200260200101906001600160a01b031690816001600160a01b0316815250505b6060606660009054906101000a90046001600160a01b03166001600160a01b031663a2a1623d8660008588426040518663ffffffff1660e01b81526004018085815260200180602001846001600160a01b03168152602001838152602001828103825285818151815260200191508051906020019060200280838360005b8381101561286c578181015183820152602001612854565b50505050905001955050505050506000604051808303818588803b15801561289357600080fd5b505af11580156128a7573d6000803e3d6000fd5b50505050506040513d6000823e601f3d908101601f191682016040526020811015611fdf57600080fd5b600054610100900460ff16806128ea57506128ea6123dd565b806128f8575060005460ff16155b6129335760405162461bcd60e51b815260040180806020018281038252602e815260200180612cf4602e913960400191505060405180910390fd5b600054610100900460ff16158015612480576000805460ff1961ff00199091166101001716600117905580156109c0576000805461ff001916905550565b600054610100900460ff168061298a575061298a6123dd565b80612998575060005460ff16155b6129d35760405162461bcd60e51b815260040180806020018281038252602e815260200180612cf4602e913960400191505060405180910390fd5b600054610100900460ff161580156129fe576000805460ff1961ff0019909116610100171660011790555b6000612a08611337565b603380546001600160a01b0319166001600160a01b038316908117909155604051919250906000907f8be0079c531659141344cd1fd0a4f28419497f9722a3daafe3b4186f6b6457e0908290a35080156109c0576000805461ff001916905550565b6060612a798484600085612a81565b949350505050565b606082471015612ac25760405162461bcd60e51b8152600401808060200182810382526026815260200180612cce6026913960400191505060405180910390fd5b612acb85612bdd565b612b1c576040805162461bcd60e51b815260206004820152601d60248201527f416464726573733a2063616c6c20746f206e6f6e2d636f6e7472616374000000604482015290519081900360640190fd5b60006060866001600160a01b031685876040518082805190602001908083835b60208310612b5b5780518252601f199092019160209182019101612b3c565b6001836020036101000a03801982511681845116808217855250505050505090500191505060006040518083038185875af1925050503d8060008114612bbd576040519150601f19603f3d011682016040523d82523d6000602084013e612bc2565b606091505b5091509150612bd2828286612be3565b979650505050505050565b3b151590565b60608315612bf257508161208a565b825115612c025782518084602001fd5b8160405162461bcd60e51b81526004018080602001828103825283818151815260200191508051906020019080838360005b83811015612c4c578181015183820152602001612c34565b50505050905090810190601f168015612c795780820380516001836020036101000a031916815260200191505b509250505060405180910390fdfe4f776e61626c653a206e6577206f776e657220697320746865207a65726f2061646472657373000000000000000000000000c778417e063141139fce010982780140aa0cd5ab416464726573733a20696e73756666696369656e742062616c616e636520666f722063616c6c496e697469616c697a61626c653a20636f6e747261637420697320616c726561647920696e697469616c697a65644f776e61626c653a2063616c6c6572206973206e6f7420746865206f776e65725361666545524332303a204552433230206f7065726174696f6e20646964206e6f7420737563636565645361666545524332303a20617070726f76652066726f6d206e6f6e2d7a65726f20746f206e6f6e2d7a65726f20616c6c6f77616e6365a2646970667358221220d0ef36ab98672c2ddc81ee2d4ac0b9266a45ef5996be147f9bf79e01d37bf49764736f6c634300060c0033",
  "devdoc": {
    "kind": "dev",
    "methods": {
      "owner()": {
        "details": "Returns the address of the current owner."
      },
      "renounceOwnership()": {
        "details": "Leaves the contract without owner. It will not be possible to call `onlyOwner` functions anymore. Can only be called by the current owner. NOTE: Renouncing ownership will leave the contract without an owner, thereby removing any functionality that is only available to the owner."
      },
      "transferOwnership(address)": {
        "details": "Transfers ownership of the contract to a new account (`newOwner`). Can only be called by the current owner."
      }
    },
    "version": 1
  },
  "userdoc": {
    "kind": "user",
    "methods": {},
    "version": 1
  },
  "storageLayout": {
    "storage": [
      {
        "astId": 180,
        "contract": "contracts/Zap.sol:Zap",
        "label": "_initialized",
        "offset": 0,
        "slot": "0",
        "type": "t_bool"
      },
      {
        "astId": 183,
        "contract": "contracts/Zap.sol:Zap",
        "label": "_initializing",
        "offset": 1,
        "slot": "0",
        "type": "t_bool"
      },
      {
        "astId": 43,
        "contract": "contracts/Zap.sol:Zap",
        "label": "__gap",
        "offset": 0,
        "slot": "1",
        "type": "t_array(t_uint256)50_storage"
      },
      {
        "astId": 55,
        "contract": "contracts/Zap.sol:Zap",
        "label": "_owner",
        "offset": 0,
        "slot": "51",
        "type": "t_address"
      },
      {
        "astId": 173,
        "contract": "contracts/Zap.sol:Zap",
        "label": "__gap",
        "offset": 0,
        "slot": "52",
        "type": "t_array(t_uint256)49_storage"
      },
      {
        "astId": 8538,
        "contract": "contracts/Zap.sol:Zap",
        "label": "JOE",
        "offset": 0,
        "slot": "101",
        "type": "t_address"
      },
      {
        "astId": 8549,
        "contract": "contracts/Zap.sol:Zap",
        "label": "ROUTER",
        "offset": 0,
        "slot": "102",
        "type": "t_contract(IJoeRouter02)24257"
      },
      {
        "astId": 8553,
        "contract": "contracts/Zap.sol:Zap",
        "label": "notLP",
        "offset": 0,
        "slot": "103",
        "type": "t_mapping(t_address,t_bool)"
      },
      {
        "astId": 8557,
        "contract": "contracts/Zap.sol:Zap",
        "label": "routePairAddresses",
        "offset": 0,
        "slot": "104",
        "type": "t_mapping(t_address,t_address)"
      },
      {
        "astId": 8560,
        "contract": "contracts/Zap.sol:Zap",
        "label": "tokens",
        "offset": 0,
        "slot": "105",
        "type": "t_array(t_address)dyn_storage"
      }
    ],
    "types": {
      "t_address": {
        "encoding": "inplace",
        "label": "address",
        "numberOfBytes": "20"
      },
      "t_array(t_address)dyn_storage": {
        "base": "t_address",
        "encoding": "dynamic_array",
        "label": "address[]",
        "numberOfBytes": "32"
      },
      "t_array(t_uint256)49_storage": {
        "base": "t_uint256",
        "encoding": "inplace",
        "label": "uint256[49]",
        "numberOfBytes": "1568"
      },
      "t_array(t_uint256)50_storage": {
        "base": "t_uint256",
        "encoding": "inplace",
        "label": "uint256[50]",
        "numberOfBytes": "1600"
      },
      "t_bool": {
        "encoding": "inplace",
        "label": "bool",
        "numberOfBytes": "1"
      },
      "t_contract(IJoeRouter02)24257": {
        "encoding": "inplace",
        "label": "contract IJoeRouter02",
        "numberOfBytes": "20"
      },
      "t_mapping(t_address,t_address)": {
        "encoding": "mapping",
        "key": "t_address",
        "label": "mapping(address => address)",
        "numberOfBytes": "32",
        "value": "t_address"
      },
      "t_mapping(t_address,t_bool)": {
        "encoding": "mapping",
        "key": "t_address",
        "label": "mapping(address => bool)",
        "numberOfBytes": "32",
        "value": "t_bool"
      },
      "t_uint256": {
        "encoding": "inplace",
        "label": "uint256",
        "numberOfBytes": "32"
      }
    }
  }
}