{
  "address": "0x79e31B875ef90941637910799efcF9D94E446436",
  "abi": [
    {
      "anonymous": false,
      "inputs": [
        {
          "indexed": true,
          "internalType": "address",
          "name": "previousOwner",
          "type": "address"
        },
        {
          "indexed": true,
          "internalType": "address",
          "name": "newOwner",
          "type": "address"
        }
      ],
      "name": "OwnershipTransferred",
      "type": "event"
    },
    {
      "inputs": [],
      "name": "initialize",
      "outputs": [],
      "stateMutability": "nonpayable",
      "type": "function"
    },
    {
      "inputs": [
        {
          "internalType": "address",
          "name": "_address",
          "type": "address"
        }
      ],
      "name": "isLP",
      "outputs": [
        {
          "internalType": "bool",
          "name": "",
          "type": "bool"
        }
      ],
      "stateMutability": "view",
      "type": "function"
    },
    {
      "inputs": [],
      "name": "owner",
      "outputs": [
        {
          "internalType": "address",
          "name": "",
          "type": "address"
        }
      ],
      "stateMutability": "view",
      "type": "function"
    },
    {
      "inputs": [
        {
          "internalType": "uint256",
          "name": "i",
          "type": "uint256"
        }
      ],
      "name": "removeToken",
      "outputs": [],
      "stateMutability": "nonpayable",
      "type": "function"
    },
    {
      "inputs": [],
      "name": "renounceOwnership",
      "outputs": [],
      "stateMutability": "nonpayable",
      "type": "function"
    },
    {
      "inputs": [
        {
          "internalType": "address",
          "name": "_address",
          "type": "address"
        }
      ],
      "name": "routePair",
      "outputs": [
        {
          "internalType": "address",
          "name": "",
          "type": "address"
        }
      ],
      "stateMutability": "view",
      "type": "function"
    },
    {
      "inputs": [
        {
          "internalType": "address",
          "name": "token",
          "type": "address"
        }
      ],
      "name": "setNotLP",
      "outputs": [],
      "stateMutability": "nonpayable",
      "type": "function"
    },
    {
      "inputs": [
        {
          "internalType": "address",
          "name": "asset",
          "type": "address"
        },
        {
          "internalType": "address",
          "name": "route",
          "type": "address"
        }
      ],
      "name": "setRoutePairAddress",
      "outputs": [],
      "stateMutability": "nonpayable",
      "type": "function"
    },
    {
      "inputs": [],
      "name": "sweep",
      "outputs": [],
      "stateMutability": "nonpayable",
      "type": "function"
    },
    {
      "inputs": [
        {
          "internalType": "uint256",
          "name": "",
          "type": "uint256"
        }
      ],
      "name": "tokens",
      "outputs": [
        {
          "internalType": "address",
          "name": "",
          "type": "address"
        }
      ],
      "stateMutability": "view",
      "type": "function"
    },
    {
      "inputs": [
        {
          "internalType": "address",
          "name": "newOwner",
          "type": "address"
        }
      ],
      "name": "transferOwnership",
      "outputs": [],
      "stateMutability": "nonpayable",
      "type": "function"
    },
    {
      "inputs": [
        {
          "internalType": "address",
          "name": "token",
          "type": "address"
        }
      ],
      "name": "withdraw",
      "outputs": [],
      "stateMutability": "nonpayable",
      "type": "function"
    },
    {
      "inputs": [
        {
          "internalType": "address",
          "name": "_to",
          "type": "address"
        }
      ],
      "name": "zapIn",
      "outputs": [],
      "stateMutability": "payable",
      "type": "function"
    },
    {
      "inputs": [
        {
          "internalType": "address",
          "name": "_from",
          "type": "address"
        },
        {
          "internalType": "uint256",
          "name": "amount",
          "type": "uint256"
        },
        {
          "internalType": "address",
          "name": "_to",
          "type": "address"
        }
      ],
      "name": "zapInToken",
      "outputs": [],
      "stateMutability": "nonpayable",
      "type": "function"
    },
    {
      "inputs": [
        {
          "internalType": "address",
          "name": "_from",
          "type": "address"
        },
        {
          "internalType": "uint256",
          "name": "amount",
          "type": "uint256"
        }
      ],
      "name": "zapOut",
      "outputs": [],
      "stateMutability": "nonpayable",
      "type": "function"
    },
    {
      "stateMutability": "payable",
      "type": "receive"
    }
  ],
  "transactionHash": "0xde4b9a6d7eca1ba37d047c15897482cb0c735c709b32a8bc62c7cd9c47744a55",
  "args": [],
  "solcInputHash": "0a9aed4941bbce604e76845e6fe9ffd8",
  "bytecode": "0x608060405234801561001057600080fd5b50612dbf806100206000396000f3fe6080604052600436106100ec5760003560e01c8063715018a61161008a578063985c9d5611610059578063985c9d56146102e9578063d9139f631461031c578063f2fde38b14610355578063fe47068d14610388576100f3565b8063715018a6146102635780637df0f767146102785780638129fc1c146102bf5780638da5cb5b146102d4576100f3565b806335faa416116100c657806335faa416146101ab57806336c5d724146101c05780634f64b2be146101ea57806351cff8d914610230576100f3565b80631c286c8a146100f85780631c4009f9146101355780631eff9adb14610178576100f3565b366100f357005b600080fd5b34801561010457600080fd5b506101336004803603604081101561011b57600080fd5b506001600160a01b03813581169160200135166103ae565b005b34801561014157600080fd5b506101336004803603606081101561015857600080fd5b506001600160a01b03813581169160208101359160409091013516610434565b34801561018457600080fd5b506101336004803603602081101561019b57600080fd5b50356001600160a01b03166106c9565b3480156101b757600080fd5b506101336107a0565b3480156101cc57600080fd5b50610133600480360360208110156101e357600080fd5b50356109a5565b3480156101f657600080fd5b506102146004803603602081101561020d57600080fd5b5035610ad3565b604080516001600160a01b039092168252519081900360200190f35b34801561023c57600080fd5b506101336004803603602081101561025357600080fd5b50356001600160a01b0316610afa565b34801561026f57600080fd5b50610133610ca8565b34801561028457600080fd5b506102ab6004803603602081101561029b57600080fd5b50356001600160a01b0316610d4a565b604080519115158252519081900360200190f35b3480156102cb57600080fd5b50610133610d69565b3480156102e057600080fd5b50610214610ee6565b3480156102f557600080fd5b506102146004803603602081101561030c57600080fd5b50356001600160a01b0316610ef5565b34801561032857600080fd5b506101336004803603604081101561033f57600080fd5b506001600160a01b038135169060200135610f13565b34801561036157600080fd5b506101336004803603602081101561037857600080fd5b50356001600160a01b0316611205565b6101336004803603602081101561039e57600080fd5b50356001600160a01b03166112fe565b6103b6611309565b6033546001600160a01b03908116911614610406576040805162461bcd60e51b81526020600482018190526024820152600080516020612d0a833981519152604482015290519081900360640190fd5b6001600160a01b03918216600090815260666020526040902080546001600160a01b03191691909216179055565b6104496001600160a01b03841633308561130d565b61045283611367565b61045b81610d4a565b156106b65760008190506000816001600160a01b0316630dfe16816040518163ffffffff1660e01b815260040160206040518083038186803b1580156104a057600080fd5b505afa1580156104b4573d6000803e3d6000fd5b505050506040513d60208110156104ca57600080fd5b50516040805163d21220a760e01b815290519192506000916001600160a01b0385169163d21220a7916004808301926020929190829003018186803b15801561051257600080fd5b505afa158015610526573d6000803e3d6000fd5b505050506040513d602081101561053c57600080fd5b505190506001600160a01b03868116908316148061056b5750806001600160a01b0316866001600160a01b0316145b15610692576000826001600160a01b0316876001600160a01b0316146105915782610593565b815b905061059e81611367565b60006105ab876002611421565b905060006105bb89838530611488565b9050734a586daa5d5edcd8182339c24291fb510fa4d27163e8e337008a856105e38c87611cee565b604080516001600160e01b031960e087901b1681526001600160a01b03948516600482015292909316602483015260448201526064810185905260006084820181905260a482018190523360c48301524260e483015291516101048083019360609383900390910190829087803b15801561065d57600080fd5b505af1158015610671573d6000803e3d6000fd5b505050506040513d606081101561068757600080fd5b506106ae9350505050565b600061069f878730611d4b565b90506106ac85823361207c565b505b5050506106c4565b6106c283838333611488565b505b505050565b6106d1611309565b6033546001600160a01b03908116911614610721576040805162461bcd60e51b81526020600482018190526024820152600080516020612d0a833981519152604482015290519081900360640190fd5b6001600160a01b0381166000908152606560205260409020805460ff19811660011790915560ff1615801561079c57606780546001810182556000919091527f9787eeb91fe3101235e4a76063c7023ecb40f923f97916639c598592fa30d6ae0180546001600160a01b0319166001600160a01b0384161790555b5050565b6107a8611309565b6033546001600160a01b039081169116146107f8576040805162461bcd60e51b81526020600482018190526024820152600080516020612d0a833981519152604482015290519081900360640190fd5b60005b60675481101561095a5760006067828154811061081457fe5b6000918252602090912001546001600160a01b03169050806108365750610952565b6000816001600160a01b03166370a08231306040518263ffffffff1660e01b815260040180826001600160a01b0316815260200191505060206040518083038186803b15801561088557600080fd5b505afa158015610899573d6000803e3d6000fd5b505050506040513d60208110156108af57600080fd5b50519050801561094f576001600160a01b038216600080516020612c96833981519152141561093b57816001600160a01b0316632e1a7d4d826040518263ffffffff1660e01b815260040180828152602001915050600060405180830381600087803b15801561091e57600080fd5b505af1158015610932573d6000803e3d6000fd5b5050505061094f565b61094d8282610948610ee6565b611d4b565b505b50505b6001016107fb565b504780156109a25761096a610ee6565b6001600160a01b03166108fc829081150290604051600060405180830381858888f1935050505015801561079c573d6000803e3d6000fd5b50565b6109ad611309565b6033546001600160a01b039081169116146109fd576040805162461bcd60e51b81526020600482018190526024820152600080516020612d0a833981519152604482015290519081900360640190fd5b600060678281548110610a0c57fe5b60009182526020808320909101546001600160a01b031680835260659091526040909120805460ff1916905560678054919250906000198101908110610a4e57fe5b600091825260209091200154606780546001600160a01b039092169184908110610a7457fe5b9060005260206000200160006101000a8154816001600160a01b0302191690836001600160a01b031602179055506067805480610aad57fe5b600082815260209020810160001990810180546001600160a01b03191690550190555050565b60678181548110610ae057fe5b6000918252602090912001546001600160a01b0316905081565b610b02611309565b6033546001600160a01b03908116911614610b52576040805162461bcd60e51b81526020600482018190526024820152600080516020612d0a833981519152604482015290519081900360640190fd5b6001600160a01b038116610ba657610b68610ee6565b6001600160a01b03166108fc479081150290604051600060405180830381858888f19350505050158015610ba0573d6000803e3d6000fd5b506109a2565b806001600160a01b031663a9059cbb610bbd610ee6565b604080516370a0823160e01b815230600482015290516001600160a01b038616916370a08231916024808301926020929190829003018186803b158015610c0357600080fd5b505afa158015610c17573d6000803e3d6000fd5b505050506040513d6020811015610c2d57600080fd5b5051604080516001600160e01b031960e086901b1681526001600160a01b03909316600484015260248301919091525160448083019260209291908290030181600087803b158015610c7e57600080fd5b505af1158015610c92573d6000803e3d6000fd5b505050506040513d60208110156106c457600080fd5b610cb0611309565b6033546001600160a01b03908116911614610d00576040805162461bcd60e51b81526020600482018190526024820152600080516020612d0a833981519152604482015290519081900360640190fd5b6033546040516000916001600160a01b0316907f8be0079c531659141344cd1fd0a4f28419497f9722a3daafe3b4186f6b6457e0908390a3603380546001600160a01b0319169055565b6001600160a01b031660009081526065602052604090205460ff161590565b600054610100900460ff1680610d825750610d826123e1565b80610d90575060005460ff16155b610dcb5760405162461bcd60e51b815260040180806020018281038252602e815260200180612cdc602e913960400191505060405180910390fd5b600054610100900460ff16158015610df6576000805460ff1961ff0019909116610100171660011790555b610dfe6123e7565b6000610e08610ee6565b6001600160a01b03161415610e64576040805162461bcd60e51b815260206004820152601960248201527f5a61704554483a206f776e6572206d7573742062652073657400000000000000604482015290519081900360640190fd5b610e7b600080516020612c968339815191526106c9565b610e98739ad6c38be94206ca50bb0d90783181662f0cfa106106c9565b610eb573ddf06d89c908bc38e03067d65408d632fda4fd9d6106c9565b610ed2739ad6c38be94206ca50bb0d90783181662f0cfa106106c9565b80156109a2576000805461ff001916905550565b6033546001600160a01b031690565b6001600160a01b039081166000908152606660205260409020541690565b610f286001600160a01b03831633308461130d565b610f3182611367565b610f3a82610d4a565b610f4f57610f49828233611d4b565b5061079c565b60008290506000816001600160a01b0316630dfe16816040518163ffffffff1660e01b815260040160206040518083038186803b158015610f8f57600080fd5b505afa158015610fa3573d6000803e3d6000fd5b505050506040513d6020811015610fb957600080fd5b50516040805163d21220a760e01b815290519192506000916001600160a01b0385169163d21220a7916004808301926020929190829003018186803b15801561100157600080fd5b505afa158015611015573d6000803e3d6000fd5b505050506040513d602081101561102b57600080fd5b505190506001600160a01b038216600080516020612c96833981519152148061106a57506001600160a01b038116600080516020612c96833981519152145b1561114b57734a586daa5d5edcd8182339c24291fb510fa4d2716333c6b7256001600160a01b038416600080516020612c9683398151915214156110ae57826110b0565b835b604080516001600160e01b031960e085901b1681526001600160a01b03909216600483015260248201889052600060448301819052606483018190523360848401524260a4840152815160c4808501949192918390030190829087803b15801561111957600080fd5b505af115801561112d573d6000803e3d6000fd5b505050506040513d604081101561114357600080fd5b506111fe9050565b60408051635d5155ef60e11b81526001600160a01b0384811660048301528316602482015260448101869052600060648201819052608482018190523360a48301524260c48301528251734a586daa5d5edcd8182339c24291fb510fa4d2719363baa2abde9360e480820194929392918390030190829087803b1580156111d157600080fd5b505af11580156111e5573d6000803e3d6000fd5b505050506040513d60408110156111fb57600080fd5b50505b5050505050565b61120d611309565b6033546001600160a01b0390811691161461125d576040805162461bcd60e51b81526020600482018190526024820152600080516020612d0a833981519152604482015290519081900360640190fd5b6001600160a01b0381166112a25760405162461bcd60e51b8152600401808060200182810382526026815260200180612c706026913960400191505060405180910390fd5b6033546040516001600160a01b038084169216907f8be0079c531659141344cd1fd0a4f28419497f9722a3daafe3b4186f6b6457e090600090a3603380546001600160a01b0319166001600160a01b0392909216919091179055565b6109a281343361207c565b3390565b604080516001600160a01b0380861660248301528416604482015260648082018490528251808303909101815260849091019091526020810180516001600160e01b03166323b872dd60e01b1790526106c2908590612484565b60408051636eb1769f60e11b8152306004820152734a586daa5d5edcd8182339c24291fb510fa4d271602482015290516001600160a01b0383169163dd62ed3e916044808301926020929190829003018186803b1580156113c757600080fd5b505afa1580156113db573d6000803e3d6000fd5b505050506040513d60208110156113f157600080fd5b50516109a2576109a26001600160a01b038216734a586daa5d5edcd8182339c24291fb510fa4d271600019612535565b6000808211611477576040805162461bcd60e51b815260206004820152601a60248201527f536166654d6174683a206469766973696f6e206279207a65726f000000000000604482015290519081900360640190fd5b81838161148057fe5b049392505050565b6001600160a01b03808516600090815260666020526040812054909116806114c757506001600160a01b03808416600090815260666020526040902054165b60606001600160a01b0382161580159061151757506001600160a01b038716600080516020612c96833981519152148061151757506001600160a01b038516600080516020612c96833981519152145b156115dd57600360005b5060405190808252806020026020018201604052801561154b578160200160208202803683370190505b509050868160008151811061155c57fe5b60200260200101906001600160a01b031690816001600160a01b031681525050818160018151811061158a57fe5b60200260200101906001600160a01b031690816001600160a01b03168152505084816002815181106115b857fe5b60200260200101906001600160a01b031690816001600160a01b031681525050611b3a565b6001600160a01b038216158015906116215750816001600160a01b0316876001600160a01b031614806116215750816001600160a01b0316856001600160a01b0316145b1561169457600260005b50604051908082528060200260200182016040528015611655578160200160208202803683370190505b509050868160008151811061166657fe5b60200260200101906001600160a01b031690816001600160a01b03168152505084816001815181106115b857fe5b6001600160a01b038216158015906116d057506001600160a01b03808616600090815260666020526040808220548a8416835291205482169116145b156116de5760036000611521565b6001600160a01b03878116600090815260666020526040902054161580159061172057506001600160a01b038581166000908152606660205260409020541615155b801561175157506001600160a01b03808616600090815260666020526040808220548a841683529120548216911614155b1561186b5760408051600580825260c08201909252906020820160a080368337019050509050868160008151811061178557fe5b6001600160a01b039283166020918202929092018101919091528882166000908152606690915260409020548251911690829060019081106117c357fe5b60200260200101906001600160a01b031690816001600160a01b031681525050600080516020612c96833981519152816002815181106117ff57fe5b6001600160a01b0392831660209182029290920181019190915286821660009081526066909152604090205482519116908290600390811061183d57fe5b60200260200101906001600160a01b031690816001600160a01b03168152505084816004815181106115b857fe5b6001600160a01b0382161580159061189c57506001600160a01b038781166000908152606660205260409020541615155b156119685760408051600480825260a08201909252906020820160808036833701905050905086816000815181106118d057fe5b60200260200101906001600160a01b031690816001600160a01b03168152505081816001815181106118fe57fe5b60200260200101906001600160a01b031690816001600160a01b031681525050600080516020612c968339815191528160028151811061193a57fe5b60200260200101906001600160a01b031690816001600160a01b03168152505084816003815181106115b857fe5b6001600160a01b0382161580159061199957506001600160a01b038581166000908152606660205260409020541615155b15611a375760408051600480825260a08201909252906020820160808036833701905050905086816000815181106119cd57fe5b60200260200101906001600160a01b031690816001600160a01b031681525050600080516020612c9683398151915281600181518110611a0957fe5b60200260200101906001600160a01b031690816001600160a01b031681525050818160028151811061193a57fe5b6001600160a01b038716600080516020612c968339815191521480611a7257506001600160a01b038516600080516020612c96833981519152145b15611a80576002600061162b565b6040805160038082526080820190925290602082016060803683370190505090508681600081518110611aaf57fe5b60200260200101906001600160a01b031690816001600160a01b031681525050600080516020612c9683398151915281600181518110611aeb57fe5b60200260200101906001600160a01b031690816001600160a01b0316815250508481600281518110611b1957fe5b60200260200101906001600160a01b031690816001600160a01b0316815250505b6060734a586daa5d5edcd8182339c24291fb510fa4d2716001600160a01b03166338ed17398860008589426040518663ffffffff1660e01b81526004018086815260200185815260200180602001846001600160a01b03168152602001838152602001828103825285818151815260200191508051906020019060200280838360005b83811015611bd5578181015183820152602001611bbd565b505050509050019650505050505050600060405180830381600087803b158015611bfe57600080fd5b505af1158015611c12573d6000803e3d6000fd5b505050506040513d6000823e601f3d908101601f191682016040526020811015611c3b57600080fd5b8101908080516040519392919084640100000000821115611c5b57600080fd5b908301906020820185811115611c7057600080fd5b8251866020820283011164010000000082111715611c8d57600080fd5b82525081516020918201928201910280838360005b83811015611cba578181015183820152602001611ca2565b50505050905001604052505050905080600182510381518110611cd957fe5b60200260200101519350505050949350505050565b600082821115611d45576040805162461bcd60e51b815260206004820152601e60248201527f536166654d6174683a207375627472616374696f6e206f766572666c6f770000604482015290519081900360640190fd5b50900390565b6001600160a01b0383811660009081526066602052604081205490916060911615611e3e576040805160038082526080820190925290602082016060803683370190505090508481600081518110611d9f57fe5b6001600160a01b03928316602091820292909201810191909152868216600090815260669091526040902054825191169082906001908110611ddd57fe5b60200260200101906001600160a01b031690816001600160a01b031681525050600080516020612c9683398151915281600281518110611e1957fe5b60200260200101906001600160a01b031690816001600160a01b031681525050611ec9565b60408051600280825260608201835290916020830190803683370190505090508481600081518110611e6c57fe5b60200260200101906001600160a01b031690816001600160a01b031681525050600080516020612c9683398151915281600181518110611ea857fe5b60200260200101906001600160a01b031690816001600160a01b0316815250505b6060734a586daa5d5edcd8182339c24291fb510fa4d2716001600160a01b031663676528d18660008588426040518663ffffffff1660e01b81526004018086815260200185815260200180602001846001600160a01b03168152602001838152602001828103825285818151815260200191508051906020019060200280838360005b83811015611f64578181015183820152602001611f4c565b505050509050019650505050505050600060405180830381600087803b158015611f8d57600080fd5b505af1158015611fa1573d6000803e3d6000fd5b505050506040513d6000823e601f3d908101601f191682016040526020811015611fca57600080fd5b8101908080516040519392919084640100000000821115611fea57600080fd5b908301906020820185811115611fff57600080fd5b825186602082028301116401000000008211171561201c57600080fd5b82525081516020918201928201910280838360005b83811015612049578181015183820152602001612031565b5050505090500160405250505090508060018251038151811061206857fe5b6020026020010151925050505b9392505050565b61208583610d4a565b61209a57612094838383612648565b506106c4565b60008390506000816001600160a01b0316630dfe16816040518163ffffffff1660e01b815260040160206040518083038186803b1580156120da57600080fd5b505afa1580156120ee573d6000803e3d6000fd5b505050506040513d602081101561210457600080fd5b50516040805163d21220a760e01b815290519192506000916001600160a01b0385169163d21220a7916004808301926020929190829003018186803b15801561214c57600080fd5b505afa158015612160573d6000803e3d6000fd5b505050506040513d602081101561217657600080fd5b505190506001600160a01b038216600080516020612c9683398151915214806121b557506001600160a01b038116600080516020612c96833981519152145b156122ce5760006001600160a01b038316600080516020612c96833981519152146121e057826121e2565b815b905060006121f1876002611421565b90506000612200838330612648565b905061220b83611367565b734a586daa5d5edcd8182339c24291fb510fa4d27163f91b3f7261222f8a85611cee565b604080516001600160e01b031960e085901b1681526001600160a01b0380891660048301526024820187905260006044830181905260648301528c1660848201524260a4820152905160c480830192606092919082900301818588803b15801561229857600080fd5b505af11580156122ac573d6000803e3d6000fd5b50505050506040513d60608110156122c357600080fd5b506123d99350505050565b60006122db866002611421565b905060006122ea848330612648565b90506000612302846122fc8a86611cee565b30612648565b905061230d85611367565b61231684611367565b6040805162e8e33760e81b81526001600160a01b0387811660048301528681166024830152604482018590526064820184905260006084830181905260a48301819052908a1660c48301524260e48301529151734a586daa5d5edcd8182339c24291fb510fa4d2719263e8e337009261010480820193606093909283900390910190829087803b1580156123a957600080fd5b505af11580156123bd573d6000803e3d6000fd5b505050506040513d60608110156123d357600080fd5b50505050505b505050505050565b303b1590565b600054610100900460ff168061240057506124006123e1565b8061240e575060005460ff16155b6124495760405162461bcd60e51b815260040180806020018281038252602e815260200180612cdc602e913960400191505060405180910390fd5b600054610100900460ff16158015612474576000805460ff1961ff0019909116610100171660011790555b61247c6128b9565b610ed2612959565b60606124d9826040518060400160405280602081526020017f5361666545524332303a206c6f772d6c6576656c2063616c6c206661696c6564815250856001600160a01b0316612a529092919063ffffffff16565b8051909150156106c4578080602001905160208110156124f857600080fd5b50516106c45760405162461bcd60e51b815260040180806020018281038252602a815260200180612d2a602a913960400191505060405180910390fd5b8015806125bb575060408051636eb1769f60e11b81523060048201526001600160a01b03848116602483015291519185169163dd62ed3e91604480820192602092909190829003018186803b15801561258d57600080fd5b505afa1580156125a1573d6000803e3d6000fd5b505050506040513d60208110156125b757600080fd5b5051155b6125f65760405162461bcd60e51b8152600401808060200182810382526036815260200180612d546036913960400191505060405180910390fd5b604080516001600160a01b038416602482015260448082018490528251808303909101815260649091019091526020810180516001600160e01b031663095ea7b360e01b1790526106c4908490612484565b6001600160a01b038381166000908152606660205260408120549091606091161561273b57604080516003808252608082019092529060208201606080368337019050509050600080516020612c96833981519152816000815181106126aa57fe5b6001600160a01b039283166020918202929092018101919091528682166000908152606690915260409020548251911690829060019081106126e857fe5b60200260200101906001600160a01b031690816001600160a01b031681525050848160028151811061271657fe5b60200260200101906001600160a01b031690816001600160a01b0316815250506127c6565b6040805160028082526060820183529091602083019080368337019050509050600080516020612c968339815191528160008151811061277757fe5b60200260200101906001600160a01b031690816001600160a01b03168152505084816001815181106127a557fe5b60200260200101906001600160a01b031690816001600160a01b0316815250505b60405163a2a1623d60e01b81526000600482018181526001600160a01b03861660448401524260648401819052608060248501908152855160848601528551606095734a586daa5d5edcd8182339c24291fb510fa4d2719563a2a1623d958c9591948a948d9460a40190602080880191028083838b5b8381101561285457818101518382015260200161283c565b50505050905001955050505050506000604051808303818588803b15801561287b57600080fd5b505af115801561288f573d6000803e3d6000fd5b50505050506040513d6000823e601f3d908101601f191682016040526020811015611fca57600080fd5b600054610100900460ff16806128d257506128d26123e1565b806128e0575060005460ff16155b61291b5760405162461bcd60e51b815260040180806020018281038252602e815260200180612cdc602e913960400191505060405180910390fd5b600054610100900460ff16158015610ed2576000805460ff1961ff00199091166101001716600117905580156109a2576000805461ff001916905550565b600054610100900460ff168061297257506129726123e1565b80612980575060005460ff16155b6129bb5760405162461bcd60e51b815260040180806020018281038252602e815260200180612cdc602e913960400191505060405180910390fd5b600054610100900460ff161580156129e6576000805460ff1961ff0019909116610100171660011790555b60006129f0611309565b603380546001600160a01b0319166001600160a01b038316908117909155604051919250906000907f8be0079c531659141344cd1fd0a4f28419497f9722a3daafe3b4186f6b6457e0908290a35080156109a2576000805461ff001916905550565b6060612a618484600085612a69565b949350505050565b606082471015612aaa5760405162461bcd60e51b8152600401808060200182810382526026815260200180612cb66026913960400191505060405180910390fd5b612ab385612bc5565b612b04576040805162461bcd60e51b815260206004820152601d60248201527f416464726573733a2063616c6c20746f206e6f6e2d636f6e7472616374000000604482015290519081900360640190fd5b60006060866001600160a01b031685876040518082805190602001908083835b60208310612b435780518252601f199092019160209182019101612b24565b6001836020036101000a03801982511681845116808217855250505050505090500191505060006040518083038185875af1925050503d8060008114612ba5576040519150601f19603f3d011682016040523d82523d6000602084013e612baa565b606091505b5091509150612bba828286612bcb565b979650505050505050565b3b151590565b60608315612bda575081612075565b825115612bea5782518084602001fd5b8160405162461bcd60e51b81526004018080602001828103825283818151815260200191508051906020019080838360005b83811015612c34578181015183820152602001612c1c565b50505050905090810190601f168015612c615780820380516001836020036101000a031916815260200191505b509250505060405180910390fdfe4f776e61626c653a206e6577206f776e657220697320746865207a65726f2061646472657373000000000000000000000000c778417e063141139fce010982780140aa0cd5ab416464726573733a20696e73756666696369656e742062616c616e636520666f722063616c6c496e697469616c697a61626c653a20636f6e747261637420697320616c726561647920696e697469616c697a65644f776e61626c653a2063616c6c6572206973206e6f7420746865206f776e65725361666545524332303a204552433230206f7065726174696f6e20646964206e6f7420737563636565645361666545524332303a20617070726f76652066726f6d206e6f6e2d7a65726f20746f206e6f6e2d7a65726f20616c6c6f77616e6365a264697066735822122081528884d55af7bd681bb12585e0f993073d57ccdab1d58def08dd2b0fa3cb6264736f6c634300060c0033",
  "devdoc": {
    "kind": "dev",
    "methods": {
      "owner()": {
        "details": "Returns the address of the current owner."
      },
      "renounceOwnership()": {
        "details": "Leaves the contract without owner. It will not be possible to call `onlyOwner` functions anymore. Can only be called by the current owner. NOTE: Renouncing ownership will leave the contract without an owner, thereby removing any functionality that is only available to the owner."
      },
      "transferOwnership(address)": {
        "details": "Transfers ownership of the contract to a new account (`newOwner`). Can only be called by the current owner."
      }
    },
    "version": 1
  },
  "userdoc": {
    "kind": "user",
    "methods": {},
    "version": 1
  },
  "storageLayout": {
    "storage": [
      {
        "astId": 180,
        "contract": "contracts/Zap.sol:Zap",
        "label": "_initialized",
        "offset": 0,
        "slot": "0",
        "type": "t_bool"
      },
      {
        "astId": 183,
        "contract": "contracts/Zap.sol:Zap",
        "label": "_initializing",
        "offset": 1,
        "slot": "0",
        "type": "t_bool"
      },
      {
        "astId": 43,
        "contract": "contracts/Zap.sol:Zap",
        "label": "__gap",
        "offset": 0,
        "slot": "1",
        "type": "t_array(t_uint256)50_storage"
      },
      {
        "astId": 55,
        "contract": "contracts/Zap.sol:Zap",
        "label": "_owner",
        "offset": 0,
        "slot": "51",
        "type": "t_address"
      },
      {
        "astId": 173,
        "contract": "contracts/Zap.sol:Zap",
        "label": "__gap",
        "offset": 0,
        "slot": "52",
        "type": "t_array(t_uint256)49_storage"
      },
      {
        "astId": 8389,
        "contract": "contracts/Zap.sol:Zap",
        "label": "notLP",
        "offset": 0,
        "slot": "101",
        "type": "t_mapping(t_address,t_bool)"
      },
      {
        "astId": 8393,
        "contract": "contracts/Zap.sol:Zap",
        "label": "routePairAddresses",
        "offset": 0,
        "slot": "102",
        "type": "t_mapping(t_address,t_address)"
      },
      {
        "astId": 8396,
        "contract": "contracts/Zap.sol:Zap",
        "label": "tokens",
        "offset": 0,
        "slot": "103",
        "type": "t_array(t_address)dyn_storage"
      }
    ],
    "types": {
      "t_address": {
        "encoding": "inplace",
        "label": "address",
        "numberOfBytes": "20"
      },
      "t_array(t_address)dyn_storage": {
        "base": "t_address",
        "encoding": "dynamic_array",
        "label": "address[]",
        "numberOfBytes": "32"
      },
      "t_array(t_uint256)49_storage": {
        "base": "t_uint256",
        "encoding": "inplace",
        "label": "uint256[49]",
        "numberOfBytes": "1568"
      },
      "t_array(t_uint256)50_storage": {
        "base": "t_uint256",
        "encoding": "inplace",
        "label": "uint256[50]",
        "numberOfBytes": "1600"
      },
      "t_bool": {
        "encoding": "inplace",
        "label": "bool",
        "numberOfBytes": "1"
      },
      "t_mapping(t_address,t_address)": {
        "encoding": "mapping",
        "key": "t_address",
        "label": "mapping(address => address)",
        "numberOfBytes": "32",
        "value": "t_address"
      },
      "t_mapping(t_address,t_bool)": {
        "encoding": "mapping",
        "key": "t_address",
        "label": "mapping(address => bool)",
        "numberOfBytes": "32",
        "value": "t_bool"
      },
      "t_uint256": {
        "encoding": "inplace",
        "label": "uint256",
        "numberOfBytes": "32"
      }
    }
  }
}